:020000022000DC
:1070000000000420197202000172020003720200E3
:1070100005720200077202000972020000000000FF
:107020000000000000000000000000000B720200E1
:107030000D720200000000000F72020011720200C7
:10704000C9C604009DFA0200D9C6040079C904002B
:107050008DCB04001372020025C0040013720200DD
:10706000137202005D01030013720200137202002A
:1070700013720200137202001372020013720200F4
:107080001372020025ED0400137202001372020055
:107090001372020005980200C527050095FB020047
:1070A0001372020013720200E910030055EE020091
:1070B0004DC80400858802000000000000000000A8
:1070C00013720200137202001372020013720200A4
:1070D00013720200D5860200137202001DE2040042
:1070E000137202001372020013720200000000000B
:1070F0000000000013720200000000001372020082
:10710000000000000000000000000000000000007F
:10711000000000000000000000000000000000006F
:10712000000000000000000000000000000000005F
:10713000000000000000000000000000000000004F
:10714000000000000000000000000000000000003F
:10715000000000000000000000000000000000002F
:10716000000000000000000000000000000000001F
:10717000000000000000000000000000000000000F
:1071800000000000000000000000000000000000FF
:1071900000000000000000000000000000000000EF
:1071A00000000000000000000000000000000000DF
:1071B00000000000000000000000000000000000CF
:1071C00000000000000000000000000000000000BF
:1071D00000000000000000000000000000000000AF
:1071E000000000000000000000000000000000009F
:1071F000000000000000000000000000000000008F
:10720000FEE7FEE7FEE7FEE7FEE7FEE7FEE7FEE756
:10721000FEE7FEE700F002B8FFF7FCBF0F484FF0B3
:107220000701884385460E4880470E48016841F4AF
:1072300070010160BFF34F8FBFF36F8F00F01AB87A
:1072400009480A490A4A884207D0521A05D00378E9
:1072500001300B700131013AF9D170470000042070
:10726000A914030088ED00E0A06805005037002055
:1072700064370020344935480A1A02D00722914366
:107280008D46334933480A1A06D00722914381F3C9
:107290000988022282F314882F483049304A00F0CE
:1072A00041F830483049314A00F03CF83048314923
:1072B000314A00F037F831483149324A00F032F8AB
:1072C00031483249324A00F02DF832483249334AC7
:1072D00000F028F832483349334A00F023F83348A5
:1072E0003349002200F029F832483349002200F0E7
:1072F00024F832483249091A2FF0C4F9314A90472C
:107300001F482049884205D00268043003B49047E2
:1073100003BCF7E700208646EC46002000212A4AFD
:107320009047FEE7884207D0521A05D00378013013
:107330000B700131013AF9D17047884202D00270D6
:107340000130FAE7704700000000042000830320AA
:1073500000000420000004203825060064370020C7
:1073600054380020CC730200CC730200D8660500AC
:10737000382506006437002064370020B468050013
:10738000B4680500B4680500B4680500B468050079
:10739000B4680500B4680500B4680500302506002F
:1073A0002826060054380020543800205438002085
:1073B000B8DE0120B8DE0120B8DE0120B8DE0120F1
:0C73C000389A02204172020049140300B8
:1073CC001149124A0B7812789A421BD010B4C3EBB5
:1073DC0003120F4C03EB0212224402600D4A581C9C
:1073EC00C3EB031C03EB0C13A2FB00C25209C2EB50
:1073FC0002121C44A0EB82030B7094F8F0005DF8B1
:10740C00044B704700207047D4700020D6700020C9
:10741C0058380020898888882DE9F04F0C4683B0B5
:10742C00002975D03D4A3E49DFF80CA1DFF80CB1BC
:10743C00521AD208120442F005030193002380462D
:10744C00009304E0651BACB2C844002C3ED09AF803
:10745C0000609BF80070334BC6F1F005A542A8BF45
:10746C002546F12010FB07601FFA85F92E44F6B271
:10747C0018444A4641462EF099FBF02E8AF80060DB
:10748C004D46DFD1284B7A1CA3FB02014909C1EB05
:10749C000111244BA2EB8102C7EB071107EB01177B
:1074AC001F44224B87F8F0601978D2B20026914223
:1074BC008BF800208AF800600CD0009B651B013310
:1074CC00DBB2ACB20093C844002CC0D1009803B01E
:1074DC00BDE8F08F164901982AF05EF8012231467A
:1074EC00104607F0B5FD114B0F491A7811480132BF
:1074FC00A1FB02614909C1EB0111A2EB81021A70D7
:10750C000268F0320260426842F100024260D4E745
:10751C000091009803B0BDE8F08F00BFE067050054
:10752C00A06705005838002089888888D47000200E
:10753C00B468050040C30020D5700020D670002030
:10754C002DE9F04F2DED028B87B0037A0290002BC2
:10755C0040F00081029B5B68002B00F0BB80DFF8E1
:10756C0044A39AF80030002B00F0D780BB4FBC4DE1
:10757C00BC4E2A883B88B3FBF2F3326893FBF2F8DB
:10758C0002FB1833002B40F0BD8008F0BBFDD6F891
:10759C0000B0029BDFF810935968B3480FFA88F5D6
:1075AC000BFB05F252002EF001FB99F80030002B7A
:1075BC0040F099801FFA88F808F072FD074620B950
:1075CC009AF80030002B40F0E480A84A99F800109B
:1075DC0013685B191360536843EBE5735360002920
:1075EC0068D03368012B03D0002026F009FF3368E4
:1075FC009D499F489F4FDFF8B4B2DFF8B49205FB6A
:10760C0003F35A0006F04EFA9B4B9C4A984DA3EBA1
:10761C00020A4FEADA0A4FEA0A4A4AF0050308EE70
:10762C00103A00230393284606F02AFA3A88336866
:10763C0002FB03F3B0EB430F45D3002B19DDDFF84E
:10764C0028A24FF00008284606F062FA60F30704FF
:10765C00284606F05DFA3A88336824B260F30F24AA
:10766C0008F1010802FB03F324B243452AF8024B4C
:10767C00E9DCF02300937C49DBF800004B461BF05F
:10768C007BFB03B2002B5BDB7D4A8DF81700136884
:10769C00012101330DF117001360FFF7BDFE9DF8BA
:1076AC00171080464846FFF7B7FE48EA0000C3B201
:1076BC000393B8E731686C4811FB05F1490089B2B6
:1076CC00FFF7AAFE039008F01DFD039B13B10120E8
:1076DC0006F0C0F9029B1B78002B46D107B0BDEC1D
:1076EC00028BBDE8F08F3988624F3A888A423FF4AA
:1076FC0061AF5D485B4609F02BFEB7F80080B7F927
:10770C00005059E7002026F07BFE2A883B88B3FB0B
:10771C00F2F3326893FBF2F837E708F0F3FC564BC0
:10772C00584902465548181AC008000440F0050094
:10773C002AF00AF802F0F4FA01238AF8003015E76F
:10774C00184611F015FC5049024618EE100A29F0A3
:10775C00FBFF68E7494B48484C49C01AC008000475
:10776C0040F0050029F018FFF4E6494A3B4913683C
:10777C0048480988B3FA83F35B0941F28C3404FB63
:10778C000300136007B0BDEC028BBDE8F04F01F0B5
:10779C0087B908F0B3FDDFF81CA13F4BDFF818B137
:1077AC00B3F800C0BBF80020DAF800300392DAF826
:1077BC000420A3FB0C3E0CFB02EE039A9B184EF12B
:1077CC00000E83427EEB010E2EDB08F097FD324B50
:1077DC00BBF800C01A88DAF8003007EE901ADAF815
:1077EC000410A3FB02E3CCF1000C02FB01331EEBF3
:1077FC000C0E17EE902A43EBEC7370459A4128DB84
:10780C00264B1B78002B7FF4E0AEDAF80030DB1B44
:10781C00CAF80030DAF80430B84463EBE7730FFAB7
:10782C0088F5CAF80430D0E64FF0FF3B5F4608F00D
:10783C0053FC124BCDF800B002460F481849C01A41
:10784C00C0080004DAF8003040F005002AF044F9D2
:10785C00D6E74FF0010B5F46E9E700BFD870002078
:10786C0078370020DC70002050C3002048C3002073
:10787C00D8780020EA700020E0670500A0670500BA
:10788C00D4780020FC68050050690500E868050004
:10789C0038C30020149C0020CE780020D078002023
:1078AC0014690500F0D60020D1780020C87800209B
:1078BC00F8700020E8D6002054380020014B1878CE
:1078CC00704700BFF0D600200048704700D0014040
:1078DC002DE9F041334A344B344D3549354C0320B6
:1078EC0084B00027C2F8340733481F7042F22832A4
:1078FC0006F0BEF895E80700304B01AEE41A86E8B6
:10790C000700E40808F0E8FB240444F005040246F0
:10791C002B490123204629F0F7FF08F0DDFB29490C
:10792C0002464FF00463204629F0EEFF08F0D4FB2A
:10793C00254902465023204629F0E6FF08F0CCFBEF
:10794C00224902465023204629F0DEFF08F0C4FBF2
:10795C001F4902460123204629F0D6FF1D4B4FF04C
:10796C000108A3F8008008F0B7FB434602461A4909
:10797C00204629F0C9FF194A4FF00463CDE90123D1
:10798C0045F2500206238DF80E30ADF80C2096E827
:10799C000700134B1F70134B85E807001F7004B0D2
:1079AC00BDE8F08100030050D0780020EC7000207E
:1079BC00EC780020E0670500D8780020A06705006F
:1079CC006C69050090690500BC690500E469050057
:1079DC00106A050078370020406A050001000E107F
:1079EC00D1780020CD780020000000002DE9F04F68
:1079FC00884B894C1B7885B0002B40F01983874B42
:107A0C00E41AE408240444F0050408F065FB8449F6
:107A1C00844E854F0246204629F096FE834A844BBD
:107A2C008449854800251570844A1D70844B0D705F
:107A3C001570844901221A7000220023C6E9002324
:107A4C00C1E90023C7E9002306F0A8F87E497F4866
:107A5C0000F098FF7D497E4A2B460D78C5F1020552
:107A6C0015607C4A16787C4AC2F820654A6800206A
:107A7C0001212DF0F3FE02460B46784800212DF033
:107A8C00EDFE002E40F06382402200232DF0E6FE36
:107A9C002CF006FBDFF8E0B1714B06460F460022D6
:107AAC00CBE900672CF054F86E4B00222CF0E8F870
:107ABC0041EC100B2CF024FD51EC100B2CF032FA95
:107ACC00694B10FB05F01880684B4FF0000883F8E9
:107ADC000080304647A3D3E9002339462CF034F814
:107AEC002CF020FA80EAE075A5EBE075604B0022E3
:107AFC00304639462CF028F82CF014FA0028B8BF80
:107B0C00404285425B4B4FF0000230463946BABFCB
:107B1C004FF0010842F6E0654FF4FA552CF014F8DA
:107B2C002CF000FA80EAE079A9EBE07928462CF0F9
:107B3C0071FA02460B46304639462CF005F82CF00B
:107B4C00F1F90028B8BF40428145C24605DA4FF42E
:107B5C007A554FF001084FF0020A28A3D3E900230D
:107B6C00304639462BF0F0FF2CF0DCF980EAE07956
:107B7C00A9EBE07928462CF04DFA02460B4630462C
:107B8C0039462BF0E1FF2CF0CDF90028B8BF40426C
:107B9C00814505DA45F6C0554FF001084FF0030A50
:107BAC0028462CF037FA02460B4630463946CDE9CA
:107BBC0002232BF0C9FF2CF0B5F980EAE07911A370
:107BCC00D3E90023A9EBE079394630462BF0BCFF12
:107BDC002CF0A8F90028B8BF404281454EDCB8F122
:107BEC00000F53D19FED097BA0208DED027B62E04D
:107BFC00AFF30080000000000070C74000000000E0
:107C0C000070D740000000000070E740000000004A
:107C1C000040BF40F0D60020E0670500A0670500DB
:107C2C00986A050030C3002040C30020D6700020A5
:107C3C00D5700020D4700020D8780020D078002097
:107C4C00CC78002048C300204D750200EC70002059
:107C5C00DC700020CD78002000D001400048E80105
:107C6C000000344000408F40D8700020D7700020B6
:107C7C000040BF400040CF40E07000209FEDC97B2A
:107C8C008DED027B4BF680354FF0040ACB4B05EBA8
:107C9C00850583F800A0A8002CF0BCF9C84B002285
:107CAC002BF0EEFF41EC100B2CF02AFC51EC100BDE
:107CBC002CF09EF980B2C34BC34D18802B78002B4F
:107CCC0000F03E81DDE90223C04900202BF0D8FFF3
:107CDC00DFF850A3B5A3D3E90023CAE900012BF0C8
:107CEC0037FF41EC100B2CF00BFC51EC100B2CF073
:107CFC007FF9B74B80B218802CF08CF9ADA3D3E987
:107D0C0000232BF025FF2CF073F9B24B188008F0F0
:107D1C00E3F9AA4BB0491B78024651F82330AF491E
:107D2C00204629F0F1FD08F0D7F9DBE90067814620
:107D3C0000220023304639462CF0D8F8002840F0B9
:107D4C000981DFF8E4B2394630462CF0EBF800221A
:107D5C0080460023304639462CF0ACF8002800F061
:107D6C00198140462CF056F902460B4630463946EE
:107D7C002BF0EAFE9A4B00222BF0EAFE2CF0D2F804
:107D8C004A4698495B46CDE90080204629F08AFF97
:107D9C0008F0A2F9DAE90067814600220023304698
:107DAC0039462CF0A3F8002840F0E880DFF878A2E0
:107DBC00394630462CF0B6F8002280460023304677
:107DCC0039462CF077F8002800F0D08040462CF093
:107DDC0021F902460B46304639462BF0B5FE804B56
:107DEC00814E00222BF0B4FE2CF09CF87F495346B8
:107DFC004A46CDE90080204629F054FF08F06CF982
:107E0C00744B7B491B880246204629F07DFD08F007
:107E1C0063F92B7877490246204629F075FD08F066
:107E2C005BF9336874490246204629F06DFD2B78C6
:107E3C00002B5CD03068714D19F000F82B680646A9
:107E4C00002B00F01781184640F6BC711BF00CF8A3
:107E5C00002840F03C812868002800F03C81684BE9
:107E6C005D491A78554B1B78C2F1020251F8231068
:107E7C0040F6030318F0EEFF0028C0F20A814FF41D
:107E8C00FA4240F6A27128681AF0EEFF102206465C
:107E9C0040F6C47128681AF0E7FF002840F003810F
:107EAC002868002240F6AA711AF0DEFF002840F084
:107EBC000A81286800224FF47B611AF0D5FF002854
:107ECC0040F0FD802868002240F6AC711AF0CCFF1F
:107EDC00002840F0F0802868002240F6AE711AF0BD
:107EEC00C3FF002840F0E380002EC0F2C780454D50
:107EFC004548298800F0D4FD08F0EEF843490246C5
:107F0C00204629F021FC08F0E7F82B88404902466E
:107F1C00204629F0F9FC3F4B00200021C3E9000169
:107F2C003D4B4FF40052C3F80825012008F024F90A
:107F3C003A4B1B78002B40F08E8005B0BDE8F08FDB
:107F4C0032463B46214900202BF09AFEC0E65022D7
:107F5C0000239BE5324B0022304639462BF0AAFF1A
:107F6C0000283FF4EEAEDFF8C4B0ECE640462CF04F
:107F7C0051F832463B462BF0E7FD30E7284B002208
:107F8C00304639462BF096FF00283FF40FAFDFF850
:107F9C009CA00DE740462CF03DF832463B462BF0BA
:107FAC00D3FDE7E6000000000070E7400000000091
:107FBC0080846E41333333333333E33FD770002047
:107FCC0000408F40EA700020D17800200000F03F84
:107FDC00CE78002054380020E46C0500B46A05000B
:107FEC0000005940D46A0500DC700020FC6A0500D2
:107FFC00206B0500446B0500686B0500C8780020F9
:10800C00EC700020D8700020149C0020086C050037
:10801C00286C0500E8D6002000030050F0D60020A4
:10802C000000F0BFE0D60020948B0500D06A05005C
:10803C002E4BE41AE40808F04FF8240444F005042D
:10804C0002462B49204629F07FFB012211460020D5
:10805C0006F0FEFFD9E408F03FF826490246204618
:10806C0029F072FB01221146002005B0BDE8F04F4B
:10807C0006F0EEBF2EF01EFB2860EDE6304610F049
:10808C0077FF1D490246204605B0BDE8F04F29F0A8
:10809C005BBB10F06DFF19490246204605B0BDE8E8
:1080AC00F04F29F051BB002026F0AAF9F8E6002089
:1080BC0026F0A6F918E7002026F0A2F90BE700201D
:1080CC0026F09EF9FEE6002026F09AF9F1E6002053
:1080DC0026F096F9BFE607F0FFFF09490246334642
:1080EC00204629F011FC2868B9E600BFA0670500FE
:1080FC00706A0500486C0500EC6B0500C86B050048
:10810C00886B0500014B1878704700BFDC700020AD
:10811C002DE9F0475D4D044695E8070084B001AEAB
:10812C0086E8070095F800A095F8089095F8098066
:10813C000F46BCB1E379FF2B40F092802368FF2BF4
:10814C007AD16379FF2B63D1A379FF2B4CD123799F
:10815C00FF2B34D1237AFF2B1CD1637AFF2B1CBF4E
:10816C004B4A137006238DF80E30002241F20E0399
:10817C008DF804A002978DF80C908DF80D808DF879
:10818C000520ADF8063096E8070085E8070004B036
:10819C00BDE8F08707F0A0FF3E4B3F4902463F4841
:1081AC00C01AC0080004237940F0050029F0ACFB8C
:1081BC00237A3B4A003B18BF01231370CDE707F02D
:1081CC008BFF344B374902463448C01AC0080004B0
:1081DC00237940F0050029F097FB334B22791A8064
:1081EC00237AFF2BB9D0D5E707F076FF294B2F491F
:1081FC0002462A48C01AC0080004A37940F00500C2
:10820C0029F082FB237994F80680FF2BA2D0D6E7C5
:10821C0007F062FF1F4B264902462048C01AC008CF
:10822C000004637940F0050029F06EFBA37994F803
:10823C000590FF2B8BD0D7E707F04EFF154B1D4950
:10824C0002461648C01AC0080004236840F0050016
:10825C0029F05AFB63792768FF2B3FF475AFD7E7FA
:10826C0007F03AFF0B4B144902460C48C01AC008E1
:10827C000004E37940F0050029F046FB236894F8EC
:10828C0007A0FF2B3FF45DAFD6E700BFEC700020DA
:10829C00CD780020A0670500406A0500E067050066
:1082AC00D1780020106A050078370020E4690500B9
:1082BC00BC690500906905006C6905000F4A08B59A
:1082CC004FF400510E4BC2F80C151A7872B907F026
:1082DC0003FF0C4B0C4902460C481B1ADB081B0411
:1082EC0043F00500BDE8084029F02EBA00221A70B0
:1082FC0000F02CFC00F0C2FBE9E700BF00030050CB
:10830C00F0D60020E0670500706C0500A067050042
:10831C00014B1878704700BFE8700020014B1870B3
:10832C00704700BFE8700020344B2DE9F043D3F8C0
:10833C000080334B334CD3E9006708FB01F14FEA63
:10834C00E87300FB0311A8FB000383B019442BF066
:10835C0073FE32463B462BF0FBFB2B4B00222BF0E3
:10836C008FFC2BF005FE294B05468946C3E90059C5
:10837C003046274B394600222BF0EAFB224B0022D9
:10838C002BF07EFC234B00222BF0BEFA41EC100BA1
:10839C002CF0B6F857EC106B40462BF03BFE3246F7
:1083AC003B462BF0D5FB06460F46284649462BF09C
:1083BC0043FE02460B46304639462BF0A5FA2BF00D
:1083CC00D7FD154BC4E9000114481549181AC0080B
:1083DC0000042A4640F00500019029F0B5F9226806
:1083EC000198104929F0B0F90F49104B00200122D7
:1083FC0008701A7003B0BDE8F08300BFDC70002079
:10840C00E07000206837002000408F40703700205B
:10841C00000049400000F03FE0670500A067050040
:10842C008C6C0500B86C0500CC780020D07800204E
:10843C00F0B5274D274C2E686D6880194FEA520213
:10844C0045EB010112EB000CD4E9002441F1000EC4
:10845C00824274EB010526DA1F4DD5E90065B4455F
:10846C007EEB050708DBB04271EB050704DB00204F
:10847C00F0BD194DD5E9006582428C41B8BF02466A
:10848C001968101A664575EB0E0501EB4001B8BF73
:10849C00B4461960BCEB020C059B4FEA4C0CA3F8DC
:1084AC0000C00120F0BD94457EEB0405E1DA8C425E
:1084BC0008BF8242D0D0084DD5E90065B04271EBBF
:1084CC000507D4DAB4457EEB0507D5DA0020CFE7F3
:1084DC0040C3002070370020683700200E4BD3E9D2
:1084EC000023012A30B473F1000408DB0B4C25681F
:1084FC006468401941EB04019042994102DA002072
:10850C0030BC7047064A1378002BF8D1054901207E
:10851C0030BC10700B7070476837002040C30020CF
:10852C00CC780020D078002010B500F04BF9012257
:10853C0004464FF47A71024800F002F9204610BD4F
:10854C003C7905000248012240F21A6100F0F8B8AB
:10855C00F4D60020204A214B2149D2ED007A10B5E7
:10856C005B1ADB08F5EEC07A1B04F1EE10FA044638
:10857C0082B043F0030025D41A4A1B49BDEEE77ABA
:10858C00F5EEC07AF8EEC76AF1EE10FACCBF77EED2
:10859C00E67A76EEE77ADFED156A67EEA67A17EEE5
:1085AC00103AFDEEE77ACDED007A29F095FA2246E5
:1085BC0040F21A610E4800F0C3F802B0BDE810405A
:1085CC0000F0FAB8BFEE007AF4EEC77AF1EE10FACA
:1085DC00D2DD084AD1E700BF7C370020E0670500F8
:1085EC00A0670500948B0500F86C05000000C842DC
:1085FC00086D0500D06A0500014B02681A607047CF
:10860C007C370020F0B52A4FB7F804E0FE880EF155
:10861C00FF339E423ED040F21A613B68254A40F639
:10862C00344000FB063C00231D4640F21A60994280
:10863C0021DD3CF9134042F8044F01338342F6D15B
:10864C001D4B40F21A62C3F850250022C3F838259E
:10865C00C3F80825194AC3F840250122C3F80C2594
:10866C001EB9174A1368012B11DD0136B6B2FE8014
:10867C00B64506D0F0BD0133834242F8045FD6D133
:10868C00DEE7FB6800220133FB60FA80F0BD0133AA
:10869C001360EDE73B8A0B4AA2FB0312D20940F2AE
:1086AC001A6101FB12339BB2002B18BF1946B4E7B9
:1086BC0090FB002024E300200050024028E300201F
:1086CC00803700207B6DFA141848837C0BB1002393
:1086DC0083741749D1F8143103B9704710B50024CD
:1086EC00C1F8144182B0D1F814310193C268019BD6
:1086FC0083689A420BD1012320224B6083748B63D5
:10870C00CB63C1F80823C1F8004502B010BD094C79
:10871C0009480A49001BC008000440F0050029F074
:10872C00F3F802B0BDE81040FFF76CBF90FB0020DF
:10873C0000500240A0670500E06705000C810500B1
:10874C0030B41A4B9C7C84B01CB9204604B030BCAD
:10875C007047186016489A604A1E80FB02C0D217F8
:10876C000125C2EBE0122A449A80124A1982002495
:10877C00DC80C2F80055C2F80441D2F80411019112
:10878C000199C2F81441D2F8141102910299C2F85D
:10879C000841D2F8081103910398DC6020219D74E4
:1087AC00C2F8041304B030BC704700BF90FB00202B
:1087BC007B6DFA1400500240014B01221A60704785
:1087CC00005002401C4B0022012030B4C3F8042599
:1087DC00C3F82425C3F82025C3F81C05C3F82825A5
:1087EC000222C3F818254FF0A041144C4FF08052D0
:1087FC00C3F814250322C3F810050D25C1F834273E
:10880C00C4F80027C1F844274FF0FF34202111226F
:10881C00C3F86455C3F86815C3F86045C3F87025F0
:10882C00074AC3F86C45C02382F825335160054BC9
:10883C0030BC9874704700BF0050024000030050D9
:10884C0000E100E090FB0020094B0A4A10B4012023
:10885C00002420219863D863C3F80045C2F8841023
:10886C00BFF34F8FBFF36F8F5DF8044B704700BFA2
:10887C000050024000E100E010B5404BD3F800215D
:10888C0086B04AB33E4C0022C3F80021A27CD3F838
:10889C0000010190D34303F0010304EB8301019821
:1088AC004968002954D0607C002102288DF81410EE
:1088BC00E1745ED004EB8202A37450685160012213
:1088CC00049023688DF80C2003A89847637C022B36
:1088DC0006D10123637403E0D3F8041179B9284C51
:1088EC00237D53B10023012122688DF80C100493D1
:1088FC008DF8143003A82375904706B010BDC3F84B
:10890C000421D3F804111E4C02910299C3F80025DE
:10891C00A37C627404EB83018DF8142048688DF8F5
:10892C000C2028B12368049003A84A609847A37CC4
:10893C00DB4303F0010304EB83035A682AB10020E4
:10894C0058602168049203A888470023A374C7E7E2
:10895C00617C0229A7D0E37C002BB7D101222168CE
:10896C008DF80C3004938DF8142003A8E27488471A
:10897C00ACE7012363740846A1E700BF00D00140B7
:10898C00A4FB0020394B1A7C002A6DD170B4047AF8
:10899C00502C85B064D8457A502D61D81960344973
:1089AC005A745A82C3E901224268C1F804254278FC
:1089BC0090F800C052000CF0010C02F0020242EAE6
:1089CC000C02C1F80825C1F81845C1F81C5585786A
:1089DC001F2D8BBF05F01F042C4626494FF0A041DC
:1089EC0004F5E072032641F822600122A240C1F88E
:1089FC000C25C4781E491F2C8BBF04F01F0CA446F9
:108A0C001C4E4FF0A0460CF5E07C002246F82C20C2
:108A1C00C1F84055C1F84445C1F80021D1F80041D6
:108A2C000394039CC1F80821D1F808410294029CDC
:108A3C00C1F80421D1F8044101940324019DC1F82B
:108A4C000443817A0C484901C9B280F81D134FF0D8
:108A5C000051016001211046197405B070BC7047BB
:108A6C00072005B070BC704708207047A4FB00209D
:108A7C0000D001400003005000E100E0064B074825
:108A8C0000214FF00042C3F800150174C3F84025D3
:108A9C00C3F84425704700BF00D00140A4FB002060
:108AAC00274B1A7C42B35A7C032A44D0002840D06E
:108ABC000A043ED410B5234A4FF0005482B0C2F8D9
:108ACC008040BFF34F8FBFF36F8F5A7C93F812C067
:108ADC00022A1ABF6FEA0C0C0CF0010C4FF0000CC0
:108AEC0003EB8C0EDEF8042042B11120154B4FF035
:108AFC0000521A6002B010BD08207047124CCEF81C
:108B0C00040003EB4C0CACF80C10C4F86005187C9A
:108B1C00C4F86415022810D00121C4F80015C4F85B
:108B2C000021D4F80001019002210198197410461B
:108B3C00DCE707207047112070471046D6E700BFCE
:108B4C00A4FB002000E100E000D001400C4B5A7C5B
:108B5C00012AD1B20DD05A7C22B15A7C022A01D002
:108B6C001120704707490022C1F8002510465A749D
:108B7C007047044A197403205874516000207047E0
:108B8C00A4FB002000D00140436810B504460160EE
:108B9C0043B100230022C4E904230023A3602377FC
:108BAC00A36110BD4FF480602DF084FD6060F0E790
:108BBC00F8B58569AB0706460C46174622D1C5F3B6
:108BCC008F05336875B12146083B04EB850457B912
:108BDC0053F8082F0431586821F8020C8C4221F804
:108BEC00042CF5D1F8BD53F8080F5A68043140F342
:108BFC000F4042F30F42A14221F8040C21F8022C41
:108C0C00F1D1EFE7002025F0FBFBB569D7E700BFFA
:108C1C0038B504460389406800F8232000EB830034
:108C2C0001339BB24380A0692381236803EB40008E
:108C3C0015462CF0BBFFA36903EB55030120A36180
:108C4C0038BD00BFD0E904138269914273F100036F
:108C5C0034BF0120002070472DE9F0410446D0E9D3
:108C6C000432A1692C4F8B4207F1020872F1000209
:108C7C004FF00506404638D26189626802EB810CE0
:108C8C0012F82150BCF8021049BA398021682A46E2
:108C9C0001EB43012CF08AFF00221F48A91C00F0B5
:108CAC002FFFD4E9043260B9A1698B4272F1000044
:108CBC001BD28B4272F100022CBF01200020BDE8B8
:108CCC00F08161896D08EB1806F1FF3642F1000264
:108CDC00013116F0FF06C4E904326181E4D0A169C8
:108CEC008B4272F100024046C6D307F00BFA0B4BD5
:108CFC000B4902460B48181AC0080004236940F0BF
:108D0C00050028F001FE242004F0A4FE0020D4E984
:108D1C000432A1692077CCE7BCFB0020E06705009A
:108D2C0028810500A067050000230022C0E9042368
:108D3C000023836083617047A8DF704762DF704750
:108D4C0070B55A4B04460FCB8EB002AD85E80F00C0
:108D5C0021464FF6FF73284621F8023BFFF7EEFF42
:108D6C00054610B128460EB070BDA0788DF80600EF
:108D7C004FF4A85304F11C0201A90120ADF80430F2
:108D8C00FFF7DAFF05460028ECD120202DF092FCED
:108D9C0020220646A060294606A82CF03DFF41F291
:108DAC000353ADF81830A3788DF81A30404B079365
:108DBC009DF82530A08B43F004038DF82530324606
:108DCC0040F2011306A9ADF82A301EF029FD002847
:108DDC0068D12022002106A82CF01EFFA2788DF865
:108DEC001A20F522ADF81C2043F20122ADF8242004
:108DFC00A268A08B41F206510123ADF8181018326D
:108E0C0006A98DF829308DF82B301EF009FD0028AD
:108E1C0045D12022002106A82CF0FEFEA378A268E2
:108E2C008DF81A30F52341F20451ADF81C300123B2
:108E3C00ADF818108DF82B30A08B43F201030832DB
:108E4C0006A9ADF824301EF0EBFC28BB2022002133
:108E5C0006A82CF0E1FEA378A2688DF81A30F52351
:108E6C0041F20551ADF81C300123ADF818108DF806
:108E7C002B30A08B43F20143103206A9ADF82430FD
:108E8C001EF0CEFC28B900232846C4E905330EB0E9
:108E9C0070BD25F0B5FAF6E725F0B2FAD6E725F065
:108EAC00AFFAB6E725F0ACFA93E700BFFC810500FA
:108EBC0020000100002935D02DE9F043044685B08F
:108ECC0038B10388112B0D462DD0502B09D0102B07
:108EDC0002D005B0BDE8F08383880B8005B0BDE8F7
:108EEC00F0838968C3880A899A4200F092808A8943
:108EFC009A422DD004F112060A889A4219D08A8817
:108F0C009A42E6D1238A022BE3D1704B7048714907
:108F1C00C01AC008000440F0030005B0BDE8F043DF
:108F2C0028F03ABB70474FF6FF730B8005B0BDE8D5
:108F3C00F083A27C6D2A26D0152A60D8102A7BD902
:108F4C00123A032A00F28B80DFE802F02F29532318
:108F5C00228A022ACED15D4B5D485F492646C01A53
:108F6C00C00836F8122F000440F0030028F0ECFB88
:108F7C0030461EF051FC002858D0102004F06AFD39
:108F8C00E388A968B8E7072004F064FDE388A968C2
:108F9C00B5E70F2004F05EFDE388A968AFE7022077
:108FAC0004F058FDE388A968A9E7484B48484B49A9
:108FBC00C01AC008000440F0030028F0EDFA237D2D
:108FCC00E17C627D1B0403EB016303EB0223A27DB6
:108FDC00D4F81710029113440193E27E237F8DF88D
:108FEC000D3001A88DF80C20FFF792F8E388A968E2
:108FFC0085E7122004F02EFDE388A9687FE7732A29
:10900C0027D0742A18D12A2004F024FDE388A968FB
:10901C0075E72E4B2E483249C01AC008000440F0A8
:10902C00030028F0B9FAE388A96860E7112004F07E
:10903C0011FDE388A9685FE7254B24482949181AD4
:10904C00C008000440F0030028F07EFBE388A96808
:10905C0055E7082004F0FEFCE388A9684FE7E27CA2
:10906C0002B3012A7FF44BAF1948184BDFF87C8010
:10907C00C01AC0080004771C40F00309053617F825
:10908C00012F4146484628F05FFBB742F7D1636990
:10909C00019301A8FFF7B0FA322004F0DBFCE3885F
:1090AC00A9682CE7094B0A480F49C01AC0080004EC
:1090BC0040F0030028F070FA0120FFF79DFA3120F0
:1090CC0004F0C8FCE388A96819E700BFA067050095
:1090DC00E0670500D081050068810500A4810500CA
:1090EC004C810500B4810500848105009881050040
:1090FC00AEDF7047014B00221A707047ACFC0020A9
:10910C000A8840F677239A4202D18B88033B03826C
:10911C00704700BFF0B5B0F810C087B06345044687
:10912C00ADF806C00D4616462DD8ADF806302B8886
:10913C00ADF8083000250DF106032088CDF80B5052
:10914C00012702A98DF80F5005968DF80A7004932B
:10915C00FFF7CEFF132822D020BBA169BDF8062053
:10916C0063690A44B3EB922FA2614FEA922507D0B0
:10917C001C4A1D4B656105FB02F2B3EBB20F1FD20B
:10918C00012007B0F0BD194B19481A49C01AC00884
:10919C000004624640F0030028F0D6FAC7E72846E0
:1091AC0007B0F0BD114A124B13499B1ADB081B0484
:1091BC00024643EA070028F0C7FA284607B0F0BD7C
:1091CC0006F08AFF0A4C0949641AE4082404024692
:1091DC000A4944F005002B4628F096FB384607B0A8
:1091EC00F0BD00BFCDCCCCCCCCCCCC0CA06705005A
:1091FC00E06705000C8205002C8205004C820500FE
:10920C002DE9F041354F0446387886B020B1002660
:10921C00304606B0BDE8F0811546228AADF806202E
:10922C009342884600F0FF0631D8ADF80630B8F806
:10923C000030ADF808300DF10603022204932088AB
:10924C000595002302A98DF80A208DF80F30CDF872
:10925C000B30FFF74DFF1328DAD018BBA169BDF80E
:10926C00062063690A44B3EB922FA2614FEA922560
:10927C0007D01B4A1B4B656105FB02F2B3EBB20F27
:10928C001CD2012630463E7006B0BDE8F081164B6C
:10929C0016481749C01AC008000440F0030028F013
:1092AC0053FAC4E7104A114B12499B1ADB081B04F2
:1092BC00024643F0010028F047FAA9E706F00CFF3C
:1092CC00094C0A490C1BE408240402460A492B46A3
:1092DC0044F0050028F018FBD3E700BFACFC0020DD
:1092EC00CDCCCCCCCCCCCC0CA0670500E067050079
:1092FC000C8205002C8205004C820500A8DF70470B
:10930C0062DF704770B5394B05460FCB8EB002AC9F
:10931C0084E80F0029464FF6FF73204621F8023BE4
:10932C00FFF7EEFF044610B120460EB070BDA878D2
:10933C008DF806004FF4A05305F11C0201A9012081
:10934C00ADF80430FFF7DAFF04460028ECD110200A
:10935C002DF0B0F920220646A860214606A82CF074
:10936C005BFC41F20343ADF81830AB788DF81A3042
:10937C001F4B07939DF82530A88B43F004038DF801
:10938C00253006F1080240F2011306A9ADF82A3087
:10939C001EF046FA30BB2022002106A82CF03CFC23
:1093AC00AA788DF81A20F52241F20441ADF81C2060
:1093BC0043F201220123ADF81810ADF82420A88B3C
:1093CC00AA688DF8293006A98DF82B301EF028FAE2
:1093DC0028B900232046C5E905330EB070BD25F031
:1093EC000FF8F6E725F00CF8D5E700BF8C820500E6
:1093FC00F500010000293DD030B5044699B030B1DC
:10940C000388112B37D0502B07D0102B01D019B05B
:10941C0030BD83880B8019B030BD8B68C2881B8926
:10942C009A42F4D1837C793B0F2BF0D801A252F8ED
:10943C0023F000BF379602001B9402001B9402001D
:10944C001B9402001B9402001B9402001B9402004C
:10945C0015960200FF9502008995020039950200CD
:10946C001395020009950200CB940200C1940200EE
:10947C008D94020070474FF6FF730B8019B030BD0E
:10948C00C37C047D002B00F0D68065B2002CBED0CE
:10949C00012005F053FD002D40F3D280204605F04D
:1094AC006DFD962001F072FF012019B0BDE830402F
:1094BC0005F00CBD19B0BDE8304002F01BBE64488D
:1094CC00644BE57C6449C01AC00800042A4640F08D
:1094DC00050028F039F9002D99D06B1EDBB204F190
:1094EC00080505EBC3056269A3691092083410A83E
:1094FC00119302F04DFCA542F5D188E719B0BDE8F7
:10950C00304002F0C3BB534B51485449C01AC008F9
:10951C00000440F0050028F03FF8E07C003818BF4C
:10952C00012019B0BDE8304002F0A6BB417D427E5F
:10953C00437F007DA57D090401EB006101EB052152
:10954C00257EE07C120402EB0562257F1B0403EBF5
:10955C000563A57E02EB0522A57F03EB0523E57DC4
:10956C002944E57EE47F1B192A440CBF3C4B033392
:10957C00033219B0BDE8304007F036B80025202280
:10958C0029460DEB0200CDE9055500952CF044FB66
:10959C002946202210A82CF03FFB04F1130310AA3B
:1095AC001B68019304F1170308A91B68029304F1CB
:1095BC001B0368461B68079304F11F031B68039386
:1095CC0004F123031B68049304F127031B6809931C
:1095DC0004F12B031B680A9304F12F031B681193EE
:1095EC0004F133031D6894F83730129503F082FDB3
:1095FC000DE7028AC07C023AD2B204F1140119B010
:10960C00BDE8304003F0D8BF417D007DA27DE37DF5
:10961C00090401EB006101EB02211944E07C0331E8
:10962C0019B0BDE8304006F0B3BF2B2019B0BDE82F
:10963C00304004F00FBA19B0BDE8304004F0E2BF7E
:10964C00962001F017FF6042C0B205F097FC2BE7A3
:10965C00E0670500A06705006482050074820500C0
:10966C000300008076DF704777DF70477ADF704742
:10967C007CDF70477FDF70478FDF7047B1DF70474B
:10968C0045DF704724F0BCBE70B50B8840F67722DE
:10969C00934282B00C4634D04DF67A22934221D1BB
:1096AC001E4B1F4D1F4E0A791F49ED1AED082D0454
:1096BC0045F00305284628F047F831881B480DF182
:1096CC0007021FF0BBFB9DF807201949284628F01C
:1096DC003BF8318815481FF04BFB164902462846CB
:1096EC0028F032F821461448FFF70AFD21461348AA
:1096FC00FFF706FD1248214602B0BDE87040FFF7A7
:10970C00FFBC064B06488A880E49C01AC0080004E4
:10971C0040F0030028F018F8E4E700BFA06705004C
:10972C00E067050088370020D08205003C1E012030
:10973C00F4820500188305001C1E0120F81D012071
:10974C005C1E01209C82050002785AB1012A13D0BC
:10975C000A480B4B0B49C01AC008000440F0030028
:10976C0027F0F2BF0548064B0749C01AC008000491
:10977C0040F0010027F010BF704700BFE067050004
:10978C00A0670500748305003883050008B598B1FF
:10979C00032810D106F0A0FC124B134902461348C3
:1097AC001B1ADB081B0443F0050027F0CDFF01203A
:1097BC0005F0A4FC90B908BD06F08EFC0B4B0C49CF
:1097CC0002460848C01AC008000440F0050027F003
:1097DC00BBFFBDE80840052004F03CB9BDE80840DB
:1097EC0024F00EBEE067050094830500A067050019
:1097FC00AC83050024F004BE704700BF10B5084CC4
:10980C00082294F854100120FFF72EFF0321204664
:10981C001DF0AAFC00B910BDBDE8104024F0F0BD4D
:10982C00C41901202DE9F047B0B028F0ABFE002898
:10983C0040F02081002305A90120059329F00EF8A2
:10984C00002840F0148105A829F0DAF8002840F02F
:10985C000B81904B60224FF40010C3F8800183F809
:10986C00152393F81513EC2249090A41D20740F14C
:10987C00E380894A9168002940F0DA801860012160
:10988C000846FFF7FDFE08B124F0BAFD1123834909
:10989C008DF81030052204A8FFF7EAFE002840F0EE
:1098AC00F58000214FF00612482305A8ADF81810DA
:1098BC000592ADF81A30FFF7D9FE002840F0E3808E
:1098CC00774978481FF030FA002840F0D980754865
:1098DC00F5211FF041FA002840F0CF807148F922A1
:1098EC004FF6FF711FF04AFA002840F0B7806E4B1C
:1098FC006E48059305A91FF0A5FB002840F0AB802E
:10990C006B48FFF7FFFC002840F0A2806948FFF786
:10991C0017FA002840F09980674800F0CDFD002828
:10992C0040F09080AC22002105A82CF075F90123A1
:10993C0062490A91ADF824304FF496718DF890304D
:10994C0044F250635E4A2791022428935D488DF8B7
:10995C001440062305A92E928DF817301DF086FBB6
:10996C0000286CD1574801211DF07CFB0023089383
:10997C005549564A05934FF4804409934FF42023DC
:10998C00CDE9064305A80323CDE90A128DF8203052
:10999C001DF066FD002864D14D484E4A4FF08053AF
:1099AC0001240021047011704B484C49D3F8A85085
:1099BC00D3F8A8A0D3F8A460D3F8A470D3F8A480EB
:1099CC00D3F8A490464C4FF4806204F051F845490A
:1099DC0045484FF4806204F04BF8444944484FF436
:1099EC00805204F045F8434BE41AE40806F074FB8B
:1099FC00240444F0050402463F49204627F0A4FE07
:109A0C005FFA89F30393C5F30722C8F30723C7F35F
:109A1C000747360E02933949019700965FFA8AF38D
:109A2C0042F0C002204628F02DFA30B0BDE8F08795
:109A3C0013680343136022E742F2020024E724F088
:109A4C00DFFC8FE724F0DCFC6CE724F0D9FC63E747
:109A5C0024F0D6FC5AE724F0D3FC51E724F0D0FCD8
:109A6C0045E724F0CDFC97E724F0CAFCF1E624F09E
:109A7C00C7FCE8E624F0C4FCDCE624F0C1FC2DE7CE
:109A8C0024F0BEFC23E724F0BBFC19E724F0B8FC5F
:109A9C0007E700BF00E100E06C990120E0830500BE
:109AAC00959602003C1E012091960200501E01204A
:109ABC001C1E0120F81D01205C1E01208437002093
:109ACC0099970200C41901205597020001980200D1
:109ADC00A41E0120181E0120B0190120B0FC00208A
:109AEC00E0670500B0100120901E0120B00001209D
:109AFC007C1E0120A0670500E8830500008405009A
:109B0C0010B4094C0B46A16832B902460831204604
:109B1C005DF8044BFFF7FEBA0246083120465DF8AB
:109B2C00044BFFF76DBB00BFF81D012010B50E4BA9
:109B3C000E4CA3EB040C4FEADC0C4FEA0C4C82B03D
:109B4C0002460B464CF005000949CDE9003227F0DE
:109B5C0023FD0848009B8168019A083102B0BDE8DA
:109B6C001040FFF74DBB00BFE0670500A067050084
:109B7C0020840500F81D012008B5034803F080FF80
:109B8C00003818BF012008BD7C1E012008B5034811
:109B9C0003F076FF003818BF012008BD901E01208D
:109BAC0008B5034803F06CFF003818BF012008BD4E
:109BBC00B01901202DE9F0471B4D1C4C1C4EDFF851
:109BCC0074A021E003F05CFF0246012331462046DD
:109BDC00F2B1D4F800C0A2686768B2FBFCFE0CFBC3
:109BEC001E2217F8029009F1FF38424603F0A4FF39
:109BFC00DAF808101FFA88F3324608315046FFF79E
:109C0C0089FA28702B782BB92B782046002BD9D1C8
:109C1C00BDE8F087A36899442368B9FBF3F203FB12
:109C2C001293A360F0E700BFA41E01207C1E01204C
:109C3C00B0140120F81D0120F0B5164D164C83B060
:109C4C00CB1C0E4607460DF10701012228468DF864
:109C5C00073003F027FF23880DF107011B0A0122AF
:109C6C0028468DF8073003F01DFF23888DF8073048
:109C7C000DF107010122284603F014FF3246394644
:109C8C00284603F00FFF238801332380FFF792FF50
:109C9C0003B0F0BD7C1E01208A37002038B5074D7B
:109CAC000446284603F0ECFE2B6803340444581E8B
:109CBC0084422CBF0020012038BD00BF7C1E012037
:109CCC00024A138801331380704700BF8A37002083
:109CDC0008B50C4B1A880AB101221A800A4803F005
:109CEC005DFF0A4B0A480B49C01AC008000440F03B
:109CFC00050027F051FC0849084B00200122088080
:109D0C001A7008BD8A3700207C1E0120A067050050
:109D1C00E067050040840500A61E0120A41E01205A
:109D2C00014B01221A707047A41E0120014B012225
:109D3C001A8070478A370020034B99680246083115
:109D4C00184600F091BD00BF5C1E01204A680260FD
:109D5C0003468A685A60CA699A60CA68DA600A69F6
:109D6C001A611420704700BF094B1A8802F1010CCC
:109D7C00A3F800C04FEA122C00236CF3070362F324
:109D8C000F230A0A62F3174361F31F6303607047E2
:109D9C00A61E012038B5134C204603F07BFE00B103
:109DAC0038BDD4E90020A368B3FBF2F102FB1133F8
:109DBC000D49C55C01232A46204603F0BDFE0B4825
:109DCC00094A81682B46FFF71BFA0028E8D0A368E4
:109DDC00226801332B44B3FBF2F102FB1133A36075
:109DEC0038BD00BFB0190120B01801201C1E012085
:109DFC0038B5134C204603F04DFE00B138BDD4E904
:109E0C000020A368B3FBF2F102FB11330D49C55CD2
:109E1C0001232A46204603F08FFE0B48094A81682D
:109E2C002B46FFF777F90028E8D0A36822680133A6
:109E3C002B44B3FBF2F102FB1133A36038BD00BF1E
:109E4C00901E0120B01701201C1E012030B5164CAD
:109E5C0083B0034620468DF807308DF806200D465A
:109E6C0003F00EFE9DF80630226801331844013AC7
:109E7C00904216D201220DF1060120468DF80630D3
:109E8C0003F010FE01220DF10701204603F00AFE3B
:109E9C009DF806202946013A204603F003FEFFF701
:109EAC00A7FF03B030BD00BF901E012030B5344C6D
:109EBC0085B0034620468DF807308DF806200D46F8
:109ECC0003F0DEFD9DF80630226801331844013A98
:109EDC00904226D22B4A12782AB300220DF10F00A1
:109EEC008DF806308DF80F2024F08CFD01220DF139
:109EFC000601204603F0D6FD01220DF10701204694
:109F0C0003F0D0FD9DF806202946013A204603F0C7
:109F1C00C9FD9DF80F0024F09BFD204603F0BAFD0F
:109F2C0068B105B030BD184B18481949C01AC008A3
:109F3C00000440F0050027F02FFB05B030BDD4E93C
:109F4C000020A368B3FBF2F102FB11331149C55C8D
:109F5C0001232A46204603F0EFFD0F480D4A816885
:109F6C002B46FFF74DF90028DBD0A368226801339C
:109F7C002B44B3FBF2F102FB1133A360D1E700BF1A
:109F8C00B0190120181E0120A0670500E06705002C
:109F9C005C840500B01801201C1E012010B502883D
:109FAC00A2F1100382B00446472B5BD8DFE813F014
:109FBC00670084009500B0005A005A005A005A00FD
:109FCC005A005A005A005A005A005A005A005A00B5
:109FDC005A00C800D500EF00FC005A0025015A00B9
:109FEC005A005A005A005A005A005A005A005A0095
:109FFC005A005A005A005A005A005A005A005A0085
:10A00C005A005A0029012D015A005A005A005A00D0
:10A01C005A005A005A005A005A005A005A005A0064
:10A02C005A005A005A005A005A005A005A005A0054
:10A03C0058005A00000115015A005A0048001C0132
:10A04C007D487E4B7E49C01AC008000440F00300D6
:10A05C0027F0A2FAA0881321FFF704FB00286AD18D
:10A06C0002B010BD754B74487649C01AC008000484
:10A07C0040F0030002B0BDE8104027F065BB6F4B09
:10A08C006D487149C01AC008000440F0030027F065
:10A09C0083FA022005F032F8002840F0BD806B4BAB
:10A0AC00A1886B4819801EF0DFFF002840F0B180BA
:10A0BC00684B01221A70D3E7604B5F486649C01A9F
:10A0CC00C008000440F0030027F066FA062003F0F5
:10A0DC00C1FC604B00221A70C2E75849564863898C
:10A0EC002289401AC00803EB830302EB82020004AE
:10A0FC005A49920840F003009B0827F005FCFF2307
:10A10C00012201A907208DF80430FFF7CFFEA7E745
:10A11C004A4B49485249C01AC008000440F0030099
:10A12C0027F03AFA494A0023108885211A46FFF78E
:10A13C00A1FA002894D002B0BDE8104024F060B918
:10A14C0040F202238088ADF8043001A9FFF794FA9D
:10A15C00002885D024F054F982E7017A23293FF4B2
:10A16C007FAF364A3448637A3E4C801AC0083E4A68
:10A17C000004013B40F00300002918BF2246062BC7
:10A18C0056D8DFE803F0574C4C5355554C002A4831
:10A19C002A4B3649C01AC008000440F0030002B034
:10A1AC00BDE8104027F0F8B92348244B3049F1E7BB
:10A1BC00224B21482F49C01AC008000440F003006C
:10A1CC0027F0EAF9214A0023108819461A46FFF7AE
:10A1DC0055FA00283FF444AFADE7FEF78BFF02B011
:10A1EC00BDE81040FFF7D6BD234B012204201A70A6
:10A1FC0002B0BDE8104003F02DBC0F480F4B1F49B7
:10A20C00C8E70D480D4B1E49C4E70B480B4B1D49C5
:10A21C0019E724F0F5F84BE724F0F2F83FE71A4B76
:10A22C001A4902B0BDE8104027F06EBB184BF7E797
:10A23C00184BF5E7184BF3E7E0670500A06705003E
:10A24C007485050014860500CC8405008837002031
:10A25C00501E0120181E0120BC840500D884050066
:10A26C001C850500B0840500A4840500AC850500A0
:10A27C00D485050034850500A41E0120F485050055
:10A28C008C8505005C850500C8830500FC840500F1
:10A29C00D0830500D8830500C083050070B5394C08
:10A2AC0042688368384DC169226082B0C2686360BD
:10A2BC000369E26001262361A160142328468DF80E
:10A2CC0006308DF8056003F0DBFB9DF806302A683C
:10A2DC0033441844013A904226D22C4A12782AB3BD
:10A2EC0000220DF107008DF806308DF8072024F0C0
:10A2FC0089FB32460DF10601284603F0D3FB3246AA
:10A30C000DF10501284603F0CDFB9DF806202146F2
:10A31C00013A284603F0C6FB9DF8070024F098FB91
:10A32C00284603F0B7FB68B102B070BD184B194852
:10A33C001949C01AC008000440F0050027F02CF998
:10A34C0002B070BD2A68AB68B3FBF2F102FB1133AB
:10A35C006A681249D45C28463346224603F0ECFB6B
:10A36C000F480E4A81682346FEF74AFF0028DBD0CF
:10A37C00AB682A6801332344B3FBF2F102FB1133BF
:10A38C00AB60D1E7B0160120B0190120181E0120D6
:10A39C00A0670500E06705005C840500B01801208B
:10A3AC001C1E012030B5394C42688368384DC16899
:10A3BC00226083B0C26963600369A26023610222D8
:10A3CC001423E16028468DF805208DF8063003F043
:10A3DC0057FB9DF806302A6801331844013A904225
:10A3EC0026D22C4A12782AB300220DF107008DF8E0
:10A3FC0006308DF8072024F005FB01220DF1060133
:10A40C00284603F04FFB01220DF10501284603F00D
:10A41C0049FB9DF806202146013A284603F042FBF1
:10A42C009DF8070024F014FB284603F033FB68B1B9
:10A43C0003B030BD184B19481949C01AC0080004A4
:10A44C0040F0050027F0A8F803B030BDD5E9002096
:10A45C00AB68B3FBF2F102FB11331249C45C01236C
:10A46C002246284603F068FB0F480E4A81682346B3
:10A47C00FEF7C6FE0028DBD0AB682A680133234404
:10A48C00B3FBF2F102FB1133AB60D1E7B015012045
:10A49C00B0190120181E0120A0670500E067050017
:10A4AC005C840500B01801201C1E0120A8DF704739
:10A4BC00AEDF704762DF704770B53D4B05460FCB82
:10A4CC008EB002AC84E80F0029464FF6FF7320468D
:10A4DC0021F8023BFFF7EEFF044610B120460EB008
:10A4EC0070BDA8788DF806004FF4B05305F11C022E
:10A4FC0001A90120ADF80430FFF7D8FF044600286D
:10A50C00ECD110202CF0D6F820220646A86021466B
:10A51C0006A82BF081FB41F20263ADF81830AB7842
:10A52C008DF81A30234B07939DF82530A88B43F0F8
:10A53C0004038DF82530324640F2011306A9ADF81C
:10A54C002A301DF06DF978BB2022002106A82BF0D3
:10A55C0063FBAB78AA688DF81A30F52341F20361DE
:10A56C00ADF81C300123ADF818108DF82B30A88BEA
:10A57C0043F20143083206A9ADF824301DF050F91E
:10A58C0078B90023C5E9053303F016FB0A4E706059
:10A59C0004F05CF8306004F0CBFAF06020460EB0AA
:10A5AC0070BD23F02DFFECE723F02AFFCCE700BFB2
:10A5BC005086050020000100A81F0120002939D079
:10A5CC002DE9F041044630B10388112B33D0502BC8
:10A5DC0007D0102B01D0BDE8F08183880B80BDE83B
:10A5EC00F0818B68C2881B889A42F4D1837C1A1D37
:10A5FC00D2B2012A00F1120622D9F43B0A2BEAD876
:10A60C0001A252F823F000BFB5A7020077A7020001
:10A61C004FA702003BA70200A3A7020067A70200F6
:10A62C0099A70200EFA60200E3A50200E3A5020031
:10A63C0027A7020070474FF6FF730B80BDE8F0812F
:10A64C00C57CEA0706D5FC2B834B00F0EE801B681B
:10A65C0000221A70AB0707D5A37CFC2B7E4B00F0B5
:10A66C00D4805B6800221A706F0707D5A37CFC2B83
:10A67C00794B00F0D2809B6800221A70280707D50E
:10A68C00A37CFC2B744B00F09780DB6800221A70C3
:10A69C00E90607D5A37CFC2B6F4B00F095801B695A
:10A6AC0000221A70AA0607D5A37CFC2B6A4B00F07B
:10A6BC0093805B6900221A706B0607D5A37CFC2B78
:10A6CC00654B00F091809B6900221A70ED0982D0D5
:10A6DC00A37CFC2B604B00F08F80DB6900221A708E
:10A6EC0079E75E4E5E4B5C4D5E4FF61AF60836040B
:10A6FC0046F00506002455F8043B53B19B682246EE
:10A70C003BB13946304627F01FF855F8043C9B689E
:10A71C0098470134042CEED15DE7C27C4E4B018A84
:10A72C0053F8223030465B68BDE8F041184704F01E
:10A73C000FFC002800F08C80BDE8F041012004F0F3
:10A74C007BBC002004F004FC00287ED004F06CFBE1
:10A75C00BDE8F041252003F07DB9C37C002B6CD003
:10A76C00BDE8F0412E2003F075B904F0F7FB022888
:10A77C007FF431AF002004F0E1FB04F063FC00280F
:10A78C007FF429AFBDE8F04104F022BCBDE8F041F4
:10A79C00302003F05FB904F0DBFB002852D1BDE898
:10A7AC00F041002004F048BC022004F0C7FBBDE8D7
:10A7BC00F041002004F08ABBDB68218A01221A7068
:10A7CC0030465B68984763E71B69218A01221A703F
:10A7DC0030465B68984765E75B69218A01221A70ED
:10A7EC0030465B68984767E79B69218A01221A709B
:10A7FC0030465B68984769E7DB69218A5A68012013
:10A80C0018703046BDE8F04110475B68218A012280
:10A81C001A7030465B68984726E79B68218A0122AC
:10A82C001A7030465B68984728E71B68018A01223A
:10A83C001A7030465B6898470CE7BDE8F0412F2052
:10A84C0003F008B904F0C4FBA9E704F03FFB7DE773
:10A85C00012004F03BFB6FE7A81F0120E067050017
:10A86C00A06705003886050048B3F0B5154F537C3A
:10A87C0014460546384687B00E4600F8013BE168A1
:10A88C00127C2BF093F9237C3288ADF8082001332D
:10A89C0001210DF10602ADF806308DF80A100023E7
:10A8AC002888059702A90492CDF80B308DF80F304B
:10A8BC00FFF7FEFDB0FA80F0400907B0F0BD0120B3
:10A8CC00704700BFA81E0120F8B53E4F00260C466D
:10A8DC003E6015460E60023807F500513B4630F9D4
:10A8EC00022F1A805E8004339942F8D135493648DC
:10A8FC000123002228F07EFA01231A4631493248FE
:10A90C003E6028F077FA314A2146A2F51663B3F976
:10A91C00020007EE900AB3F90000F8EEE77A07EEB2
:10A92C00100A67EEA77AB8EEC77A0433E7EE077A17
:10A93C009A42E1EC017AEAD1254BDFED266A9FEDD4
:10A94C00266A03F59662F5B1B3F9021007EE901A78
:10A95C00B3F90010F8EEE77A07EE101A67EEA77A53
:10A96C00B8EEC77A0433E7EE077A934287EE867A1D
:10A97C0076EE876AE8D1F3EE097A184B66EEA76A91
:10A98C00C3ED006AF8BDB3F9021007EE901AB3F9E3
:10A99C000010F8EEE77A07EE101A67EEA77AB8EE19
:10A9AC00C77A0433E7EE077A9A4287EE867A76EE18
:10A9BC00876AE8D1F3EE097A094B66EEA76AC3ED14
:10A9CC00006AF8BDC01F0120C4F905002029012030
:10A9DC00503A01200000000000009643DC1F0120CB
:10A9EC00CC1F01202DE9F047A14EA24DA24AA3484D
:10A9FC00DFF8A082A24F84B0002300964FF41671AA
:10AA0C0033602B60092328F00FFD09234FF41671D6
:10AA1C00994A9C48009528F007FD98ED006A97ED3F
:10AA2C00005A06F59073F0EE005AB2EE004A05F5A6
:10AA3C0090714FF0490CD3ED057A93ED067AF4EE54
:10AA4C00C77AF1EE10FA64460CF1010C2BDDD3ED54
:10AA5C00076AB4EEE67AF1EE10FA24DD93ED047A8F
:10AA6C00F4EEC77AF1EE10FA1DDDD3ED036AF4EEC5
:10AA7C00E67AF1EE10FA16DDB4EEE76AF1EE10FAB2
:10AA8C0011D5D3ED004AC7EE246AF4EEE56AF1EE77
:10AA9C0010FA08DDD3ED0A6A86EEA77AB4EEC47A12
:10AAAC00F1EE10FA4AD4D1ED057A91ED067AF4EE76
:10AABC00C77AF1EE10FA2BDDD1ED076AB4EEE67A27
:10AACC00F1EE10FA24DD91ED047AF4EEC77AF1EE92
:10AADC0010FA1DDDD1ED036AF4EEE67AF1EE10FA10
:10AAEC0016DDB4EEE75AF1EE10FA11D5D1ED004AAD
:10AAFC00C7EE246AF4EEE56AF1EE10FA08DDD1ED4A
:10AB0C000A6A86EEA77AB4EEC47AF1EE10FA15D47E
:10AB1C00BCF5117F03F1040301F104018BD15A4BF5
:10AB2C005A485B49C01AC0080004002240F00500D6
:10AB3C0026F00AFE002004B0BDE8F087524B5348C3
:10AB4C005349C01AC008000440F005002246039087
:10AB5C0026F0FAFDA4F1080304F1080293420398CD
:10AB6C0000F2818004F180420A3A9100434BDFF8F5
:10AB7C0014E101F1280C05EB0C09F0EE086AB44461
:10AB8C00F2EE005A03EB82027144261F04F10D0A07
:10AB9C0092ED027AD2ED037AB4EEE77AF1EE10FA86
:10ABAC00A6F1040514DD92ED046AF4EEC67AF1EE1A
:10ABBC0010FA0DDDD2ED017AB4EEE77AF1EE10FA6F
:10ABCC0006DDD2ED007AB4EEE77AF1EE10FA63DC32
:10ABDC0091ED027AD1ED037AB4EEE77AF1EE10FA48
:10ABEC0036DD91ED046AF4EEC67AF1EE10FA2FDD43
:10ABFC00D1ED017AB4EEE77AF1EE10FA28DDD1ED61
:10AC0C00007AB4EEE77AF1EE10FA21DD19ED056A5F
:10AC1C0019ED097AC6EE077AF4EEE67AF1EE10FA3F
:10AC2C000ADC19ED066A19ED0A7AC6EE077AF4EE1B
:10AC3C00E67AF1EE10FA0BDD99ED006A19ED047A63
:10AC4C00C6EE077AF4EEE57AF1EE10FA00F18480A4
:10AC5C000136B24502F1040209F1040901F10401C3
:10AC6C000CF1040C94D1600004B0BDE8F08700BF77
:10AC7C00D01F0120E01F0120B0860500D41F012049
:10AC8C00DC1F0120E41F0120A0670500E067050020
:10AC9C007C860500CC1F01201CED056A1CED097A91
:10ACAC00C6EE077AF4EEE67AF1EE10FA0ADC1CED49
:10ACBC00066A1CED0A7AC6EE077AF4EEE67AF1EE35
:10ACCC0010FA85DD9CED006A1CED047AC6EE077A5D
:10ACDC00F4EEE57AF1EE10FA7FF57AAFA6F10803FF
:10ACEC00B34230D806F180420A3AD7ED006A0EEB37
:10ACFC00820EDEED027A9EED037AF4EEC77AF1EE67
:10AD0C0010FA1C4603F1010319DD9EED047AF4EEF2
:10AD1C00C77AF1EE10FA12DD9EED017AF4EEC77AE5
:10AD2C00F1EE10FA0BDD9EED007AF4EEC77AF1EE3F
:10AD3C0010FA04DDF4EEE76AF1EE10FA42D4B442F4
:10AD4C000EF1040ED5D125492B46002226F0DCFD50
:10AD5C00680004B0BDE8F087A6F10801B142F2D852
:10AD6C0006F180420A3AD8ED006A03EB8203D3ED78
:10AD7C00027A93ED037AF4EEC77AF1EE10FA0C46F0
:10AD8C0001F1010119DD93ED047AF4EEC77AF1EECD
:10AD9C0010FA12DD93ED017AF4EEC77AF1EE10FAA7
:10ADAC000BDD93ED007AF4EEC77AF1EE10FA04DDC8
:10ADBC00F4EEE76AF1EE10FA04D4B44203F10403A2
:10ADCC00D5D1C0E705492B46224626F09DFD6019DA
:10ADDC00002CBDD004B0BDE8F08700BF6086050034
:10ADEC0030B40648064D074C0749084A00232B800F
:10ADFC002360036030BC0B6013607047BC1F0120E4
:10AE0C00B81F0120C41F0120E81F0120EC1F0120E6
:10AE1C0010B582B0002300220092019370B9104A41
:10AE2C00104B10681968104C091A6B4604EB800023
:10AE3C0001AA27F0AFFE009802B010BD084C094BD8
:10AE4C002268196808486B46891A00EB820001AA2F
:10AE5C0027F0A0FE00982368184402B010BD00BF74
:10AE6C00E81F0120EC1F0120D41F012030B583B056
:10AE7C000023002200920193002869D13D4D6B46BE
:10AE8C0001AA4FF41671284627F084FE019829F088
:10AE9C0035F936A3D3E9002328F05AFE29F048F9F6
:10AEAC00009C022C07EE900A1AD995ED027AD5ED8A
:10AEBC00016AB4EEE67AF1EE10FA1FDC032C0FD027
:10AECC00D5ED036AB4EEE67AF1EE10FA24D4042C34
:10AEDC0006D095ED047AB4EEE67AF1EE10FA29DCA0
:10AEEC00254B26482649C01AC0080004224640F0CB
:10AEFC00050026F029FC204603B030BDD5ED036AD1
:10AF0C00B4EEE67AF1EE10FAD8DDF4EEC77AF1EE93
:10AF1C0010FAD3D50224E3E795ED047AF4EEC76A70
:10AF2C00F1EE10FAD3DDF4EEE67AF1EE10FACED5AE
:10AF3C000324D5E7D5ED056AF4EEC76AF1EE10FAF5
:10AF4C00CED5F4EE477AF1EE10FA48BF0424C7E7E9
:10AF5C0008486B4601AA4FF4167127F01BFE009CA3
:10AF6C00204603B030BD00BFAFF30080295C8FC218
:10AF7C00F528BC3FD41F0120A0670500E067050041
:10AF8C00948605000E4A0F4BB2F90020B0F8581207
:10AF9C0019808AB10C4B0D481B680D4910B40C2B51
:10AFAC000C4C8CBF0C3B00230022236002605DF82C
:10AFBC00044B0448FFF788BC05491846FFF784BCCE
:10AFCC00B81F0120C81F0120C41F0120EC1F012045
:10AFDC00D41F0120E81F01200F4A104BB2F90020AA
:10AFEC00B0F85812198092B10D4B0E481B680E49DF
:10AFFC0030B40C2B0D4D4FF000048CBF0C3B0023D8
:10B00C0004602B60054830BC0122FFF75DBC06498B
:10B01C0001221846FFF758BCB81F0120D81F012089
:10B02C00C41F0120EC1F0120E41F0120E81F012098
:10B03C002DE9F0434B4DB5F9003085B00446DBB13A
:10B04C00002932D000260023009301960293039628
:10B05C00002844D1444B45484549C01AC008000457
:10B06C0040F0050026F098FA00940294019603969D
:10B07C00FFF7B8FC044603E069B9FFF7F7FE044696
:10B08C003C4A04F516706108012380B211602B80D4
:10B09C0005B0BDE8F0830022009301920293039265
:10B0AC0038B9FFF79FFC0446EAE7FFF7B1FE044608
:10B0BC00E6E731486B4601AA4FF4167127F06AFD9A
:10B0CC0002AB03AA2D484FF4167127F063FD2C4BED
:10B0DC00009C029A1B68144404EB4304D0E7284FED
:10B0EC00284C38682168DFF89090DFF89080091AB6
:10B0FC006B4609EB800001AA27F04CFD21683868EB
:10B10C0002AB091A03AA08EB800027F043FD029B4F
:10B11C00009C1C443B6814EB4304B1D1124B134804
:10B12C001349C01AC008000440F0050026F034FA98
:10B13C0048466B4601AA4FF416710094029401968E
:10B14C00039627F027FD02AB03AA40464FF4167175
:10B15C0027F020FD009C029A3B68144404EB430446
:10B16C008EE700BFB81F0120A0670500E06705004F
:10B17C00A8860500C41F0120D41F0120E41F012054
:10B18C00E81F0120EC1F012000000000F0B5DFF8E3
:10B19C00E0C01E469CF8003083B005460C461746AE
:10B1AC00002B3AD02B4ADFF8CCE0DFF8CCC02A4B8E
:10B1BC001580601B01259FED257B8EF800508CF8C7
:10B1CC000060002625491F605E6007FA05F3AB425C
:10B1DC004FEA400081ED007B90FBF7F01BDD04FA99
:10B1EC0005F6931E944680B2B6B203EB87023CF987
:10B1FC00021B15FB00F30B440FFA83FE9BB2744544
:10B20C00A6EB0303BABFACF800304FF0FF35ACF837
:10B21C0000E06245EBD103B0F0BD03F0FF02104B30
:10B22C0010491148C3E90022C3E9022201230E226E
:10B23C008CF8003000920D4A21F0A4FA4FF0A04394
:10B24C004FF40012C3F80825ACE700BF0000000063
:10B25C00000000001C20012010200120F01F012004
:10B26C009C200120943700208C370020A43700202C
:10B27C000E2001200F200120182001200123FFF7B0
:10B28C0085BF00BF0023FFF781BF00BF08B54FF09B
:10B29C00A0434FF400120348C3F80C2521F04EFADA
:10B2AC00012008BD8C37002010B5314A2DED028BE2
:10B2BC00137808EE900A08EE101A82B0002B40D0DA
:10B2CC0003F0CEF9F8EEE88A2A4A68EE808A117803
:10B2DC0092F801C0FDEEE88A02EB410118EE903ABB
:10B2EC001BB2002B4FF0000002EB4C021EDD4B801A
:10B2FC00508003F0B5F9B8EEC88A1F4A28EE008AD0
:10B30C00117892F801C0BDEEC88A02EB410118EE2B
:10B31C00103A1BB2002B4FF0000002EB4C0209DD7F
:10B32C004B80508002B0BDEC028B10BD5B4248805C
:10B33C005380DEE75B424880538002B0BDEC028B49
:10B34C0010BD0E4803F0FF010E2401230094C0E948
:10B35C000011C0E90211137009490A4A0A4821F088
:10B36C0011FA4FF0A0434FF40012C3F80825A7E7D9
:10B37C000E20012004200120F81F01209C20012018
:10B38C0094370020A43700208C37002010B5314BA7
:10B39C00314A00212DED028B1970137882B00446CE
:10B3AC00002B3FD024B203F05BF907EE904AB8EEC5
:10B3BC00E78A2A4A20EE080A11785478BDEEC00AB2
:10B3CC0002EB410110EE103A1BB2002B4FF00000C3
:10B3DC0002EB44021BDD4B80508003F041F920EE60
:10B3EC00080A1F4ABDEEC00A1178547810EE103AC4
:10B3FC001BB2002B02EB41014FF0000002EB4402A8
:10B40C0009DD4B80508002B0BDEC028B10BD5B425D
:10B41C0048805380E1E75B424880538002B0BDEC2A
:10B42C00028B10BD03F0FF010E48012313700E2296
:10B43C000092C0E90011C0E902110B4A0B490C48FB
:10B44C0021F0A0F94FF0A0434FF40012C3F80825E7
:10B45C00A8E700BF0F2001200E200120F81F0120BB
:10B46C00042001209C200120A437002094370020C8
:10B47C008C37002010B5314B314A00212DED028B59
:10B48C001970137882B00446002B40D0644224B269
:10B49C0003F0E6F807EE904AB8EEE78A294A20EE68
:10B4AC00080A11785478BDEEC00A02EB410110EE87
:10B4BC00103A1BB2002B4FF0000002EB44021BDDD4
:10B4CC004B80508003F0CCF820EE080A1E4ABDEEEB
:10B4DC00C00A1178547810EE103A1BB2002B02EB14
:10B4EC0041014FF0000002EB440209DD4B8050801B
:10B4FC0002B0BDEC028B10BD5B4248805380E1E78B
:10B50C005B424880538002B0BDEC028B10BD03F04F
:10B51C00FF010E48012313700E220092C0E90011A6
:10B52C00C0E902110A4A0B490B4821F02BF94FF0E4
:10B53C00A0434FF40012C3F80825A7E70F20012001
:10B54C000E200120F81F0120042001209C20012046
:10B55C00A4370020943700208C37002010B5334BD3
:10B56C00334A00211970137882B00446002B45D061
:10B57C0003F076F863421BB207EE903AF8EEE77AE6
:10B58C002C4A27EE800A1178BDEEC00A002010EE7E
:10B59C00103A1BB2002B23DD02EB41014B80537898
:10B5AC0002EB4302508024B203F05AF807EE904AA3
:10B5BC00F8EEE77A204A27EE800A11785478BDEE2F
:10B5CC00C00A02EB410110EE103A1BB2002B4FF0F7
:10B5DC00000002EB44020CDD4B80508002B010BD29
:10B5EC0002EB41015B424880517802EB41025380EF
:10B5FC00D9E75B424880538002B010BD03F0FF01D5
:10B60C000E48012313700E220092C0E90011C0E90C
:10B61C0002110B4A0B490C4821F0B4F84FF0A0432F
:10B62C004FF40012C3F80825A2E700BF0F20012039
:10B63C000E200120F81F0120042001209C20012055
:10B64C00A4370020943700208C37002010B5334BE2
:10B65C00334A00211970137882B00446002B45D070
:10B66C0002F0FEFF23B207EE903AF8EEE77A2D4A8D
:10B67C0027EE800A1178BDEEC00A002010EE103AB9
:10B68C001BB2002B24DD02EB41014B80537802EB03
:10B69C0043025080644224B202F0E2FF07EE904A6B
:10B6AC00F8EEE77A204A27EE800A11785478BDEE3E
:10B6BC00C00A02EB410110EE103A1BB2002B4FF006
:10B6CC00000002EB44020CDD4B80508002B010BD38
:10B6DC0002EB41015B424880517802EB41025380FE
:10B6EC00D8E75B424880538002B010BD03F0FF01E5
:10B6FC000E48012313700E220092C0E90011C0E91C
:10B70C0002110B4A0B490C4821F03CF84FF0A043B6
:10B71C004FF40012C3F80825A2E700BF0F20012048
:10B72C000E200120F81F0120042001209C20012064
:10B73C00A4370020943700208C37002010B53D4BE7
:10B74C003D4A00211970137882B00446002B59D061
:10B75C0002F086FF63421BB207EE903AF8EEE77AEE
:10B76C00364A27EE800ABDEEC00A10EE103A1BB224
:10B77C00002B2ADD1178507802EB410102EB4002DC
:10B78C009BB200204B80CB805080D08024B202F042
:10B79C0067FF07EE904AF8EEE77A294A27EE800A0F
:10B7AC00BDEEC00A10EE103A1BB2002B1BDD117857
:10B7BC00507802EB410102EB40029BB200204B801F
:10B7CC00CB805080D08002B010BD117802EB4101CB
:10B7DC0000204880C88051785B4202EB41029BB24A
:10B7EC005380D380D2E71178507802EB41015B4251
:10B7FC0002EB40029BB200204880C8805380D3806B
:10B80C0002B010BD03F0FF010E48012313700E228D
:10B81C000092C0E90011C0E902110B4A0B490C4817
:10B82C0020F0B0FF4FF0A0434FF40012C3F80825EE
:10B83C008EE700BF0F2001200E200120F81F0120F1
:10B84C00042001209C200120A437002094370020E4
:10B85C008C37002010B53D4B3D4A002119701378F0
:10B86C0082B00446002B59D002F0FAFE23B207EE48
:10B87C00903AF8EEE77A374A27EE800ABDEEC00A16
:10B88C0010EE103A1BB2002B2BDD1178507802EB26
:10B89C00410102EB40029BB200204B80CB805080D8
:10B8AC00D080644224B202F0DBFE07EE904AF8EE40
:10B8BC00E77A294A27EE800ABDEEC00A10EE103A4C
:10B8CC001BB2002B1BDD1178507802EB410102EB0F
:10B8DC0040029BB200204B80CB805080D08002B0C5
:10B8EC0010BD117802EB410100204880C8805178CE
:10B8FC005B4202EB41029BB25380D380D1E71178BB
:10B90C00507802EB41015B4202EB40029BB20020FB
:10B91C004880C8805380D38002B010BD03F0FF0173
:10B92C000E48012313700E220092C0E90011C0E9E9
:10B93C0002110B4A0B490C4820F024FF4FF0A04396
:10B94C004FF40012C3F808258EE700BF0F2001202A
:10B95C000E200120F81F0120042001209C20012032
:10B96C00A4370020943700208C37002010B40D4AE7
:10B97C000D4B92F800C0517818780C4C02EB4C0C23
:10B98C0002EB4102597803EB400003EB4103002129
:10B99C00ACF802104180217051805DF8044B598045
:10B9AC00704700BFF81F0120042001200F20012048
:10B9BC0010B40F4A0F4B92F800C0517818780E4C07
:10B9CC0002EB4C0C02EB41015A7803EB400003EB09
:10B9DC00420200232370ACF80230ACF806304380EE
:10B9EC00C3805DF8044B4B80CB805380D380704771
:10B9FC00F81F0120042001200F20012030B55C4BE2
:10BA0C005C4A00212DED028B1970137883B0B0EED7
:10BA1C00408AF0EE608A002B00F09280B5EEC08A6E
:10BA2C00F7EE007AF1EE10FA77EEE87A48BFB1EE55
:10BA3C00488A67EE887A48BF4FF6FF7577EEA77A8B
:10BA4C0058BF012517EE900A28F058FB41EC100B5B
:10BA5C0028F056FD68EE288A51EC100B28F062FA9B
:10BA6C0078EEA87A04B217EE900A28F047FB41EC66
:10BA7C00100B28F045FD38EE088A51EC100BBDEE8A
:10BA8C00C88A28F04FFA18EE103A002C00B21BB2FC
:10BA9C0053DB9C42A8BF1C4614FB05F422B208EEF3
:10BAAC00902A002846DB8342A8BF034613FB05F30C
:10BABC001BB208EE103A02F0D3FDF8EEE88A2E4ADB
:10BACC0068EE808A11785478FDEEE88A02EB410129
:10BADC0018EE903A1BB2002B4FF0000002EB440220
:10BAEC001DDD4B80508002F0BBFDB8EEC88A234AA6
:10BAFC0028EE008A11785478BDEEC88A02EB410119
:10BB0C0018EE103A1BB2002B4FF0000002EB44026F
:10BB1C0009DD4B80508003B0BDEC028B30BD5B4225
:10BB2C0048805380DFE75B424880538003B0BDEC14
:10BB3C00028B30BD9FED128ABDE7DFED118AB0E7B5
:10BB4C00104803F0FF010E2401230094C0E90011FA
:10BB5C00C0E9021113700C490C4A0D4820F012FE7A
:10BB6C004FF0A0434FF40012C3F8082556E700BF6E
:10BB7C000F2001200E200120F81F0120042001209D
:10BB8C00000000009C20012094370020A4370020E6
:10BB9C008C37002010B52DED068B324B324CD3ED8B
:10BBAC00020A93ED010A94ED011AD4ED021A86B043
:10BBBC0001F0E4FEA0698DED000AB0EE408AB0EE13
:10BBCC00609ACDED010A28F099FA41EC100B41EC8A
:10BBDC001A0B28F0D3FD51EC100B28F0A9FAB0EE9B
:10BBEC004A0AF0EE6A0A08EE900A029028F0DEFC8F
:10BBFC0051EC100B28F09CFAF0EE490A01EE900A79
:10BC0C00B0EE681AB0EE480A039001F0D9FEDDEDF3
:10BC1C00030AB0EE401A9DED020A01F0A7FEB0EE49
:10BC2C00401AF0EE601A9DED000ADDED010A8DED73
:10BC3C00041ACDED051A01F0A1FE04A88DED040A3D
:10BC4C00CDED050A01F0A2FEF0EE087AB4EEE70A9B
:10BC5C00F1EE10FA94BF0120002006B0BDEC068B6B
:10BC6C0010BD00BF2C2B0120E8210120014B1878BE
:10BC7C00704700BF4C2B0120024A034B012111706D
:10BC8C00187070474C2B01204D2B0120014B0022CA
:10BC9C001A7070474C2B0120F8B5284D284B95F89D
:10BCAC0000C01A780CF114039B1A264A82FB03215C
:10BCBC00DA17C2EBE10202EB8202A3EB8203132B35
:10BCCC003AD0214B214C224F86460646E41ABEE858
:10BCDC000F000CEB4C0C07EB0C1CACE80F00BEE897
:10BCEC000F00ACE80F009EE80F00E408240444F0B9
:10BCFC0003048CE80F00327C1649204625F024FD05
:10BD0C002B78144903EB430307EB031720463A7CCB
:10BD1C0025F01AFD2A78104B0132A3FB02131B09E4
:10BD2C0003EB8303A2EB8303204632780B492B7081
:10BD3C0025F00AFD0120F8BD0020F8BD08270120E0
:10BD4C000927012067666666A0670500E0670500A5
:10BD5C0048230120D4860500CDCCCCCCEC86050044
:10BD6C0084B010B401AC84E80F00A446BCE80F000A
:10BD7C00064C0FC4BCE80F000FC49CE80F0084E80D
:10BD8C000F005DF8044B04B0704700BFB8210120D0
:10BD9C0030B5364C364D94F9003003C84FEAC30C1D
:10BDAC0005EBC30383E803003248D3ED007A324B32
:10BDBC00C01AC008F5EEC07A0004F1EE10FA85B096
:10BDCC0040F0050040D42D4A9FED2D6AFDEEE76A48
:10BDDC00F5EEC07AB8EEE67AF1EE10FA6544CCBF17
:10BDEC0037EEC77A37EE677AD5ED017A27EE067A09
:10BDFC00F5EEC07AF1EE10FABDEEC77A2DD41F4BDA
:10BE0C000193BDEEE76AF5EEC07AF8EEC65AF1EE94
:10BE1C0010FACCBF77EEE57A75EEE77ADFED185ABB
:10BE2C0018498DED026A67EEA57A16EE903AFDEE92
:10BE3C00E77A8DED007ACDED037A26F023F823789E
:10BE4C000133237005B030BDBFEE007AF4EEC77A33
:10BE5C00F1EE10FAB7DD0C4AB6E7BFEE006AF4EE6D
:10BE6C00C67AF1EE10FACADD074BC9E7002B0120A8
:10BE7C000C270120E0670500A0670500948B0500E6
:10BE8C000000C84200870500D06A05002DE9F04388
:10BE9C00DFF8288298F80030012B99B001D0FFF719
:10BEAC0065FD7549754A0B7812789A4200F0B1809D
:10BEBC00734CDFF80882DFF80892DFED727A03EB3F
:10BECC00430204EB0214704A0133A2FB0302120971
:10BEDC0002EB8202A3EB82030B700FCCEE46AEE8B2
:10BEEC000F000FCCAEE80F0094E80F008EE80F00A7
:10BEFC006F460FCF0DF1300C6646ACE80F000FCF3C
:10BF0C00ACE80F009EE80F008CE80F000FCE454602
:10BF1C000FC50FCE0FC59CE80F0085E80F0098F8F1
:10BF2C000030C9ED047A023BC9ED037AC9ED057AFC
:10BF3C00042B3AD8DFE803F0035263394D00534B1E
:10BF4C00D8F81420D3ED020A93ED010A99ED011AE9
:10BF5C00D9ED021AC9F80020D9F818209A6101F01D
:10BF6C000DFD0CA8CDED0D0A8DED0C0A01F00EFDAA
:10BF7C004749484A484CD2ED000A4C600023474AD6
:10BF8C008B604FF07E504FF07A540C60C8F8200054
:10BF9C00CB6043480B6199ED000A42491060516037
:10BFAC009360D3601361FFF729FD04F0ABF83E4BAF
:10BFBC003E4AC8F80800C3E900013D4BC8F80C1014
:10BFCC000126C2E90001C3E90001304619B0BDE801
:10BFDC00F0832E4BD8F818209A61E6E798F81130C8
:10BFEC00002BE2D12949334BD8F818008861002284
:10BFFC0031495A609A601960DA601A61D5E7254BAD
:10C00C0098ED050AD3ED000AB1EE400AFFF7F6FCF5
:10C01C00CBE730220DEB0200002129F0FDFD04F0EE
:10C02C0071F8CDE90E0101238DF830300CACA64629
:10C03C00A4460FCC6D460FC50FCC0FC594E80F006E
:10C04C0085E80F00E846B8E80F00AEE80F00B8E846
:10C05C000F00AEE80F00BCE80F00184F0FC7BCE88C
:10C06C000F000FC794E80F00002687E80F0030463A
:10C07C0019B0BDE8F08300BF092701200827012073
:10C08C004823012000000000CDCCCCCC2C2B01206F
:10C09C00182B0120B4370020A69B443B0823012019
:10C0AC006666663FCDCCCC3DB0200120202301201C
:10C0BC00F82A0120042B01203333333FB82101200F
:10C0CC00E8210120024B4FF07C521A60704700BFF0
:10C0DC00B437002010B5064C864684460FCCACE82D
:10C0EC000F0094E80F008CE80F00704610BD00BFE5
:10C0FC00E8210120014B01221A7070470B27012007
:10C10C002DE9F043294A2A492A4B2B4C4FF00009C0
:10C11C0099B082F8009030220DEB020081F800906B
:10C12C00494683F8009029F077FD03F0EBFF0123DB
:10C13C00CDE90E018DF83030204A214B0CAFBE46B4
:10C14C00BC46A3EB02080FCF6E460FC60FCF0FC62F
:10C15C0097E80F006D4686E80F000FCDAEE80F0094
:10C16C000FCDAEE80F00BCE80F000FC4BCE80F0009
:10C17C000FC49CE80F004FEAD8084FEA084884E83F
:10C18C000F0048F005000F4925F006FA0E4B0F4939
:10C19C0083F800900CA8FDF7D9FD0CA902460520E8
:10C1AC00FDF784FE19B0BDE8F08300BF0A2701201B
:10C1BC000B270120002B0120B8210120A0670500CE
:10C1CC00E067050030870500F42A0120E8210120F2
:10C1DC000000000070B52DED048B924D924E934CE7
:10C1EC0095F9003096F90020914992B0204629F03B
:10C1FC00CFFE2146C2B20620FDF758FE96F900206C
:10C20C0095F90030934240F3C2808A4B8A4E8B4D95
:10C21C00DFED8B8A95ED011AD5ED021A03EBC20303
:10C22C0093E80300341D84E80300D6ED020A96ED72
:10C23C00010A01F0A3FB04A8CDED050A8DED040A5B
:10C24C0001F0B8FBDFED7F7A60EE277A17EE900AEB
:10C25C0027F054FF6FA3D3E9002327F011FD27F03B
:10C26C0067FF09EE100AB5EEC09AF1EE10FA44BF62
:10C27C00DFED737A39EE279AD5ED067A39EE287A06
:10C28C0077EE677A17EE900A27F038FF9FED631B65
:10C29C0041EC100B27F0AEFF51EC100B27F048FFD0
:10C2AC00DFED687A08EE100AB4EEE78AF1EE10FAC8
:10C2BC0004A8C8BF38EEC88A01F068FB6248634B1B
:10C2CC00C01AC008B5EEC08A0004F1EE10FAF0EE08
:10C2DC00408A40F0050051D45D4ADFED5E6A5E494C
:10C2EC000390BDEEC87AB5EEC08AF8EEC77AF1EECF
:10C2FC0010FACCBF78EE677A77EEC87A17EE103A60
:10C30C0067EEA67AFDEEE77ACDED007A25F0E4FB38
:10C31C00F5EEC08AF1EE10FA039846D44C4ADFEDE4
:10C32C004D6A4E49BDEEE87AF5EEC08AF8EEC77A52
:10C33C00F1EE10FACCBF78EEE77A77EEE87A17EEEA
:10C34C00103A67EEA67AB0EEC88AFDEEE77ACDED2C
:10C35C00007A25F0C1FB424BD3ED007AB4EEE78AAC
:10C36C00F1EE10FA43DCF0EE007AF4EEE78AF1EE2F
:10C37C0010FA23DC12B0BDEC048B70BDFFEE007A1A
:10C38C00B4EEE78AF1EE10FAA6DD364AA5E7364B95
:10C39C002360032221460620FDF788FD12B0BDEC78
:10C3AC00048BBDE87040FFF7ABBEFFEE007AF4EEF5
:10C3BC00E78AF1EE10FAB1DD2A4AB0E7302200210B
:10C3CC0006A829F029FC94E803000CAB83E80300D1
:10C3DC00264A0B920221012306A88DF818108DF81D
:10C3EC002A30FFF759FC12B0BDEC048B70BD302223
:10C3FC00002106A829F010FC0322012306A88DF8C1
:10C40C0018208DF82A308DED0C9AFFF745FCAAE721
:10C41C00AFF30080182D4454FB21094000000000AC
:10C42C0000807640002B01200A270120B820012033
:10C43C003C8705000C2701202C2B0120E821012032
:10C44C000000B44300003443E0670500A06705001A
:10C45C00948B05000000C842548705006C870500CA
:10C46C00B8370020D06A0500454E44000000484310
:10C47C00F0B5244B24482549254CC01AC0080004AB
:10C48C0099B040F0050025F087F8FFF76FFA214AC4
:10C49C002148137821490078087001331370302239
:10C4AC000DEB0200002129F0B7FB03F02BFECDE9C8
:10C4BC000E0101238DF830300DF1300C6546E64647
:10C4CC00BCE80F006F460FC7BCE80F000FC79CE815
:10C4DC000F006E4687E80F000FCE0FC50FCE0FC5AD
:10C4EC00BEE80F000FC4BEE80F000FC49EE80F009B
:10C4FC0084E80F000A48FDF7D1FE19B0BDE8F04002
:10C50C00FFF768BEA0670500E06705008887050097
:10C51C00B82101200A270120082701200927012022
:10C52C00E82101202DE9F04D2DED068B9B4EDFF817
:10C53C00A8829CB003F0E6FDD6E900320446C01A8E
:10C54C000D4661EB020127F077FD8EA3D3E90023A2
:10C55C0027F0FEFA27F0ECFD98F800303460012B40
:10C56C00756000F0F88098F81120012A08EE900A06
:10C57C0017D0023B042B00F2EE80DFE803F0032916
:10C58C000D0D470001221146002002F061FD98F8C4
:10C59C001230002B40F0B5811CB0BDEC068BBDE811
:10C5AC00F08DD8F80820D8E90A60A11AD8F80C2028
:10C5BC0065EB0202B1428241DBD398F81060FFF7C1
:10C5CC0065FC10B90EB1FFF79BFD98F80030D0E771
:10C5DC0001210022084602F03BFD98F81130002B97
:10C5EC0000F0FC80D8ED057AF5EEC07AF1EE10FA89
:10C5FC0040F36A82FCEEE77A17EE903A98B21CB0E0
:10C60C00BDEC068BBDE8F04DFFF798B8644B9FED81
:10C61C00659AD3ED067A644B79EE677A93ED067AD8
:10C62C0077EE877A002617EE900A27F067FD9FEDCC
:10C63C00571B41EC100B27F0DDFD51EC100B27F0D4
:10C64C0077FDDFED5A7A5A4BD8F80C10D3ED036A0C
:10C65C0093ED047AD3ED005A08EE100AB4EEE78A93
:10C66C00F1EE10FA58BF38EE498AD3ED017A83ED1A
:10C67C00038A78EE666A67EE277A86EEA86AE5EE9C
:10C68C00887AD3ED026AA8EE887AE6EE267A83EDF4
:10C69C00047AF5EEC07AD8F80830F1EE10FAB4BF8F
:10C6AC00444F454FE01A65EB010127F0C5FC39A357
:10C6BC00D3E9002327F04CFA404B002227F024F951
:10C6CC0032463B4627F044FA27F032FD3C4B3D4ABC
:10C6DC0008EE900A981AC008F5EEC08A0004F1EE34
:10C6EC0010FA40F0050042D4374ADFED386A384979
:10C6FC00BDEEE87AF5EEC08AF8EEC77AF1EE10FAE4
:10C70C00CCBF78EEE77A77EEE87A17EE103A67EE60
:10C71C00A67AB0EEC88AFDEEE77ACDED007A25F068
:10C72C00DBF9F0EE007AB4EEE78AF1EE10FA40F2A3
:10C73C00CE81F5EEC08AF1EE10FA00F1DB81FCEE51
:10C74C00E88A18EE903A98B21CB0BDEC068BBDE8A6
:10C75C00F04DFFF77FB800210122084602F078FC6B
:10C76C001CB0BDEC068BBDE8F04DFFF78FBBFFEEA8
:10C77C00007AF4EEE78AF1EE10FAB5DD154AB4E76B
:10C78C00AFF300808DEDB5A0F7C6B03E0000000001
:10C79C0000807640F168E388B5F8E43EF82A012081
:10C7AC00E82101200000B4432C2B0120000034436D
:10C7BC00042B01200000F0BF0000F03F00005E40A1
:10C7CC00E0670500A0670500948B05000000C842D7
:10C7DC00D8870500D06A0500B8210120D94B9FED00
:10C7EC00DA9AD3ED067AD94B79EE677A93ED067A1D
:10C7FC0077EE877A17EE900A27F080FC9FEDC11B2D
:10C80C0041EC100B27F0F6FC51EC100B27F090FCD0
:10C81C00DFEDCF7ACF4B08EE100AB4EEE78AF1EEDB
:10C82C0010FA58BF38EE498AD3ED036A93ED047AB7
:10C83C00D3ED017A83ED038A78EE666A67EE277A88
:10C84C0086EEA86AD3ED006AE6EE887AD3ED026A2A
:10C85C00A8EE887AE6EE267A83ED047A17EE900A33
:10C86C0027F04CFCA9A3D3E9002327F071F927F09A
:10C87C005FFC08EE900A9FEDB87AF0EEE87AF4EEE1
:10C88C00C77AF1EE10FAC0F27581F5EEC08AF1EEBE
:10C89C0010FA4FF00006C0F23082B04F0122002196
:10C8AC00AF4BD3ED007AB0EEC88AB4EEE78AF1EE66
:10C8BC0010FAD8E9020C00F10782201A65EB0C0C77
:10C8CC0000FB01F102FB0C11A0FB0202114427F04A
:10C8DC00B3FB90A3D3E9002327F03AF932463B4649
:10C8EC0027F012F827F024FC07EE900AF5EEC07A38
:10C8FC00F1EE10FA00F1E880FCEEE77A17EE903AD0
:10C90C0021E7924B8F4E93ED010AD3ED020A96ED7F
:10C91C00011AD6ED021A01F031F802A88DED020AC7
:10C92C00CDED030A01F032F898F81130B0EE409AD0
:10C93C00ABB9F0EE007AB4EEE70AF1EE10FA0ED8CD
:10C94C00FFF796FDFFF7A2FA00287FF425AE98F8C2
:10C95C001030002B3FF420AEFFF7D2FB1CE602A8F0
:10C96C0001F028F8DFED7A9A9FED77AA60EE297A2C
:10C97C0017EE900A27F0C2FB68A3D3E9002327F037
:10C98C007FF927F0D5FB07EE900A96ED067A77EE45
:10C99C008A7A77EEC77A17EE900A27F0AFFB9FEDF5
:10C9AC00591B41EC100B27F025FC51EC100B27F018
:10C9BC00BFFB08EE100A98F81130B4EEE98AF1EEDC
:10C9CC0010FAC8BF3AEE488A002B00F0E780654B9E
:10C9DC00D6ED056A93ED036A93ED047AD3ED017AF3
:10C9EC00C3ED036A36EEC66A67EE277AC6EE285A9E
:10C9FC0093ED006AE6EE867A93ED026AA8EEA67ACB
:10CA0C00E5EE867A83ED047A17EE900A27F076FB32
:10CA1C0044A3D3E9002327F09BF827F089FB524B62
:10CA2C001B7808EE100A002B00F01281D8F80800D1
:10CA3C00D8F80C10201A65EB010127F0FDFA3BA386
:10CA4C00D3E9002327F018FA002800F00181474CA5
:10CA5C00D4ED009A19EE900A27F050FB35A3D3E9D8
:10CA6C00002382468B4627F041FA38B933A3D3E929
:10CA7C0000235046594627F01DFA20B1292000F01A
:10CA8C00E9FFD4ED009A78EE290AF5EE007AF4EE7F
:10CA9C00E70AF1EE10FA09D4F6EE087AF4EEE70A9A
:10CAAC00F1EE10FAD8BFC4ED000A03DDF0EE670A10
:10CABC00C4ED007A98F81130002B00F0CD8096ED83
:10CACC00000AFEF79BFF67E5F1EE677A92E5FEF749
