:020000022000DC
:1070000000000420757302005D7302005F730200CC
:1070100061730200637302006573020000000000E8
:107020000000000000000000000000006773020084
:1070300069730200000000006B7302006D730200B0
:10704000E5D60200EDEF0200E9C202008DC50200A4
:1070500069C702006F730200D9BD02006F7302009E
:107060006F7302004DE802006F7302006F7302003D
:107070006F7302006F7302006F7302006F73020080
:107080006F7302003D8F02006F7302006F73020086
:107090006F73020029020300B9D40300DDF002007F
:1070A0006F7302006F730200B9520300056D030095
:1070B00061C40200DD820300000000000000000047
:1070C0006F7302006F7302006F7302006F73020030
:1070D0006F7302002D8103006F730200E5E502006B
:1070E0006F7302006F7302006F73020000000000F4
:1070F000000000006F730200000000006F730200C8
:10710000000000000000000000000000000000007F
:10711000000000000000000000000000000000006F
:10712000000000000000000000000000000000005F
:10713000000000000000000000000000000000004F
:10714000000000000000000000000000000000003F
:10715000000000000000000000000000000000002F
:10716000000000000000000000000000000000001F
:10717000000000000000000000000000000000000F
:1071800000000000000000000000000000000000FF
:1071900000000000000000000000000000000000EF
:1071A00000000000000000000000000000000000DF
:1071B00000000000000000000000000000000000CF
:1071C00000000000000000000000000000000000BF
:1071D00000000000000000000000000000000000AF
:1071E000000000000000000000000000000000009F
:1071F000000000000000000000000000000000008F
:10720000354936480A1A02D0072291438D4634493F
:1072100034480A1A06D00722914381F309880222D2
:1072200082F3148830483149314A00F044F831483B
:107230003149324A00F03FF831483249324A00F0D1
:107240003AF832483249334A00F035F83248334987
:10725000334A00F030F833483349344A00F02BF811
:1072600033483449344A00F026F83448344900227F
:1072700000F02CF833483449002200F027F8334856
:107280003349091A082902DB002202604160314AB1
:1072900090471F481F49884205D00268043003B454
:1072A000904703BCF7E700208646EC46002000210B
:1072B000294A9047FEE7884207D0521A05D0037842
:1072C00001300B700131013AF9D17047884202D088
:1072D00002700130FAE770470000042000830320A9
:1072E0000000042000000420C826060064370020A7
:1072F00058380020D0730200D0730200E8690500FE
:10730000C82606006437002064370020C46B0500DF
:10731000C46B0500C46B0500C46B0500C46B05009D
:10732000C46B0500C46B0500C46B0500C0260600D5
:10733000BC27060058380020583800205838002054
:10734000ACDE0120ACDE0120B0DE0120B0DE012089
:10735000309A02209D73020019560300FEE7FEE7F3
:10736000FEE7FEE7FEE7FEE7FEE7FEE7FEE7FEE7F5
:1073700000F002B8FFF7FCBF0F484FF00701884349
:1073800085460E4880470E48016841F4700101604F
:10739000BFF34F8FBFF36F8FFFF732BF09480A4922
:1073A0000A4A884207D0521A05D0037801300B7080
:1073B0000131013AF9D170470000042075B3020091
:1073C00088ED00E0B06B05005037002064370020E6
:1073D00000487047A4DE0120704700BF00B583B0AD
:1073E000044B0093044A402300F036F803B05DF8E4
:1073F00004FB00BFFD7302005C38002002B32DE9DE
:10740000F843114B114E88461446032743F00109F7
:107410000025224608EB0501002016F0EBF9034693
:10742000E41A4FF47A401D4423B9337833B1C84786
:10743000013F06D001233370002CEAD1BDE8F88368
:1074400070473770BDE8F883D06B050058380020CE
:10745000704700BF16F0A4BAF0B595B008460024F6
:107460000E4617461D4603F027FE1A9A0D92234634
:10747000082205A93046CDE9095408978DF82C401B
:107480000C9403F07DFEDDE906219DF814308DF8A3
:107490001140CDE9021203F00302012A28D0022A8A
:1074A00004D0304603F00CFE15B0F0BDBDF8165008
:1074B000C3F3C203C5F389158DF810300827082DD2
:1074C0002C4628BF08243B4622460EA9304603F02E
:1074D00057FE2D1B08AB02AA21460EA8274401F037
:1074E00021F8002DEBD1304603F0EAFD15B0F0BDD8
:1074F000BDF814100598C1F38312C3F3C203C0F39F
:107500009525C1F383148DF810300EA930469200F2
:10751000082303F035FE08AB0093224602AB0EA908
:10752000284600F089FF304603F0CAFD15B0F0BDD3
:1075300008B5FFF78FFF0448042100F0FFFE034B5E
:1075400001225A7108BD00BFA06B050064370020FE
:10755000064B074810B501221A7003F061FD04467E
:1075600010B9044803F082FE204610BD6C3900209B
:10757000886A05000C6C050030B499B10D490E4DB8
:10758000491BC90813D00D4C002302E00133994276
:107590000AD034F823208242F8D1184655F830003A
:1075A00030BC7047044DF9E7002030BC70470846F6
:1075B000F6E700BFA06B0500B06A05006437002045
:1075C000094B013903EBC00003290BD8DFE801F0B8
:1075D0000402080604207047022070474079704773
:1075E0000079704700207047B06A05002DE9F04728
:1075F000914DD5E901239A4284B062D005F58046C9
:107600000023B361BFF34F8FAC68C4F30B02D31CEC
:1076100005EB830115F82330580718D56F680B78F0
:1076200003F00303012B42D0022B03D14B88023419
:1076300004EB9314C4F30B02B069D31C05EB830174
:1076400028B9A74239D915F823305B07E7D405EBF1
:107650008202631CD2680192C3F30B0305EB830320
:1076600002F00302DB680293022A04F102072CD025
:10767000012A00F0908034693CB1236820469B6861
:107680009847E3681C68002CF7D16C486C4B6D4937
:10769000C01AC008000440F0020000F0D9F8D5E993
:1076A0000130C01A18BF012004B0BDE8F0870B8874
:1076B0000234C3F383131C44BCE7AF6004B0BDE8DD
:1076C000F087002004B0BDE8F087BDF806305E48C2
:1076D000C3F389194C46502C28BF502404F10801EB
:1076E00064F38F13C1F30901ADF8063003F09AFC7F
:1076F00080460028BFD003F0DFFC0023082201A948
:10770000404603F009FDFB43C3F30B030133B4EB25
:10771000830F4FEA83027CD9C7F30B015FFA82FA29
:10772000033105EB810140460823A4EB0A0403F072
:10773000F3FCE4B20AF10803444903F0FC032246D7
:10774000404603F0E9FC09F1030907EB9907B36927
:10775000002B6DD1346964B1E3685A792046414603
:10776000002A61D023681B689847E3681C68002CD6
:10777000F2D1404603F0A4FC00230DF103008DF884
:10778000033001F04DFAB36903B9AF609DF803000F
:1077900001F06CFA83E7BDF804202B48C2F3831391
:1077A000062B28BF062363F38912023303F00F016F
:1077B0008900ADF8042003F035FC804600283FF432
:1077C0005AAF03F079FC0023082201A9404603F0D8
:1077D000A3FCBDF8043013F4707FB8D06FF001093A
:1077E000A9EB04090824C7F30B0103312346042243
:1077F00005EB8101404603F08FFCBDF804300137F2
:10780000C3F3831309EB0702934204F10404EAD89B
:107810009DE7C7F30B010331224605EB81010823E5
:10782000404603F079FC8EE71C68002C94D1A0E759
:10783000404603F045FC32E76C390020F06A050051
:10784000B06A0500F46B0500886A050078390020ED
:107850002DE9F04FDFF8A4A187B0002306460DF113
:107860000B008DF80B30019101F0DAF9DAE90183B0
:1078700003F58053A3EB0803012B00F282805E4DD9
:107880002F1FA5F108041AE0BDF80E30C3F38913C9
:1078900003334FEA11490BEB930B204602F02AFD0C
:1078A000494600283CD02846CAF808B002F0F2FC4D
:1078B000DAE9012303F580539B1A012B62D80121D9
:1078C000284602F0E7FC384602F008FD204602F0A8
:1078D00005FDDAF80830C3F30B02D11C0AEB810C6A
:1078E0001AF8211001F0040049072AD40AEB82019A
:1078F0005A1CC9680391C2F30B0201F003000AEBA2
:1079000082020128D16803F1020B32D00228BBD0D9
:10791000204602F0EFFC4FF0000949460028C2D192
:107920002846C3E7BCF802300EEB9313C3F30B02F7
:10793000D11C0AEB810C1AF8211001F00400002878
:10794000D4D09CF8001001F0030101290AD00229CB
:1079500003F1020E02F10301E4D00AEB810C0028CE
:10796000EFD1C3E7BCF800200233C2F38312134403
:10797000DCE7BDF80C30C3F383134FEA11499B4495
:107980008BE74246C2F30B030333023205219DF815
:107990000B004AF82310CAF8042001F067F900210F
:1079A000154802F03DFC80F31001F300019A9AF8AB
:1079B000004003F0380343F0010308F1010043EAFB
:1079C0008223C0F30B00C8F30B0209040AEB80000A
:1079D000033241EA1641C1604AF8223014B907B0B7
:1079E000BDE8F08FFFF702FE0028F8D0FFF7FEFD9C
:1079F0000028F7D1F3E700BF887900206C39002018
:107A00002DE9F04FDFF8B4B187B0002306460DF141
:107A10000B008DF80B30CDE9001201F001F9DBE924
:107A2000018303F58053A3EB0803022B00F282804D
:107A3000614D2F1FA5F108041AE0BDF80E20C2F316
:107A4000891203324FEA114A09EB9209204602F0EB
:107A500051FC514600283CD02846CBF8089002F053
:107A600019FCDBE9012303F580539B1A022B62D832
:107A70000121284602F00EFC384602F02FFC204679
:107A800002F02CFCDBF80830C3F30B02D11C0BEB2B
:107A9000810C1BF8211001F0040049072AD40BEBDC
:107AA00082015A1CC9680391C2F30B0201F0030062
:107AB0000BEB82020128D16803F1020932D00228BF
:107AC000BBD0204602F016FC4FF0000A51460028B9
:107AD000C2D12846C3E7BCF802300EEB9313C3F3C0
:107AE0000B02D11C0BEB810C1BF8211001F00400E0
:107AF0000028D4D09CF8001001F0030101290AD01D
:107B0000022903F1020E02F10301E4D00BEB810C18
:107B10000028EFD1C3E7BCF800200233C2F3831280
:107B20001344DCE7BDF80C20C2F383124FEA114A7C
:107B300091448BE74246C2F30B03033303324521E2
:107B40009DF80B004BF82310CBF8042001F08EF8C1
:107B500008F10203C3F30B030BEB8303019ADA6012
:107B60000021154802F05CFB80F31001F300009A3D
:107B70009BF8004003F0380343F0410308F1010093
:107B800043EA8223C0F30B00C8F30B0209040BEB9A
:107B90008000033241EA1641C1604BF8223014B92B
:107BA00007B0BDE8F08FFFF721FD0028F8D0FFF700
:107BB0001DFD0028F7D1F3E7887900206C390020FB
:107BC0002DE9F04FDFF8C4B189B0002406460DF16D
:107BD00013000393CDE901128DF8134001F020F852
:107BE000DBF80830DBF8047003F58053DB1B032B54
:107BF00000F28380644DA5F10408A5F108041AE0A1
:107C0000BDF81630C3F3891303334FEA11490AEB69
:107C1000930A204602F06EFB494600283CD02846D5
:107C2000CBF808A002F036FBDBE9012303F5805313
:107C30009B1A032B62D80121284602F02BFB4046F9
:107C400002F04CFB204602F049FBDBF80830C3F39E
:107C50000B02D11C0BEB810C1BF8211001F004006E
:107C600049072AD40BEB82015A1CC9680591C2F35B
:107C70000B0201F003000BEB82020128D16803F133
:107C8000020A32D00228BBD0204602F033FB4FF06C
:107C9000000949460028C2D12846C3E7BCF8023093
:107CA0000EEB9313C3F30B02D11C0BEB810C1BF8EF
:107CB000210000F004000028D4D09CF8001001F04E
:107CC000030101290AD0022903F1020E02F1030186
:107CD000E4D00BEB810C0028EFD1C3E7BCF8002007
:107CE0000233C2F383121344DCE7BDF81430C3F34C
:107CF00083134FEA11499A448BE73A46C2F30B03C8
:107D00000333043285219DF813004BF82310CBF880
:107D1000042000F0ABFFBB1CC3F30B030BEB83038E
:107D2000029ADA60FB1CC3F30B030BEB8303039A89
:107D3000DA600021144802F073FA80F31001F300B6
:107D4000019A9BF8004003F0380343F08103781C4C
:107D500043EA8223C0F30B00C7F30B0209040BEBC9
:107D60008000033241EA1641C1604BF8223014B959
:107D700009B0BDE8F08FFFF739FC0028F8D0FFF715
:107D800035FC0028F7D1F3E7887900206C39002012
:107D90002DE9F04F89B0DFF8C0B103930646002308
:107DA0000DF113008DF81330CDE9011200F038FF0A
:107DB000DBF80830DBF8047003F58053DB1B042B81
:107DC0007AD8644DA5F10408A5F1080419E0BDF8BE
:107DD0001630C3F3891303334FEA114A09EB9309B1
:107DE000204602F087FA514608B1CBF808902846A1
:107DF00002F050FADBE9012303F580539B1A042BB0
:107E00005BD80121284602F045FA404602F066FAA6
:107E1000204602F063FADBF80830C3F30B02D11CF2
:107E20000BEB810C1BF8211001F00400490723D44F
:107E30000BEB820203F10209D26805920133C3F30E
:107E40000B030BEB830302F00302012AD9682BD04A
:107E5000022ABCD04FF0000AC2E7BCF802300EEB99
:107E60009313C3F30B02D11C0BEB810C1BF8210005
:107E700000F004000028DBD09CF8001001F00301A2
:107E800001290AD0022903F1020E02F10301E4D014
:107E90000BEB810C0028EFD1CAE7BCF800200233BD
:107EA000C2F383121344DCE7BDF81430C3F3831329
:107EB0004FEA114A994493E73A46C2F30B0303335E
:107EC0000532C5219DF813004BF82310CBF8042090
:107ED00000F0CCFEBB1CC3F30B030BEB8303029A35
:107EE000DA60FB1CC3F30B030BEB8303039ADA602A
:107EF0003B1DC3F30B030BEB8303129ADA600021E3
:107F0000144802F08DF980F31001F200019B9BF8F8
:107F1000004002F0380242F0C102781C42EA83229B
:107F2000C0F30B00C7F30B0309040BEB8000033312
:107F300041EA1641C1604BF8232014B909B0BDE8ED
:107F4000F08FFFF753FB0028F8D0FFF74FFB002816
:107F5000F7D1F3E7887900206C3900202DE9F04F44
:107F600089B0DFF8D4B10393064600230DF1130066
:107F70008DF81330CDE9011200F052FEDBF8083025
:107F8000DBF8047003F58053DB1B052B7AD8694DB1
:107F9000A5F10408A5F1080419E0BDF81630C3F3F3
:107FA000891303334FEA11490AEB930A204602F082
:107FB000A1F908B1CBF808A04946284602F06AF9B1
:107FC000DBE9012303F580539B1A052B5BD80121C4
:107FD000284602F05FF9404602F080F9204602F0A0
:107FE0007DF9DBF80830C3F30B02D11C0BEB810CDD
:107FF0001BF8211001F00400490723D40BEB820287
:10800000591CD2680592C1F30B0102F003020BEB7D
:108010008101012AC96803F1020A2BD0022ABCD0CF
:108020004FF00009C2E7BCF802300EEB9313C3F324
:108030000B02D11C0BEB810C1BF8210000F004009B
:108040000028DBD09CF8001001F0030101290AD0C0
:10805000022903F1020E02F10301E4D00BEB810CC3
:108060000028EFD1CAE7BCF800200233C2F3831224
:108070001344DCE7BDF81430C3F383134FEA11490E
:108080009A4493E73A46C2F30B030333063240F2B5
:1080900005119DF813004BF82310CBF8042000F0D5
:1080A000E5FDBB1CC3F30B030BEB8303029ADA6001
:1080B000FB1CC3F30B030BEB8303039ADA603B1D3A
:1080C000C3F30B030BEB8303129ADA607B1DC3F33C
:1080D0000B030BEB8303139ADA600021154802F0BF
:1080E0009FF880F31001F30003F03803019A9BF826
:1080F000004043F4807343F00103781C43EA822379
:10810000C0F30B00C7F30B0209040BEB8000033232
:1081100041EA1641C1604BF8223014B909B0BDE8FC
:10812000F08FFFF763FA0028F8D0FFF75FFA002816
:10813000F7D1F3E7887900206C3900202DE9F04F62
:1081400089B0DFF8F4B10393064600230DF1130064
:108150008DF81330CDE9011200F062FDDBF8083034
:10816000DBF8047003F58053DB1B072B7CD8714DC3
:10817000A5F10408A5F108041BE0BDF81630C3F30F
:10818000891303334FEA11490AEB930A204602F0A0
:10819000B1F808B1CBF808A04946284602F07AF8B1
:1081A000DBF80830DBF8042003F580539B1A072B1B
:1081B0005BD80121284602F06DF8404602F08EF8A7
:1081C000204602F08BF8DBF80830C3F30B02D11C19
:1081D0000BEB810C1BF8211001F00400490723D49C
:1081E0000BEB8202591CD2680592C1F30B0102F01D
:1081F00003020BEB8101012AC96803F1020A2BD0AB
:10820000022ABAD04FF00009C0E7BCF802300EEBEA
:108210009313C3F30B02D11C0BEB810C1BF8210051
:1082200000F004000028DBD09CF8001001F00301EE
:1082300001290AD0022903F1020E02F10301E4D060
:108240000BEB810C0028EFD1CAE7BCF80020023309
:10825000C2F383121344DCE7BDF81430C3F3831375
:108260004FEA11499A4491E73A46C2F30B030333AC
:10827000083240F285119DF813004BF82310CBF81B
:10828000042000F0F3FCBB1CC3F30B030BEB8303D4
:10829000029ADA60FB1CC3F30B030BEB8303039A14
:1082A000DA603B1DC3F30B030BEB8303129ADA6016
:1082B0007B1DC3F30B030BEB8303139ADA60BB1D27
:1082C000C3F30B030BEB8303149ADA60FB1DC3F3B8
:1082D0000B030BEB8303159ADA600021154801F0BC
:1082E0009FFF80F31001F30003F03803019A9BF81D
:1082F000004043F4C07343F00103781C43EA822238
:10830000C0F30B00C7F30B0309040BEB800003332E
:1083100041EA1641C1604BF8232014B909B0BDE809
:10832000F08FFFF763F90028F8D0FFF75FF9002816
:10833000F7D1F3E7887900206C39002030B4114D73
:10834000296904460020B1B10B4601E01B6853B116
:10835000DB681A798242F9D101300A28F3D14FF053
:10836000FF3030BC7047E2681071CB68196811604B
:108370001C6030BC7047E36818712C6130BC196018
:10838000704700BF6C79002038B5094B03F5804277
:10839000012514691D704CB12368E2685B68557152
:1083A00020469847E3681C68002CF5D138BD00BF13
:1083B0006C39002030B5C38885B004460D4623BB18
:1083C000237A052B1FD0627A82B9144AA08852F80A
:1083D000232003920021FFF7CFF8039A10490346A8
:1083E000284605B0BDE8304002F00EB81946A08816
:1083F000FFF7E6F80B4B0C4953F82020284602F013
:1084000003F8237AE1E705B030BD08490091084A36
:108410000849284601F0F8FFD2E700BFD86C0500F4
:10842000446C0500B46C0500406C0500386C050018
:10843000186C0500206C05002DE9F04385B01D4641
:108440000C9C002394F80C90237380460E4617462C
:1084500021462846FFF7AEFF062F09D8DFE807F0D0
:10846000042E343B444F1F004146204601F0CCFF10
:108470002B7A052B05D06B7A5BB92749204601F092
:10848000C3FF204601F0B4FF84F80C9005B0BDE8AE
:10849000F083224A2249204601F0B6FFEDE77369D6
:1084A000039333690293F3680193B3680093D6E9A9
:1084B00000234146204601F0A7FFD9E73268414634
:1084C000204601F0A1FFD3E7D6E90023414620462C
:1084D00001F09AFFCCE7B3680093D6E90023414648
:1084E000204601F091FFC3E7F3680193B36800935E
:1084F000D6E900234146204601F086FFB8E73369FC
:108500000293F3680193B3680093D6E900234146D0
:10851000204601F079FFABE74C760500386C05008A
:10852000406C0500082900D970472DE9F04F1D4621
:1085300083B000241B7B2C730E4607462946104649
:1085400090460193DFF8BCB0DFF8BCA0FFF732FF24
:1085500005E03A5D013401F057FF082C09D0A6422E
:1085600051462846F5D85946013401F04DFF082CF4
:10857000F5D12049DFF894B0DFF894A0284601F047
:1085800043FF002414E017F80490B9F17E0F4FF078
:108590002E02484605D82DF0E9FB002814BF4A46B4
:1085A0002E2251462846013401F02EFF082C08D017
:1085B000A642E8D859462846013401F025FF082C88
:1085C000F6D198F80830052B02D098F809305BB93D
:1085D0000949284601F018FF284601F009FF019BD0
:1085E0002B7303B0BDE8F08F044A0549284601F01B
:1085F0000BFFEDE75C6C05004C760500386C050060
:10860000406C0500586C0500506C05004C6C050072
:10861000606C050000B585B00346002101AA44F254
:108620000100CDE90111039300F012F805B05DF8E7
:1086300004FB00BF00B583B002900091019244F2A8
:10864000010071466A4600F003F803B000BD00BFA8
:1086500010B572B6FFF798FEFEF7C8FF0028FBD1F1
:10866000104B114C1149E41AE408240444F00100B1
:10867000FFF7EEF80E4BD3F8F030DB0700D500BE65
:108680000C4944F00200FFF7E3F8BFF34F8F0849AD
:10869000094BCA6802F4E0621343CB60BFF34F8F0B
:1086A00000BFFDE7B06A0500F06A0500F86C050040
:1086B00000ED00E0046D05000400FA0530B48468A4
:1086C0008D68C368CA68A54272EB03032CBF012002
:1086D000002030BC704700BF10B5044682B00023B4
:1086E0000DF107008DF8073000F09AFA23692BB9D5
:1086F0004FF0FF324FF0FF33C4E902239DF807002B
:1087000000F0B4FAD4E90530984700230DF10700D2
:108710008DF8073000F084FA2369BBB1D4E9021266
:10872000B2F1FF3F08BFB1F1FF3F0FD05B1842F13C
:108730000002C4E902329DF8070000F097FA0748EA
:10874000214602F0B3FD012002B010BD9DF80700E4
:1087500000F08CFA002002B010BD00BF246D0500AF
:108760002DE9F04F2DED028B83B008EE100A00F0DA
:10877000A5FB40B1AC4AD2E9003113F1807341F15D
:108780000001C2E9003118EE100A002100F0B0FB30
:10879000A64D60B32B6853B3A54B2C681B7823B34D
:1087A0001CB3A44800F0B4FB9F4BA34A19685B6854
:1087B0004018D2E9001243F10003884273EB020231
:1087C00003D210F1807043F10003D4E90212884211
:1087D000934180F02581B2F1FF3F08BFB1F1FF3F27
:1087E00003D09648214602F061FD00232B6018EE6D
:1087F000100A012100F07CFB002840F0F180904835
:1088000001A901F059FC00283AD08D4C4FF0FF38F7
:108810004FF0FF3909E033B301A9204601F07EFC97
:1088200001A9204601F048FC50B30378012B11D078
:10883000022BF0D1814E304602F04CFD30B1C0E940
:108840000289304602F046FD0028F8D1784B01221B
:108850001A70E1E72B684168994200F0B5807748CB
:1088600002F042FDD8E74168D1E90223B3F1FF3FAE
:1088700008BFB2F1FF3FCFD0704802F017FDCBE741
:108880006E4FDFF8B081DFF8A091384602F028FD86
:10889000002852D0D0E90223B3F1FF3F08BFB2F164
:1088A000FF3F00F08D80296891B12968D1E902016C
:1088B00082428B4144D22B68D3E90223B3F1FF3FBC
:1088C00008BFB2F1FF3F03D02968384602F0EEFC42
:1088D000384602F0FFFC04464046574ED4E902BA3F
:1088E00000F016FBD9E900133268401843F1000389
:1088F0009042726873EB020203D210F1807043F170
:108900000003BBEB00006AEB0303012873F10003D3
:1089100024DBB0F5350F4DD25A464FF496030021B3
:10892000404600F045FA80B10D281BD000233846A0
:108930002B6002F0D5FC0028ACD12B68002B66D050
:1089400003B0BDEC028BBDE8F08F2B68002B3ED04E
:108950002C6003B0BDEC028BBDE8F08F00214046D7
:1089600000F0BCFA324B1B78002BDFD0404600F001
:10897000CFFAD9F80030D6E90012C018D9F804307F
:1089800043F10003884273EB020203D210F18070BE
:1089900043F10003D4E90212884293411CD2B2F1A0
:1089A000FF3F08BFB1F1FF3FC0D02146384602F07B
:1089B0007DFCBBE7404600F0ABFA224A0244ACE73C
:1089C000384602F087FC60E700232B6024E718EEAE
:1089D000100A00F0BFF9BBE72046FFF77DFEA5E7D0
:1089E0001448154E00F094FA0F4B1A685B68801813
:1089F000D6E9001243F10003884273EB020203D26E
:108A000010F1807043F10003C6E90003F7E618EEA9
:108A1000100A03B0BDEC028BBDE8F04F00F09EB928
:108A20002046FFF759FEE0E6287A0020A87A0020C9
:108A3000307A00206C370020A07A0020246D0500D9
:108A40008C7A0020FFFFB40010B5134B13491C684B
:108A5000134882B008235822019401F0D3FA044647
:108A600010B1204602B010BD0E4A0F4801A900F017
:108A700015F904460028F4D10B48012100F016FA3C
:108A800001231946094A084800F06CF9084B0122F5
:108A900020461A7002B010BD206D0500347A002007
:108AA0008C7A0020618702006C370020FFFF7F0076
:108AB000307A0020000000006AB19FED097BA1F12F
:108AC00001010368B1FA81F1490983ED027BC3E931
:108AD0000412002070470720704700BFAFF30080EA
:108AE000FFFFFFFFFFFFFFFFF0B583B00446002547
:108AF00001A817460E468DF8045000F091F8D4E90D
:108B00000223B3F1FF3F08BFB2F1FF3F06D09DF84B
:108B1000040000F0ABF8284603B0F0BD1C4800F09C
:108B2000F7F91C4B1C4A19685B684018D2E900121F
:108B300043F10003884273EB020224D3301843F15F
:108B40000003A060E3609DF8040000F08FF8236943
:108B5000A76103B12661114801A901F06BFA034630
:108B600070B100250D481D705C6001A901F094FAF8
:108B70000028D1D0064800F0CFF9284603B0F0BD58
:108B8000042003B0F0BD10F1807043F10003D5E77D
:108B90006C370020287A0020A07A00208C7A0020F0
:108BA00030B583B00446002501A88DF8045000F0CC
:108BB00037F8D4E90223B3F1FF3F08BFB2F1FF3F1A
:108BC0001CD04FF0FF334FF0FF32C4E902239DF871
:108BD000040000F04BF8104801A901F02BFA0346FD
:108BE00048B10122027001A90B485C6001F054FAFF
:108BF00058B903B030BD042003B030BD9DF8040067
:108C000000F034F8284603B030BD044800F084F981
:108C1000284603B030BD00BF8C7A00206C3700209E
:108C200070B4EFF3108472B60D4B9A68AAB90121A3
:108C300099600C490C4ED1F8805035401D60C1F848
:108C40008060D1F884505D604FF0FF33C1F884300C
:108C5000027004B962B670BC704701230370F8E774
:108C6000AC7A002000E100E0FC06FFBD094B9A68E9
:108C70007AB170B910B4EFF3108172B6064A1C686D
:108C800014605C685460986001B962B65DF8044B8A
:108C900070477047AC7A002000E100E038B5254C01
:108CA000437944F82320244C04EBC3021279A2BB7D
:108CB00002680D88C2F8085590F904208978002AC6
:108CC00022DB1E4D4901AB18C9B283F80013012302
:108CD000510902F01F0203FA02F245F821204379FC
:108CE0004FEAC30C44F83300154B16481649C01A16
:108CF000A444C0080122000440F003008CF80420C2
:108D0000FEF7A6FD002038BD104D02F00F0249010C
:108D1000C9B2A9544FEAC30CE4E7094B09480C490E
:108D2000C01AC008000440F00200FEF791FD0820C0
:108D300038BD00BFC07A0020B87A002000E100E012
:108D4000B06A0500006B0500546D050014ED00E0ED
:108D5000306D0500036801221A6070470368012224
:108D60005A60704730B401F1500C4FEA8C0C006827
:108D70001FFA8CFC4FF480348C400025C0F8084367
:108D8000C0F8484340F80C5082B050F80C500195A0
:108D900001F5A87122F07F42019D40F82120C0F822
:108DA00044430BB1C0F8044302B030BC704700BF6D
:108DB0002DE9F04F04684FF4803801F1500508FAAE
:108DC00001F80746AD0004EB8100C4F84883ADB25A
:108DD000C4F8088322F07F494FF0000AD4F8042534
:108DE000D0F84065C0F8402544F805A0A6EB020C79
:108DF00085B0625902922CF07F4CBCF1010F029AAF
:108E00009B464FEA810640D0D4F80455C4F8448309
:108E1000A9EB050222F07F42012A24D0264409F161
:108E2000FF33C6F84095D4F80415CBF1FF125B1A56
:108E300002F57F4223F07F439A4210D33BB10020DA
:108E4000C4F84483C4F8048305B0BDE8F08F09F189
:108E50000102C6F84025D4F804359942EFD00D2020
:108E600005B0BDE8F08F01F5A8710F4B09F10102C3
:108E700044F8212043F001034FF4806098473C6898
:108E8000D4F804359D42DAD0E9E7074A019142F06F
:108E900001024FF4806090473C68019944F805A0B6
:108EA00062590392039AAFE7706D050003680222CE
:108EB000C3F8442309B1C3F8042370470368D3F807
:108EC000040100B97047002282B0C3F80421D3F82E
:108ED00004310193019B012002B0704702684FF4F6
:108EE000803303FA01F1C2F84813C2F8081370473F
:108EF00050318900036889B2585800B97047002280
:108F00005A5082B05B580193019B012002B0704718
:108F10000368D3F80405704790F90430002B09DB8F
:108F20005A09054803F01F030121403201FA03F3F7
:108F300040F82230704700BF00E100E0024A034BD6
:108F400010681B68184700BFB87A0020C07A00205C
:108F500043682DE9F04188461BB1334AD468A342E7
:108F60003CD2324E7268002302F5805CA8F80030D3
:108F700001274FF6FF75083294450DD8022FA8F847
:108F8000007006F114064CD0726802F5805C08325D
:108F900094454FF00207F1D913680133EED053889E
:108FA000033302EB83039C45E8D3B2F804E0AE45FB
:108FB00009D014883CB19468611C04D00168A142B6
:108FC00005D01A46D8E79C45D8D91A46E4E7184B8D
:108FD00042601B8903810120BDE8F0811269934240
:108FE000BFD813F00305BCD1114A048912899442F9
:108FF000B7D104689A689442B3D10C48426893424E
:1090000003D902F58052934207D38269934208D96B
:1090100002F58052934204D20125A8F800500120A5
:10902000DAE70020D8E700BF50370020047B00209B
:10903000E87A00202DE9F04FA34E34688DB08046C9
:109040004FF6FF7B002C00F08F8023785A1E052AF4
:1090500000F27484DFE802F0592323030341B8F1DE
:10906000000F40F0CF802279012A00F0AF82022A5F
:1090700000F0E180002A00F08682CDE90988CDF871
:109080001C80CDF82C8048F20E6007AD023B0890A2
:10909000042B4ED8DFE803F08C786F47A200A78A34
:1090A000B8F1000F40F05682884D07EB870205EBC0
:1090B00082024FEA8708B2F80890526802EB8909E9
:1090C000A27D062A00F24584DFE812F08C00AE0192
:1090D000930182015E0146012001B8F1000F40F0CA
:1090E00091807B4C237B002B00F0C580237884F893
:1090F0000C80013B062B67D8DFE813F03503E5024F
:10910000CD01BC0166002403AA01B8F1000F40F0B4
:109110001A822279032A00F2A380DFE812F0EB0022
:109120007D009300BA0004238DF81C30E388ADF86D
:109130002830684C04F1100754F8043B284603B16A
:109140009847BC42F8D1644964480024346000F078
:10915000E5FF6348012101F0A9F800284FD0A0469F
:109160003468002C7FF471AF5B495C4800F0A4FFC9
:109170000446306069E703238DF81C30D4F80620DC
:10918000E368CDE90932D4E702238DF81C30A37DD2
:109190002089A188E2680992A3F10603B3FA83F358
:1091A0005B09ADF82800ADF82A108DF82C30C0E727
:1091B00001238DF81C302189A288E3680993ADF85A
:1091C0002810ADF82A20B4E7002307AD0793C5E9BE
:1091D000023348F20E682B61CDF8208005238DF80C
:1091E0001C30A6E70223A3750023009304233D4807
:1091F0004946E21801F088FC002840F0DF800DB0FD
:10920000BDE8F08F4FF4064007AD0022C5E900220B
:10921000C5E902222A6139E72C4D2B78022B00F098
:1092200070832B7D022B00F07C832F491346012293
:109230000A7000224A6007AD00200790C5E90200CD
:10924000286123E7294A27480221002323719180BE
:109250001168012201F0F2FC0028D0D03468237894
:10926000214907AD002207924A60C5E902222A611E
:1092700048F20D600AE72378072B00F29582DFE8B9
:1092800013F0A90293029302D502BD02E700E700A2
:10929000D102164F0E4B39681248002222710092FB
:1092A0005D8805EB8503094D05F8232005EB830553
:1092B000BB882B816B683B600223BB800C4A6960D2
:1092C000082301F021FCC7E7007B0020047B00207D
:1092D000E87A0020D07A0020F87A00202C7B002049
:1092E0003C7B002050370020E07A0020407B0020AB
:1092F0007C6D05000123AD49237100230968AC4A48
:109300000093AC48082301F0FFFBA5E7224641F695
:109310001D50E188144608EB070205EB820201F1BB
:10932000030CB2F808E0F444A2F808C0474405EB87
:1093300087056A89033A521A6A8141F61D51002253
:1093400007AD8842079208BF1046C5E90122C5E96A
:1093500003223FF49BAEC1E2974B984A5968984B61
:109360009448B3F800900623A375002300930423C8
:1093700001F0CAFB10BB09EB890905EB8905012344
:109380002B740DB0BDE8F08F8B48A3698C49036046
:109390004FF0000AC0F804A0FFF7DAFD002800F043
:1093A000A0820223A37504238248CDF800A0494679
:1093B000E21801F0A9FB00283FF421AFA17D32683B
:1093C000022913782DD8E18848F20D601446ADE7E4
:1093D000E38822690120A0750020009009F10C01AA
:1093E00074489B0001F090FB0028E7D10DB0BDE868
:1093F000F08F23696F48002B14BF03230123A3754B
:109400000023009309F10801042304F10C0201F088
:109410007BFB00283FF4F3AEA17D3268022913786C
:10942000D1D948F20D6074E7032B0CBF0523062346
:10943000A375002300935F4809F10401042304F19C
:10944000080201F061FB0028B8D10DB0BDE8F08F33
:10945000564A584811680023072222700093544A44
:109460006360082301F050FB00283FF4C8AE346865
:10947000237862E76388534D03EB830305EB830591
:10948000EB68002B53D169684A48042222700122FC
:1094900001F0D4FBE8E76268444853888588016896
:1094A000033301EB8501002003259BB200909B0054
:1094B0002570404801F028FBD6E701200346638071
:1094C00000EB800305EB8303626859684FEA800E66
:1094D00001F58057002A00F02C825388033302EBF9
:1094E000830297421DD913680133894618D05388E7
:1094F000033302EB830C674512D3B2F80480D845DE
:1095000008D0B2F80080B8F1000F03D091680131A3
:1095100040F00881674503D9624613680133E6D1FC
:109520004946704405EB8005EB68002BACD01F4A20
:109530002048052302212370918000231168012215
:1095400001F07CFB90E7204A002151604FF4064077
:1095500007AD5AE6A27D022A00F2A580E088194DE7
:109560004FEA870808EB070105EB810107AD4A893F
:10957000033A121A4A81002207924FF40640C5E9C5
:1095800002222A6182E5022307AD23710DF11A013F
:10959000E36807932846CDE90888FFF7D9FC00283F
:1095A00040F05C81237848F209602EE6407B002081
:1095B000846D050050370020C47A0020786D0500C6
:1095C000487B0020047B0020E07A0020B04B1B7811
:1095D00003F0FF020492002B00F07481DFF8C8E270
:1095E000BEF80470012F00F26881AA4DDEF8001069
:1095F00007EB870205EB82021FFA87F913786BB13C
:1096000001371FFA87F9B9F1010F02F1140200F2D4
:1096100054811378DDF81080002BF1D1536803F5E5
:10962000805008330593002900F045814B880333AF
:1096300001EB8301884234D903920B6801332FD0A8
:109640004B88033301EB8303984229D3B1F804C05C
:10965000DC4523D0B1F800A0BAF1000F1ED08A6813
:1096600001321BD0E388039A6345DCD1CEF80010A9
:10967000B8F1000F01D0AEF8049000230093864AA1
:109680008648042301F040FA002840F04C8107EBA3
:10969000870305EB830501232B74B0E5984210D8AE
:1096A000039A0021ACE77B4DE08807EB870205EBCE
:1096B0008202C11CB2F808C0614411814FEA8708D8
:1096C00050E71946B9E76088724D626800EB800385
:1096D00005EB83034FEA800E596801F5805C002A90
:1096E00040F0B78001F108026245BFF41AAF894625
:1096F000136801333FF414AF5388033302EB83073D
:1097000067453FF60DAFB2F80480D84500F0CE8033
:10971000B2F80080B8F1000F00F0C8809168013104
:1097200000F0C4805E486260002100918588016875
:109730005A4801EB85019BB203259B00257001F07F
:10974000E3F991E66288534D9300134405EB8305DA
:1097500000236968534A00930625082325704F4863
:1097600001F0D2F980E6A37A43B14A4DE8680023BC
:10977000A37218B92B7C002B40F0DE80E37A4BB14A
:10978000444D0023E3722B6A23B995F82430002B53
:109790007FF493AE07AD002307932370C5E902332E
:1097A000638063602B6117E5013B062B3FF60CAD30
:1097B00001A252F823F000BF67970200C79602008B
:1097C0009794020075940200C99102004597020027
:1097D0005194020023892F4D01332381002363809C
:1097E000237301232A7D23702B78B2FA82F2B3FA15
:1097F00083F35B095209E272A372B5E76288254DD3
:10980000274902EB820305EB830308688F881F81D9
:109810005F68586002200F6088800021197402FA86
:1098200000F392E701232370A37A9DE76088194D26
:109830001B4F626800EB800305EB8303B2F802C0A4
:109840005968BB8803336344BB804FEA800E01F53F
:10985000805C5388033302EB830245E708990E4A84
:109860008B88E3800B8823810C48CDF8008004238B
:10987000BDF81A4001F048F900283DD1054B04EB32
:10988000840403EB8404012323740DB0BDE8F08F3E
:10989000E07A0020047B0020786D0500503700201E
:1098A000407B00207C6D05004C7B00206745BFF4A9
:1098B00037AE3A461CE70599BCE60023CEE90033F3
:1098C0002378B8E4254BCDF81C8007ADC3E90088A8
:1098D000C5E90188C5E9038848F201602378FFF7EC
:1098E000D5BB07AD0790C5E90100C5E9030048F203
:1098F00009602378FFF7CABB346848F20D6023780B
:1099000083E4002303EB830305EB830214485168CF
:10991000002205F8232000920823124A01F0F4F8EF
:109920009AE40123EEE7346848F20D60237807AD2E
:109930006BE401F10802D4E50346C0E507AD00235E
:1099400048F20E620793C5E902332B610892FFF7D4
:10995000F0BB224648F20E60DBE400BF4C7B0020E7
:10996000503700207C6D05004068FFF763BB00BFE7
:1099700030B370B50D4682B0F1B10DF10601044669
:10998000FFF7E6FA18B948F2096002B070BDBDF8F9
:1099900006000D4B666800EB800003EB80000121A0
:1099A0000C3000F077FC636801220C330020C5E91D
:1099B0000063A27202B070BD48F2046002B070BDD4
:1099C00048F20460704700BF047B002010B310B55C
:1099D00082B00DF106010446FFF7BAFAB0B1BDF846
:1099E00006300E4A03EB830302EB8303DA684AB1C5
:1099F000A27A3AB1DA680021013A0846DA60A17227
:109A000002B010BD48F2056002B010BD48F2096016
:109A100002B010BD48F20460704700BF047B002014
:109A20002DE9F0474A4B1B7882B083B30C460029DE
:109A300045D00A884FF6FF739A4222D04B8803B371
:109A40004D6815F0030534D1B1F808A00AF10303FD
:109A50009BB240F2FE32934234D83E4A117880469F
:109A600039B9508911890144194489B2B1F5806F1F
:109A70002BD9117D89B148F20665284602B0BDE8B0
:109A8000F08748F20365284602B0BDE8F08748F247
:109A90000165284602B0BDE8F087D08B918B014468
:109AA000194489B2B1F5806FE5D84FF001094946F4
:109AB0000DE048F20265284602B0BDE8F08748F2A2
:109AC0000465DAE748F20865D7E7A946294601EBBD
:109AD000810102EB81020344538101A91E4800F079
:109AE000A9FA002702230760076147614760876082
:109AF000C76087610370636803610646A0F814902D
:109B00000121164800F0C6FB238833816388F0608A
:109B100001A91148B380A6F806A0778100F0BCFA2D
:109B2000B8F1000F08D0F2680D4B88F80A701B8955
:109B3000A8F80830C8E900270A48012100F09EFB78
:109B40000446002899D1FFF775FA254695E700BF2E
:109B5000E07A0020047B00202C7B0020FC7A00208F
:109B6000E87A00203C7B00202DE9F04782B068B302
:109B70004E4B1B78002B41D00C4639B30A884FF668
:109B8000FF739A4234D04B8893B34E6816F00306A5
:109B90003AD1B1F808A00AF103039BB240F2FE32B9
:109BA000934234D8424A1178054639B9508911890F
:109BB0000144194489B2B1F5806F2BD9117D59B197
:109BC00048F20666304602B0BDE8F08748F2046607
:109BD000304602B0BDE8F087D08B918B0144194428
:109BE00089B2B1F5806FEBD84FF00109494613E017
:109BF00048F20366304602B0BDE8F08748F20166DD
:109C0000304602B0BDE8F08748F20266DAE748F273
:109C10000866D7E7B146314601EB810102EB8102CC
:109C20000344538101A9234800F004FA4FF00008CF
:109C30000323C0F80080C0F81080C0F81480C0F87A
:109C40000480C0F80880C0F80C80C0F81880037049
:109C5000636803610746A0F814900121164800F0DC
:109C600019FB23883B816388BB802B68BB6104237D
:109C7000F86001A9BB750F48A7F806A0A7F80A80ED
:109C800000F00AFA0D4BFA681B890D4885F80A8026
:109C9000C5E900282B81012100F0F0FA04460028D4
:109CA00090D1FFF7C7F926468CE700BFE07A002085
:109CB000047B00202C7B0020FC7A0020E87A002026
:109CC0003C7B002070B51B4B1B7882B01BB34FF65A
:109CD000FF739842054628D001A9174800F0AAF959
:109CE00000240522012644600460C580027084605F
:109CF000C460046144618461067101A90E4800F0EA
:109D0000CBF90E48314600F0B9FA054640B1254678
:109D1000284602B070BD48F20165284602B070BD09
:109D2000FFF788F9284602B070BD48F2036528465F
:109D300002B070BDE07A00202C7B00203C7B00202C
:109D40002DE9F04F384C83B024780191002C5DD080
:109D5000002A60D0002B5ED09C88012C60D8334D47
:109D6000661C04EB840405EB8405B6B22C784FF630
:109D7000FF774FF0000844B1022E9E8005F11405D4
:109D80004ED02C780226002CF6D11C68D5F804C0E1
:109D90000CF5805E002C36D0B4F802C00CF1030C38
:109DA00004EB8C04744505D3C3F80080E4E7E64572
:109DB000FAD9644621680131F6D0B4F802C00CF13A
:109DC000030C04EB8C0CE645EED3B4F80490B945D3
:109DD000EDD0B4F800A0BAF1000FE8D0D4F808B084
:109DE000BBF1FF3FE3D081451C60CFD101998A458B
:109DF000CCD10F4BC2F800B01B89138154600020F6
:109E000003B0BDE8F08F0CF10804CBE748F2016025
:109E100003B0BDE8F08F48F2046003B0BDE8F08FF6
:109E200048F20960ECE700BFE07A0020047B0020E4
:109E3000E87A0020334B1B78002B5AD000295BD0E6
:109E4000002A59D02DE9F043B2F804E0BEF1010F29
:109E500055D82D4B0EF101050EEB8E0E03EB8E0E39
:109E6000ADB29EF800304FF6FF774FF000084BB1CF
:109E7000022D95800EF1140E41D09EF8003002257F
:109E8000002BF5D11368DEF8046006F580546BB33F
:109E90005E88033603EB8603A34205D3C2F8008035
:109EA000E6E76445FAD963461E680136F6D0B3F892
:109EB00002C00CF1030C03EB8C0C6445EED39E88BE
:109EC000BE42EED01E88002EEBD0D3F80890B9F138
:109ED000FF3FE6D086421360D5D10C4AC1F800900E
:109EE00012890A814B600020BDE8F08306F1080367
:109EF000D2E748F20160704748F20460704748F2C8
:109F00000960F1E7E07A0020047B0020E87A002075
:109F1000344B1B78002B5CD000295DD0002A5BD02D
:109F20002DE9F043B2F804E0BEF1010F57D82E4BF3
:109F30000EF101050EEB8E0E03EB8E0EADB29EF808
:109F400000304FF6FF774FF000084BB1022D95809F
:109F50000EF1140E43D09EF800300225002BF5D1EF
:109F60001368DEF8046006F580547BB35E88033620
:109F700003EB8603A34205D3C2F80080E6E76445FD
:109F8000FAD963461E680136F6D0B3F802C00CF168
:109F9000030C03EB8C0C6445EED39E88BE42EED0DE
:109FA000B3F80090B9F1000FE9D0D3F80890B9F1F7
:109FB000FF3FE4D086421360D3D10C4AC1F8009031
:109FC00012890A814B600020BDE8F08306F1080386
:109FD000D0E748F20160704748F20460704748F2E9
:109FE0000960F1E7E07A0020047B0020E87A002095
:109FF00020B119B103680B600020704748F204607B
:10A00000704700BF99B110B4B2FBF3F403FB142402
:10A01000A4B244B9C0E9001484608281C38120469F
:10A020005DF8044B704709205DF8044B70470E2023
:10A03000704700BF10B483B050E8013F1FFA83FCA3
:10A04000C489A4448489A44528BFACEB040C0489CA
:10A05000A44502BFBFF32F8F002207E0CCEA030C18
:10A0600040E801C4002CE7D14FF001028DF8032035
:10A070000193019C9DF803200C6032B1006810FA36
:10A0800084F003B05DF8044B704702F0FF031846FC
:10A0900003B05DF8044B70470A884B889A4201D0A0
:10A0A0000020704750E8012FC2EA024240E8012335
:10A0B000002BF7D10120704710B483B050E8023F65
:10A0C0001FFAA3FCC488A44502BFBFF32F8F002250
:10A0D0000EE0C489A4448489A44528BFACEB040CD9
:10A0E000C3EA0C4C40E802C4002CE7D14FF0010257
:10A0F0008DF803200193019C9DF803200C6032B180
:10A10000006800EB144003B05DF8044B704702F0A8
:10A11000FF03184603B05DF8044B70470A884B886C
:10A120009A4201D00020704750E8022FC2EA224232
:10A1300040E80223002BF7D1012070474B0901F0C2
:10A140001F024FF0010C0CFA02F100EB830000F04B
:10A150007DB800BF4B0910B501F01F040121A140DB
:10A1600000EB830000F066F8E04000F0010010BD55
:10A1700001F01F02012303FA02F24B0900EB8300F6
:10A18000D14300F06FB800BF4B0901F01F0150F838
:10A190002300C84000F00100704700BF2DE9F04FD8
:10A1A00001F1FF3B83B04FEA5B130F460546019375
:10A1B00000264FF0010A55F8264005EB8608E443D7
:10A1C00094FAA4F4FCB1B4FA84F404EB46144FEA14
:10A1D0004619A74217D904F01F0360090AFA03F1D0
:10A1E00005EB80009B4600F025F820FA0BF0C30732
:10A1F00011D5D8F80030DB4393FAA3F3B3FA83F414
:10A200004C44002BE5D1019AB24206F1010301D082
:10A210001E46D0E73C46204603B0BDE8F08F00BFA5
:10A22000034653E8000F0A4643E8002C9CF0000F59
:10A23000F7D17047034653E8000F40EA010243E8B4
:10A24000002C9CF0000FF6D1704700BF034653E886
:10A25000002F42EA010043E8000C9CF0000FF6D109
:10A26000704700BF034653E8002F02EA010043E8AD
:10A27000000C9CF0000FF6D1704700BF034653E876
:10A28000000F00EB010243E8002C9CF0000FF6D118
:10A29000704700BF034653E8002F02EB010043E87C
:10A2A000000C9CF0000FF6D1704700BF034653E846
:10A2B000002FA2EB010043E8000C9CF0000FF6D148
:10A2C000704700BF0346012253E8000F40EA020135
:10A2D00043E8001C9CF0000FF6D1704703460122B2
:10A2E00053E8001F41EA020043E8000C9CF0000F15
:10A2F000F6D170470346002253E8000F00EA02013E
:10A3000043E8001C9CF0000FF6D170470346002282
:10A3100053E8001F01EA020043E8000C9CF0000F24
:10A32000F6D17047F8B130B4D0E901431B1B026885
:10A33000DBB2591E1460C9B28BB1023B651C1560BB
:10A34000DBB2217051B101680A6803F1FF3C541C73
:10A350000C6013705FFA8CF3FF2BF4D102680020BD
:10A36000107130BC70470E20704700BF30B583B00D
:10A37000044600250DF107008DF80750FEF750FC4C
:10A38000D4E90023116899420ED9481EA3681060D1
:10A3900011F801CC1179E5681B1ADBB2208A9942C9
:10A3A00000FB0C5538BF13719DF80700FEF75EFCEB
:10A3B000284603B030BD00BF30B5054683B00DF16F
:10A3C000070000230C468DF80730FEF729FC2A68A9
:10A3D0001368591C1160E9682A8A641AB4FBF2F404
:10A3E0001C709DF80700FEF741FC03B030BD00BFB4
:10A3F000826842B110B54369016804460069984714
:10A400000023A36010BD70470EB400B582B003995D
:10A4100021B104AB01AA019300F0B6F802B05DF8D7
:10A4200004EB03B0704700BF2DE9F04F154683B031
:10A43000A942DDF830900D9A0F4606469A46C0F0C4
:10A440009E800B464FF00108B3FBF5F39D4208F1E7
:10A450000108F9D9D04538BFD04612F00103019365
:10A4600002D1B9F1000F67D1B268BAF1010F4FF014
:10A47000010406D90AF1FF3ABAF1010F05FB04F411
:10A48000F8D8B7FBF4F39D4205D805FB04F4B7FBFD
:10A49000F4F39D42F9D9DFF8ECA007E0AC42B4FB3D
:10A4A000F5F31AD3B2681C46B7FBF3F31AF803B0FE
:10A4B000BBF10A0F04FB137728D03368511CB1603D
:10A4C00003F802B0D6E901329A42E7D33046FFF7EB
:10A4D0008FFFB4FBF5F3AC42E4D2019B9BB1B9F121
:10A4E000000F10D02024C84509F1FF390BD2B36802
:10A4F0003268591CB160D454D6E901329A4214D260
:10A50000B9F1000FEFD103B0BDE8F08F511C3368F3
:10A51000B1604FF00D019954D6E901329A42CCD383
:10A520003046FFF765FFB268C7E73046FFF760FFC8
:10A53000B9F1000FD7D1E6E793071AD42024B26807
:10A54000C84502F1010190D23368B1609C54D6E94C
:10A5500001329A4209F1FF3903D2B9F1000FEFD16C
:10A5600083E73046FFF744FFB268B9F1000FE7D147
:10A570007BE7BAF1000F0CBF30242024DFE74FF057
:10A58000010867E78C6D0500002900F036822DE98F
:10A59000F04FDFF86C950D7885B0064690460C4676
:10A5A0004FF00D0A0FE00A2DB36800F08E8032687C
:10A5B000591CB160D554D6E90130984280F08180B1
:10A5C0002578002D69D00134002D66D0252DEAD1E3
:10A5D0000027234614F8012B2D2A6CD0302A6DD089
:10A5E0002B2A61D02A2A7FD0A2F1300109294FF00D
:10A5F00000050BD805EB850502EB450513F8012F87
:10A60000A2F130010929A5F13005F3D92E2A1C4603
:10A6100075D0002301E014F8012F02F0FB01682936
:10A62000F9D0252A00F05F81583AD1B2202930D8DC
:10A63000202A2ED8DFE812F021002D002D002D0059
:10A640002D002D002D002D002D002D002D00FE00D1
:10A6500079002D002D002D002D0079002D002D00FA
:10A660002D002D002D002D00BD002D002D001A0104
:10A670002D0016012D002D002100D8F80000102219
:10A6800001680430CDE90057C8F800003046FFF7F4
:10A69000CBFE01342578002D95D1337B002B40F083
:10A6A0001C8105B0BDE8F08F234614F8012B2D2A3C
:10A6B00047F0040792D147F001078AE747F0020705
:10A6C00087E73046FFF794FE7AE73268591CB1609D
:10A6D00002F803A0D6E901239342FFF468AF3046A5
:10A6E000FFF786FEB36862E7D8F80020111DC8F8AE
:10A6F000001015685A782E2A03F1010489D1627876
:10A70000A2F13003092B04F101044FF0000384D8B7
:10A7100003EB830302EB430314F8012FA2F1300192
:10A720000929A3F13003F3D977E7D8F80020D2F84C
:10A7300000B00432C8F800208BEAEB72A2EBEB7297
:10A74000092A40F3D981DFF8BCC3012011466329EF
:10A75000ACFB02E200F101004FEAD202F6DC9842C3
:10A76000024638BF1A460292002D00F0F780BBF176
:10A77000000FC0F207817A0700F10481B80740F1A9
:10A780000381002B40F00081BBF1000FC0F27B8100
:10A790007A0700F18B8107F00302022A00F02E8174
:10A7A000CDE9005759460A223046FFF73DFE0134F5
:10A7B00070E7D8F80020B36817683168101D5A1C7C
:10A7C000C8F80000B2603022CA54D6E9012393428F
:10A7D00080F0D380591C3268B1607821D154D6E919
:10A7E00001329A4280F0C4800F2F03D93B461B09E7
:10A7F0000F2BFCD84FF0805506E00F2D4FEA1513B4
:10A800007FF647AFB2681D46B7FBF5F319F803B002
:10A81000BBF10A0F05FB137751D03368511CB160AF
:10A8200003F802B0D6E901309842E6D33046FFF78C
:10A83000DFFDE2E7D8F800301D7804330A2DC8F8B0
:10A840000030B36800F038813268591CB160D554CB
:10A85000D6E901309842FFF41CAF3046FFF7C8FD3F
:10A86000013417E7D8F800000A2209E7D8F80030C9
:10A870001A1DC8F8002017F00107D3F800B03DD129
:10A88000BBF1000F03D058462BF07BFD0746BD42BD
:10A8900040F2CC80202202E0BD4200F0C780B168C7
:10A8A0003368481CB0605A54D6E90130984205F12B
:10A8B000FF35F1D33046FFF79BFD2022ECE73368EC
:10A8C000511CB16003F802A0D6E901329A42A4D328
:10A8D0003046FFF78DFDB2689FE7304605B0BDE812
:10A8E000F04FFFF785BDB3683168581CB060CA549B
:10A8F000D6E901309842B0D20134CBE69BF8003063
:10A90000002B00F0FB80B0685F46CBF101020A2B00
:10A9100002EB070B5FD0411CB16031680B54D6E9E4
:10A920000130984249D217F8013F002BEFD15D4525
:10A930007FF6AFAE202702E05D453FF4AAAEB268D5
:10A940003368511CB1609F54D6E90130984205F13B
:10A95000FF35F1D33046FFF74BFDEDE7B80705D5DE
:10A96000002B3FF411AFF9073FF50EAF00250BE7C1
:10A970003046FFF73DFDB26836E73046FFF738FD59
:10A98000B36827E7013DF9E6F9073FF5FDAE002D75
:10A99000ECD020220299A942BFF4F6AEB168481C5F
:10A9A000B06030684254D6E90101814205F1FF35BB
:10A9B00080F09180002DEDD1D8E730460292FFF76C
:10A9C00017FD17F8013F002BB1D0029AB0680A2B8F
:10A9D00002EB070B9FD1411CB160316801F800A068
:10A9E000D6E90110884296D33046CDE90232FFF70E
:10A9F000FFFCDDE90232B0688DE77047002B7FF481
:10AA0000CFAE8DB1302202998D427FF6C9AEB168CA
:10AA1000481CB06030684254D6E90101814205F11A
:10AA2000FF3562D2002DEED10025B9E69BF800502B
:10AA3000002D3FF42EAE0A2DB0680ED03368421CB4
:10AA4000B2601D54D6E90130984214D21BF8015F60
:10AA5000002D3FF41EAE0A2DF0D13368421CB260C7
:10AA600003F800A0D6E901309842E7D33046FFF75B
:10AA7000BFFCB068E2E73046FFF7BAFC1BF8015FA5
:10AA8000002DD8D105E6B1683268481CB060CBF122
:10AA9000000B2D205054D6E901219142FFF47BAEEA
:10AAA00030460393FFF7A4FC039B74E6B168326859
:10AAB000481CB0602B20EDE73268591CB16002F8E9
:10AAC00003A0D6E901239342FFF4BEAE3046FFF760
:10AAD0008FFCB368B8E630460393FFF789FC039B0D
:10AAE0002022002D7FF456AF40E730460393FFF756
:10AAF0007FFC039B302295E7012030E69B4616E75A
:10AB00008C6D0500CDCCCCCC2DE9F04782B0DDF8C2
:10AB100028A000285ED01546002A64D00668002EC2
:10AB20006AD01C46002B31D04768D7F80490B3FB9D
:10AB3000F9F809FB1838B8F1000F30D111F0030F04
:10AB400036D1AD073DD1C568A94211D22F4B30484F
:10AB5000304AC01A1024C0082F4BA0402F4900943F
:10AB600040F00100FDF714F9204602B0BDE8F0877F
:10AB7000056901F1FF3E7444AC42E7D8CDF828A046
:10AB8000F468A44602B0BDE8F04760471F4B204878
:10AB9000234AC01AC008204B09240004DEE71B4BDF
:10ABA0001B48204AC01AC0081B4B09240004D5E7E3
:10ABB000164B17481C4AC01A1024C008164BA04058
:10ABC000CCE7124B1248194AC01A1024C008124B85
:10ABD000A040C3E70D4B0E48154AC01AC0080E4BE3
:10ABE0000E240004BAE7094B0948124AC01AC008EB
:10ABF000094B0E240004B1E7044B05480E4AC01A65
:10AC0000C008054B08240004A8E700BFB06A05008F
:10AC1000206B0500A06E0500646F0500A46D0500A3
:10AC2000EC6D0500386E0500646E05007C6E050055
:10AC30009C6D0500306E0500D86D0500F0B583B041
:10AC400000283AD00668002E40D022B34468276816
:10AC50007C1E0C4228D1C468A14210D2204B21484E
:10AC6000214AC01A1024C008204BA040204900945B
:10AC700040F00100FDF78CF8204603B0F0BD4C1EFB
:10AC800007FB024E0469A645E8D83469A44603B020
:10AC9000BDE8F0406047124B1248164AC01AC0087F
:10ACA000124B09240004E1E70D4B0E48124AC01A6A
:10ACB0001024C0080D4BA040D8E7094B09480F4AA3
:10ACC000C01AC008094B0E240004CFE7044B054806
:10ACD0000B4AC01AC008054B08240004C6E700BF91
:10ACE000B06A0500206B0500F06E0500506F05008E
:10ACF000A46D0500EC6D0500C86E05009C6D050097
:10AD0000D86D050029DF704728DF7047034B187A9C
:10AD10000122B0FA80F05A7440097047647B002029
:10AD200030B53A4D2B7A87B0002B39D0384B1C68A0
:10AD300002232B722379002B3DD0012B24D02368D2
:10AD40009A68BAB10023CDE9023300930493032338
:10AD50000193A36805932379002B4AD0012B07D1D7
:10AD600002238DF80030E368616904911B030293AC
:10AD7000684690472749284800232B726B6007B02C
:10AD8000BDE83040FFF7CAB9D4E903031844FFF720
:10AD9000BBFF20B31128D2D101232B7207B030BDE5
:10ADA0001C491D48FFF788F9194B04461860002814
:10ADB000BED16860F2E7D4E90523D21AB2F5805F0C
:10ADC00028BF4FF480529208E1682069012A38BFF9
:10ADD000012219441844FFF795FF0028DAD12B7C93
:10ADE000002BDBD10146022007B0BDE8304000F067
:10ADF00015B801238DF800302369E1680293636977
:10AE00006846CDE903139047B4E700BF647B002098
:10AE10007C7B0020787B0020547B0020831E012B4C
:10AE200041D810B5354C237A86B0002B39D0022B8F
:10AE300030D103283DD0324B00221B68E2601A79E2
:10AE4000002A43D0012A25D1D3E9042101328A42C4
:10AE50001A611FD1002020721A689168B1B10022D6
:10AE6000CDE90222009204929A68019005921A7923
:10AE7000002A38D0012A07D102228DF80020DA6892
:10AE80005869049012030292684688471D491E487B
:10AE9000FFF744F9637C3BB906B0BDE81040FFF70B
:10AEA0003FBF06B010BD704706B0BDE8104012F0BD
:10AEB000EDBAE3680133082B01D8E360EAE7104BF1
:10AEC00000221B68E26022720D20C5E7D3E905125B
:10AED000881AB0F5805F94BF121802F58052914233
:10AEE0009A61D7D1B6E701228DF800201A69029243
:10AEF000DA685B69CDE90323C6E700BF647B002005
:10AF00007C7B0020787B0020547B002000F0FD0338
:10AF1000012B00D0704730B53D4DA0F10100B0FAD3
:10AF200080F02B7A0022400987B06A742874002BC5
:10AF30004DD0384B1C6802232B722379002B51D043
:10AF4000012B07D1D4E903031844FFF7DDFE50B30A
:10AF500011281BD023689A6872B10023CDE902330F
:10AF60000093049303230193A3680593237923B3E8
:10AF7000012B0FD0684690472749284800232B72A1
:10AF80006B6007B0BDE83040FFF7C8B801232B72F3
:10AF900007B030BD02238DF80030E3686169049189
:10AFA0001B030293E6E72B7C002BF1D10146022024
:10AFB00007B0BDE83040FFF731BF01238DF8003006
:10AFC0002369E16802936369CDE90313D2E712496B
:10AFD0001248FFF771F80F4B044618600028AAD1F9
:10AFE0006860D5E7D4E90523D21AB2F5805F28BF9F
:10AFF0004FF480529208E1682069012A38BF01228B
:10B0000019441844FFF77EFE0028A1D1CBE700BF0A
:10B01000647B00207C7B0020787B0020547B002018
:10B02000FFF780B92DE9F041058A0331043D4E193F
:10B030008046B6FBF5F6FFF799F9A0B3F6B24FF4E8
:10B040008073013E04468380C580C0F800802BD009
:10B050000346002508E06279AE4202F10102627106
:10B060003860C0F800801FD040461F46FFF77EF9C9
:10B07000013503460028EED16779791E17D02246A4
:10B08000013399421268FBD1D2F800805FB1266883
:10B09000002501E034463668214640460135FFF779
:10B0A0008BF9AF42F6D800242046BDE8F081206835
:10B0B0002146FFF781F9F6E701210430FFF7EAB8EE
:10B0C0002DE9F041012104460430FFF7EFF810F0BC
:10B0D000FF0301D0BDE8F0816779791E16D02246C2
:10B0E000013399421268FBD1D2F80080002FF1D0D1
:10B0F0002668002501E03446366821464046013581
:10B10000FFF75AF9AF42F6D8BDE8F0812068214632
:10B11000BDE8F041FFF750B92DE9F843C7888846EC
:10B12000417907FB01F1043902EB030C1E1D614557
:10B13000154638BFCD1AB7420446B6FBF7F207FBF7
:10B14000126002D8013A2468FCD13E1AAE4228BFF0
:10B150002E469DB14FF000090430AD1B324608EB7E
:10B16000090120442AF0D8FEAF42B14424683E468B
:10B170004FF0000028BF2E46002DEDD1BDE8F8832A
:10B180002DE9F843C7880446407907FB00F00438EE
:10B1900002EB030C1E1D6045154638BFC51AB742A9
:10B1A0008846B6FBF7F107FB116202D80139246823
:10B1B000FCD1BE1AAE4228BF2E469DB14FF0000909
:10B1C000111DAD1B3246214408EB09002AF0A4FEF4
:10B1D000AF42B14424683E464FF0000228BF2E46DD
:10B1E000002DEDD1BDE8F88341DF7047064A074BDB
:10B1F00010B5002414701C60BFF35F8F044905482C
:10B2000000F03EF8204610BD887B00208C7B00209B
:10B21000846F0500807B002000B583B000230DF112
:10B2200007008DF80730FDF7FBFCF1EE103A23F034
:10B230009F03E1EE103ABFF35F8F0B4B4022C3F840
:10B2400084219DF80700FDF711FD12F02FF928B9B0
:10B2500020BF40BF20BF03B05DF804FB03B05DF822
:10B2600004EBFFF7C1BF00BF00E100E083680022EC
:10B270005A60C3E904229A60DA601A60704700BF1E
:10B28000D1E900329342C0E9001304BF00234360B8
:10B29000704700BF436843B10268D2E901210B4403
:10B2A0009342436004BF00234360704770B5446815
:10B2B000064620680D4618B908E02468206828B1C1
:10B2C000B368294698470028F7D120682860256090
:10B2D00070BD00BF4368186808B102681A60704703
:10B2E00043681868704700BF4368186818B908E0D9
:10B2F0000346006828B18142FAD10A681A60012029
:10B30000704770471049A1F5947205E052F8333048
:10B31000984238BF61460CD2A1EB020C4FEADC73B5
:10B3200003EBEC035B10914202EBC30CEED8074831
:10B33000704702D90CF10802EEE7DCF80400034B79
:10B34000002808BF18467047C474050088730500BC
:10B35000BFF34F8F0549064BCA6802F4E0621343FE
:10B36000CB60BFF34F8F00BFFDE700BF00ED00E0F3
:10B370000400FA054FF0805310B5D3F83021082AA5
:10B3800026D08F4AD2F8883043F47003C2F8883050
:10B39000BFF34F8FBFF36F8F4FF08053D3F830213F
:10B3A000082A00F0B6804FF01023D3F80C22D10702
:10B3B00000F1E880D3F80022002AC0F2BD80D3F863
:10B3C0000432002BC0F2B8807E4B7F4A1A6010BD59
:10B3D0004FF080410020C1F80C017C4AC1F81001F7
:10B3E000C1F83805D3F80414C2F82015D3F80814AE
:10B3F000C2F82415D3F80C14C2F82815D3F8101489
:10B40000C2F82C15D3F81414C2F83015D3F8181458
:10B41000C2F83415D3F81C14C2F84015D3F8201420
:10B42000C2F84415D3F82414C2F84815D3F82814E8
:10B43000C2F84C15D3F82C14C2F85015D3F83014B8
:10B44000C2F85415D3F83414C2F86015D3F8381480
:10B45000C2F86415D3F83C14C2F86815D3F8401448
:10B46000C2F86C15D3F83411D3F84434C2F87035EF
:10B47000052942D8564B5B5C1BB1564B564AC3F864
:10B480008C26564B5B5C73B14FF080535449D3F814
:10B490003021FB20C1F81805082AD3F834117FF4B5
:10B4A00070AF052929D84F4B5B5CBBB14FF0805280
:10B4B0004FF08040D2F85832D0F8E41ED2F8304134
:10B4C00021F00F0103F00F030B43C0F8E43E082CFA
:10B4D000D2F834117FF455AF05290ED8424B5B5C8E
:10B4E0005BB14FF08053414AD3F830314FF40071D3
:10B4F000082BC2F840167FF444AF4FF08043D3F8D6
:10B500000024D2077FF53DAF6FF00102C3F800249D
:10B5100037E7D3F83431052B08D94FF010224FF01C
:10B520008043D2F80822C3F858253CE7304AD35C60
:10B53000002B3FF438AFF0E72E4A0123C2F8043560
:10B54000D2F80034002BFBD04FF010231221294AEF
:10B55000C3F80012D2F80034002BFBD04FF01023B8
:10B560001221244AC3F80412D2F80034002BFBD075
:10B5700000232049C2F80435D1F80034002BFBD059
:10B58000FFF7E6FE1B4A0123C2F80435D2F8003467
:10B59000002BFBD04FF01021164AD1F80C3223F0CB
:10B5A0000103C1F80C32D2F80034002BFBD0002389
:10B5B0001049C2F80435D1F80034002BFBD0DFE786
:10B5C00000ED00E0743700200090D00300C0004080
:10B5D000D87405000050004048810300D87405006D
:10B5E00000F00040D8740500D874050000900240B7
:10B5F000D074050000E00140034653E8000F00EA64
:10B60000010243E8002C9CF0000FF6D1704700BF08
:10B61000044A137923B901211060918018467047BC
:10B6200085207047907B0020084B1A68D20704D40D
:10B63000C02283F8002301221A60054A4FF080419E
:10B640000123C1F818351370704700BF00E100E016
:10B65000987B00204FF080430022C3F8042182B081
:10B66000D3F804210192019802210122C3F80413A6
:10B670009A6002B0704700BF4FF080420221002361
:10B68000C2F8081382B0C2F80431D2F80431019331
:10B6900001230199D360D2F81834DB03FBD402B044
:10B6A000704700BF4FF080430022C3F8002182B0F2
:10B6B000D3F80021019201990122C3F804231A60F2
:10B6C00002B0704710B54FF0804382B0D3F800212C
:10B6D00062B10021164AC3F80011D3F80011507965
:10B6E00000910121009CC3F80813A8B14FF08043DA
:10B6F000D3F80421CAB10022C3F80421D3F80421ED
:10B7000001920B4A01980221C3F808131368012023
:10B7100002B0BDE8104018471368517198474FF0C8
:10B720008043D3F80421002AE5D102B010BD00BF48
:10B73000907B002030B5224C94F86A3083B0002B07
:10B740003AD14FF6FF704FF0FF0C5A09012A18BF8B
:10B750004FF0FF3103F01F0208BF014621FA02F249
:10B76000D20748BFE21803F1010348BF82F830C096
:10B77000302BEAD14FF0FF352C22FF2111482560F4
:10B780002AF0CCFD1049114B25660020C0226066CE
:10B79000888083F8062340221A600D4BC3F87C0191
:10B7A000D3F87C1101914FF000420121019D84F8F2
:10B7B0006A10C3F8042300E0082003B030BD00BFC6
:10B7C0009C7B0020A07B0020007C002000E100E0AA
:10B7D0000060004030B44A4C231893F93020013205
:10B7E00002D0082030BC70478A78E2B12368013368
:10B7F00045D06368013379D0A368013378D0E3681A
:10B80000013371D02369013374D06369013373D07C
:10B81000A369013372D0E369013308BF07222FD037
:10B82000042030BC7047FE2283F830204C78012C75
:10B830004DD01F2887BF334A00F01F0101464FF04B
:10B84000A04201238B40C2F80C351F288BBF00F0AB
:10B850001F0303462B4A4FF0A04203F5E073032178
:10B8600042F82310C208284900F007008C5C01232D
:10B8700003FA00F020438854002030BC70470022B7
:10B88000231883F83020002344F82230920002F17C
:10B89000804202F5C0424C780B78D2F8101521F4A2
:10B8A000991121F4F851C2F810151B04210501F477
:10B8B000801103F440330B430102D2F8105501F418
:10B8C0007C510B432B43012CC2F81035B1D11F28FA
:10B8D00087BF0C4A00F01F0101464FF0A042012330
:10B8E0008B40C2F80835B0E70322C9E70122C7E759
:10B8F0000222C5E70422C3E70522C1E70622BFE70B
:10B900009C7B002000030050007C00201F2886BF85
:10B91000054A00F01F004FF0A042012303FA00F097
:10B92000C2F80C05704700BF0003005070B57D4B96
:10B9300003EB000E9EF930C0BCF1000F01DB0820C4
:10B9400070BD91F802C01CF0020FCCF340055DD130
:10B950001C6A013400F0DF805C6A013400F0D180A1
:10B960004FF00C0E4FF00A0C53F82C40013459D014
:10B970000CF10104744547D253F82460013600F0FD
:10B98000B8800CF1020474453ED253F824600136AD
:10B9900000F0AF800CF10306764535D253F826400F
:10B9A00001343ED00CF1040676452DD253F82640E2
:10B9B000013436D00CF10506764525D253F82640E1
:10B9C00001342ED00CF1060676451DD253F82640E0
:10B9D000013426D00CF10706764515D253F82640DF
:10B9E00001341ED00CF1080676450DD253F82640DE
:10B9F000013416D00CF1090CF44505D2DC6A01348F
:10BA000008BF4FF00B0C0DD0042070BD1C68013432
:10BA100071D05C6801347BD04FF0080E4FF0020CFF
:10BA2000A2E7B44643F82C201A184FFA8CFE82F88D
:10BA300030E015B99C448CF858008A7854071CD41F
:10BA4000D50747D51F2887BF374A00F01F04044693
:10BA50004FF0A04202EB8402D2F8004724F0020427
:10BA6000C2F80047314DC40800F0070C2E5D0122DA
:10BA700002FA0CF232432A558A7812F002021CD0E4
:10BA80004FEA8E0303F1804303F5C0430978D3F8EE
:10BA9000104524F44F3424F44074C3F810450202D6
:10BAA0000904D3F8100501F4403102F47C520A4332
:10BAB0000243C3F81025002070BDAEF1080E43FA12
:10BAC0008EF30C7893F86010104641EA841283F8E4
:10BAD000602070BD1F284C7887BF134D00F01F02F7
:10BAE00002464FF0A04502F5E072A40045F822405E
:10BAF000B8E7A44696E71A6000228EF830209646F2
:10BB00009BE74FF0090C8EF830C05A62E64691E789
:10BB10004FF0010C86E74FF0080C8EF830C01A6227
:10BB2000E64687E79C7B002000030050007C002055
:10BB300010B4334C231883B093F93030072B25DD34
:10BB4000083B44FA83F393F860309B09032B46D0FB
:10BB5000012B0CBF4FF400324FF440321F288ABF34
:10BB6000284B4FF0A04300F01F0003EB8000D0F8FB
:10BB7000003723F44033C0F80037D0F800371A43B9
:10BB8000C0F8002703B05DF8044B7047DAB2072A0B
:10BB9000F8D89A0002F1804202F5C042D2F81005AE
:10BBA00040F00100C2F8100503F1400252B29200C9
:10BBB00092B202F1804202F5C04200201060126889
:10BBC0000192019A0029DDD054F82320002AD9D00F
:10BBD0000D49012202FA03F3C1F80433D2E71F280A
:10BBE0008ABF084A4FF0A04200F01F03D2F8102588
:10BBF00098BF0346DA4002F0010202321204ADE7B8
:10BC00009C7B00200003005000600040194B03445F
:10BC100093F93030072B13DD1F288ABF164B4FF0E6
:10BC2000A04300F01F0003EB8000D0F8003723F49E
:10BC30004033C0F80037D0F80037C0F800377047FD
:10BC4000DAB2072A14D89A0002F1804202F5C04203
:10BC500010B4D2F81005094C012120F0010001FABE
:10BC600003F3C2F81005C4F808335DF8044B7047BD
:10BC7000704700BF9C7B0020000300500060004024
:10BC800070B4494C231893F93030072B3CDD1F2842
:10BC900087BF464A00F01F0101464FF0A04202EB69
:10BCA0008102C508D2F8001721F44031C2F800170C
:10BCB000D2F80017C2F80017012100F0070201FABC
:10BCC00002F23B494D5D154201EBD00149D01F28DE
:10BCD0008CBF00F01F03034603F5E0738CBF334DA8
:10BCE0004FF0A045022645F823600B7823EA0202B4
:10BCF00023180A7093F93030002B40DA2044FF23D8
:10BD000080F8303070BC7047DAB2072A3ED899000C
:10BD100001F1804101F5C041264DD1F8102522F0F6
:10BD20000102C1F81025012202FA03F6C5F80863E2
:10BD3000002504F1640CC1F81055C10800F0070695
:10BD40001CF80150B24015420CEBD001BFD1204489
:10BD50004FF0FF3244F82320FF2380F8303070BCCE
:10BD600070474FF0FF3244F8232023442044FF2241
:10BD700083F85820FF2380F8303070BC70474FF0B4
:10BD8000FF32072B44F82320B8DDEEE7012100F055
:10BD9000070201FA02F2C50804F164014D5D154283
:10BDA00001EBD00193D1A7E79C7B0020000300505A
:10BDB000007C0020006000401F288ABF054B4FF028
:10BDC000A04300F01F00D3F8103523FA00F000F074
:10BDD00001007047000300502DE9F047002384B0B4
:10BDE000CDE902331C4AD2F80011012900F030825B
:10BDF0001E46194BD3F80421012A00F01A82164B73
:10BE0000D3F80821012A00F00582134BD3F80C2146
:10BE1000012A00F0F081104BD3F81021012A00F024
:10BE2000DB810D4BD3F81421012A00F0C1810A4BAC
:10BE3000D3F81821012A00F0AC81074BD3F81C215C
:10BE4000012A0BD0044BD3F87C21012A00F0218277
:10BE500056BB04B0BDE8F08700600040D3F804236F
:10BE60001206EFD50022C3F81C21D3F81C11009153
:10BE7000D3F87C110098012946F0800614D1C3F84C
:10BE80007C21D3F87C3101934FF0A042019BD2F882
:10BE90002015CF4B0291C2F82015D3F8202503922C
:10BEA000C3F8202546F00046CA4F00240125A30010
:10BEB00003F18043354203F5C0434FEA45050BD0FB
:10BEC000D3F8100557F82420D3F81015C0F3052037
:10BED000C1F3014102B190470134082CE7D1002E93
:10BEE000B7DABC4CBA4E01254FF0A04794F9600078
:10BEF000431C48D0C0F3C20202F110030DEB030251
:10BF000000F0070312F8082C05FA03F31A42C1B235
:10BF100000F03F0037D01F2800F22B8102464FF07F
:10BF2000A04909EB820305FA02F2D3F800C7D3F85F
:10BF300000E72EF4403EC3F800E704EB000ECCF31C
:10BF4000014C9EF930E0D3F800A754F82E80BCF1E4
:10BF5000020F0CBF4FF4403E4FF4003E4EEA0A0E73
:10BF6000C3F800E7C9F82025B8F1000F0BD0890904
:10BF7000032900F08281BCF1020F00F07B81BCF14B
:10BF8000030F00F0A68194F96100411C48D0C0F372
:10BF9000C20202F110030DEB030200F0070312F8D6
:10BFA000082C05FA03F31A42C1B200F03F0037D063
:10BFB0001F2800F2E28002464FF0A04909EB8203FD
:10BFC00005FA02F2D3F800C7D3F800E72EF4403E9A
:10BFD000C3F800E704EB000ECCF3014C9EF930E00F
:10BFE000D3F800A754F82E80BCF1020F0CBF4FF419
:10BFF000403E4FF4003E4EEA0A0EC3F800E7C9F88F
:10C000002025B8F1000F0BD08909032900F03A81EF
:10C01000BCF1020F00F03381BCF1030F00F05D8131
:10C0200094F96200421C48D0C0F3C20202F110032E
:10C030000DEB030200F0070312F8082C05FA03F3D6
:10C040001A42C1B200F03F0037D01F2800F2998099
:10C0500002464FF0A04909EB820305FA02F2D3F839
:10C0600000C7D3F800E72EF4403EC3F800E704EB26
:10C07000000ECCF3014C9EF930E0D3F800A754F841
:10C080002E80BCF1020F0CBF4FF4403E4FF4003E37
:10C090004EEA0A0EC3F800E7C9F82025B8F1000FF0
:10C0A0000BD08909032900F0F280BCF1020F00F0E7
:10C0B000EB80BCF1030F00F0088194F96300431C8E
:10C0C00047D0C0F3C20202F110030DEB030200F0EF
:10C0D000070312F8082C05FA03F31A42C1B200F064
:10C0E0003F0036D01F2850D802464FF0A04909EB38
:10C0F000820305FA02F2D3F800C7D3F800E72EF462
:10C10000403EC3F800E704EB000ECCF3014C9EF96F
:10C1100030E0D3F800A754F82E80BCF1020F0CBF1A
:10C120004FF4403E4FF4003E4EEA0A0EC3F800E7DB
:10C13000C9F82025B8F1000F0BD08909032900F0B8
:10C140009780BCF1020F00F09080BCF1030F00F06B
:10C15000B880D7F820250292C7F82025D6F82035D8
:10C160000393C6F8203513437FF4C0AE04B0BDE896
:10C17000F08701F01F02B146D3E601F01F02B1467D
:10C180001CE701F01F02B14665E701F01F02B1464E
:10C19000ADE7D3F8042351067FF54FAE0022C3F874
:10C1A0001821D3F818310093009B46F0400644E66E
:10C1B000D3F8042390067FF53AAE0022C3F8142189
:10C1C000D3F814310093009B46F020062FE600BF01
:10C1D000000300509C7B0020D3F80423D4067FF595
:10C1E00020AE0022C3F81021D3F810310093009B39
:10C1F00046F0100615E6D3F8042315077FF50BAEBD
:10C200000022C3F80C21D3F80C310093009B46F0B8
:10C21000080600E6D3F8042357077FF5F6AD0022A1
:10C22000C3F80821D3F808310093009B46F00406B8
:10C23000EBE5D3F8042392077FF5E1AD0022C3F8C4
:10C240000421D3F804310093009B46F00206D6E5A2
:10C25000D2F8046316F001063FF4CBADC2F800310A
:10C26000D2F800310093009BC3E501297FF471AF40
:10C27000C0476EE701297FF486AEC04783E60129F7
:10C280007FF4CEAEC047CBE601297FF416AFC0479E
:10C2900013E70022C3F87C21D3F87C3101934FF0DF
:10C2A000A042019BD2F820150E4B0291C2F8201536
:10C2B000D3F820250392C3F82025002E3FF411AEB9
:10C2C000F0E502297FF445AFD2E702297FF4F5AE0D
:10C2D000DDE702297FF457AECFE702297FF4A0AE55
:10C2E000D0E700BF00030050014B1B68184700BF98
:10C2F000087C0020104B98421BD130B583B000233E
:10C300000DF107008DF807300D46FCF789FC0B4B4B
:10C310009DF807001C793CB901221D601A71FCF7D9
:10C32000A5FC204603B030BDFCF7A0FC112003B0F3
:10C3300030BD0020704700BF00200040087C002076
:10C34000034B984203D1034B00221A601A717047C5
:10C3500000200040087C0020026890F804C042F3EE
:10C360000733002B4FEA12310EDB01225B0901F08B
:10C370001F0102FA01F12033074A42F82310BFF3EC
:10C380004F8FBFF36F8F0268044B03EBCC03002188
:10C39000C2F800151971704700E100E0107C002020
:10C3A00070B404680E680079C4F820658E88C4F8FB
:10C3B000246583B08E68C968C4F82865C4F82C1554
:10C3C0001168C4F84015069D9188C4F84415916819
:10C3D000D268C4F84815C4F84C25EA07C4F81435E7
:10C3E00039D415F0020318BF04231C49C4F80032E5
:10C3F00001EBC00351F83010EAB202205A711871F3
:10C40000C9B102F00403002B02F0080C03BFA22301
:10C4100022210646B22317BF322182201226922003
:10C42000BCF1000F04BF0346314612F0100F18BFD5
:10C430000B46C4F800330020C4F80401D4F80431DA
:10C440000193019B2B064EBF04F108000123A3605A
:10C4500003B070BC70471023C7E700BF107C0020FA
:10C4600000B52C4BD3F8102185B052B100212A4AD7
:10C47000C3F81011D3F81011537903910399590798
:10C4800041D4244BD3F8142152B10021224AC3F8DD
:10C490001411D3F81411537902911B0702992CD46B
:10C4A0001C4BD3F81C215AB11B4A0021C3F81C11A4
:10C4B0005079D3F81C31019310F01000019B17D074
:10C4C000144BD3F8042182B1134A0021C3F804119C
:10C4D000D3F804111368009101210098117123B160
:10C4E000032005B05DF804EB184705B05DF804FBC8
:10C4F0001368002BE4D09847E2E71368002BCFD0F5
:10C5000002209847CCE71368002BBAD00120984747
:10C51000B7E700BF00C00140107C00200B7B024643
:10C52000032B1FD8DFE803F0262014028B68580382
:10C5300026D48B685B0315D4D2F84C3549699942EF
:10C5400010D000200621C2F80005C2F8001570477F
:10C55000D2F84C3508699842F3D1D2F83C35496994
:10C560009942EED101207047D2F83C3509699942D1
:10C57000E7D1F7E7D2F84C3509699942E1D1F1E703
:10C58000D2F84C3508699842DBD1D2E7F0B5714B4F
:10C59000D3F824218DB05AB10022C3F82421D3F856
:10C5A00024210592059AD3F80421002A00F0828004
:10C5B000684D694CD5F80431002B39D00023C5F8FB
:10C5C0000431236AD5F8042104925806049A04D44D
:10C5D00094F82E20002A00F0968013F0040562D112
:10C5E0005E4FDFF870E194F830600FCF0DF11C0C56
:10C5F000ACE80F003B68CCF80030CEF86051DEF8B4
:10C6000060310293029BCEF85C51DEF85C310393FB
:10C61000039B002E72D14F4B0022C3F80022A26070
:10C620004F4AC3F808234F4B0822C3F880211BE070
:10C63000C5F84831D5F84821237B0192019A002B97
:10C640006BD104F10C0EBEE80F000DF11C0CACE830
:10C650000F0094F83060DEF80030CCF80030002E87
:10C6600041D0256A05F004053A4AD2F8C434C2F82C
:10C67000C43499070FD501238DF818300EB984F80A
:10C680002F6015B194F82E301BB1D4E9003106A803
:10C6900098470DB0F0BD5A0708D4DB074FD50323E8
:10C6A0008DF81830EAE794F83060DDE702238DF862
:10C6B0001830E3E7284C0222A168C3F80813A260EF
:10C6C000A268C3F80423D3F860211AB1D3F800326A
:10C6D0009D0503D41F4B01221A625A61012384F87D
:10C6E0002E300DB0F0BD1E4A1E4BC5F80062A6608C
:10C6F000C5F808230822C3F88021B2E794F82E3049
:10C70000002BB1D087E721462846FFF707FF80F0CE
:10C710000100236A84F82E005FE7114B4FF400718B
:10C7200040F20222C5F80012A260C5F80833A268E0
:10C73000C5F804230123AB602B620DB0F0BD94F863
:10C740002E301BB104238DF8183097E78DF8183080
:10C7500094E700BF00300040187C0020247C0020BB
:10C7600002029C0100E100E0F0B54FF040238DB0E3
:10C77000D3F824215AB10022C3F82421D3F824216C
:10C780000592059AD3F80421002A00F083804FF027
:10C79000402C6A4CDCF80431002B3AD00023CCF852
:10C7A0000431656DDCF8043104936806049B04D4FD
:10C7B00094F86230002B00F0978015F0040562D1E8
:10C7C0005F4F94F864600FCF0DF11C0CACE80F00C4
:10C7D0004FF0402E3B68CCF80030CEF86051DEF8C8
:10C7E00060310293029BCEF85C51DEF85C3103931A
:10C7F000039B002E73D14FF040230022C3F8002288
:10C80000E263504AC3F808234F4B1022C3F880213B
:10C8100019E0CCF84831DCF8482194F84030019216
:10C82000019A002B6BD104F1400EBEE80F0007AD5A
:10C830000FC594F86460DEF800302B60002E43D002
:10C84000656D05F004054FF04022D2F8C434C2F8FB
:10C85000C43499070FD501238DF818300EB984F828
:10C86000636015B194F862301BB1D4E90D3106A8AC
:10C8700098470DB0F0BD5A0708D4DB0753D5032302
:10C880008DF81830EAE794F86460DCE702238DF84D
:10C890001830E3E7294C0222E16BC3F80813E26386
:10C8A000E26BC3F80423D3F860211AB1D3F8003245
:10C8B0009D0504D44FF0402301221A625A610123DE
:10C8C00084F862300DB0F0BD1E4A1F4BCCF80062F8
:10C8D000E663CCF808231022C3F88021B0E794F86F
:10C8E0006230002BAFD086E704F134016046FFF7D9
:10C8F00015FE80F00100656D84F862005DE7114B64
:10C900004FF4007140F20222CCF80012E263CCF83E
:10C910000833E26BCCF804230123CCF80830CCF8C0
:10C9200020300DB0F0BD94F862301BB104238DF8B7
:10C93000183093E78DF8183090E700BF187C00207E
:10C94000587C002002029C0100E100E02DE9F84F34
:10C9500090F80480DFF80091342707FB08F709EB13
:10C9600007069B4696F82D30002B60D1364B0546C6
:10C970000C46006853F828109246FFF7BBFC0028CD
:10C980005FD12168637B626886F832301F298CBFD3
:10C9900001F01F030B46B060C6F804B086F82F0004
:10C9A00086F8300003F5E07388BF284E49F807A0E9
:10C9B00098BF4FF0A04640F20C671F2A46F823703C
:10C9C0008CBF02F01F0616462B6888BF1F4F06F566
:10C9D000E07598BF4FF0A047A66840F20C6C47F88E
:10C9E00025C0C3F80815C3F80C25C3F82465BAF1AF
:10C9F000000F14D043F307310029227B4FEA133391
:10CA000018DB134C52016518D2B285F800230122BD
:10CA1000490903F01F0302FA03F344F821303423D9
:10CA200003FB0898012388F82D30BDE8F88F082013
:10CA3000BDE8F88F074903F00F035201D2B2CA5480
:10CA4000EDE71120BDE8F88F0075050000030050E8
:10CA500000E100E014ED00E0187C0020F8B5077953
:10CA60002E4C342307FB03F30546E3580068B3B1AB
:10CA700040F30733002B4FEA103210DB5B092848E4
:10CA80002033012102F01F0201FA02F240F82320B4
:10CA9000BFF34F8FBFF36F8F2B79286800E03B46C1
:10CAA000342606FB034300211E4A9960C0F8082380
:10CAB000D0F8002222F4BC52C0F8002206FB074640
:10CAC000012283F82D20C0F80015FFF739FC96F8F5
:10CAD0003230E3B92A68D2F808351F2B86BF03F03D
