:1000000000000420750300005D0300005F03000092
:1000100061030000630300006503000000000000AE
:100020000000000000000000000000006703000066
:1000300069030000000000006B0300006D03000076
:100040006F0300006F030000F51400006F03000051
:100050006F0300006F0300006F0300006F030000D8
:100060006F0300006F0300006F0300006F030000C8
:100070006F0300006F0300006F0300006F030000B8
:100080006F0300006F0300006F0300006F030000A8
:100090006F0300006F0300006F0300006F03000098
:1000A0006F0300006F0300006F0300006F03000088
:1000B0006F0300006F03000000000000000000005C
:1000C0006F0300006F0300006F0300006F03000068
:1000D0006F030000E51300006F0300006F030000D2
:1000E0006F0300006F0300006F03000000000000BA
:1000F000000000006F030000000000006F0300001C
:1001000000000000000000000000000000000000EF
:1001100000000000000000000000000000000000DF
:1001200000000000000000000000000000000000CF
:1001300000000000000000000000000000000000BF
:1001400000000000000000000000000000000000AF
:10015000000000000000000000000000000000009F
:10016000000000000000000000000000000000008F
:10017000000000000000000000000000000000007F
:10018000000000000000000000000000000000006F
:10019000000000000000000000000000000000005F
:1001A000000000000000000000000000000000004F
:1001B000000000000000000000000000000000003F
:1001C000000000000000000000000000000000002F
:1001D000000000000000000000000000000000001F
:1001E000000000000000000000000000000000000F
:1001F00000000000000000000000000000000000FF
:10020000354936480A1A02D0072291438D463449AF
:1002100034480A1A06D00722914381F30988022242
:1002200082F3148830483149314A00F044F83148AB
:100230003149324A00F03FF831483249324A00F041
:100240003AF832483249334A00F035F832483349F7
:10025000334A00F030F833483349344A00F02BF881
:1002600033483449344A00F026F8344834490022EF
:1002700000F02CF833483449002200F027F83348C6
:100280003349091A082902DB002202604160314A21
:1002900090471F481F49884205D00268043003B4C4
:1002A000904703BCF7E700208646EC46002000217B
:1002B000294A9047FEE7884207D0521A05D00378B2
:1002C00001300B700131013AF9D17047884202D0F8
:1002D00002700130FAE770470000042000E00320BC
:1002E000000004200000042018320000000000205C
:1002F00034000020D0030000D00300002C2E0000AA
:10030000183200000000002000000020782E0000BD
:10031000782E0000782E0000782E0000782E000045
:10032000782E0000782E0000782E00001832000091
:100330004C32000034000020340000203400002043
:10034000F0050020F0050020F0050020F005002059
:10035000F02500209D030000191F0000FEE7FEE7C6
:10036000FEE7FEE7FEE7FEE7FEE7FEE7FEE7FEE765
:1003700000F002B8FFF7FCBF0F484FF007018843B9
:1003800085460E4880470E48016841F470010160BF
:10039000BFF34F8FBFF36F8FFFF732BF09480A4992
:1003A0000A4A884207D0521A05D0037801300B70F0
:1003B0000131013AF9D1704700000420812A000080
:1003C00088ED00E0782E00000000002000000020F2
:1003D000F0B595B01D46164608460C4600F06AFF7B
:1003E0001A9B0D93CDE9086500252B46082205A927
:1003F00020460A958DF82C500C9500F077FF079B4E
:100400000293069B03939DF814308DF8115003F06E
:100410000302012A1DD1BDF81420059DC3F3C203B8
:10042000C2F383168DF81030B20008230EA92046BF
:1004300000F05CFFC5F3952508AB0093324602AB94
:100440000EA9284600F046FB204600F037FF15B005
:10045000F0BD022AF8D1BDF81650C3F3C203C5F3AC
:1004600089158DF810300827082D2E4628BF08263C
:100470003B4632460EA9204600F038FFAD1B08ABC4
:1004800002AA31460EA8374400F088FB002DEBD1BC
:10049000DAE70000014B01221A7070477500002056
:1004A0007047000070B50E4D06460FCD88B06C4603
:1004B0000FC495E80F00002E84E80F00094A0A488F
:1004C0004FF0060308BF00226946009300F04CFF7E
:1004D00008B100F0C3FB054B1E7008B070BD00BF33
:1004E000782E000095040000000000203400002059
:1004F00007B5044B0093044A4023FFF769FF03B09C
:100500005DF804FB0D0500003500002038B50D48EE
:100510000D4C0E4D002323700378EB5CD2B263B117
:10052000043001F0ABFC08B100F098FB084B1A78DE
:1005300012B12378002BFBD038BD0C3001F02EFA1D
:10054000F1E700BF00000020750000207C050020BE
:100550003400002008B50848084A0378D35C3BB152
:10056000043001F0FBFBBDE808400020FFF79ABF14
:100570000C3001F0ABF9F6E7000000207C0500200C
:10058000037813F0040216D003F00303012B03D009
:10059000022B09D0012070470A6800880232C0F39C
:1005A000831002440A60F5E70B684288023303EBCC
:1005B00092130B60EEE71046704700002DE9F04FF4
:1005C000DFF810A10F4685B00446861C00201546B2
:1005D00000F09AFBDAF804203A60DAF8083003F504
:1005E00080739B1A0AF21C470AF583690AF21448C1
:1005F000B34219D30020002D68D004F00F039B01F3
:1006000043F0050363F30F00DAF80430DAB2033283
:1006100033444AF822000020CAF8043000F076FB88
:10062000012005B0BDE8F08F0121384600F093FBB2
:10063000484600F0A8FB404600F0A5FBDAF80800A9
:100640000090C0B203300AEB80006946FFF798FFC4
:10065000009B30BBDAB20AEB8202D16801919A1C8E
:100660000133DBB20AEB83030092D3F80CB001F044
:100670000303012B22D0022B15D08346404600F005
:1006800085FB10B1009BCAF808305946384600F087
:1006900062FBDAF80830DAF8042003F580739B1A5D
:1006A000A6E7D8B2CEE7BDF80630C3F3891303330B
:1006B0004FEA1B4B02EB93030093DFE7BDF80430D6
:1006C000C3F383134FEA1B4B1344F5E7A40544F02F
:1006D000060099E74801002030B50A4C71B10A4A7A
:1006E0000A49121BD20800239A4201D1002030BDD2
:1006F00031F82350854202D00133F5E7034654F820
:100700003300F4E72C2E0000542E000000000020DF
:10071000094B013903EBC000032909D8DFE801F0D8
:100720000A02040604207047007970474079704738
:1007300000207047022070472C2E000070470000F8
:10074000034BD3E90130C31A58425841704700BFE8
:10075000480100202DE9FF41FFF7F2FF0546002880
:1007600040F0E980754CC4F81804BFF34F8FA368BC
:100770000093DBB2033304EB83006946FFF700FF0D
:10078000009B18B1D4F81824002A5AD0DAB2991C68
:10079000013304EB8202DBB204EB8303D268DB6833
:1007A000029302F00303022B0192009154D1BDF891
:1007B00006306348C3F38917502F3E4628BF5026A2
:1007C00006F1080166F38F13C1F30901ADF8063095
:1007D00000F041FD0546002800F0988000F06AFD19
:1007E0000023082201A9284600F076FD0099CB439A
:1007F000DBB20133C9B20331B6EB830F4FEA830298
:1008000004EB810125D95FFA82F80823A6EB0806DC
:10081000284600F061FDF6B208F10803494903F0EB
:10082000FC033246284600F057FD009B033703EBDC
:1008300097070097D4F81834002B43D1D4F81064EC
:1008400053E062689A4294D8A260284604B0BDE89A
:10085000F08108233246E5E7012B57D1BDF804307B
:100860003748C3F38311062928BF062161F3891392
:10087000023101F00F018900ADF8043000F0EBFC0B
:100880000546002842D000F015FD0023082201A9EA
:10089000284600F021FD0026BDF80420C2F3831293
:1008A000B300964203F10803C4D200994A1CC9B2AE
:1008B0000331009204EB81010422284600F00CFD74
:1008C0000136E9E7284600F0F9FCFFF739FF80F030
:1008D0000100C5B2B9E7F3685B7923B133682946F3
:1008E0001B6830469847F3681E68002EF3D12846EF
:1008F00000F0E4FC304600F007FAD4F818340BB9E5
:10090000009BA360002000F001FADEE7D4F8104459
:1009100054B90D4B0D480E49C01AC008000440F0F0
:10092000020000F05FF8D0E7236820469B689847F4
:10093000E3681C68ECE7002587E700BF480100205A
:10094000642E0000540100202C2E00004C2E0000CC
:10095000B52E00002DE9F34704460E46924601A944
:10096000012218469946FFF729FE1C4F10B3019D3E
:100970004FF00008AA1CC84508EB020125D1184811
:10098000002100F0C5F980F31000000440EA144093
:10099000E4006B1C04F03804DBB2EDB244F0010457
:1009A00007EB8303033544EA881444EA8624D860BD
:1009B00047F825403B781BB1FFF7CCFE0028FBD160
:1009C000FFF7BCFE02B0BDE8F087C9B207EB8101BA
:1009D0005AF82830CB6008F10108CCE74801002024
:1009E0006405002000231A46FFF7B4BF38B5084B52
:1009F0000125D3F810441D7004B938BDE3685D715A
:100A0000236820465B689847E3681C68F4E700BFEA
:100A10004801002030B5C38885B004460D4633B187
:100A2000144A00921449154A284600F0F2F9217A36
:100A300005291DD0637A4BB1A088FFF769FE104BE2
:100A4000104953F82020284600F0E3F9227A0E4B93
:100A5000A08853F8222003920021FFF73DFE039A5D
:100A60000A490346284605B0BDE8304000F0D1B938
:100A700005B030BDEA2E0000D22E0000CA2E0000C4
:100A8000582F0000EF2E00007C2F0000F22E0000F7
:100A900007B503460846197A052911D05B7A2BB1B0
:100AA000094A0A49019000F0B4F9019808490190F7
:100AB00000F0AFF9019803B05DF804EB00F09EB9C7
:100AC000002AF8D0F2E700BFEA2E0000EF2E000067
:100AD000E72E00002DE9F04385B01F460C9D002352
:100AE00095F80C902B7306460C46904629463846DE
:100AF000FFF790FFB8F1060F09D8DFE808F00412FD
:100B0000181F283340003146284600F082F90022A1
:100B100029463846FFF7BCFF85F80C9005B0BDE8C4
:100B2000F08322683146284600F073F9EFE7D4E9F4
:100B300000233146284600F06CF9E8E7A3680093EB
:100B40003146D4E90023284600F063F9DFE7E36883
:100B50000193A36800933146D4E90023284600F0AE
:100B600058F9D4E723690293E3680193A3680093DB
:100B70003146D4E90023284600F04BF9C7E7636902
:100B8000039323690293E3680193A36800933146BA
:100B9000D4E90023284600F03CF9B8E708292DE9FC
:100BA000F74F80460E4617461C463DD800251B7B56
:100BB0002573214610460193FFF72CFFDFF88CA028
:100BC000DFF88CB0AE4232D918F8052059462046DD
:100BD00000F01FF90135082DF4D11B49DFF874A08E
:100BE000DFF874B0204600F014F94FF000094E45CC
:100BF00024D918F809507E2D1ED8284602F082F814
:100C0000002814BF2A462E225946204600F001F93A
:100C100009F10109B9F1080FE9D10122214638464D
:100C2000FFF736FF019B237303B0BDE8F08F5146F9
:100C3000204600F0EEF8CDE72E22E5E751462046AB
:100C400000F0E7F8E4E700BF062F0000022F0000E5
:100C5000FC2E0000042F0000082F00001FB500210B
:100C6000039001AA44F20100CDE9011100F004F85B
:100C700005B05DF804FB000038B572B6FFF7B6FEAC
:100C8000FFF768FD0028FBD1104B114C114D1249A4
:100C9000E41AE408240444F00100FFF7A3FED5F8A9
:100CA000F030DB0700D500BE0C4944F00200FFF72E
:100CB00099FEBFF34F8FEA68094B02F4E0621343D9
:100CC000EB60BFF34F8F00BFFDE700BF2C2E00008D
:100CD0004C2E000000ED00E0902F00009C2F000043
:100CE0000400FA0572B6024A1368013313607047B4
:100CF00068050020034A1368013B136003B962B61C
:100D0000704700BF68050020FFF7ECBFFFF7F2BF98
:100D100010B5034653E8000F0A4643E8002494F058
:100D2000000FF7D110BD10B5034653E8002F42EA7B
:100D3000010043E8000494F0000FF6D110BD10B597
:100D4000034653E8000F00EA010243E8002494F050
:100D5000000FF6D110BD10B5034653E8002F02EB8B
:100D6000010043E8000494F0000FF6D110BD10B567
:100D7000034653E8002FA2EB010043E8000494F07F
:100D8000000FF6D110BD0121FFF7CDBF0021FFF705
:100D9000D6BF38B504460020FFF7B6FF2268636867
:100DA0001168994213D9481E106011F8013CE5689A
:100DB000218A01FB0355A36811791B1ADBB2994202
:100DC00000D213710020FFF7A1FF284638BD00258F
:100DD000F8E738B5054600200C46FFF795FF2A686E
:100DE0001368591C1160E968641A298AB4FBF1F48C
:100DF0001C70BDE838400020FFF788BF826810B53E
:100E000004462AB143690168006998470023A3603A
:100E100010BD0EB403B5039921B104AB01AA01932F
:100E200000F076F802B05DF804EB03B070470A29D1
:100E300038B504460D4602D10D21FFF7F8FFA3682F
:100E40002268591CA160D554D4E901329A4204D3D6
:100E50002046BDE83840FFF7D1BF38BD2DE9F84F37
:100E60009846DDE90A43154682460F460A464FF08A
:100E70000109AA420FD2C14538BFC14613F0010B88
:100E800001D16CB900240126B8F1010F1BD908F17A
:100E9000FF386E43F8E709F10109B2FBF5F2E8E724
:100EA0009B070ED5B8F1000F0CBF30262026A145B8
:100EB000E9D2013C31465046FFF7B9FF002CF6D18C
:100EC000E0E72026F3E7B7FBF6F39D42E1D9DFF830
:100ED0003C80B7FBF6F3504618F8031006FB137777
:100EE000FFF7A5FF3346AB42B6FBF5F6F1D2BBF1F7
:100EF000000F02D00CB1A14501D3BDE8F88F20212D
:100F00005046013CFFF793FFF4E700BFA92F000014
:100F10002DE9F74F054617468846002900F03E8127
:100F200018F8011B49B92B7B002B00F037812846AC
:100F300003B0BDE8F04FFFF761BF252940F0B7804F
:100F4000002698F800302D2B424608F1010823D0E6
:100F5000302B24D02B2B25D000242A2B02F1010189
:100F600023D13B681A1D1B683A601C440A4613785B
:100F70002E2B26D101324FF0000A104610F8011B2B
:100F8000A1F1300CBCF1090F1DD80A2303FB0A1391
:100F9000A3F1300A0246F0E746F00106D1E746F039
:100FA0000206CEE746F00406CBE711F8013CA3F1B8
:100FB00030000928DBD80A2202FB0434303C0A4600
:100FC000CBE74FF0000A12F8011B01F0FB00682884
:100FD0009046F8D0782909D86F290CD8632962D0B7
:100FE00022D8252963D0582900F0888098F800304D
:100FF000002B95D197E770390829F7D801A353F84A
:1010000021F000BF77110000ED0F0000ED0F000090
:101010000D110000ED0F0000EB100000ED0F0000BF
:10102000ED0F0000FD100000642901D06929DDD119
:101030003A68D2F80090111D89EAE9723960A2EB92
:10104000E9724FF0010B092A35DCD34538BFD3468E
:101050002CB1B9F1000F01DB720700D5013CB307D9
:1010600002D5BAF1000F03D0F00701D44CBB002425
:10107000B9F1000F2DDAC9F100092D212846FFF73B
:10108000D6FE06F00302022A04D1BAF1000F01D104
:101090001CBB0024CDE9004653460A224946284697
:1010A000FFF7DCFEA2E73B681A1D19783A60284674
:1010B000FFF7BDFE9AE70A230BF1010BB2FBF3F237
:1010C000C1E7A345D4D220212846013CFFF7AFFE5B
:1010D000CCE77107D5D52B21D0E7A345DAD2302153
:1010E0002846013CFFF7A3FED2E73968CDE9004668
:1010F0000A1D3A6053460A220968D0E739680A1D7A
:101100003A60CDE9004653461022F5E73B681A1DC8
:101110003A6016F00106D3F8009024D1B9F1000F1F
:1011200003D0484601F052FE0646B4421DD809F1EC
:10113000FF3919F8011F00293FF458AF2846FFF77F
:1011400076FEF6E728460136FFF771FE19F806101D
:101150000029F7D1A642BFF449AF20212846013C1F
:10116000FFF765FEF6E70026F0E720212846013C60
:10117000FFF75DFED9E73B681A1D3A60302128462B
:101180001C68FFF754FE78212846FFF750FE002226
:101190000823CDE900322146102280E703B0BDE8E4
:1011A000F08F00BF2DE9F84FB0F806A04579D2F8CE
:1011B00000B09DF828900AFB05F5043D88460BEB2E
:1011C0000301A94203F1040488BFA5EB030BB4FBA0
:1011D000FAF607460AFB1644C2F800B04EB9AAEB6D
:1011E00004055D4528BF5D46BBF1000F04D1BDE895
:1011F000F88F3F68013EF1E7043408EB06003C44F9
:101200002A46B9F1000F0DD02146ABEB050B01F0DA
:1012100081FDDA452E443F6855464FF0000428BF53
:101220005D46E1E701462046EFE7F8B5467901461D
:10123000721E0546002393422D6803D30024A64264
:1012400002D8F8BD0133F6E70F682846FFF7C1FD65
:1012500001343946F3E72DE9F843068ACD1C0746E9
:10126000FFF797FD043E35440446B5FBF6F5F0B1B3
:101270004FF48073EDB28380C680013D07608146E4
:101280004FF00008A84512D23846FFF782FD064607
:1012900048B163790133637108F10108C9F80000AE
:1012A00007608146EEE72046FFF7BFFF3446204641
:1012B000BDE8F88301210430FFF74DBD10B50121D1
:1012C00004460430FFF753FDC0B220B92046BDE804
:1012D0001040FFF7AABF10BD1FB503920022009275
:1012E00003AAFFF75FFF05B05DF804FB1FB503928B
:1012F0000122009203AAFFF755FF05B05DF804FB39
:101300001FB503788DF800304368019383688DF82A
:101310000830C368054A0393054B684653F82130EB
:1013200052F82110984705B05DF804FB6C050020C9
:10133000740500201FB503788DF8003043680193D1
:1013400083688DF80830C368054A0393054B6846E7
:1013500053F8213052F82110984705B05DF804FB8E
:101360006C05002074050020F0B5194B90F800C002
:10137000DFF86CE043F82C20164B16460A6943F858
:101380002C204B7F0EF80C300C4607460FCC89B052
:101390006D460FC594E80F0085E80F003B78CDF847
:1013A00010C01EF803304BB1002E0B4A694608BF2F
:1013B0003246381D00F0F6FB09B0F0BD002E074A9A
:1013C000694608BF324607F10C0000F0AFF9F3E7B9
:1013D000740500206C050020011300003513000087
:1013E0007C050020F0B53F4B3F4CD3F8142185B06D
:1013F0008AB10022C3F81421D3F814310093009B62
:10140000637943F0080303F01202122A637104BFE8
:1014100043F020036371334BD3F804218AB10022D7
:10142000C3F80421D3F804310193019B637943F09D
:10143000040303F01102112A637104BF43F0200377
:101440006371284BD3F80821BAB10025C3F80851BD
:10145000D3F808210292029A24480422C3F80823F0
:101460002946C3F800552368984723682048294631
:1014700098470123237105B0F0BD637903F00F0293
:101480000F2A08D0D80701D4190704D4627992072B
:10149000F1D45B07EFD56279276802F0F30312F00D
:1014A00020020BD023F0300343F0100363710121BD
:1014B00000203B4605B0BDE8F04018470B4D95E8CD
:1014C000030002AE86E8030015E9030043F01003B1
:1014D00085E80300C4E90222637101213046B84760
:1014E000C9E700BF005002408005002090050020A1
:1014F00088050020014B1B68184700BF9805002095
:1015000038B50B4B98420C4601D0002038BD002066
:10151000FFF7FAFB074B1D7915B901221C601A7100
:101520000020FFF7F3FB002DEFD01120EEE700BF06
:101530000020004098050020034B984201BF034B58
:1015400000221A601A7170470020004098050020A0
:101550000023435082B043580193019B02B070476F
:101560000A4610B54FF48E71FFF7F2FF136A9168C7
:10157000C95C136A01331362C0F81C1510BD8B6976
:101580000A4610B54FF4847123B9FFF7E1FFD0F894
:10159000183510BDFFF7DCFF536AD168D0F8180585
:1015A000C854536A01335362F3E700001FB50123A7
:1015B0008DF80030044BCDE90110D3E900126846E4
:1015C000904705B05DF804FBA005002030B54D4DF7
:1015D000D5F804339A0585B051D5D5F82431002BC0
:1015E0004DD04FF492712846FFF7B2FF4FF40173CC
:1015F000C5F80833444B93F829200AB901226A60E0
:10160000404902228DF80020D1F88024C1F88024BE
:1016100003929A690292DA6801920022C3E90622D3
:101620006846D3E9001290473648D0F81C315BB1C8
:10163000354A5169136A99424DD992F82830002BE6
:1016400049D11146FFF78CFF2E48D0F84431002BCA
:1016500056D04FF4A271FFF77BFF2B4B93F8292054
:101660000AB1012202609A69002A49D0586AD968F1
:1016700000229A6105B0BDE83040FFF797BFD5F86A
:1016800004335B07D0D5D5F80831002BCCD01E4CE5
:101690001C482146FFF773FF636AA2699A42C3D1CF
:1016A000E369E1684BB1A3612369E3600023606AE9
:1016B000E3616362FFF77AFFB6E794F829300BB96C
:1016C00001236B600F4B4FF40172C3F80823002312
:1016D000606AA361EEE70B484FF48E71FFF738FFA5
:1016E0005369002BB0D051690291002391688DF8A5
:1016F0000030019153616846D2E900139847A3E78F
:1017000005B030BD00200040A00500201F2886BF86
:1017100000F01F00044B4FF0A04300F5E0700222E0
:1017200043F82020704700BF000300502DE9F84324
:10173000604D90F804802C2303FB0853064693F871
:101740002A300C469146002B40F0AF805A49006881
:10175000FFF7D6FE0746002840F0A9802268531CF8
:1017600010D01F2A87BF554902F01F0313464FF0C0
:10177000A0410120984003F5E073C1F8080503205B
:1017800041F823006168481C0DD01F298BBF01F070
:101790001F030B4649484FF0A04003F5E0734FF09C
:1017A000000C40F823C03068A369C0F8243594F8D1
:1017B00014C0637DBCF1010F4CEA0303C0F86C3523
:1017C000C0F81415C0F80C252BD1A368591C0DD0F6
:1017D0001F2B8BBF03F01F021A4638494FF0A04160
:1017E00002F5E0724FF0000C41F822C0E1684A1C9B
:1017F00013D01F2987BF314A01F01F0C8C464FF0D0
:10180000A0424FF0010E0EFA0CFE0CF5E07CC2F87F
:1018100008E54FF0030E42F82CE0C0F80815C0F8B8
:1018200010352C2202FB08F2AB18C3F80490236990
:10183000AB50B9F1000F20D04FF48E71247FFFF729
:1018400087FE4FF4A2713068FFF782FE32681C4BAE
:10185000C2F80433130B42F307326101002AC9B204
:101860001EDB1848841884F800130121520903F084
:101870001F0301FA03F340F8223033680422C3F84F
:1018800000252C2303FB08530022C3E9062283F81A
:1018900029205A61012283F82A203846BDE8F883BE
:1018A000094A03F00F03D154E7E70827F5E71127AA
:1018B000F3E700BFA0050020CD1500000003005095
:1018C0008000020000E100E014ED00E02DE9F041AD
:1018D00003680579284C0022C3F800252C2202FB5E
:1018E000054201465268A2B1244AC3F808231A0BE4
:1018F00043F30733002B0CDB02F01F005B090122CE
:10190000824020331E4840F82320BFF34F8FBFF39F
:101910006F8F0B68D3F80C05D3F81485D3F80865DE
:10192000D3F810754FF0FF329042C3F81425C3F876
:101930000C25C3F80825C3F8102501D0FFF7E6FEF3
:10194000B8F1FF3F02D04046FFF7E0FE7A1C02D01C
:101950003846FFF7DBFE731C02D03046FFF7D6FE99
:101960000868FFF7E9FD2C2303FB0544002384F8F6
:101970002A306360BDE8F081A005002084020200E7
:1019800000E100E00279044B2C2101FB023358698D
:10199000003818BF01207047A00500202DE9F84F3E
:1019A000064690F8048089469246FFF7EBFF04460E
:1019B00000283CD1204F2C2508FB057B4FF48E716D
:1019C000CBF814A0CBF80890CBF820008BF82800B7
:1019D0003068FFF7BDFD3068012383605946FFF78B
:1019E000BFFDDBF804305D461BBB3068DBF81440FC
:1019F0002B6A9C4211D83368D3F81C21002AFBD0F3
:101A00000122DA6000202C2303FB087700237B618E
:101A1000BDE8F88F95F828303BB9D0F81C31002B81
:101A2000F8D05946FFF79CFDE2E70F20EBE71120C5
:101A3000EEE72046ECE700BFA0050020002343505E
:101A400082B043580193019B02B070471FB5012338
:101A50008DF80030044BCDE90110D3E9001268463F
:101A6000904705B05DF804FBCC0500207FB5434AE4
:101A7000D2F82461002E60D010464FF49271FFF727
:101A8000DDFF02238DF80030D2F88034C2F88034B4
:101A90000393D2F83C350293394BDA680192002265
:101AA000C3E906226846D3E9001290473348D0F8CC
:101AB000443173B14FF4A271FFF7C0FF304B9A6904
:101AC0003AB10022C3E90622D968D0F83C05FFF7F5
:101AD000BDFF2A48D0F82031ABB14FF49071FFF729
:101AE000ADFF0123C360264B5A6962B1D0F84C1593
:101AF0000291002299688DF8002001915A61684690
:101B0000D3E9001290471D48D0F858319BB14FF4EB
:101B1000AC71FFF793FF1A4B5A6962B1D0F84C15BC
:101B20000291002299688DF8002001915A6168465F
:101B3000D3E90012904704B070BDD2F81031002BE9
:101B4000B4D04FF488711046FFF778FF0C4BD2F8F1
:101B50003C0599698842A9D1DC69D96864B1D2F899
:101B6000005225F02005C2F800521A699C61DA6023
:101B7000DE61FFF76BFF99E79C61FAE70020004008
:101B8000CC0500201F2886BF00F01F00044B4FF03B
:101B9000A04300F5E070022243F82020704700BF08
:101BA000000300502DE9F843664E90F8048024238A
:101BB00003FB0863044693F820300D469146002B42
:101BC00040F0BC8060490068FFF79AFC0746002897
:101BD00040F0B68029684B1C10D01F2987BF5B4A94
:101BE00001F01F030B464FF0A0420120984003F57F
:101BF000E073C2F80805032042F823006A68501C0D
:101C00000DD01F2A8BBF02F01F0313464F484FF021
:101C1000A04003F5E0734FF0000C40F823C02068AB
:101C2000AB69C0F8243595F814C06B7DBCF1010F89
:101C30004CEA0303C0F86C35C0F80C15C0F8142545
:101C40002BD1AB68591C0DD01F2B8BBF03F01F028B
:101C50001A463E494FF0A04102F5E0724FF0000CE9
:101C600041F822C0E9684A1C13D01F2987BF374AB0
:101C700001F01F0C8C464FF0A0424FF0010E0EFAFF
:101C80000CFE0CF5E07CC2F808E54FF0030E42F8BC
:101C90002CE0C0F80815C0F81035242202FB08F229
:101CA000B318C3F804902B69B350B9F1000F2FD0CB
:101CB0004FF488712A7FFFF7C1FE20684FF49071BE
:101CC000FFF7BCFE20684FF49271FFF7B7FE206863
:101CD0004FF4A271FFF7B2FE4FF4AC712068FFF72A
:101CE000ADFE23681A49C3F80413190B43F30733F5
:101CF0005201002BD2B21CDB1648C51885F8002310
:101D000001225B0901F01F0102FA01F140F82310E2
:101D100023680822C3F80025242303FB0866002358
:101D2000C6E906337361012386F820303846BDE8E2
:101D3000F883094B01F00F015A54E9E70827F5E74A
:101D40001127F3E7CC0500206D1A000000030050B6
:101D50001003420000E100E014ED00E02DE9F04145
:101D60003D4D06790468242303FB065302465B6855
:101D7000ABB13A4BC4F8083344F30733002B4FEAB6
:101D800014310CDB01F01F005B090121814020337D
:101D9000334840F82310BFF34F8FBFF36F8FD4F851
:101DA000003223F02003C4F80032242303FB06533F
:101DB0009B6933B14FF4A2712046FFF73FFE012328
:101DC00063604FF4AC712046FFF738FE0123E360F7
:101DD000242303FB0653D4F858110029FBD099693A
:101DE00019B1D4F844110029F5D00023C4F8003506
:101DF0001368D3F80C05D3F81485D3F80815D3F875
:101E000010754FF0FF329042C3F80C25C3F814252B
:101E1000C3F80825C3F8102501D0FFF7B3FEB8F1C9
:101E2000FF3F02D04046FFF7ADFE7A1C02D0384695
:101E3000FFF7A8FE4B1C02D00846FFF7A3FE204682
:101E4000FFF77AFB242303FB0655002385F8203097
:101E50006B60BDE8F08100BFCC050020100342009C
:101E600000E100E00279044B242101FB02335869B0
:101E7000003818BF01207047CC05002001F06043F6
:101E8000B3F1005F2DE9F0470646884692463BD104
:101E900090F80490FFF7E6FF0446002836D11D4F66
:101EA0003068242505FB09754FF49071C5F814A01E
:101EB000C5F80880FFF7C2FD4FF4AC713068FFF73A
:101EC000BDFD33686A69A968C3F84415C3F848259D
:101ED00001229A606A68DAB9D3F82021D3F8580150
:101EE0001AB90028F8D00F2007E00028FBD1012202
:101EF000DA60D3F85821002AFBD0242303FB0977AA
:101F000000237B61BDE8F0871020FBE71120F9E793
:101F10002046F7E7CC0500202DE98048ADF5485D67
:101F200081B04FF448520021684600F01CFF4FF08A
:101F300008044FF6E8734FF6DD714FF6F3704FF07B
:101F400013054FF00F074FF6FE7CADF80230ADF8E9
:101F50000A104FF6CE73ADF80C00ADF80E40ADF898
:101F60001050ADF81270ADF814C04FF6E97E4FF680
:101F7000E1784FF6F7794FF0320A4FF0880B4FF0C7
:101F8000E00140F213104FF0FD044FF08F054FF6C3
:101F9000D7774FF6037C4FF6CB724FF6D576ADF878
:101FA0000830ADF816E0ADF81880ADF81A90ADF82D
:101FB0001CA0ADF81EB0ADF82010ADF82200ADF8B1
:101FC00024404FF65360ADF82650ADF82870ADF8B8
:101FD0002AC04FF6046E4FF636684FF6D9694FF6B1
:101FE000AF7A4FF0630B4FF0AB014FF06B044FF63D
:101FF00034754FF6257740F2D31C40F25B73ADF891
:102000000460ADF80620ADF82C00ADF82EE0ADF878
:102010003080ADF83290ADF834A0ADF836B0ADF800
:102020003810ADF83A40ADF83C2040F2F724ADF856
:102030003E50ADF84070ADF844C0ADF84A304FF4B2
:10204000CA63ADF84C3023464FF2D927ADF878304B
:102050004FF4CA63ADF85470ADF87270ADF87A30D1
:102060001F4640F25B73ADF87C3040F26363ADF81D
:102070007E304FF48763ADF8803040F2D3134FF4D5
:10208000876E40F26368ADF882304FF625734FF2E9
:10209000D7754FF2901C4FF4E16940F6976A41F210
:1020A000F52B4FF26501ADF846E0ADF848804FF2F0
:1020B0007F6E4FF64268ADF84E40ADF886304FF671
:1020C000C0544FF63473ADF85040ADF85250ADF8EF
:1020D0005610ADF858C0ADF85AE0ADF85C80ADF8D8
:1020E0005E90ADF860A0ADF862B0ADF864B0ADF848
:1020F00066A0ADF86890ADF86A80ADF86CE0ADF818
:102100006EC0ADF87010ADF87450ADF87640ADF813
:1021100088304FF06B03ADF88C304FF0AB03ADF867
:102120008E304FF06303ADF890304FF6AF73ADF8DB
:1021300092304FF6D963ADF894304FF63663ADF870
:1021400096304FF60463ADF898304FF60373ADF850
:102150009C304FF6D773ADF89E304FF08F03ADF83B
:10216000A0304FF0FD03ADF8A23040F21313ADF8EC
:10217000A4304FF0E003ADF8A6304FF08803ADF87F
:10218000A8304FF03203ADF8AA304FF6F773ADF830
:10219000AC304FF6E173ADF8AE304FF6E973ADF801
:1021A000B0304FF6FE73ADF8B2304FF00F03ADF81C
:1021B000B4304FF01303ADF8B6304FF00803ADF86C
:1021C000B8304FF6F373ADF8BA304FF6DD73ADF8B3
:1021D000BC304FF6CE73ADF8BE30ADF8C2604FF6EE
:1021E000E873ADF8846C4FF6CE76ADF88A20ADF882
:1021F0009A00ADF8C020ADF8C430ADF8823CADF81F
:10220000862CADF8886C4FF6DD76ADF88A6C4FF60B
:10221000F376ADF88C6C4FF00806ADF88E6C4FF08D
:102220001306ADF8906C4FF00F06ADF8926C4FF6B8
:10223000FE76ADF8946C4FF6E976ADF8966C4FF6F5
:10224000E176ADF8986C4FF6F776ADF89A6C4FF0F2
:102250003206ADF89C6C4FF08806ADF89E6C4FF0DE
:10226000E006ADF8A06C40F21316ADF8A26C4FF08A
:10227000FD06ADF8A46C4FF08F06ADF8A66C4FF6D6
:10228000D776ADF8A86C4FF60376ADF8AA6C4FF68A
:102290000466ADF8AE6C4FF63666ADF8B06C4FF62E
:1022A000D966ADF8B26C4FF6AF76ADF8B46C4FF0BE
:1022B0006306ADF8B66C4FF0AB06ADF8B86C4FF0F6
:1022C0006B06ADF8BA6C4FF63476ADF8BE6C4FF6CF
:1022D0002576ADF8C06C40F2D316ADF8C46C4FF45F
:1022E0008766ADF8C66C40F26366ADF8C86C40F224
:1022F0005B7140F2F726ADF8AC0CADF8BC2CADF834
:10230000CA1CADF8CC7CADF8CE6C4FF2D927ADF835
:10231000F86C4FF4CA66ADF8D47CADF8F27CADF839
:10232000FA6C374640F26366ADF8FE6C4FF4876690
:10233000ADF8006D40F2D316ADF8026D4FF625767C
:10234000ADF8066D4FF634764FF26501ADF8086DC5
:102350004FF06B06ADF8D61CADF8F01CADF80C6D67
:1023600040F25B714FF0AB06ADF8D04CADF8D25CEB
:10237000ADF8D8CCADF8DAECADF8DC8CADF8DE9C7D
:10238000ADF8E0ACADF8E2BCADF8E4BCADF8E6AC5D
:10239000ADF8E89CADF8EA8CADF8ECECADF8EECC1D
:1023A000ADF8F45CADF8F64CADF8FC1CADF80A2DB8
:1023B000ADF80E6DADF81A0D4FF60370ADF81C0DAB
:1023C0004FF6D770ADF81E0D4FF08F00ADF8200D11
:1023D0004FF0FD00ADF8220D40F21310ADF8240DC2
:1023E0004FF0E000ADF8260D4FF08800ADF8280D55
:1023F0004FF03200ADF82A0D4FF6F770ADF82C0D06
:102400004FF6E170ADF82E0D4FF6E970ADF8300DD6
:102410004FF6FE70ADF8320D4FF00F00ADF8340DF1
:102420004FF013004FF06306ADF8360D4FF0080083
:10243000ADF8106DADF8380D4FF6AF764FF6F3707E
:10244000ADF8126DADF83A0D4FF6D9664FF6DD7066
:10245000ADF8146DADF83C0D4FF636664FF6CE7004
:10246000ADF8166DADF83E0D4FF604661846ADF8A2
:10247000443D0DF58053ADF8186D4FF6D576A3F8B1
:102480000209A3F80469ADF8426D4FF6CE704FF61D
:10249000DD76A3F80809A3F80A694FF6F3704FF048
:1024A0000806A3F80629ADF8402DA3F80C09A3F8F7
:1024B0000E694FF00F06A3F812694FF6E976A3F8FC
:1024C00016694FF6F776A3F81A694FF08806A3F855
:1024D0001E694FF0E006A3F820694FF0FD06A3F84F
:1024E00024694FF6D776A3F828694FF60466A3F857
:1024F0002E694FF63666A3F830694FF6D966A3F811
:1025000032694FF6AF76A3F834694FF06306A3F84B
:1025100036694FF013004FF0AB06A3F81009A3F88B
:1025200038694FF6FE704FF06B06A3F81409A3F854
:102530003A694FF6E1704FF63476A3F81809A3F81C
:102540003E694FF032004FF62576A3F81C09A3F838
:10255000406940F2131040F2D316A3F82209A3F801
:1025600044694FF08F004FF48766A3F82609A3F85B
:1025700046694FF6037040F26366A3F82A09A3F890
:1025800048694FF6536040F2F726A3F84C794FF2B2
:10259000D927A3F82C09A3F83C29A3F84A19A3F8D2
:1025A0004E694FF26501A3F85049A3F85479A3F896
:1025B00072794FF4CA67A3F85619A3F858C9A3F85B
:1025C0005AE9A3F86CE9A3F86EC9A3F87019A3F847
:1025D0007649A3F87A7940F25B7140F2636E4FF46A
:1025E000876C40F2D3174FF62574A3F85C89A3F8E3
:1025F0005E99A3F860A9A3F862B9A3F864B9A3F837
:1026000066A9A3F86899A3F86A89A3F87C19A3F8C6
:102610007EE9A3F880C9A3F88279A3F886494FF62A
:1026200034714FF06B0B4FF0AB0A4FF063094FF66C
:10263000AF784FF6D9644FF6037E4FF6D77C4FF054
:102640008F07A3F85259A3F87459A3F87869A3F82F
:102650008819A3F88A29A3F88CB9A3F88EA9A3F83E
:102660009099A3F892894FF0FD01A3F8944940F2A4
:10267000131BA3F89CE9A3F89EC9A3F8A0794FF611
:1026800036644FF0E00A4FF088094FF032084FF6F9
:10269000F77E4FF6E17C4FF6E9773546A3F8964989
:1026A000A3F8A219A3F8A4B9A3F8A6A9A3F8A89916
:1026B000A3F8AA89A3F8ACE9A3F8AEC9A3F8B07946
:1026C0004FF6E8714FF604644FF6FE7B4FF00F0AA9
:1026D0004FF013094FF008084FF6F37E4FF6DD7CFC
:1026E0004FF6CE774FF6D576A3F89849A3F89A0916
:1026F000A3F8B2B9A3F8B4A9A3F8B699A3F8B88916
:10270000A3F8BAE9A3F8BCC9A3F8BE79A3F8C02915
:10271000A3F8C269A3F8C4190DF500534FF048029D
:102720000446A3F882254FF081009F224FF09606C1
:102730004FF069074FF0270C4FF6C77E4FF6D3785E
:102740004FF0450A4FF05D0BA3F88405A3F88625EA
:10275000A3F88865A3F88A75A3F88CC5A3F88E152D
:10276000A3F890E54FF00609A3F892854FF01B00FF
:10277000A3F896A5A3F898B54FF66A764FF6686762
:1027800040F2075A40F2F45B40F25E51A3F8949590
:10279000A3F89A05A3F89C65A3F89E75A3F8A6452F
:1027A000A3F8ACA5A3F8AEB5A3F8B0154FF6605CDE
:1027B0004FF6C74E4FF609584FF07B0940F275307F
:1027C0004FF0F3064FF6D7674FF6872A4FF2583B84
:1027D0004EF6D7414EF6EF14A3F8A0C5A3F8A2E534
:1027E000A3F8A485A3F8A895A3F8AA55A3F8B20561
:1027F000A3F8B465A3F8B675A3F8C4A5A3F8C6B545
:10280000A3F8C815A3F8CA454EF610514FF21B7035
:102810004FF4D86441F67B0542F2757642F6D167F3
:102820004DF23B4A4CF2217B4FF6FF5C4FF6BF6EF8
:102830004FF4197840F29129A3F8B8C5A3F8BAE586
:10284000A3F8BC25A3F8BE85A3F8C095A3F8CC15C2
:10285000A3F8CE05A3F8D045A3F8D255A3F8D465C4
:1028600042F6503CA3F8D67541F6834E40F23A58F2
:102870004EF6E829A3F8E0A5A3F8E2B5A3F8E4B57D
:10288000A3F8E6A5A3F8F645A3F8FA154EF6EF145B
:102890004EF6D7414FF2583B4FF6872AA3F8D8C5DA
:1028A000A3F8DAE5A3F8DC85A3F8DE95A3F8E895AC
:1028B000A3F8EA85A3F8ECE5A3F8EEC5A3F8F07554
:1028C000A3F8F265A3F8F455A3F8F805A3F8FC45BE
:1028D000A3F8FE15A3F800B6A3F802A640F29129CA
:1028E0004FF419784FF6BF6E4FF6FF5C4FF6D7677F
:1028F0004FF0F30640F2753040F25E5140F2F45B67
:1029000040F2075A40F2F7254FF65364A3F80696B3
:10291000A3F80886A3F80A26A3F80CE6A3F80EC6C7
:10292000A3F81076A3F81266A3F81406A3F81616F7
:10293000A3F818B64FF07B09A3F81AA64FF609586A
:10294000A3F81C56A3F820464FF6C74E4FF6605525
:102950004FF66864A3F81E96A3F82286A3F824E62F
:10296000A3F82656A3F82846A3F840264FF6E871A8
:102970004FF048024FF66A754FF01B044FF05D0BA5
:102980004FF0450A4FF006094FF6D3784FF6C77E51
:102990004FF0270C4FF069074FF096064FF081007B
:1029A000A3F83816A3F84426A3F82A56A3F82C4611
:1029B000A3F82EB6A3F830A6A3F83296A3F834866F
:1029C000A3F836E6A3F83AC6A3F83C76A3F83E6629
:1029D000A3F84206174B01224FF0C051C3F80C2553
:1029E000C3F81025C3F814150221C3F818150021E7
:1029F000C3F80415C3F81C25C3F82015C3F8241523
:102A00000D21C3F82825C3F860152421C3F86415E7
:102A10002521C3F868152621C3F870154FF44861C5
:102A2000C3F80025C3F840D5C3F850151A6020BF7D
:102A3000FDE700BF005002404FF08053D3F8300153
:102A4000A0F1080358425841704700004FF08053EE
:102A5000D3F83021082A06D1D3F83431052B02D817
:102A6000024AD05C70470020704700BFD22F0000A0
:102A7000024AD2F80034002BFBD0704700E001403E
:102A800010B5FFF7D9FF40B14FF080430022C3F8E3
:102A90000C21C3F81021C3F83825FFF7CDFF00281B
:102AA00046D04FF08052654BD2F80414C3F820157D
:102AB000D2F80814C3F82415D2F80C14C3F828155A
:102AC000D2F81014C3F82C15D2F81414C3F830152A
:102AD000D2F81814C3F83415D2F81C14C3F84015F2
:102AE000D2F82014C3F84415D2F82414C3F84815BA
:102AF000D2F82814C3F84C15D2F82C14C3F850158A
:102B0000D2F83014C3F85415D2F83414C3F8601551
:102B1000D2F83814C3F86415D2F83C14C3F8681519
:102B2000D2F84014C3F86C15D2F84424C3F87025C9
:102B3000FFF78CFF18B1424B424AC3F88C26FFF7CF
:102B400085FF18B1404BFB22C3F81825FFF77EFF25
:102B500070B14FF080414FF08053D1F8E42ED3F89C
:102B6000583222F00F0203F00F031343C1F8E43E82
:102B7000FFF76CFF20B1354B4FF40072C3F84026CD
:102B8000FFF75AFF48B14FF08043D3F80024D20733
:102B900044BF6FF00102C3F800242D4AD2F88830F8
:102BA00043F47003C2F88830BFF34F8FBFF36F8FC9
:102BB0004FF08053D3F83021082A0ED1D3F83431A6
:102BC000052B02D8234AD35C3BB14FF01023D3F836
:102BD00008224FF08043C3F858254FF01023D3F854
:102BE0000022002A03DBD3F80432002B22DA1A4930
:102BF00001234FF01020C1F804351224FFF738FFED
:102C0000C0F80042FFF734FFC0F80442FFF730FF7E
:102C10000023C1F80435FFF72BFFBFF34F8F0C499A
:102C20000E4BCA6802F4E0621343CB60BFF34F8FD0
:102C300000BFFDE70A4B0B4A1A6010BD00C0004000
:102C4000005000404881030000F000400090024026
:102C500000ED00E0CC2F000000E001400400FA0588
:102C60001C0000200090D0037F2805D8034A044BA5
:102C7000105C5B5C1840704700207047E42F000038
:102C800064300000A0F16103192B98BF2038704711
:102C9000A0F14103192B98BF203070477F299ABFBC
:102CA000017001206FF02E00704700BF5AB10A7802
:102CB0007F2A0AD800B102600021501AC3E900112E
:102CC00018BF01207047104670476FF02E00704704
:102CD000A0F16103192B98BF20387047A0F1410380
:102CE000192B98BF203070477F2805D8034A044B22
:102CF000105C5B5C1840704700207047E42F0000B8
:102D000064300000024B5B689B6809211B68184710
:102D100020000020844640EA010313F0030F18D17D
:102D20008446202A0BD32DE9F007B1E8F807A0E884
:102D3000F807A2F12002202AF7D2BDE8F007042A02
:102D400007D351F8043B40F8043BA2F10402042AE3
:102D5000F7D2002A05D011F8013B00F8013B013AF7
:102D6000F9D1604670478446002A2DD010F0030F39
:102D700004D000F8011B013A26D0F7E7C9B241EAB6
:102D8000012141EA0141202A12D3A2F120022DE9BA
:102D9000F0030B460C460D460E460F468846894604
:102DA000A0E8FA03203AFBD2BDE8F00320320BD0B2
:102DB000042A05D340F8041B043A05D0042AF9D2AA
:102DC00000F8011B013AFBD16046704700F1010198
:102DD00010F0030F11D010F8012B002A23D010F0AF
:102DE000030F0AD010F8012B002A1CD010F0030F9B
:102DF00003D010F8012B002A15D02DE970004FF0F8
:102E000001324FF0803350F8044BA4EB020525EA61
:102E100004051D4000D1F6E7A0F1040070BC10F8D5
:0C2E2000012B002AFBD1A0EB0100704741
:102E2C00B92F000000000000BD2F000000000000C2
:102E3C00C12F000000000000C62F000000000000A1
:082E4C00C62E00000000030384
:102E5400982E000000000000A42E000014000020A2
:102E6400780000204001002048010020800000205C
:042E74001800000042
:102E7800FFFFFFFFFFFFFFFFFFFFFFFFFFFFFFFF5A
:102E880000000000000000000000D601060100005C
:102E9800F104000055050000A1040000756172747A
:102EA8005F6C6F675F6261636B656E64004261634C
:102EB8006B656E647320666C757368656400617019
:102EC80070001B5B313B33316D0025734C6F6773AA
:102ED8002064726F70706564202825642925730D3D
:102EE8000A001B5B306D002573003C25733E2025CE
:102EF800733A2000202530327800202020007C0002
:102F08002563001B5B313B33306D001B5B313B336A
:102F1800326D001B5B313B33336D001B5B313B3340
:102F2800346D001B5B313B33356D001B5B313B332C
:102F3800366D001B5B313B33376D007761726E690C
:102F48006E6700696E666F006465627567000000F1
:102F5800EA2E00000B2F0000CA2E0000132F0000DD
:102F68001B2F0000232F00002B2F0000332F000001
:102F78003B2F000000000000962F0000432F0000A8
:102F88004B2F0000502F0000466174616C20657261
:102F9800726F720053797374656D2072657365740E
:102FA80000303132333435363738394142434445BD
:102FB800464932530050525300554152540055412E
:102FC800525445000000000001010100000000000B
:102FD80043000000504F5349580000002020202093
:102FE8002020202020682828282820202020202071
:102FF80020202020202020202020202048101010D1
:1030080010101010101010101010101084848484E8
:10301800848484848484101010101010108181819D
:103028008181810101010101010101010101010108
:10303800010101010101011010101010108282829B
:1030480082828202020202020202020202020202D8
:1030580002020202020202101010102000070320D0
:10306800041702010857104080000000D82F000004
:10307800DC300000F031000053756E004D6F6E00BB
:103088005475650057656400546875004672690098
:1030980053617400000000004A616E0046656200DA
:1030A8004D617200417072004D6179004A756E0081
:1030B8004A756C0041756700536570004F63740072
:1030C8004E6F76004465630000000000414D0050DB
:1030D8004D000000143200001032000010320000D1
:1030E80010320000103200001032000010320000D0
:1030F800103200001032000010320000FFFFFFFF06
:10310800FFFFFFFFFFFFFFFFFFFF00005031000040
:10311800803000008C310000A0300000D430000066
:1031280034310000E431000040310000256D2F25C6
:10313800642F25790000000025612025622025657F
:10314800202554202559000053756E646179004D7F
:103158006F6E6461790054756573646179005765B1
:10316800646E65736461790054687572736461791B
:10317800004672696461790053617475726461799B
:10318800000000004A616E756172790046656272DE
:1031980075617279004D6172636800417072696C83
:1031A800004D6179004A756E65004A756C79004179
:1031B80075677573740053657074656D6265720028
:1031C8004F63746F626572004E6F76656D626572EB
:1031D80000446563656D62657200000025483A2504
:1031E8004D3A255300000000692C0000852C000092
:1031F800912C0000E92C0000D12C0000DD2C0000EF
:103208009D2C0000AD2C0000000000002E000000E6
:1032180000000000002000400000000000200040E6
:103228000000000000000000FF0000000090D00334
:1032380074300000743000007430000074300000F6
:0432480074300000DE
:040000030000037581
:00000001FF
