:020000022000DC
:1070000000000420757302005D7302005F730200CC
:1070100061730200637302006573020000000000E8
:107020000000000000000000000000006773020084
:1070300069730200000000006B7302006D730200B0
:1070400009A302002DDA0200EDA60200F9B9020040
:107050006F7302006F73020071A502006F7302006C
:107060006F73020045D702006F7302006F73020056
:107070006F7302006F7302006F7302006F73020080
:107080006F730200DD8502006F7302006F730200F0
:107090006F730200B5E80200B528030089DD020025
:1070A0006F7302006F7302006F7302006F73020050
:1070B00095B20200C5CE02000000000000000000F2
:1070C0006F7302006F7302006F7302006F73020030
:1070D0006F730200E1B502006F7302006F7302006C
:1070E0006F7302006F7302006F73020000000000F4
:1070F000000000006F730200000000006F730200C8
:10710000000000000000000000000000000000007F
:10711000000000000000000000000000000000006F
:10712000000000000000000000000000000000005F
:10713000000000000000000000000000000000004F
:10714000000000000000000000000000000000003F
:10715000000000000000000000000000000000002F
:10716000000000000000000000000000000000001F
:10717000000000000000000000000000000000000F
:1071800000000000000000000000000000000000FF
:1071900000000000000000000000000000000000EF
:1071A00000000000000000000000000000000000DF
:1071B00000000000000000000000000000000000CF
:1071C00000000000000000000000000000000000BF
:1071D00000000000000000000000000000000000AF
:1071E000000000000000000000000000000000009F
:1071F000000000000000000000000000000000008F
:10720000354936480A1A02D0072291438D4634493F
:1072100034480A1A06D00722914381F309880222D2
:1072200082F3148830483149314A00F044F831483B
:107230003149324A00F03FF831483249324A00F0D1
:107240003AF832483249334A00F035F83248334987
:10725000334A00F030F833483349344A00F02BF811
:1072600033483449344A00F026F83448344900227F
:1072700000F02CF833483449002200F027F8334856
:107280003349091A082902DB002202604160314AB1
:1072900090471F481F49884205D00268043003B454
:1072A000904703BCF7E700208646EC46002000210B
:1072B000294A9047FEE7884207D0521A05D0037842
:1072C00001300B700131013AF9D17047884202D088
:1072D00002700130FAE770470000042000E003204C
:1072E000000004200000042008630300643700202D
:1072F00030380020D0730200D0730200E03A03005F
:10730000086303006437002064370020C43C030096
:10731000C43C0300C43C0300C43C0300C43C030061
:10732000C43C0300C43C0300C43C030008630300E6
:10733000D46303003038002030380020303800207B
:10734000202E0120202E0120202E0120202E012081
:10735000204E01209D7302008DC30200FEE7FEE770
:10736000FEE7FEE7FEE7FEE7FEE7FEE7FEE7FEE7F5
:1073700000F002B8FFF7FCBF0F484FF00701884349
:1073800085460E4880470E48016841F4700101604F
:10739000BFF34F8FBFF36F8FFFF732BF09480A4922
:1073A0000A4A884207D0521A05D0037801300B7080
:1073B0000131013AF9D1704700000420759E0200A6
:1073C00088ED00E0B03C0300503700206437002017
:1073D0007047000007B5044B0093044A402300F0B7
:1073E00032F803B05DF804FBF1730200313800207D
:1073F0002DE9F84388461446B2B10F4B0F4E0325D2
:10740000002743F00109224608EB070100200BF09A
:107410003BFC0744241A48B933782BB14FF47A4027
:10742000C847013D02D13570BDE8F88301233370B0
:10743000002CE8D1F8E700BFD03C03003038002032
:1074400070470BF051BCF0B595B01D461646084686
:107450000C4602F005FC1A9B0D93CDE9086500254A
:107460002B46082205A920460A958DF82C500C952C
:1074700002F012FC079B0293069B03939DF81430C5
:107480008DF8115003F00302012A1DD1BDF814201C
:10749000059DC3F3C203C2F383168DF81030B2000A
:1074A00008230EA9204602F0F7FBC5F3952508AB8B
:1074B0000093324602AB0EA9284600F0F5FB2046A9
:1074C00002F0D2FB15B0F0BD022AF8D1BDF816507B
:1074D000C3F3C203C5F389158DF810300827082DB2
:1074E0002E4628BF08263B4632460EA9204602F00B
:1074F000D3FBAD1B08AB02AA31460EA8374400F0FF
:1075000037FC002DEBD1DAE7014B01221A707047EE
:10751000B23800207047000070B50E4D06460FCD02
:1075200088B06C460FC495E80F00002E84E80F0069
:10753000094A0A484FF0060308BF00226946009333
:1075400002F06AFE08B100F073FC054B1E7008B033
:1075500070BD00BFE43C03000975020064370020E1
:107560007138002007B5044B0093044A4023FFF70D
:107570006AFF03B05DF804FB8175020072380020D9
:1075800038B50D480D4C0E4D002323700378EB5C8D
:10759000D2B263B1043003F073FD08B100F048FCCF
:1075A000084B1A7812B12378002BFBD038BD0C3071
:1075B00003F0F6FAF1E700BF64370020B23800208C
:1075C000CC3F00207138002008B50848084A0378ED
:1075D000D35C3BB1043003F0C3FCBDE8084000209D
:1075E000FFF79ABF0C3003F073FAF6E76437002018
:1075F000CC3F00200120FFF78FBF000038B50A4DB7
:10760000FFF71FFF0421284600F0B8FA074B0124BA
:107610005C71FFF7EFFF042105F1100000F0AEFAF6
:10762000034B5C7138BD00BF903C030078370020ED
:1076300080370020037813F0040216D003F0030310
:10764000012B03D0022B09D0012070470A68008863
:107650000232C0F3831002440A60F5E70B684288E7
:10766000023303EB92130B60EEE710467047000005
:107670002DE9F04FDFF81CA187B00F460023044628
:10768000861C0DF1070015468DF8073000F038FE16
:10769000DAF804203A60DAF8083003F580739B1AB0
:1076A0000AF21C470AF583690AF21448B3421AD356
:1076B0000020002D69D004F00F039B0143F0050367
:1076C00063F30F00DAF80430DAB2033233444AF8D5
:1076D00022009DF80700CAF8043000F035FE0120B2
:1076E00007B0BDE8F08F0121384601F0F1FD4846B2
:1076F00001F009FE404601F006FEDAF808000290AB
:10770000C0B203300AEB800002A9FFF793FF029B8F
:1077100030BBDAB20AEB8202D16803919A1C0133C2
:10772000DBB20AEB83030292D3F80CB001F003033F
:10773000012B22D0022B15D08346404601F0E6FDF6
:1077400010B1029BCAF808305946384601F0C0FD16
:10775000DAF80830DAF8042003F580739B1AA5E7FD
:10776000D8B2CEE7BDF80E30C3F3891303334FEA26
:107770001B4B02EB93030293DFE7BDF80C30C3F31E
:1077800083134FEA1B4B1344F5E7A40544F00600AE
:1077900098E700BF84390020064B074810B5002247
:1077A0001A7002F016FA044610B9044802F0BEFA44
:1077B000204610BD84390020703B0300483D030083
:1077C00030B50A4C71B10A4A0A49121BD20800238B
:1077D0009A4201D1002030BD31F82350854202D0B9
:1077E0000133F5E7034654F83300F4E7983B030010
:1077F000903C030064370020094B013903EBC000C3
:10780000032909D8DFE801F00A02040604207047C2
:107810000079704740797047002070470220704718
:10782000983B030070470000034BD3E90130C31AB3
:1078300058425841704700BF843900202DE9F0417B
:1078400086B0FFF7F1FF0546002840F0ED80774C49
:10785000C4F81804BFF34F8FA3680293DBB203335D
:1078600004EB830002A9FFF7E5FE029B18B1D4F8F0
:107870001824002A5AD0DAB2991C013304EB820290
:10788000DBB204EB8303D268DB68049302F00303EA
:10789000022B0392029154D1BDF80E306448C3F319
:1078A0008917502F3E4628BF502606F1080166F37F
:1078B0008F13C1F30901ADF80E3002F0A2F90546AD
:1078C000002800F09C8002F0CBF90023082203A9D5
:1078D000284602F0D7F90299CB43DBB20133C9B293
:1078E0000331B6EB830F4FEA830204EB810125D904
:1078F0005FFA82F80823A6EB0806284602F0C2F9D0
:10790000F6B208F108034B4903F0FC03324628465F
:1079100002F0B8F9029B033703EB97070297D4F8FC
:107920001834002B43D1D4F8106453E062689A42B3
:1079300094D8A260284606B0BDE8F08108233246FC
:10794000E5E7012B5BD1BDF80C303948C3F3831157
:10795000062928BF062161F38913023101F00F01C6
:107960008900ADF80C3002F04CF90546002846D0ED
:1079700002F076F90023082203A9284602F082F9D2
:107980000026BDF80C20C2F38312B300964203F127
:107990000803C4D202994A1CC9B20331029204EB13
:1079A00081010422284602F06DF90136E9E72846F4
:1079B00002F05AF9FFF738FF80F00100C5B2B9E7CD
:1079C000F3685B7923B1336829461B6830469847D2
:1079D000F3681E68002EF3D1284602F045F90DF138
:1079E00007008DF8076000F08BFCD4F818340BB951
:1079F000029BA3609DF8070000F0A6FCDAE7D4F82C
:107A0000104454B90C4B0D480D49C01AC00800046D
:107A100040F0020000F05EF8CCE7236820469B6847
:107A20009847E3681C68ECE7002583E78439002069
:107A3000703B030090390020983B0300E03B0300BB
:107A4000313D03002DE9F34704460E46924601A955
:107A5000012218469946FFF70BFE1C4F10B3019DFB
:107A60004FF00008AA1CC84508EB020125D11848B0
:107A7000002101F0E6FB80F31000000440EA14400E
:107A8000E4006B1C04F03804DBB2EDB244F00104F6
:107A900007EB8303033544EA881444EA8624D8605C
:107AA00047F825403B781BB1FFF7C8FE0028FBD103
:107AB000FFF7B8FE02B0BDE8F087C9B207EB81015D
:107AC0005AF82830CB6008F10108CCE7843900204F
:107AD000A03D002000231A46FFF7B4BF07B50123DD
:107AE000019201AAFFF7AEFF03B05DF804FB07B5F2
:107AF000CDE9002302236A46FFF7A4FF03B05DF837
:107B000004FB1FB5CDE90123069B039301AA0323C0
:107B1000FFF798FF05B05DF804FB1FB5CDE9002322
:107B2000069B0293079B03936A460423FFF78AFF91
:107B300005B05DF804FB7FB5CDE90123089B0393F5
:107B4000099B04930A9B059301AA0523FFF77AFF7B
:107B500007B05DF804FB7FB5CDE90023089B0293D5
:107B6000099B03930A9B04930B9B05936A46062388
:107B7000FFF768FF07B05DF804FB000030B50F4C5D
:107B8000D4F8102403460020114631B9D968087191
:107B90004AB9C4F810340A6030BDC9680D7985420D
:107BA00006D00968F1E7D26814680C601360F3E747
:107BB00001300A28E8D14FF0FF30EDE7843900208A
:107BC00038B5084B0125D3F810441D7004B938BDF1
:107BD000E3685D71236820465B689847E3681C682A
:107BE000F4E700BF8439002030B5C38885B004466F
:107BF0000D4633B1144A00921449154A284601F043
:107C0000EBFB217A05291DD0637A4BB1A088FFF7E1
:107C1000F3FD104B104953F82020284601F0DCFBFF
:107C2000227A0E4BA08853F8222003920021FFF7FE
:107C3000C7FD039A0A490346284605B0BDE830400F
:107C400001F0CABB05B030BD743D03005C3D0300CC
:107C5000543D0300E03D0300793D0300043E030072
:107C60007C3D030007B503460846197A052911D063
:107C70005B7A2BB1094A0A49019001F0ADFB0198EA
:107C80000849019001F0A8FB019803B05DF804EBEE
:107C900001F097BB002AF8D0F2E700BF743D030063
:107CA000793D0300044B03002DE9F04385B01F46E6
:107CB0000C9D002395F80C902B7306460C469046BD
:107CC00029463846FFF790FFB8F1060F09D8DFE8DC
:107CD00008F00412181F283340003146284601F0EE
:107CE0007BFB002229463846FFF7BCFF85F80C9045
:107CF00005B0BDE8F08322683146284601F06CFBF0
:107D0000EFE7D4E900233146284601F065FBE8E7B8
:107D1000A36800933146D4E90023284601F05CFBB8
:107D2000DFE7E3680193A36800933146D4E90023B9
:107D3000284601F051FBD4E723690293E3680193DD
:107D4000A36800933146D4E90023284601F044FBA0
:107D5000C7E76369039323690293E3680193A36808
:107D600000933146D4E90023284601F035FBB8E7FB
:107D700008292DE9F74F80460E4617461C463DD888
:107D800000251B7B2573214610460193FFF72CFF2E
:107D9000DFF88CA0DFF88CB0AE4232D918F805209D
:107DA0005946204601F018FB0135082DF4D11B4936
:107DB000DFF874A0DFF874B0204601F00DFB4FF03F
:107DC00000094E4524D918F809507E2D1ED82846A2
:107DD0000BF04CFD002814BF2A462E22594620469F
:107DE00001F0FAFA09F10109B9F1080FE9D101220C
:107DF00021463846FFF736FF019B237303B0BDE8E9
:107E0000F08F5146204601F0E7FACDE72E22E5E754
:107E10005146204601F0E0FAE4E700BF903D030040
:107E20008C3D0300863D03008E3D0300923D030020
:107E30001FB50021039001AA44F20100CDE9011110
:107E400000F010F805B05DF804FB00B583B00290B7
:107E50000091019244F2010071466A4600F002F876
:107E600003B000BD38B572B6FFF7AAFEFFF7E6FC17
:107E70000028FBD1104B114C114D1249E41AE408B3
:107E8000240444F00100FFF725FED5F8F030DB07AD
:107E900000D500BE0C4944F00200FFF71BFEBFF303
:107EA0004F8FEA68094B02F4E0621343EB60BFF3C3
:107EB0004F8F00BFFDE700BF983B0300E03B03008E
:107EC00000ED00E0233E03002F3E03000400FA050E
:107ED00010B5D0E90243D1E90202A04272EB0303DC
:107EE0002CBF0120002010BD08B50A4800F05FFB40
:107EF000094AD2E90031C018084BD3E9002341F107
:107F00000001904271EB030303D210F1807041F144
:107F1000000108BD88370020403E0020B83E002008
:107F200037B505460C460A4801A901F0BEF860B114
:107F30000570446001A9064801F0E1F818B1054850
:107F400000F03AFB002003B030BD0420FBE700BF87
:107F5000A43E002088370020294B73B51E780446C4
:107F60001EB90026304602B070BD0028F9D0FFF7D8
:107F7000BBFFD4E902239042994139D300230DF18C
:107F800007008DF8073000F0BBF923692BB94FF0DB
:107F9000FF324FF0FF33C4E902239DF8070000F0E1
:107FA000D3F9D4E90530984700250DF107008DF885
:107FB000075000F0A5F92369C3B1D4E90212B2F168
:107FC000FF3F08BFB1F1FF3F05D05B1842F100024F
:107FD000C4E9023235469DF8070000F0B5F9002DDE
:107FE000BFD00848214601F0C0FEBBE71D46F2E7BE
:107FF000B3F1FF3F08BFB2F1FF3FB2D0F1E700BFDE
:10800000483E00204C3E030013B5114B114918683F
:10801000019008231048582201F034F8044698B91A
:108020000E4A0F4801A900F0B3F9044660B90C48A4
:10803000012100F09FFA01230A4A0948194600F07D
:1080400001FA094B01221A70204602B010BD00BF90
:10805000463E03004C3E0020A43E00204981020021
:1080600088370020FFFF7F00483E002030B56AB10E
:1080700003684FF0FF344FF0FF355A614A1E5142FA
:10808000C3E9024551411961002030BD0720FCE7DA
:10809000F7B5044600250DF1070017460E468DF88A
:1080A000075000F02DF9D4E90223B3F1FF3F08BFD8
:1080B000B2F1FF3F07D1FFF717FF301841F1000180
:1080C000C4E9020101259DF8070000F03DF955B112
:1080D0002369A76103B126612146002003B0BDE8F2
:1080E000F040FFF71DBF284603B0F0BD37B5054689
:1080F00000240DF107008DF8074000F001F9D5E9E3
:108100000223B3F1FF3F08BFB2F1FF3F1FBF4FF0A3
:10811000FF324FF0FF33C5E9022301249DF8070029
:1081200000F012F934B12946012003B0BDE8304017
:10813000FFF7F6BE204603B030BD0000014800F056
:1081400036BA00BF883700202DE9F743064600F015
:1081500019FA40B1624AD2E9003113F1807341F15A
:108160000001C2E900310021304600F01AFA38B1AE
:108170005C4C236823B12068FFF7EEFE00232360E8
:108180000121304600F00DFA20B1FFF7ADFE564B4D
:10819000C3E900015548534C01A900F0C0FF4FF05E
:1081A000FF384FF0FF39A0B9DFF844814D4D40460C
:1081B00001F0F1FD002800F08580D0E90223B3F141
:1081C000FF3F08BFB2F1FF3F32D1404601F0DDFD75
:1081D000EDE70378012B20D0022B08D1444D28462F
:1081E00001F0D3FD002877D0C0E90289F7E75BB939
:1081F0004168D1E90223B3F1FF3F08BFB2F1FF3F6D
:1082000002D03B4801F0B1FD01A9384800F0B2FFAF
:1082100001A9364800F083FFC5E741682368994209
:1082200002D100232360EFE7314801F0B7FDEBE70F
:10823000296891B12968D1E9020182428B412FD28C
:108240002B68D3E90223B3F1FF3F08BFB2F1FF3F30
:1082500003D02968404601F088FD404601F095FDB5
:10826000D0E902490746FFF73FFE201A69EB0109F2
:10827000012879F1000318DBB0F5350F13D3FFF7B0
:108280005DFF1C4A02441C484FF49603002100F095
:10829000F9F890B92B6813B9304600F0CBF82F608D
:1082A00003B0BDE8F0832246EDE71348002100F05B
:1082B0006EF93846FFF750FE01E00D28F9D0002393
:1082C0002B6074E7074B1B68002BE9D1304603B0E5
:1082D000BDE8F04300F0B2B8084B01221A7093E7F2
:1082E000403E0020C03E0020B83E0020A43E0020BA
:1082F0004C3E0300FFFFB40088370020483E0020BA
:1083000070B5EFF3108672B60C4A946801239CB9DD
:1083100093600B4B0B4DD3F8801029401160C3F8CC
:108320008050D3F8841051604FF0FF32C3F884209E
:10833000047006B962B670BD0370FAE7C43E00204F
:1083400000E100E0FC06FFBD084B9A6810B55AB189
:1083500050B9EFF3108172B6054A1C6814605C686E
:108360005460986001B962B610BD00BFC43E0020E1
:1083700000E100E0435882B03BB100234350435832
:108380000193019B012002B070471846FBE70000F3
:10839000F8B5204B4479204E43F824201F4A204B47
:1083A00006EBC4049B1A2279DB081B0432B143F0AC
:1083B00002001C49FFF78EFB0820F8BD02680C88FC
:1083C000C2F8084590F904508A7804795201002DCA
:1083D000D2B219DB14494F1987F8002301226D0925
:1083E00004F01F0402FA04F441F82540427906EB38
:1083F000C201012446F832000C7143F003000B491E
:10840000FFF768FB0020D8E7094904F00F040A557C
:10841000ECE700BFD83E0020D03E0020983B030090
:10842000F03B0300583E030000E100E07A3E030009
:1084300014ED00E0036801221A607047036801220E
:108440005A60704773B501F15005AD000068ADB2D8
:108450004FF480348C400026C0F80843C0F84843ED
:10846000465101F5A8714559019522F07F42019DC1
:1084700040F82120C0F844430BB1C0F8044302B0D7
:1084800070BD00002DE9F74F0D4622F07F440268D1
:108490004FF4803705F150068F408046B60002EB5E
:1084A0008500C2F84873B6B2C2F80873D2F8041552
:1084B00099464FF0000BD0F84035C0F8401542F80F
:1084C00006B05B1A9259009223F07F43012B009A69
:1084D0004FEA850A0CD1264B4FF4806043F001032C
:1084E0009847D8F8003043F806B09B590193019B98
:1084F000D8F80010D1F80465C1F84473A31B23F029
:108500007F43012B1CD11A4B05F5A875013443F0AC
:10851000010341F825404FF480609847D8F80030B7
:10852000D3F804359E4209D1D8F800300020C3F8B2
:108530004473C3F8047303B0BDE8F08F0D20FAE76D
:108540008A44C9F1FF13CAF84045D1F80405221A3C
:10855000013A22F07F4203F57F439342EED3002A93
:10856000E2D10134CAF84045D1F804359842DAE73F
:10857000903E030003680222C3F8442309B1C3F804
:108580000423704700684FF48271FFF7F3BE4FF485
:10859000803303FA01F10368C3F84813C3F80813E2
:1085A000704750318900006889B2FFF7E3BE036865
:1085B000D3F804057047000090F90430002B09DB64
:1085C0005A09012103F01F0301FA03F34032024963
:1085D00041F82230704700BF00E100E0024B034A3F
:1085E0001B681068184700BFD83E0020D03E00200E
:1085F00070B5064D0646002455F8043B0BB13046D5
:1086000098470134042CF7D170BD00BFE83E00202C
:108610004388033300EB830399420BD382884FF6E0
:10862000FF739A4208D0038833B18068431C5842D4
:10863000584170470220704701207047033080B2D4
:1086400040F2FE33984230B51FD8134B1A783AB92E
:108650001C895D892C440444A4B2B4F5806F0AD906
:108660001A7DAAB99A8BDC8B2244024492B2B2F5ED
:10867000806F0DD801220A801446142202FB0433B5
:108680005A8910445881002030BD48F20860FBE749
:1086900048F20660F8E700BF1C3F00200B4A0C4977
:1086A0005388142000FB0311CB6833B904204968B8
:1086B00010700122074801F0F3B807490523137031
:1086C00002238B80012209680023F3E7003F00208A
:1086D0001C3F002050370020583F002007B50023E2
:1086E00005490093054A09680548082301F03EF84A
:1086F00003B05DF804FB00BF583F0020A43E030018
:108700005037002007B5002301460093034A044870
:10871000082301F02BF803B05DF804FB9C3E030036
:108720005037002013B500230C4600930146084A39
:108730000848042301F01AF838B9074B142101FB4B
:10874000043101230B7402B010BD48F20D60FAE74A
:10875000983E0300503700201C3F002037B50A48E0
:108760000A4B42689C8819685388032503330570B7
:108770009BB2002000909B0001EB8401044800F0B4
:10878000F5FF03B030BD00BF003F0020583F002080
:108790005037002010B50146044800F086FC1C222A
:1087A000044600210BF013F9204610BD443F002081
:1087B00038B5144B14220D4602FB00302B68446878
:1087C00004F58051A3B15C88033403EB84048C422C
:1087D00015D22368013312D02046FFF719FF012874
:1087E00008D002280BD00028F1D12C60012038BD20
:1087F0000834ECE76388033304EB8304E7E70020E5
:10880000F5E700BF1C3F0020426873B504460D46E3
:108810006AB3234BD9688A4229D31B699A4226D866
:1088200012F0030323D11F490089098988421ED110
:108830002068916888421AD11B4841688A4203D94E
:1088400001F580518A420DD381698A420CD901F524
:1088500080518A4208D201222A80B3FA83F040096B
:1088600002B070BD1A46F7E748F20963F5E7002643
:108870002E800196288801A9FFF79AFF30B92B882E
:1088800001339BB2012B2B80F3D9E9E7019B2268CE
:1088900099689142EED16360024B1B892381DFE727
:1088A00050370020003F00201C3F00202DE9F843F6
:1088B0001C461D4B1B7806460F46154673B382B304
:1088C0007CB3DFF86C804FF01409A388012B02D928
:1088D00048F2096020E009FB03F318F803302BB9D4
:1088E000A0882146FFF764FF20B92060A3880133E8
:1088F000A380EAE723681EB1998832889142EFD1BC
:108900001FB119883A889142EAD19A68C5E90023D3
:10891000064B1B892B810020BDE8F88348F20160DB
:10892000FAE748F20460F7E7F83E0020003F002035
:108930001C3F002008B5074B5888191DFFF738FF6A
:1089400018B1BDE80840FFF709BFBDE80840FFF7D0
:10895000A5BE00BF003F00202DE9F0479F4FDFF884
:10896000A08288B006463B6823B99D48414600F086
:10897000D6FB38603D6829784B1E052B07D8DFE809
:1089800013F0200074007400060106015D0148F236
:108990000E641422002103A80BF019F841F61D53B0
:1089A0009C4208BF00243B6804941A78023A042AC7
:1089B00000F2FC81DFE812F0DD01E9010B02130295
:1089C0001A022EB1874B00225A604FF40644E0E7AA
:1089D0002B79032B1CD8DFE803F014022A35824AD6
:1089E0001378022B1AD0137D022B4FF0010317D1FD
:1089F00014214B43D1180020D0544868FFF782FE61
:108A000003E001232B71FFF769FE002800F0B98015
:108A1000744B00225A6048F20D64BAE70023E7E77E
:108A2000704A13700023536041F61D54B1E76F493B
:108A30006F48002302222B718A800968012200F00E
:108A40002FFFE2E76B4B684C5B88684A14214B436D
:108A5000E11800262E714D681068156095884860F1
:108A60000D810221E6549180C8E7B5F814A0AA7DD3
:108A7000DFF87491AEB1022AEB8806D9142101FB0C
:108A80000A91DA1C088902440A81142202FB0A991D
:108A9000C3F57F43B9F80A20FD331344A9F80A301F
:108AA00093E7142303FB0A9318895C6804EB8004A2
:108AB000062A69D8DFE802F0274E36441D5A040022
:108AC00041F61D54AA7DEB88022A06D9142101FB28
:108AD0000A91DA1C088902440A81142202FB0A99CD
:108AE000C3F57F43B9F80A20FD331344A9F80A30CF
:108AF0004FE74148414900234360AB690360FFF7FA
:108B000083FE00285BD00223AB750023009304236F
:108B1000EA182146364800F029FE002831D048F2F4
:108B20000D64CFE72B69002B14BF03230123AB7522
:108B30000023009305F10C02042304F10801E9E786
:108B40000123AB750022EB8800922A699B0004F197
:108B50000C01DFE703290CBF05230623AB750023B7
:108B60000093042305F10802E118D3E70623AB754F
:108B7000224B1988204B5868FFF7D4FD0446002883
:108B8000A0D108B0BDE8F08748F20E649AE7002E45
:108B90007FF41BAF2B79012B34D0022B3FF444AF71
:108BA000002B7FF4F4AE02232B710DF10A01EB6868
:108BB000039303A8CDE90466FFF726FE10B948F237
:108BC0000964E6E60498BDF80A108388EB80038800
:108BD0002B81FFF7A7FD044629E000BF183F0020C6
:108BE000443F0020F83E00201C3F0020583F00205A
:108BF00050370020003F0020DC3E0020603F002076
:108C0000103F0020DFF8009203AA4B463146A81D12
:108C1000FFF74CFE044670B9B9F804100498FFF74A
:108C200081FD044648F209639C423FF4FDAE002CEE
:108C30007FF4AFAEA5E7C9E90066F3E7002E7FF445
:108C4000C4AE6C4B1A7BBAB11E731A78013A062A6D
:108C50003FF69DAE01A151F822F000BF078D020042
:108C60002D8D02004B8D0200518D02008F89020074
:108C7000578D0200698D02001A78072AE5D801A1F4
:108C800051F822F0A58C02004B8C02004B8C0200A4
:108C9000CB8C0200DF8C0200038D0200038D0200EA
:108CA000C78C02001A89544901321A8100225A8065
:108CB0001A730A78B2FA82F252099A720A7DB2FAEB
:108CC00082F25209DA72012207E04C4958688A8818
:108CD0004088033202448A8002221A70B5E75C8819
:108CE000454A4649142505FB04220868546850602B
:108CF0008888108102200C6088800021117406226F
:108D0000EBE70722E9E79A7A32B9DA7A8AB90022E0
:108D10001A705A805A6087E6374900229A72CA68E8
:108D2000002AF2D1097C0029EFD05A80FFF702FE19
:108D300051E70022DA72304A116A0029E7D192F82D
:108D40002420002AE3D00122EFE7FFF707FD42E7E6
:108D5000FFF7A4FC3FE75A88274B142101FB02339D
:108D60005868FFF7CFFC36E700225A60FFF7B6FCE1
:108D700031E701228DF80C201A89ADF818209A8865
:108D8000DB68ADF81A20059310E002228DF80C2064
:108D90001A89ADF818209A88ADF81A20DA689B7DF8
:108DA00005929A1F534253418DF81C3003A8FFF7D8
:108DB0001FFC0026414612483E6000F0DBF91148D6
:108DC000012100F091FA00287FF4CDADD9E603220D
:108DD0008DF80C20DA88ADF818201A89D0E7042223
:108DE0008DF80C20DB88ADF81830DFE705238DF80F
:108DF0000C30DBE7003F00201C3F0020583F0020E4
:108E0000443F0020543F0020643F00204068FFF7AB
:108E1000A3BD000008B50548012100F04DFA18B9BE
:108E2000BDE80840FFF798BD08BD00BF543F0020D3
:108E30002DE9F3419846374B1B7806460D46002B2B
:108E40005CD000295DD009884FF6FF7399425BD052
:108E50006B88002B58D06B689B0758D14AB92F8973
:108E60000DF102013846FFF7E9FB30B102B0BDE871
:108E7000F08113885788ADF8023001A8FFF78AFC0B
:108E8000044660B9BDF80220234B142101FB0233D4
:108E900058890338C01B588148F20760E6E780F81C
:108EA000008000238375BDF8023083826B68036104
:108EB00001211A4800F00CFA2B882381B8F1030F26
:108EC0006B88A38004BF0423A3754FF0000508BF7F
:108ED0003368E06008BFA3611148E780658101A99C
:108EE00000F00DF936B1E36833600E4B75601B89F5
:108EF000B5723381FFF78EFF0020B7E748F20160BB
:108F0000B4E748F20460B1E748F20360AEE748F224
:108F10000260ABE7F83E00201C3F0020143F002019
:108F2000443F0020003F002073B50D460446C8B101
:108F3000C1B10DF10601FFF767FCB0B1BDF8063015
:108F40000B486668142202FB030001210C3000F07C
:108F5000BFF963682E600C336B600123A37200209D
:108F600002B070BD48F20460FAE748F20960F7E722
:108F70001C3F002013B50446A8B10DF10601FFF710
:108F800043FC98B1BDF806200B4B142101FB0233C2
:108F9000DA6872B1A27A62B1DA680020013ADA6066
:108FA000A07202B010BD48F20460FAE748F209600E
:108FB000F7E748F20560F4E71C3F00200223002297
:108FC000FFF736BF18B103230022FFF731BF48F285
:108FD00004607047114B1B7813B50446ABB14FF6D4
:108FE000FF73984214D001A8FFF7D4FB98B1052372
:108FF000037001230371C48001A9094800F07FF8C0
:10900000FFF708FF002002B010BD48F20160FAE748
:1090100048F20360F7E748F20760F4E7F83E002003
:10902000443F002007B5ADF80600ADF804100DF17F
:10903000060001A9FFF73AFC03B05DF804FB07B591
:109040001346ADF806000A4600200DF10601FFF7B1
:109050002DFC03B05DF804FB07B51346ADF8060020
:109060000A460DF106000021FFF720FC03B05DF871
:1090700004FB20B119B103680B600020704748F26F
:109080000460704710B561B1B2FBF3F403FB142424
:10909000A4B244B9C0E9001484608281C38120462F
:1090A00010BD0E20FCE70920FAE737B550E8013F74
:1090B0009DB2C48925448489A54228BF2D1B0489FB
:1090C000A54202BFBFF32F8F002207E0C5EA0305C8
:1090D00040E80154002CE9D14FF001028DF8032043
:1090E0000193019A0A609DF8031001F0FF0321B17A
:1090F000006810FA82F003B030BD1846FBE70A881A
:109100004B889A4209D150E8012FC2EA024240E856
:109110000123002BF7D1012070470020704737B59D
:1091200050E8023F1FFAA3F5C488A54202BFBFF36F
:109130002F8F00220DE0C48925448489A54228BFD1
:109140002D1BC3EA054540E80254002CE8D14FF03E
:1091500001028DF803200193019A0A609DF8031023
:1091600001F0FF0321B1006800EB124003B030BDF5
:109170001846FBE70A884B889A4209D150E8022F2B
:10918000C2EA224240E80223002BF7D101207047B7
:109190000020704701F01F024B090121914000EBB4
:1091A000830000F065B84B0910B501F01F040121E0
:1091B000A14000EB830000F04FF8E04000F0010018
:1091C00010BD01F01F0301229A404B0900EB830000
:1091D000D14300F065B84B0901F01F0150F823009E
:1091E000C84000F0010070472DE9F0474F1E7F098D
:1091F00080460E460137002558F8254008EB8509C2
:10920000E44394FAA4F4B4FA84F44FEA451A202C07
:1092100006D10135AF42EFD834462046BDE8F0878D
:109220005444A642F5D921464046FFF7BCFF00282A
:10923000F3D0D9F80040E44394FAA4F4B4FA84F4E7
:10924000E5E710B5034653E8000F0A4643E800245B
:1092500094F0000FF7D110BD10B5034653E8000F8E
:1092600040EA010243E8002494F0000FF6D110BD5B
:1092700010B5034653E8002F42EA010043E800041A
:1092800094F0000FF6D110BD10B5034653E8000F5F
:1092900000EA010243E8002494F0000FF6D110BD6B
:1092A00010B5034653E8002F02EA010043E800042A
:1092B00094F0000FF6D110BD10B5034653E8000F2F
:1092C00000EB010243E8002494F0000FF6D110BD3A
:1092D00010B5034653E8002F02EB010043E80004F9
:1092E00094F0000FF6D110BD10B5034653E8002FDF
:1092F000A2EB010043E8000494F0000FF6D110BD8A
:109300000121FFF7A9BF0121FFF7B2BF0021FFF73D
:10931000BBBF0021FFF7C4BF10B590B1D0E9012356
:1093200001689B1ADBB20A60013BDBB2FF2B0268CB
:1093300002D10020107110BD11684C1C14600B701C
:10934000F2E70E20F7E737B5054600240DF10700D8
:109350008DF80740FEF7D4FF2A686B6811689942C0
:109360000ED9481E106011F8013CEC68298A01FBF7
:109370000344AB6811791B1ADBB2994238BF1371F1
:109380009DF80700FEF7E0FF204603B030BD37B57B
:10939000054600230DF107000C468DF80730FEF757
:1093A000AFFF2A681368591C1160E968641A298A9A
:1093B000B4FBF1F41C709DF80700FEF7C5FF03B085
:1093C00030BD826810B504462AB14369016800695E
:1093D00098470023A36010BD0EB403B5039921B1D3
:1093E00004AB01AA019300F077F802B05DF804EB3A
:1093F00003B070470A2938B504460D4602D10D2145
:10940000FFF7F8FFA3682268591CA160D554D4E97E
:1094100001329A4204D32046BDE83840FFF7D1BF5D
:1094200038BD00002DE9F84F9846DDE90A4315469E
:1094300082460F460A464FF00109AA420FD2C145A3
:1094400038BFC14613F0010B01D16CB900240126CD
:10945000B8F1010F1BD908F1FF386E43F8E709F1A5
:109460000109B2FBF5F2E8E79B070ED5B8F1000F52
:109470000CBF30262026A145E9D2013C314650469A
:10948000FFF7B8FF002CF6D1E0E72026F3E7B7FBA3
:10949000F6F39D42E1D9DFF83C80B7FBF6F3504686
:1094A00018F8031006FB1377FFF7A4FF3346AB420F
:1094B000B6FBF5F6F1D2BBF1000F02D00CB1A1451D
:1094C00001D3BDE8F88F20215046013CFFF792FF01
:1094D000F4E700BFAC3E03002DE9F74F0546174601
:1094E0008846002900F03E8118F8011B49B92B7B02
:1094F000002B00F03781284603B0BDE8F04FFFF79E
:1095000060BF252940F0B780002698F800302D2B49
:10951000424608F1010823D0302B24D02B2B25D034
:1095200000242A2B02F1010123D13B681A1D1B687C
:109530003A601C440A4613782E2B26D101324FF094
:10954000000A104610F8011BA1F1300CBCF1090F04
:109550001DD80A2303FB0A13A3F1300A0246F0E7E1
:1095600046F00106D1E746F00206CEE746F00406D3
:10957000CBE711F8013CA3F130000928DBD80A221F
:1095800002FB0434303C0A46CBE74FF0000A12F8E5
:10959000011B01F0FB0068289046F8D0782909D813
:1095A0006F290CD8632962D022D8252963D0582985
:1095B00000F0888098F80030002B95D197E770393B
:1095C0000829F7D801A353F821F000BF3F97020004
:1095D000B5950200B5950200D5960200B59502003A
:1095E000B3960200B5950200B5950200C59602003B
:1095F000642901D06929DDD13A68D2F80090111DA3
:1096000089EAE9723960A2EBE9724FF0010B092A8D
:1096100035DCD34538BFD3462CB1B9F1000F01DB9F
:10962000720700D5013CB30702D5BAF1000F03D091
:10963000F00701D44CBB0024B9F1000F2DDAC9F1B9
:1096400000092D212846FFF7D5FE06F00302022A65
:1096500004D1BAF1000F01D11CBB0024CDE90046B2
:1096600053460A2249462846FFF7DCFEA2E73B683C
:109670001A1D19783A602846FFF7BCFE9AE70A23BC
:109680000BF1010BB2FBF3F2C1E7A345D4D22021C9
:109690002846013CFFF7AEFECCE77107D5D52B215C
:1096A000D0E7A345DAD230212846013CFFF7A2FEDD
:1096B000D2E73968CDE900460A1D3A6053460A22CE
:1096C0000968D0E739680A1D3A60CDE9004653467B
:1096D0001022F5E73B681A1D3A6016F00106D3F830
:1096E000009024D1B9F1000F03D048460AF0C4F924
:1096F0000646B4421DD809F1FF3919F8011F0029A7
:109700003FF458AF2846FFF775FEF6E728460136C6
:10971000FFF770FE19F806100029F7D1A642BFF432
:1097200049AF20212846013CFFF764FEF6E70026FA
:10973000F0E720212846013CFFF75CFED9E73B68B3
:109740001A1D3A60302128461C68FFF753FE782125
:109750002846FFF74FFE00220823CDE900322146BC
:10976000102280E703B0BDE8F08F00BF2DE9F7437A
:10977000DDF8288088B93E4B3E483F4AC01AC008F1
:109780000E243E4B009400043D4940F00100FEF7DA
:10979000B8F9204603B0BDE8F0834AB9344B3548E8
:1097A000384AC01AC0080E24344B00940004EBE77A
:1097B000D0F800E0BEF1000F09D12D4B2D48324A00
:1097C000C01AC00808242D4B00940004DCE74BB9F4
:1097D000274B28482D4AC01AC0080924274B00945B
:1097E0000004D1E74568D5F80490B3FBF9F509FB0F
:1097F00015354DB11E4B1F48254AC01AC008092413
:109800001E4B00940004BFE78D0709D0184B194880
:10981000204AC01AC0081024184B00940004B3E773
:1098200012F0030F09D0124B12481B4AC01AC0088D
:109830001024124B00940004A6E7C568A9420DD37A
:109840004D1EEC180569AC4208D8CDF82880DEF82A
:109850000C40A44603B0BDE8F0436047044B054804
:109860000E4AC01AC0081024044B009400048BE771
:10987000983B0300103C0300BC3E0300654003001E
:10988000C13E03003E3F0300EA3E0300FD3E0300ED
:10989000443F03006E3F0300863F0300A93F0300DF
:1098A000F7B580B92A4B2B482B4AC01AC0080E24A2
:1098B0002A4B009400042A4940F00100FEF721F9E8
:1098C000204603B0F0BDD0F800C0BCF1000F09D1B4
:1098D0001F4B2048234AC01AC00808241F4B00947D
:1098E0000004E8E74AB91A4B1A481F4AC01AC008D0
:1098F00009241A4B00940004DDE74568D5F800E020
:109900000EF1FF350D4209D0114B1248174AC01A0B
:10991000C0081024114B00940004CCE7C568A9428C
:109920000CD34D1E0EFB02540569AC4206D8DCF880
:109930001040A44603B0BDE8F0406047044B054822
:109940000B4AC01AC0081024044B00940004B2E76C
:10995000983B0300103C0300BC3E03005240030050
:10996000C13E0300EA3E0300FD3E0300D03F03007A
:10997000F63F030029DF704728DF704770B50368A2
:109980009E6886B004460D466EB1142200216846DA
:109990000AF01DF8A3680593237901952BB1012BDB
:1099A0000DD06846B04706B070BD01238DF8003079
:1099B00023690293E368039363690493F1E7022345
:1099C0008DF80030E3681B030293F5E7034B187A28
:1099D0000122B0FA80F05A74400970477C3F0020A1
:1099E00038B5234D234C2B7A3BB923492348FFF745
:1099F00096FB206008B9686038BD022324682B728A
:109A0000237973B1012B24D020460321FFF7B6FF41
:109A100000232B726B6018491848BDE83840FFF7E7
:109A2000A9BBD4E90523D21AB2F5805FD4E90310AB
:109A300028BF4FF480529208012A38BF01221944EE
:109A40001844FFF797FF50B11128DDD101232B7285
:109A5000D2E7D4E903031844FFF78EFFF3E72B7C2A
:109A6000002BC9D1BDE83840022000F009B800BF82
:109A70007C3F0020943F0020903F00206C3F00205E
:109A800038B5234C237A002B41D0022B09D103286F
:109A900030D0204B00221B68E2601A793AB1012ACB
:109AA00022D0637C7BBBBDE83840FFF799BFD3E988
:109AB00005128D1AB5F5805F94BF521902F58052D8
:109AC0009A619142EDD102284FF0000308BF194678
:109AD0002372104B18BF0D211868FFF74FFF0E4976
:109AE0000E48FFF747FBDCE71A6901321A615B6930
:109AF0009A42E7E7E3680133082B01D8E360D0E737
:109B00000023E360DFE7BDE8384008F0A9BE38BDB8
:109B10007C3F0020943F0020903F00206C3F0020BD
:109B2000831E012B01D8FFF7ABBF704700F0FD0388
:109B3000012B08D1044B00225A74421E504250415E
:109B40001874FFF74DBF70477C3F00202DE9F84F98
:109B5000B0F806A04579D2F800B09DF828900AFB2D
:109B600005F5043D88460BEB0301A94203F104040B
:109B700088BFA5EB030BB4FBFAF607460AFB1644B5
:109B8000C2F800B04EB9AAEB04055D4528BF5D469A
:109B9000BBF1000F04D1BDE8F88F3F68013EF1E74B
:109BA000043408EB06003C442A46B9F1000F0DD0FE
:109BB0002146ABEB050B09F0E1FEDA452E443F6888
:109BC00055464FF0000428BF5D46E1E701462046B8
:109BD000EFE7FFF7A1BBF8B546790146721E0546CF
:109BE000002393422D6803D30024A64202D8F8BD77
:109BF0000133F6E70F682846FFF7C9FB0134394601
:109C0000F3E72DE9F843068ACD1C0746FFF79BFBD7
:109C1000043E35440446B5FBF6F5F0B14FF48073CD
:109C2000EDB28380C680013D076081464FF0000899
:109C3000A84512D23846FFF786FB064648B163793D
:109C40000133637108F10108C9F80000076081461B
:109C5000EEE72046FFF7BFFF34462046BDE8F88315
:109C600001210430FFF734BB10B501210446043054
:109C7000FFF73AFBC0B220B92046BDE81040FFF71D
:109C8000AABF10BD1FB503920022009203AAFFF7DE
:109C90005DFF05B05DF804FB1FB503920122009241
:109CA00003AAFFF753FF05B05DF804FB41DF7047DF
:109CB000064B10B500241C70054B1C60BFF35F8F72
:109CC0000449054800F03BF8204610BDA03F0020A5
:109CD000A43F002084400300983F002007B50023E4
:109CE0000DF107008DF80730FEF70AFBF1EE103A90
:109CF00023F09F03E1EE103ABFF35F8F0A4B40223F
:109D0000C3F884219DF80700FEF71EFB08F0B8FD9C
:109D100020B103B05DF804EBFFF7C8BF20BF40BF20
:109D200020BF03B05DF804FB00E100E0836800227F
:109D30005A60C3E904229A60DA601A6070470B68BF
:109D40004A684360934208BF0023016008BF436034
:109D50007047436843B10268916852680B4493426C
:109D6000436004BF00234360704770B544680646F3
:109D70000D46206818B1B3682946984718B923687A
:109D80002B60256070BD2468F3E74368186808B14C
:109D900002681A607047436818687047436818681B
:109DA00000B97047884203D102681A6001207047E9
:109DB00003460068F4E7000010B50D49A1F5947260
:109DC000914201D800200FE08C1AE30F03EBE4036B
:109DD0005B1002EBC30452F83330834205D802D241
:109DE00004F10802ECE7606810BD2146E8E700BF17
:109DF0009045030008B5FFF7DFFF024B002808BFBE
:109E0000184608BD53440300BFF34F8F0549064B66
:109E1000CA6802F4E0621343CB60BFF34F8F00BF08
:109E2000FDE700BF00ED00E00400FA054FF08053AD
:109E3000D3F83001A0F108035842584170470000A0
:109E40004FF08053D3F83021082A06D1D3F83431AB
:109E5000052B02D8024AD05C70470020704700BF33
:109E6000A1450300024AD2F80034002BFBD0704712
:109E700000E0014010B5FFF7D9FF40B14FF080433B
:109E80000022C3F80C21C3F81021C3F83825FFF7CE
:109E9000CDFF002846D04FF080526B4BD2F804140F
:109EA000C3F82015D2F80814C3F82415D2F80C14FE
:109EB000C3F82815D2F81014C3F82C15D2F81414CE
:109EC000C3F83015D2F81814C3F83415D2F81C149E
:109ED000C3F84015D2F82014C3F84415D2F824145E
:109EE000C3F84815D2F82814C3F84C15D2F82C142E
:109EF000C3F85015D2F83014C3F85415D2F83414FE
:109F0000C3F86015D2F83814C3F86415D2F83C14BD
:109F1000C3F86815D2F84014C3F86C15D2F844247D
:109F2000C3F87025FFF78CFF18B1484B484AC3F8B7
:109F30008C26FFF785FF18B1464BFB22C3F8182586
:109F4000FFF77EFF70B14FF080414FF08053D1F8A2
:109F5000E42ED3F8583222F00F0203F00F0313431C
:109F6000C1F8E43EFFF76CFF20B13B4B4FF40072A9
:109F7000C3F84026FFF75AFF48B14FF08043D3F8AB
:109F80000024D20744BF6FF00102C3F80024334A13
:109F9000D2F8883043F47003C2F88830BFF34F8F93
:109FA000BFF36F8F4FF08053D3F83021082A0ED1C2
:109FB000D3F83431052B02D8294AD35C3BB14FF09A
:109FC0001023D3F808224FF08043C3F858254FF0F0
:109FD0001021D1F80C32DB0714D522480123C0F838
:109FE0000435FFF73FFFD1F80C3223F00103C1F82D
:109FF0000C32FFF737FF0023C0F80435FFF732FFBC
:10A00000FFF702FFD1F80032002B03DBD1F8043256
:10A01000002B14DA134901234FF01020C1F8043546
:10A020001224FFF71FFFC0F80042FFF71BFFC0F824
:10A030000442FFF717FF0023C1F80435DEE70A4B9F
:10A040000A4A1A6010BD00BF00C000400050004026
:10A050004881030000F000400090024000ED00E065
:10A060009B45030000E00140903700200090D003A2
:10A0700038B5074C051E04F1080318BF1C462368B9
:10A080002BB11A6822605B6828469847F7E738BD0D
:10A09000B03F002020B9054B01225A70FFF7E8BFFE
:10A0A000012802D1014A9070F8E77047A83F0020CC
:10A0B00020B9034B01225A70FFF7DABF704700BF87
:10A0C000A83F002038B50E4C2378B3B90D48636023
:10A0D000A3602361E36000F0E7F8054608F0D0FBD9
:10A0E00008B900F0EDF801232370074BD3F80034D2
:10A0F0000BB10123A370284638BD8525F5E700BFC5
:10A10000A83F002095A002000000014037B50D4C8B
:10A1100000230DF107008DF80730FEF7F1F8E36832
:10A12000013BE360E36833B9074BD3F8005415B93A
:10A1300000F0D8F8A5709DF80700FEF705F903B008
:10A1400030BD00BFA83F002000000140012813B52A
:10A150000CD0032820D038B9134B0122C3F880203B
:10A16000BFF34F8FBFF36F8F02B010BD0F4C0023B2
:10A170000DF107008DF80730FEF7C2F823780BB910
:10A18000FFF7A0FFE3689DF807000133E3600123B8
:10A19000A370FEF7D9F8E7E700F092F802B0BDE847
:10A1A0001040FFF7B3BF00BF00E100E0A83F002070
:10A1B0001FB503788DF800304368019383688DF8EC
:10A1C0000830C368054A0393054B684653F82130AD
:10A1D00052F82110984705B05DF804FBBC3F002001
:10A1E000C43F00201FB503788DF800304368019309
:10A1F00083688DF80830C368054A0393054B6846A9
:10A2000053F8213052F82110984705B05DF804FB4F
:10A21000BC3F0020C43F0020F0B5194B90F800C0AF
:10A22000DFF86CE043F82C20164B16460A6943F819
:10A230002C204B7F0EF80C300C4607460FCC89B013
:10A240006D460FC594E80F0085E80F003B78CDF808
:10A2500010C01EF803304BB1002E0B4A694608BFF0
:10A260003246381D00F0A0FD09B0F0BD002E074AAF
:10A27000694608BF324607F10C0000F059FBF3E7CE
:10A28000C43F0020BC3F0020B1A10200E5A10200B4
:10A29000CC3F002000F18040002382B003600368BF
:10A2A0000193019B02B07047044A137923B901213D
:10A2B000106091801846704785207047D03F00207D
:10A2C000074B1A68D20704D4C02283F80023012266
:10A2D0001A604FF080430122C3F81825704700BF71
:10A2E00000E100E04FF0804208B50223C2F80833D5
:10A2F0004FF48270FFF7CEFF0123D360D2F81834F9
:10A30000DB03FBD408BD00004FF0804110B5D1F84D
:10A31000003163B14FF48070FFF7BCFF0D4B5879EB
:10A320000122C1F8082310B95A711B6898474FF0F1
:10A330008042D2F8043163B14FF48270FFF7AAFF74
:10A340000223C2F80833034BBDE810401B6801200C
:10A35000184710BDD03F002000F1804000F5C040FC
:10A36000002382B0036003680193019B02B0704731
:10A3700003681F2B83BF03F01F03036001484FF0E6
:10A38000A04070470003005007B5019001A8FFF7F7
:10A39000EFFF019B00EB8300D0F8003723F440333C
:10A3A000C0F80037D0F8003743EA0141C0F8001781
:10A3B00003B05DF804FB0000054B4FF0FF320728A7
:10A3C00043F8202084BFC01880F85820704700BF91
:10A3D000D83F002038B51D4991F86A30A3BB4FF62D
:10A3E000FF70FF245A09012A0CBF02464FF0FF32CA
:10A3F00003F01F05EA40D20748BFCA1803F1010362
:10A4000048BF82F83040302BECD10024E0B2013458
:10A41000FFF7D2FF0C2CF9D10D4B00224A669A802F
:10A420000C4BC02083F80603402018604FF4BE7028
:10A43000FFF792FF084B4FF00040C3F804030123DD
:10A4400081F86A30104638BD0820FCE7D83F00206C
:10A450003C40002000E100E00060004037B5354B93
:10A460001A18044692F93000013061D1887800282A
:10A4700052D01846002250F8045B013546D1181915
:10A4800080F83020002043F82200920002F1804240
:10A4900002F5C0420B78D2F81055487825F499158A
:10A4A0001B04000525F4F85500F4801003F4403334
:10A4B000C2F8105503432002D2F8105500F47C5026
:10A4C00003432B43C2F810354A780194012A01A8AE
:10A4D00026D1FFF74DFF019B9A40C0F8082501A83F
:10A4E0000194FFF745FF019B134903F5E073032235
:10A4F00040F8232024FA02F2012304F0070003FAB3
:10A5000000F08B5C18438854002003E00132082AD5
:10A51000B1D1042003B030BDFE2382F83030D3E740
:10A52000FFF726FF019A01239340C0F80C35D6E7C8
:10A530000820EFE7D83F00203C40002007B50190FD
:10A5400001A8FFF715FF019A01239340C0F80835D1
:10A5500003B05DF804FB07B5019001A8FFF708FF01
:10A56000019A01239340C0F80C3503B05DF804FB59
:10A570002DE9FF470024CDE90244584D4FF4807285
:10A58000012102F1804303F5C04390B21B68012B07
:10A5900006D1D5F804330B4202D0FFF7DDFE0C43A1
:10A5A0000432B2F5907F4FEA4101EAD14B4BD3F828
:10A5B0007C31012B11D14FF4BE70FFF7CDFE4FF06F
:10A5C000A04344F00044D3F820250292C3F820258C
:10A5D000D3F820280392C3F82028E3B2D3B1404F28
:10A5E00000250126344210D0AB0003F1804303F56F
:10A5F000C043D3F81005D3F8101557F8253023B110
:10A60000C1F30141C0F3052098470135082D4FEAF9
:10A610004606E7D1002C59DA314D324C324E4FF01C
:10A620000008012716F9013B5A1C3CD0C3F3C201B4
:10A63000103169445FFA83F911F8081C03F03F02F6
:10A6400003F0070307FA03F319422CD001A8019283
:10A65000FFF78EFE019B03F5E07350F82330C3F340
:10A66000014ABAF1020F0CBF032102211046FFF785
:10A670008BFE01A80192FFF77BFE019B07FA03F313
:10A68000C0F82035AB1893F9303055F8233053B16A
:10A690004FEA9911032904D0BAF1020F19D1012907
:10A6A00001D11046984708F10108B8F1040FB9D15B
:10A6B0004FF0A043D3F820250292C3F82025D4F808
:10A6C00020350393C4F820351343A7D104B0BDE867
:10A6D000F087BAF1030FE6D10229E1E700600040FC
:10A6E000D83F00200003005038400020014B1B6879
:10A6F000184700BF444000200E4B984237B50C4627
:10A7000002D0002003B030BD00230DF107008DF80A
:10A710000730FDF7F5FD084B1D7915B901221C60C6
:10A720001A719DF80700FDF70FFE002DE9D01120EA
:10A73000E8E700BF0020004044400020034B98425F
:10A7400001BF034B00221A601A71704700200040BD
:10A75000444000200023435082B043580193019BA2
:10A7600002B070470A4610B54FF48E71FFF7F2FF42
:10A77000136A9168C95C136A01331362C0F81C152F
:10A7800010BD8B690A4610B54FF4847123B9FFF7E9
:10A79000E1FFD0F8183510BDFFF7DCFF536AD16830
:10A7A000D0F81805C854536A01335362F3E7000028
:10A7B0001FB501238DF80030044BCDE90110D3E91A
:10A7C00000126846904705B05DF804FB4C4000203D
:10A7D00030B54D4DD5F804339A0585B051D5D5F82F
:10A7E0002431002B4DD04FF492712846FFF7B2FF71
:10A7F0004FF40173C5F80833444B93F829200AB984
:10A8000001226A60404902228DF80020D1F880249C
:10A81000C1F8802403929A690292DA6801920022B8
:10A82000C3E906226846D3E9001290473648D0F8BB
:10A830001C315BB1354A5169136A99424DD992F87E
:10A840002830002B49D11146FFF78CFF2E48D0F855
:10A850004431002B56D04FF4A271FFF77BFF2B4BF6
:10A8600093F829200AB1012202609A69002A49D08E
:10A87000586AD96800229A6105B0BDE83040FFF7F8
:10A8800097BFD5F804335B07D0D5D5F80831002B36
:10A89000CCD01E4C1C482146FFF773FF636AA269A7
:10A8A0009A42C3D1E369E1684BB1A3612369E360D4
:10A8B0000023606AE3616362FFF77AFFB6E794F80A
:10A8C00029300BB901236B600F4B4FF40172C3F8B1
:10A8D00008230023606AA361EEE70B484FF48E71F2
:10A8E000FFF738FF5369002BB0D051690291002364
:10A8F00091688DF80030019153616846D2E90013E8
:10A900009847A3E705B030BD002000404C40002030
:10A910001F2886BF00F01F00044B4FF0A04300F536
:10A92000E070022243F82020704700BF000300506F
:10A930002DE9F843604D90F804802C2303FB085365
:10A94000064693F82A300C469146002B40F0AF8023
:10A950005A490068FFF7D0FE0746002840F0A9805A
:10A960002268531C10D01F2A87BF554902F01F03CD
:10A9700013464FF0A0410120984003F5E073C1F861
:10A980000805032041F823006168481C0DD01F29E9
:10A990008BBF01F01F030B4649484FF0A04003F561
:10A9A000E0734FF0000C40F823C03068A369C0F892
:10A9B000243594F814C0637DBCF1010F4CEA030305
:10A9C000C0F86C35C0F81415C0F80C252BD1A3685D
:10A9D000591C0DD01F2B8BBF03F01F021A4638499C
:10A9E0004FF0A04102F5E0724FF0000C41F822C098
:10A9F000E1684A1C13D01F2987BF314A01F01F0CA0
:10AA00008C464FF0A0424FF0010E0EFA0CFE0CF5F2
:10AA1000E07CC2F808E54FF0030E42F82CE0C0F8E5
:10AA20000815C0F810352C2202FB08F2AB18C3F849
:10AA300004902369AB50B9F1000F20D04FF48E7110
:10AA4000247FFFF787FE4FF4A2713068FFF782FE84
:10AA500032681C4BC2F80433130B42F30732610116
:10AA6000002AC9B21EDB1848841884F8001301219B
:10AA7000520903F01F0301FA03F340F82230336850
:10AA80000422C3F800252C2303FB08530022C3E94A
:10AA9000062283F829205A61012283F82A203846A9
:10AAA000BDE8F883094A03F00F03D154E7E708270C
:10AAB000F5E71127F3E700BF4C400020D1A70200C3
:10AAC000000300508000020000E100E014ED00E00F
:10AAD0002DE9F04103680579284C0022C3F80025D0
:10AAE0002C2202FB054201465268A2B1244AC3F857
:10AAF00008231A0B43F30733002B0CDB02F01F0073
:10AB00005B090122824020331E4840F82320BFF316
:10AB10004F8FBFF36F8F0B68D3F80C05D3F81485F4
:10AB2000D3F80865D3F810754FF0FF329042C3F8A0
:10AB30001425C3F80C25C3F80825C3F8102501D047
:10AB4000FFF7E6FEB8F1FF3F02D04046FFF7E0FE18
:10AB50007A1C02D03846FFF7DBFE731C02D0304669
:10AB6000FFF7D6FE0868FFF7E9FD2C2303FB054439
:10AB7000002384F82A306360BDE8F0814C40002057
:10AB80008402020000E100E00279044B2C2101FB69
:10AB900002335869003818BF012070474C4000202C
:10ABA0002DE9F84F064690F8048089469246FFF753
:10ABB000EBFF044600283CD1204F2C2508FB057BE9
:10ABC0004FF48E71CBF814A0CBF80890CBF820008E
:10ABD0008BF828003068FFF7BDFD306801238360E3
:10ABE0005946FFF7BFFDDBF804305D461BBB3068FC
:10ABF000DBF814402B6A9C4211D83368D3F81C212F
:10AC0000002AFBD00122DA6000202C2303FB087706
:10AC100000237B61BDE8F88F95F828303BB9D0F868
:10AC20001C31002BF8D05946FFF79CFDE2E70F20BE
:10AC3000EBE71120EEE72046ECE700BF4C40002098
:10AC40000023435082B043580193019B02B07047E8
:10AC50001FB501238DF80030044BCDE90110D3E975
:10AC600000126846904705B05DF804FB784000206C
:10AC70007FB5434AD2F82461002E60D010464FF4CD
:10AC80009271FFF7DDFF02238DF80030D2F8803497
:10AC9000C2F880340393D2F83C350293394BDA681A
:10ACA00001920022C3E906226846D3E900129047C8
:10ACB0003348D0F8443173B14FF4A271FFF7C0FFAD
:10ACC000304B9A693AB10022C3E90622D968D0F81C
:10ACD0003C05FFF7BDFF2A48D0F82031ABB14FF457
:10ACE0009071FFF7ADFF0123C360264B5A6962B133
:10ACF000D0F84C150291002299688DF8002001913E
:10AD00005A616846D3E9001290471D48D0F858317F
:10AD10009BB14FF4AC71FFF793FF1A4B5A6962B1C4
:10AD2000D0F84C150291002299688DF8002001910D
:10AD30005A616846D3E90012904704B070BDD2F85A
:10AD40001031002BB4D04FF488711046FFF778FF14
:10AD50000C4BD2F83C0599698842A9D1DC69D968C5
:10AD600064B1D2F8005225F02005C2F800521A69E9
:10AD70009C61DA60DE61FFF76BFF99E79C61FAE79F
:10AD800000200040784000201F2886BF00F01F00F0
:10AD9000044B4FF0A04300F5E070022243F820205E
:10ADA000704700BF000300502DE9F843664E90F84D
:10ADB0000480242303FB0863044693F820300D46E7
:10ADC0009146002B40F0BC8060490068FFF794FC7E
:10ADD0000746002840F0B68029684B1C10D01F2978
:10ADE00087BF5B4A01F01F030B464FF0A0420120D2
:10ADF000984003F5E073C2F80805032042F82300E9
:10AE00006A68501C0DD01F2A8BBF02F01F03134627
:10AE10004F484FF0A04003F5E0734FF0000C40F8AE
:10AE200023C02068AB69C0F8243595F814C06B7D49
:10AE3000BCF1010F4CEA0303C0F86C35C0F80C15E7
:10AE4000C0F814252BD1AB68591C0DD01F2B8BBF1C
:10AE500003F01F021A463E494FF0A04102F5E0728E
:10AE60004FF0000C41F822C0E9684A1C13D01F299A
:10AE700087BF374A01F01F0C8C464FF0A0424FF0BD
:10AE8000010E0EFA0CFE0CF5E07CC2F808E54FF05E
:10AE9000030E42F82CE0C0F80815C0F81035242243
:10AEA00002FB08F2B318C3F804902B69B350B9F150
:10AEB000000F2FD04FF488712A7FFFF7C1FE206862
:10AEC0004FF49071FFF7BCFE20684FF49271FFF7CA
:10AED000B7FE20684FF4A271FFF7B2FE4FF4AC71D9
:10AEE0002068FFF7ADFE23681A49C3F80413190B55
:10AEF00043F307335201002BD2B21CDB1648C518AE
:10AF000085F8002301225B0901F01F0102FA01F11B
:10AF100040F8231023680822C3F80025242303FBEC
:10AF200008660023C6E906337361012386F82030E2
:10AF30003846BDE8F883094B01F00F015A54E9E7A0
:10AF40000827F5E71127F3E77840002071AC0200ED
:10AF5000000300501003420000E100E014ED00E0A7
:10AF60002DE9F0413D4D06790468242303FB065387
:10AF700002465B68ABB13A4BC4F8083344F307337D
:10AF8000002B4FEA14310CDB01F01F005B0901219B
:10AF900081402033334840F82310BFF34F8FBFF375
:10AFA0006F8FD4F8003223F02003C4F8003224233A
:10AFB00003FB06539B6933B14FF4A2712046FFF7A0
:10AFC0003FFE012363604FF4AC712046FFF738FE6B
:10AFD0000123E360242303FB0653D4F8581100290E
:10AFE000FBD0996919B1D4F844110029F5D0002398
:10AFF000C4F800351368D3F80C05D3F81485D3F8DA
:10B000000815D3F810754FF0FF329042C3F80C25A5
:10B01000C3F81425C3F80825C3F8102501D0FFF79D
:10B02000B3FEB8F1FF3F02D04046FFF7ADFE7A1CF9
:10B0300002D03846FFF7A8FE4B1C02D00846FFF7A7
:10B04000A3FE2046FFF77AFB242303FB06550023CB
:10B0500085F820306B60BDE8F08100BF78400020AB
:10B060001003420000E100E00279044B242101FBBF
:10B0700002335869003818BF01207047784000201B
:10B0800001F06043B3F1005F2DE9F04706468846C2
:10B0900092463BD190F80490FFF7E6FF0446002863
:10B0A00036D11D4F3068242505FB09754FF490718A
:10B0B000C5F814A0C5F80880FFF7C2FD4FF4AC71C5
:10B0C0003068FFF7BDFD33686A69A968C3F84415A5
:10B0D000C3F8482501229A606A68DAB9D3F82021BA
:10B0E000D3F858011AB90028F8D00F2007E000283B
:10B0F000FBD10122DA60D3F85821002AFBD02423A7
:10B1000003FB097700237B61BDE8F0871020FBE794
:10B110001120F9E72046F7E778400020002343504C
:10B1200082B043580193019B02B070472DE9F04F64
:10B13000544E077906EBC70385B01B7905460C46CC
:10B140004FEAC70A002B40F09B8046F83720DFF813
:10B1500040E101F1FF3C04F1030B69464FF00108A7
:10B160001CF8012FFF2A00F0828022F080031006D5
:10B170000B606FD51F2B87BF02F01F00F1461846EA
:10B180004FF0A04908FA00F0C9F808051F2B8ABF44
:10B1900002F01F034FF0A042724603F5E073032054
:10B1A00042F82300E34501F10401D9D12868009B4E
:10B1B000C0F86035019BC0F86435029BC0F8683563
:10B1C0000122039BC0F86C35C0F8002594F805C037
:10B1D000A1792389C0F80CC5C0F80415C0F808355A
:10B1E0006389C0F810350023C0F800324FF48E7127
:10B1F000C0F80033FFF792FF28684FF48871FFF71B
:10B200008DFF28684FF48A71FFF788FF28684FF494
:10B210008271FFF783FF56F83730A3B12B6821798D
:10B2200043F3073049010028C3F30733C9B222DBD7
:10B23000154C251885F80013400903F01F0302FA86
:10B2400003F344F82030564401233371002005B045
:10B25000BDE8F08F1F2B87BF02F01F00F146184694
:10B260004FF0A04908FA00F0C9F80C058EE74FF03E
:10B27000FF330B6096E7054A03F00F03D154E2E772
:10B280000820E4E79C40002000E100E014ED00E02D
:10B29000000300502148D0F8103110B55BB14FF4D5
:10B2A0008871FFF73BFF1E4B5A79510703D51B6886
:10B2B0000BB1012098471948D0F814315BB14FF415
:10B2C0008A71FFF72BFF164B5A79120703D51B68BB
:10B2D0000BB1022098471148D0F81C315BB14FF4F4
:10B2E0008E71FFF71BFF0E4B587910F0100002D142
:10B2F0001B6803B198470948D0F8043163B14FF493
:10B300008271FFF70BFF064B01221A711B681BB1FC
:10B31000BDE810400320184710BD00BF00C0014029
:10B320009C4000201F2886BF00F01F00044B4FF0F8
:10B33000A04300F5E070032243F82020704700BFCF
:10B34000000300501F2886BF00F01F00044B4FF081
:10B35000A04300F5E070002243F82020704700BFB2
:10B36000000300502DE9F041DFF8048198F8043023
:10B370000446002B75D1857990F807E090F808C055
:10B38000467A877A227CC06875B9012E03D1012ADA
:10B390000AD107204EE0022E06D1082A04D840F236
:10B3A0005513D340DB07F4D42F4BC3F80455C3F82F
:10B3B00024E5C3F820C5C3F81C65C3F82875C3F895
:10B3C0001825002838D1C3F810052078002D39D170
:10B3D000FFF7A8FF6078FFF7A5FFA778FF2F37D00A
:10B3E0003846FFF79FFFE678FF2E34D03046FFF750
:10B3F00099FF2579FF2D31D02846FFF7A3FF1A4B7F
:10B4000062782078C3F86405C3F86825C3F86075CE
:10B41000C3F87065C3F86C556379144AC8F8001016
:10B420005B01DBB282F8253320235360012388F8C7
:10B4300004300020BDE8F0810122C3F81405C3F8F0
:10B440001025C2E7FFF77EFF6078FFF77BFFC4E7B8
:10B450004FF0FF37C7E74FF0FF36CAE74FF0FF3531
:10B46000CDE70820E6E700BF0050024000E100E021
:10B47000A44000207FB5354A1379012B0E4660D1D8
:10B48000036823B103F06041B1F1005F5BD1416813
:10B4900021B101F06041B1F1005F54D15179003B1D
:10B4A00018BF012363F3000151714368D680191E50
:10B4B000537918BF012123F01E0343EA410353715E
:10B4C00003C8234B83E80300D2E90254214B002038
:10B4D000C2E90400C3F85065C3F838552D1A18BFE7
:10B4E0000125C3F80855C3F84045241A18BF0124A4
:10B4F000C3F80C4502210124C3F800451171C3F8BB
:10B500000401D3F8041103910399C3F81401D3F88B
:10B51000141102910299C3F80801D3F8081101919E
:10B520000199517901FA04F2090102F0020201F0D5
:10B5300020010A4342F00402C3F804231C6004B053
:10B5400070BD0820FBE71020F9E700BFA4400020F1
:10B55000AC40002000500240154B5A79D20630B55D
:10B5600022D5026822B102F06041B1F1005F1DD125
:10B57000416821B101F06044B4F1005F16D15C79FB
:10B58000A50744BF0B4DC5F84015E10744BF094965
:10B59000C1F8382503C8084A82E803005A796FF3D6
:10B5A00004125A71002030BD0820FCE71020FAE791
:10B5B000A440002000500240AC400020064B5A79C5
:10B5C0006FF304125A71054B2222C3F8082301229B
:10B5D0005A609A63DA637047A4400020005002402A
:10B5E000F0B53F4B3F4CD3F8142185B08AB100220F
:10B5F000C3F81421D3F814310093009B637943F00E
:10B60000080303F01202122A637104BF43F02003FF
:10B610006371334BD3F804218AB10022C3F80421AB
:10B62000D3F804310193019B637943F0040303F0E1
:10B630001102112A637104BF43F020036371284B88
:10B64000D3F80821BAB10025C3F80851D3F808216E
:10B650000292029A24480422C3F808232946C3F818
:10B6600000552368984723682048294698470123B6
:10B67000237105B0F0BD637903F00F020F2A08D0E3
:10B68000D80701D4190704D462799207F1D45B0773
:10B69000EFD56279276802F0F30312F020020BD095
:10B6A00023F0300343F010036371012100203B4677
:10B6B00005B0BDE8F04018470B4D95E8030002AE19
:10B6C00086E8030015E9030043F0100385E8030052
:10B6D000C4E90222637101213046B847C9E700BFBF
:10B6E00000500240A4400020B4400020AC400020A4
:10B6F0000023435082B043580193019B02B070472E
:10B700008B6A4A6B9A4210B54FF0010305D2496A21
:10B710008A5CC0F81C251A4604E091F82C201AB166
:10B72000C3610022104610BD0C6A640603D5C361D4
:10B7300081F82D30F6E74361EDE770B5D0F804618C
:10B7400005460C4626B14FF48271FFF7D1FF012662
:10B7500094F82F2022B34FF492712846FFF7C8FFC8
:10B760004FF48E71FFF7C4FF4FF48471FFF7C0FFF1
:10B77000002E69D094F82F20002384F82D3092BB3E
:10B78000A36A616B99421CBF1646052386F0010629
:10B790001CBFC5F80025C5F8003584F82F6023E0EC
:10B7A000D5F824314BB14FF492712846FFF7A0FF32
:10B7B00001236B6184F82F30DAE7D5F81C31ABB187
:10B7C0004FF48E712846FFF793FF636B0133636379
:10B7D000D5F8243113B14FF49271E7E72146FFF712
:10B7E0008FFF0028C4D10022104670BDD5F8083163
:10B7F000002BBDD04FF484712846FFF779FFD5F8B0
:10B800002431002BE7D1636BA16A8B42B0D2616A0D
:10B81000D5F81805C854636BA16A0133481E8342EA
:10B82000636308D1206A400610D40223C5F80032B1
:10B8300001232B629CE78B42FAD1236A5B0697D5E2
:10B84000022384F82D30CFE70122CDE78B42EFD1E0
:10B85000F6E7000037B5314B01930D464FF4827186
:10B86000FFF746FF4FF49271FFF742FF4FF48E71DE
:10B87000FFF73EFF4FF48471FFF73AFF0023C0F853
:10B8800000326B6385F82F300123036295F82D2079
:10B890009A4218BF836029460446FFF731FF2B68A0
:10B8A00083B140F28623AB60AB68C4F80433002058
:10B8B00003B030BD29462046FFF73FFF28B1019B6A
:10B8C000013B0193019B002BF4DC95F82F0050B94C
:10B8D000019B002BECDC0023C4F800350523C4F8E1
:10B8E00000350320E4E7D4F8C434C4F8C43493B179
:10B8F00013F0010F14BF4FF40240032048F201225D
:10B9000013F0020F18BF104613F0040F48F2022381
:10B9100018BF1846DCE70320DAE700BFA086010065
:10B9200037B5344B01930D464FF48271FFF7E0FEBB
:10B930004FF49271FFF7DCFE4FF48E71FFF7D8FEE3
:10B940004FF48471FFF7D4FE00236B6385F82F302A
:10B95000AB6A012B044617D12B6A5B0614D4022371
:10B96000C4F800320123236295F82D20022A18BF63
:10B9700023602B6893B140F28623AB60AB68C4F8B8
:10B980000433002003B030BD0123E9E729462046F7
:10B99000FFF7D3FE28B1019B013B0193019B002BD4
:10B9A000F4DC95F82F0050B9019B002BEADC002352
:10B9B000C4F800350523C4F800350320E2E7D4F8C5
:10B9C000C434C4F8C43493B113F0010F14BF4FF45E
:10B9D0000240032048F2012213F0020F18BF104664
:10B9E00013F0040F48F2022318BF1846DCE70320C7
:10B9F000DAE700BFA0860100F0B52B4C2B4887B0DA
:10BA00002146FFF79AFE002840D194F82F70D4F811
:10BA100020C0FFB9237B9A1E012A1BD8616AA26944
:10BA2000914217D1E2696262CCF3401C62691F48FF
:10BA3000A262032B84F82CC084F82D70214604D117
:10BA400007B0BDE8F040FFF705BF07B0BDE8F04024
:10BA5000FFF766BF164E0FCE01AD0FC533682B60E2
:10BA6000FFB1124AD2F8C434C2F8C43499070FD5D2
:10BA700001238DF8003000231CF0040F84F83030CF
:10BA800000D01FB1D4E900316846984707B0F0BD37
:10BA90005A0701D50223ECE7DB074CBF032304233D
:10BAA000E7E78DF80070E6E7BC400020003000407A
:10BAB000C84000202DE9F84F07793A4E4FF03C0A74
:10BAC0000AFB07FA06EB0A059B4695F82E308046DE
:10BAD0000C469146002B61D133490068FEF70CFEFD
:10BAE00000285DD12168637B85F838301F298CBF21
:10BAF00001F01F030B4603F5E07388BF2B4AA860D3
:10BB000098BF4FF0A04240F20C6C85F8300042F82C
:10BB100023C06268C5F804B01F2A8CBF02F01F035F
:10BB2000134685F82D0085F8310003F5E07388BFD2
:10BB30001E4D46F80A9098BF4FF0A04545F823C027
:10BB4000D8F80030C3F80815C3F80C25A268C3F86C
:10BB50002425B9F1000F14D0227B43F307315201A1
:10BB60000029C3F30733D2B213DB114C651885F8F3
:10BB700000230122490903F01F0302FA03F344F8EA
:10BB800021303C2303FB0766012386F82E30BDE8F5
:10BB9000F88F084903F00F03CA54F2E70820F6E7CC
:10BBA0001120F4E7BC400020F9B902000003005066
:10BBB00000E100E014ED00E0036802790521C3F81C
:10BBC0000015044B3C2101FB0233022283F82E2096
:10BBD000704700BFBC4000202DE9F047314F047989
:10BBE000D0F800903C2303FB04730D4693F82D30EE
:10BBF000012B944604D10B78012B06D1082011E0CB
:10BC0000022B02D10B78012BF8D13C26264BC9F828
:10BC1000083306FB047696F830302BB1B368C9F8C8
:10BC200004331120BDE8F0878CF00403C3F38003D4
:10BC300086F83030C6F820C0A846B8E80F0006F1F4
:10BC40000C0EAEE80F00D8F80030CEF800306B686C
:10BC5000B362EB6873626B78C9F888352B78C4EBF4
:10BC6000041A012B07EB8A0A17D09BB9CCF3401CAE
:10BC70003C2303FB0473514683F82CC04846FFF76E
:10BC8000E9FD3C235C433A193B59002BCAD182F8A9
:10BC90003030C7E74FF0010CEAE751464846FFF75E
:10BCA0003FFEEEE7BC4000208642040010B586B09F
:10BCB0000024CDE902349DF820308DF80510A34210
:10BCC000CDE9042401A914BF202222468DF80440A6
:10BCD000FFF782FF06B010BD10B586B001240293B5
:10BCE0000023CDE903328DF805101A4601A98DF81D
:10BCF00004400593FFF770FF06B010BD1FB5037831
:10BD00008DF800308388ADF8043083688DF80630F4
:10BD1000C3688DF80730036902934369054A0393AA
:10BD2000054B684653F8213052F82110984705B06A
:10BD30005DF804FBF840002000410020024B4FF466
:10BD4000807043F001031847E04503001F2886BFB9
:10BD5000054A00F01F004FF0A042012303FA00F053
:10BD6000C2F80805704700BF000300502DE9F047F6
:10BD7000154690F80080394A42F82850384A42F86F
:10BD800028304B7B06460C46A3B30868DFF8D890F2
:10BD90004FF0A04100F5E07340F20C6241F823201F
:10BDA000636803F5E073002741F82320FFF7CEFF17
:10BDB0006068FFF7CBFF236803F5E07340F20D6284
:10BDC00041F82320636803F5E0734FF0010A41F85E
:10BDD0002320FFF7B3FF63681F2B8ABF4A464FF04B
:10BDE000A04203F01F03D2F8102522FA03F3DB0769
:10BDF0000BD507BB002D1B4A434608BF2A462146E8
:10BE0000301DBDE8F047FFF755BE23681F2B86BFE6
:10BE100003F01F034A464FF0A0420AFA03F3C2F8A8
:10BE20000C35FFF78BFF01372068FFF78FFFFFF717
:10BE300085FF092FCFD163681F2B86BF0A4903F006
:10BE40001F034FF0A041012202FA03F3C1F80C35A1
:10BE5000FFF774FF6068FFF779FFCBE70041002030
:10BE6000F8400020FDBC020000030050032811D858
:10BE7000012A0AD101290FD100F10E02D2B20D4BD5
:10BE800000EB40001A54002070470129F7D0022926
:10BE900004D049B1072070470022F8E7054B00EBBA
:10BEA000400018444270EEE7024B00EB400018449B
:10BEB0008270E8E70841002008B501220221002035
:10BEC000FFF7D4FF08B1072810D107220221012073
:10BED000FFF7CCFF08B1072808D100210A22084645
:10BEE000FFF7C4FF10B1072808BF002008BD0000FD
:10BEF0000388102B10B502D0112B1ED010BD1A4C88
:10BF00002168B1B901220846FFF7B0FF08B1072840
:10BF100024D1072202210120FFF7A8FF08B107283A
:10BF20001CD1042202210020FFF7A0FF08B107283E
:10BF300014D1236801332360E0E70B4A1368013B07
:10BF40001360002BDAD1FFF7B7FF0028D6D0074BDC
:10BF50001B68002BD2D0BDE810401847034B1B686C
:10BF6000002BE6D09847E4E7184100201441002058
:10BF7000BFF34F8F0549064BCA6802F4E0621343D2
:10BF8000CB60BFF34F8F00BFFDE700BF00ED00E0C7
:10BF90000400FA0533DF704708B5FFF7E9FF00003A
:10BFA000334B01222DE9F3415A601A6003F5C04377
:10BFB000304CD3F84C6502F059F82F4BE41AE408E2
:10BFC000240444F00504002845D02C4BD3F84C55EC
:10BFD0000027BB19019301F08FFB019B2849024602
:10BFE0002046FBF784FD01F087FB2B4602462549DE
:10BFF0002046FBF77CFD01F07FFB234902463346D8
:10C000002046FBF774FD214B4FF0010883F80080B8
:10C0100001F05EFB1E4902462046FBF75FFD1D480E
:10C020002B0E03702B0C43702B0A8370330E03719D
:10C03000330C4371330A8371174BC570C671F221FB
:10C0400083F8008002F0B8FD3946212002B0BDE837
:10C05000F04101F0C5B802F00FF8054601F04CFBC5
:10C060000E4902462B462046FBF741FDB0E700BFD4
:10C0700000400140E03B0300983B030000A000406B
:10C08000024603001E460300324603001C41002006
:10C09000464603001D410020F4430020E64503000E
:10C0A00008B501F015FB0C4B0C4902460C481B1A55
:10C0B000DB081B0443F00500FBF710FD002001F036
:10C0C0006FFA08B1FBF7B4FEFFF764FF18B1BDE8E3
:10C0D0000840FBF7ADBE08BDE03B03005F46030030
:10C0E000983B0300084B094AC3F84025A2F52042BB
:10C0F000B43AC3F8442502F58032C3F82829402217
:10C10000C3F80425704700BF00F001400041014022
:10C1100030B58BB001F032FA01F040F950B101F0C6
:10C12000A3F938B101F062F820B101F0FBF808B1D1
:10C1300002F06EFE4FF480410020FBF72DFB08B1AA
:10C14000FBF776FEFBF75AFA01F024FB4E4A4F4804
:10C150000021FBF78BFF08B1FBF76AFE01F02CF81A
:10C16000FDF7A6FD08B1FBF763FE01F007FA00F04A
:10C17000EBF900F049FE02F0E1FB454B454C186835
:10C180001B798DF80430444B0090D3F81C154348BC
:10C19000434D0140C3F81C15D3F81C2542F44B3223
:10C1A00042F44072C3F81C25D3F81C1541F003017A
:10C1B000C3F81C15D3F828250240C3F82825D3F866
:10C1C000282542F44B32C3F82825D3F8282542F01D
:10C1D0000302C3F828250C33C4F81055C4F81435ED
:10C1E0000123C4F804352F4BC4F8483503F52F4319
:10C1F0000433C4F84C35A3F5A733A3F5FE73C4F894
:10C200002C398023C4F8043500F020FCC4F83855DC
:10C21000C4F83C05D4F8043843F02003C4F80438CB
:10C22000214B0593A3F58033069303F5E043079371
:10C2300003F5C043089317238DF8243040F20123FF
:10C24000ADF80E3040F20343ADF8103000230098F3
:10C250008DF812307D238DF80830CDF809009DF857
:10C2600004308DF80D3002A801F0B6FD08B1FBF7DF
:10C27000DFFD01F0D9FD08B1FBF7DAFDFFF732FF72
:10C2800001200BB030BD00BF99BF0200BC470300C6
:10C290007D46030000F0014000600040FFC0ECFF5D
:10C2A00050A101400441014000A0014000B52DED26
:10C2B000028B85B001F0E4F8B0EE408A01F006F997
:10C2C0002C482D4BC01AC008B5EEC08A0004F1EE10
:10C2D00010FA40F0030049D5FFEE007AB4EEE78A89
:10C2E000F1EE10FA42DD254ADFED255AFDEEC86A6F
:10C2F000B5EEC08AB8EEE67AF1EE10FACCBF78EE71
:10C30000477A77EE487AB5EEC00A67EEA57AF1EE85
:10C3100010FAFDEEE77A2BD5BFEE007AB4EEC70A2D
:10C32000F1EE10FA24DD154B0193BDEEC06AB5EEB7
:10C33000C00AB8EEC67AF1EE10FACCBF30EE470A6A
:10C3400037EE400A16EE903A20EE250A0D498DEDA3
:10C35000026ABDEEC00ACDED007A8DED030AFBF74F
:10C36000FAFB05B0BDEC028B5DF804FB064ABBE7A7
:10C37000054BD9E7E03B0300983B030083460300ED
:10C380000000C84285460300064B03008FB5FFF747
:10C39000BFFE5F4C5F4F604DFFF788FF02F0BAFAB7
:10C3A0005E4BE41AE408240444F00504FBF746FA63
:10C3B00008B9FDF793FC00F0D1F80028F6D100F0A1
:10C3C000D9F804380E2800F29680DFE800F0084A19
:10C3D0005494595C5F6577841994943F190000F078
:10C3E00017FB30B94E4B2022C3F80825012000F07E
:10C3F00015FB4C4EDFF84C8103A800F0F3F810B9A0
:10C4000000F0C2F8D2E703994FF4F272304607F019
:10C41000B5FA00F0FDFA0028EED02B78002BEBD017
:10C420004FF4F27002F02AFC28B14FF4F27130465A
:10C4300002F0C2FBE0E701F04BF9F223024641466D
:10C440002046FBF754FB02F02DFCD5E701F040F944
:10C45000354902462046FBF741FB012000F06AFF08
:10C46000CEE701F035F9314902462046FBF736FBAD
:10C4700000F0F2FAC4E702F01DFC00F0F5FCBFE7A3
:10C4800002F05AFBBCE7FFF70BFEB9E7284920464C
:10C49000FBF720FBFFF76CFD01F01AF92549024676
:10C4A0002046FBF71BFBC82001F0AEFDFFF778FD2F
:10C4B00000220121104601F04EF8A1E701F01CF91D
:10C4C0001D4902462046FBF709FB01F0ADFD0021A6
:10C4D00001220846EFE7194A19492046FBF7FEFA00
:10C4E0002B782BB901F0C8FD032801D1FFF758FDC7
:10C4F00000F0E4F984E701F0EBF8019000F03AF87D
:10C50000019A034639462046FBF7F1FA78E700BF67
:10C51000E03B03009A4703001C410020983B0300C6
:10C5200000F0014010420020E5460300F8460300F9
:10C530001B470300294703004F470300D1D60200E1
:10C5400074470300C6460300024A00231370024AE0
:10C55000137070471E4400201D440020034B1878C0
:10C56000034B1B78C31A5842584170471D440020A2
:10C570001E440020024B034A1B78D05C704700BF6A
:10C580001D440020F543002010B506490A782820F4
:10C59000531CB3FBF0F400FB14330B70024B985C9C
:10C5A00010BD00BF1D440020F543002010B5024619
:10C5B000FFF7D4FF08490B7858B108480078084CB9
:10C5C000013322542822B3FBF2F002FB10330B702C
:10C5D00010BD1846F3E700BF1E4400201D44002094
:10C5E000F543002010B50A490A4A0B7812789A429E
:10C5F0000BD0094A4FF4F27404FB0322013303F019
:10C60000070302600B70012010BD0020FCE700BF93
:10C61000405300204253002020440020034B188840
:10C62000034B1B88B0FBF3F0704700BF445300205E
:10C63000BA3700202DE9F74F037A04464BB18C48F6
:10C640008C4B8D491B1ADB081B0443F00500FBF7DC
:10C6500041FA6268002A35D088490B6801330B60C3
:10C66000FFF7DCFF864B87491E78DFF848C2134688
:10C6700000B276000A460025854246DBFFF7CEFF72
:10C68000814B824A1E78824BDFF82C921B781778F8
:10C6900000250FFA80F82A462846AE46AC464FF0F1
:10C6A000F20AF04540DC08B177490E700AB1784AC9
:10C6B00013700DB1754B1F70BCF1000F02D0042038
:10C6C000FFF774FF2378002B00F0CF8001F0CEFC41
:10C6D0000146002840F0C5806E4B1C78002C63D0CA
:10C6E0006D4D6E4A6E481288D5E9003653EA06074A
:10C6F000D0E900406CD1A24271EB000337DA01228D
:10C700000023C5E9002301243FE0BCF80070092F95
:10C710008EBFB3F9007007F1010EACF800E00135EF
:10C72000178033440232A7E75A1CD2B20AFB063301
:10C7300031F902BB29F813B0F22A12D1013606F002
:10C740000706BE420FD10125771C07F0070700221C
:10C7500028462B464CEA030C0EF1010E134601222B
:10C760009FE70023F6E7012000220346F2E752424A
:10C77000D317944270EB030375DA4FF0FF324FF09A
:10C78000FF33C5E900234FF0FF3400F0A1FF394E1D
:10C790000094024636482B684249361AF608360499
:10C7A00046F00500FBF7ADF93F4A1368B3FA83F38F
:10C7B0005B0913603D4A11883D4A214440F2847070
:10C7C00089B200FB032003B0BDE8F04F00F07ABC53
:10C7D000012B76F100071EDB5F1C46F1000CA2FB6B
:10C7E000078E02FB0CEEA0457EEB000902DAC5E9DC
:10C7F000007C88E7013B46F1FF36921841EB0107C8
:10C80000B8EB02026EEB0707944270EB07022ADADC
:10C810002B606E60B7E703F1FF3C8CEAEC77524285
:10C82000A7EBEC7757434FEAE77EBC4270EB0E076D
:10C8300005DA013B46F1FF36C5F800C0E9E703F130
:10C84000010C8CEAEC77A7EBEC777A43D717A2427E
:10C8500077EB000207DA013346F10006C5E900C6AE
:10C8600051E70024A0E70C469EE703B0BDE8F08F37
:10C87000983B0300E03B0300C047030068620020D0
:10C88000BA37002074620020425300204053002039
:10C8900041530020086A0020006A0020B8370020B9
:10C8A000206A0020D34703006C620020445300201C
:10C8B0005E5300205C530020204400202DE9FF47F8
:10C8C00001F0D4FB002870D1434B1B78002B6CD0B7
:10C8D000062001F0AFFB414CDFF828A1DFF82891DA
:10C8E00007460E4600F01CFF3D4BE41A3D4BE408A2
:10C8F0001A78240480460D4644F005048AB90122C2
:10C900001A70CAE90001C9E9007600F0E1FEDAF820
:10C91000003000930246D9F8003033492046FBF737
:10C92000F0F8DAE90001B8EB000865EB0105D9E998
:10C9300000013F1A66EB0101B8EB070065EB01014E
:10C940002A4A2B4E002306F016FF1546326802B91C
:10C95000356031682748DFF8B4900268691A002909
:10C96000B8BF49429142244922D2D1F800C0BCF15B
:10C97000020F88BFC9E900530CF1010E94BF0532C4
:10C980006423C1F800E092BF02603560036000F0EC
:10C990009FFED9F800301949CDF80080CDE9015348
:10C9A00002463B462046FBF7C6F804B0BDE8F087D8
:10C9B000002305320B60026000F08AFE31686B1ABA
:10C9C000002BB8BF5B42CDE9001302460C492B4651
:10C9D0002046FBF7A2F8DAE7086A0020E03B0300F4
:10C9E000983B0300435300200C48030000350C0023
:10C9F00070620020BC370020286A00205B480300DA
:10CA00002C480300186A0020106A0020206A0020C9
:10CA1000014B1878704700BF086A002010B5044623
:10CA200048B10648064B07491B1ADB081B0443F0B4
:10CA30000500FBF74FF8044B1C7010BD983B03003A
:10CA4000E03B03007D480300086A0020004870476F
:10CA500000D00140000000002DE9F04F2DED028BC9
:10CA6000834C8449844DDFF8589285B0204600F00D
:10CA7000A7FA6268814C00230020012106F014FE11
:10CA800002460B467E48002106F00EFE06F05CFCD6
:10CA900002460B46C5E900237A49002006F0E8FA71
:10CAA00002460B46C9E900236FA3D3E9002306F031
:10CAB00043FA41EC100B06F0A7FD51EC100B06F009
:10CAC0001BFC714B1880714BE41A00F001FED5E994
:10CAD0000067E408240480460022002330463946DB
