:020000022000DC
:1070000000000420197202000172020003720200E3
:1070100005720200077202000972020000000000FF
:107020000000000000000000000000000B720200E1
:107030000D720200000000000F72020011720200C7
:107040001DDF0500053D03002DDF0500A1F705004C
:10705000B9F705001372020049D905001372020046
:1070600013720200FD4E030013720200137202003D
:1070700013720200137202001372020013720200F4
:1070800013720200E522060013720200137202005E
:10709000137202006DBE0200A5710600E1430300F9
:1070A0001372020013720200755B0300ED2F0300E0
:1070B00041E605006D9B020000000000000000009A
:1070C00013720200137202001372020013720200A4
:1070D000137202004994020013720200F10B0600C1
:1070E000137202001372020013720200000000000B
:1070F0000000000013720200000000001372020082
:10710000000000000000000000000000000000007F
:10711000000000000000000000000000000000006F
:10712000000000000000000000000000000000005F
:10713000000000000000000000000000000000004F
:10714000000000000000000000000000000000003F
:10715000000000000000000000000000000000002F
:10716000000000000000000000000000000000001F
:10717000000000000000000000000000000000000F
:1071800000000000000000000000000000000000FF
:1071900000000000000000000000000000000000EF
:1071A00000000000000000000000000000000000DF
:1071B00000000000000000000000000000000000CF
:1071C00000000000000000000000000000000000BF
:1071D00000000000000000000000000000000000AF
:1071E000000000000000000000000000000000009F
:1071F000000000000000000000000000000000008F
:10720000FEE7FEE7FEE7FEE7FEE7FEE7FEE7FEE756
:10721000FEE7FEE700F002B8FFF7FCBF0F484FF0B3
:107220000701884385460E4880470E48016841F4AF
:1072300070010160BFF34F8FBFF36F8F00F01AB87A
:1072400009480A490A4A884207D0521A05D00378E9
:1072500001300B700131013AF9D170470000042070
:107260001571030088ED00E0CCB306005037002014
:1072700064370020344935480A1A02D00722914366
:107280008D46334933480A1A06D00722914381F3C9
:107290000988022282F314882F483049304A00F0CE
:1072A00041F830483049314A00F03CF83048314923
:1072B000314A00F037F831483149324A00F032F8AB
:1072C00031483249324A00F02DF832483249334AC7
:1072D00000F028F832483349334A00F023F83348A5
:1072E0003349002200F029F832483349002200F0E7
:1072F00024F832483249091A43F07AFF314A90475C
:107300001F482049884205D00268043003B49047E2
:1073100003BCF7E700208646EC46002000212A4AFD
:107320009047FEE7884207D0521A05D00378013013
:107330000B700131013AF9D17047884202D00270D6
:107340000130FAE77047000000000420E0B103209C
:10735000000004200000042080B1070064370020F2
:10736000D0380020CC730200CC73020004B20600B7
:1073700080B107006437002064370020E0B30600C6
:10738000E0B30600E0B30600E0B30600E0B3060099
:10739000E0B30600E0B30600E0B3060078B10700F2
:1073A000ECB20700D0380020D0380020D0380020C0
:1073B00068DF012068DF012068DF012068DF01202D
:0C73C000A87B0220417202001161030052
:1073CC0000B583B00190019B1B68184600F09CF837
:1073DC000346002B04D10B494FF4F6700EF018FB4A
:1073EC00019B1B681F2B02D84FF0A04306E0019BAA
:1073FC001B6803F01F02019B1A60034B184603B075
:10740C005DF804FBE0B306000003005000B585B046
:10741C000190084611461A4603468DF803300B4678
:10742C008DF8023013468DF8013001AB1846FFF78A
:10743C00C7FF03909DF803209DF802305B001A43B0
:10744C009DF801309B001A439DF818301B0242EA4C
:10745C0003019DF81C301B04019A1943039B02F590
:10746C00E07243F8221000BF05B05DF804FB00B5D4
:10747C0085B0039000230193002300930023012285
:10748C0001210398FFF7C2FF00BF05B05DF804FBB4
:10749C0000B585B0019001AB1846FFF791FF039042
:1074AC00019B012202FA03F31946039800F018F825
:1074BC0000BF05B05DF804FB00B585B0019001ABD1
:1074CC001846FFF77DFF0390019B012202FA03F39C
:1074DC001946039800F00EF800BF05B05DF804FBE8
:1074EC0082B001900091019B009AC3F8082500BF5F
:1074FC0002B0704782B001900091019B009AC3F8D2
:10750C000C2500BF02B0704784B00190019B5B0951
:10751C00029300230393029B002B03D0029B012BAD
:10752C0004D007E04FF0FF33039303E04FF6FF73F3
:10753C00039300BF019B03F01F030193039A019B6C
:10754C0022FA03F303F00103002B14BF01230023E1
:10755C00DBB2184604B0704782B003468DF8073092
:10756C009DF8073003F1804303F5E833184602B069
:10757C00704700B583B003468DF807309DF807308F
:10758C001846FFF7E9FF0346184603B05DF804FB05
:10759C0008B5144B00221A70134B00221A70134BAF
:1075AC0000221A7012494FF000024FF00003C1E99B
:1075BC00002310494FF000024FF00003C1E90023F3
:1075CC000D494FF000024FF00003C1E900230B4BB3
:1075DC0001221A700A4B00221A700A4809F094FE14
:1075EC0000BF08BD34B4002035B4002036B40020F0
:1075FC00887B0020787B0020807B0020A17B0020F2
:10760C00917B002060D7002038B5244B00221A70E3
:10761C00234B1B785A1C234B83FB02131344591125
:10762C00D317C91A0B461B015B1A9B00D11ACAB29D
:10763C001B4B1A701C4B1A78194B1B789A422BD186
:10764C001A4A1B4BD31ADB081B0443F005031949D8
:10765C0018463EF0E9FC0122002101200BF0E4FE6B
:10766C00154BD3E9002312F1F00443F10005124B42
:10767C00C3E900450C4B1B785A1C0A4B83FB0213C5
:10768C0013445911D317C91A0B461B015B1A9B00E3
:10769C00D11ACAB2044B1A7000BF38BD36B40020E0
:1076AC0035B400208988888834B400200CB30600D7
:1076BC00CCB2060010B40600887B002010B582B056
:1076CC000346ADF80630114B1B781A46104B1B784D
:1076DC00591CC8B20E4908701C46BDF80630D8B209
:1076EC000C4913461B019B1A1B0113440B442344E6
:1076FC0002461A70064B1B78F12B03D1FFF784FF5F
:10770C00012300E00023184602B010BD35B4002060
:10771C0036B40020B87B002084B001901C4B1A7842
:10772C001C4B1B789A422ED0194B1B781A461346C9
:10773C001B019B1A1B011344174A1A44019B1A6024
:10774C00134B1B781A46144913461B019B1A1B0139
:10775C0013440B44F0331B788DF80F300C4B1B7813
:10776C005A1C0E4B83FB021313445911D317C91A1D
:10777C000B461B015B1A9B00D11ACAB2044B1A7040
:10778C009DF80F3000E00023184604B0704700BF8E
:10779C0034B4002035B40020B87B00208988888858
:1077AC00044B1A88044B1B88B2FBF3F39BB21846AC
:1077BC00704700BF5C7B00206437002000B585B0AB
:1077CC0001900B46ADF80230019B039300238DF81A
:1077DC000B3040E0254B1B78C3F1F002BDF80230B2
:1077EC009342A8BF1346ADF80830214B1B781A46BC
:1077FC0013461B019B1A1B0113441E4A13441B4ABC
:10780C0012781344BDF808200399184642F090FFF3
:10781C00BDF80830DAB2154B1B781344DAB2134BAF
:10782C001A70124B1B78F02B09D1F020FFF746FF92
:10783C0003461A469DF80B3013448DF80B30BDF8F7
:10784C000830039A13440393BDF80220BDF80830A6
:10785C00D31AADF80230BDF80230002BBAD19DF826
:10786C000B30184605B05DF804FB00BF36B40020A1
:10787C0035B40020B87B00202DE9F04FA3B0159053
:10788C00159B1B7A002B0ED0B14AB24BD31ADB08D6
:10789C001B0443F00503B04918463EF0C5FBAF4945
:1078AC00EF200EF0B5F8159B5B68002B00F00982F9
:1078BC0000F04EFA034683F00103DBB2002B02D03A
:1078CC00012000F04DFAFFF76BFF03461946A44B5D
:1078DC001A6891FBF2F302FB03F3CB1A002B0CBFDB
:1078EC0001230023DBB21F931F9B002B04D19B4A67
:1078FC00F721002039F072FBFFF752FF03461A46BE
:10790C00974B1B6892FBF3F3ADF886300DF036FA0B
:10791C0002460B46CDE91C23159B5968BDF9862000
:10792C008F4B1B6802FB03F35B001A468D4842F039
:10793C00FFFE8D4B1B78002B12D08C4B1A888C4B76
:10794C001B889A420CD08A4B1988884B1A88844B16
:10795C001B6884480EF0EEFA844B1B88ADF8863019
:10796C0000238DF885300DF061F9034683F0010397
:10797C00DBB2002B00F0A4807E4B1B78DBB2002B1B
:10798C0000F09E800DF052FB04460D467A4B1B888E
:10799C009BB2002204930592784B1B889BB2002269
:1079AC0002930392764BD3E90023039902FB01F077
:1079BC00029901FB03F101440298A0FB0267CB1969
:1079CC001F46DDE904120B4613EB060A134643EB84
:1079DC00070BA2457BEB050303DAFF238DF88530FB
:1079EC0036E00DF023FB04460D46634B1B885B42CF
:1079FC00DA1706930792614B1B889BB200220893FF
:107A0C0009925F4BD3E90023DDE90867394602FB95
:107A1C0001F0314601FB03F101443046A0FB028921
:107A2C0001EB09039946DDE906120B4613EB08033B
:107A3C000A93134643EB09030B93DDE90A120B4639
:107A4C009C42134675EB030302DA01238DF8853053
:107A5C009DF98530002B15D03D4A3E4BD31ADB08DF
:107A6C001B0443F005040DF06FF90146444BD3E9B8
:107A7C0000239DF98530009313460A464149204660
:107A8C003EF005FB404B1B78002B03D000238DF8F8
:107A9C00853015E03A4BD3E900239DF98510C817C2
:107AAC000C910D90DDE90C452146511A0E91294699
:107ABC0063EB01030F93324BDDE90E12C3E90012A5
:107ACC009DF985309AB2BDF8863013449BB2ADF85F
:107ADC008630BDF98630DA17109311922B4BD3E90F
:107AEC000023DDE91045214689181291294643EB04
:107AFC0001011391254BDDE91212C3E90012002399
:107B0C008DF88430184B1B78002B00F0BB80144B85
:107B1C001B68012B0CBF01230023DBB21B931B9BA7
:107B2C00002B05D10D4A4FF49571002039F056FA0F
:107B3C00BDF986300A4A126802FB03F35B001A4651
:107B4C000849134809F022FB8CE00023209339E00C
:107B5C000CB30600CCB2060044B4060058B40600C0
:107B6C003C540020DC380020A07B00204054002036
:107B7C005C7B0020707B0020D6380020D43800209D
:107B8C00687B002090B40600917B0020807B002055
:107B9C0060D700200DF15A045F4809F03FFB034603
:107BAC0023700DF15A0401345B4809F037FB03468E
:107BBC002370BDF95A10594A209B22F81310209BB0
:107BCC0001332093564B1B881A46564B1B6802FBFD
:107BDC0003F3209A9A42DDDB534B1868504B1B88F9
:107BEC001A46F0230093514B4C4927F0EDFA03460B
:107BFC00ADF86A30BDF96A30002B12DA4C4A4D4BA5
:107C0C00D31ADB081B0443F00504BDF96A3018468F
:107C1C0018F012FF03461A46474920463EF012FA66
:107C2C0020E0464B1B680133444A1360BDF86A30B0
:107C3C00DBB28DF859300DF1590301211846FFF7CD
:107C4C00BDFD03468DF884309DF859309BB2194622
:107C5C003648FFF7B3FD03461A469DF884301343AC
:107C6C008DF884302C4809F06FFA02462C4B1B8897
:107C7C0019462C4B1B6801FB03F35B009A42BFF4C3
:107C8C0064AF11E0BDF986309AB2264B1B689BB2EB
:107C9C0012FB03F39BB25B009BB219461F48FFF724
:107CAC008DFD03468DF884300DF068F802460B46C6
:107CBC00CDE918239DF88430002B02D0012009F067
:107CCC00EDF9159B1B78002B21D01D4B1B68002B4D
:107CDC000CBF01230023DBB21A46194B1A60184B58
:107CEC001B6841F28C3202FB03F3164A1344164A0A
:107CFC0012881146184602F0C1F81790179B002BFA
:107D0C0005D012494FF4BA700DF082FE00BF00BFCF
:107D1C0023B0BDE8F08F00BF60D70020DC38002016
:107D2C00405400203C540020D03800206C4C0020E3
:107D3C000CB30600CCB20600CCB4060074D70020FD
:107D4C00607B0020445400205C7B002058B406006B
:107D5C00024B1B78DBB21846704700BF707B0020CB
:107D6C0010B582B003468DF807309DF80730002B14
:107D7C0010D00D4A0D4BD31ADB081B0443F005043D
:107D8C000CF0FCFF02460B4613461A4608492046E7
:107D9C003EF058F904F0DAFA064A9DF807301370F1
:107DAC0000BF02B010BD00BF0CB30600CCB2060081
:107DBC00E8B40600707B002008B50020FFF7D9FB63
:107DCC000346184608BD000000B585B02D20FFF70E
:107DDC004EFB134B00221A7042F228321149124802
:107DEC0009F096F94FF00463019301238DF80830E4
:107DFC0001238DF80B3050238DF8093050238DF86A
:107E0C000A3000238DF80C3000238DF80D3001ABB7
:107E1C00184600F09BFC00BF05B05DF804FB00BFEA
:107E2C00917B002038B4002060D700202DE9F04170
:107E3C008EB0FFF78DFF0346002B13D0954A964B5F
:107E4C00D31ADB081B0443F005060CF07DFF034638
:107E5C001A46924930463EF0F5F8012201210020E5
:107E6C000BF0E2FA8B4A8C4BD31ADB081B0443F061
:107E7C0005060CF069FF03461A46894930463EF068
:107E8C00E1F8FFF785FB00230C938649864801F047
:107E9C004FFF0C900C9B002B04D084494FF4E970DD
:107EAC000DF0B6FD804B1B78C3F10203804A1360C2
:107EBC00804B1A78804BC3F820257B4B5B680022E3
:107ECC001C46154622462B464FF000004FF0010190
:107EDC0042F086FA02460B4678484FF0000142F019
:107EEC007FFA02460B4610461946724B1B78002B44
:107EFC0004D04FF050024FF0000303E04FF040026B
:107F0C004FF0000342F06CFA02460B46104619463D
:107F1C0040F076FE02460B466949C1E90023684BE6
:107F2C00D3E900014FF00002664B40F0C1FB024662
:107F3C000B46104619464FF00002634B40F050FCC4
:107F4C0002460B4643EC172BB0EE470AF0EE670ADD
:107F5C0041F084F853EC102B1046194640F092FD7A
:107F6C0003461BB29AB2524B1B689BB212FB03F333
:107F7C009AB2564B1A80564B00221A7001238DF878
:107F8C00373042E04E4BD3E90045514B1B781A4633
:107F9C00504B53F82230184640F0ECFD02460B468D
:107FAC002046294640F080FB02460B4610461946F7
:107FBC0040F068FD034683EAE376A6EBE376404B9C
:107FCC00D3E900459DF83730424A52F82330184621
:107FDC0040F0D0FD02460B462046294640F064FB9B
:107FEC0002460B461046194640F04CFD0346002B4A
:107FFC00B8BF5B429E4203DD354A9DF837301370A3
:10800C009DF8373001338DF837309DF83730042B1D
:10801C00B8D92F4B1B781A462E4B53F822201346F7
:10802C009B0013449B00184640F0A4FD4FF0000247
:10803C00254B40F0D5FB02460B4643EC172BB0EE1C
:10804C00470AF0EE670A41F009F853EC102B104682
:10805C00194640F07DFD03469AB21F4B1A801F4B08
:10806C001B78002B40D01A4B1B781A46194B53F82F
:10807C002230184640F07EFD02460B464FF00000C1
:10808C00174940F0ADFB02460B461649C1E90023E7
:10809C0037E000BF0CB30600CCB2060000B50600FA
:1080AC0028B5060085780200947B002058B40600A1
:1080BC003C540020D838002000D001400048E80192
:1080CC00A87B00200000344000408F405C7B0020E7
:1080DC00425400207CB8060040540020A07B0020B5
:1080EC000000F03FB07B0020924BD3E900234FF00F
:1080FC000000914940F074FB02460B468F49C1E9E0
:10810C0000238E4BD3E9000186A3D3E9002340F072
:10811C00CFFA02460B4643EC172BB0EE470AF0EEB3
:10812C00670A40F09BFF53EC102B1046194640F0A9
:10813C000FFD03469AB2824B1A80814B1B8818465E
:10814C0040F018FD79A3D3E9002340F0B1FA0246C0
:10815C000B461046194640F0FBFC03469AB2794B8D
:10816C001A80794A794BD31ADB081B0443F00504B7
:10817C000CF0EAFD0246764B1B781946754B53F80A
:10818C002130754920463DF06EFF6F4A6F4BD31A74
:10819C00DB081B0443F005060CF0D6FD8046654B4E
:1081AC00D3E900014FF000024FF0000340F04EFC09
:1081BC000346002B0CD05F4BD3E900014FF00002BB
:1081CC00664B40F027FC0346002B01D0644F00E0C7
:1081DC00644F584BD3E900231046194640F052FC2B
:1081EC0003460393534BD3E900014FF000024FF0C9
:1081FC00000340F00FFC0346002B18D04D4BD3E985
:10820C0000454C4BD3E900231046194640F03AFC8C
:10821C000346184640F0AEFC02460B462046294663
:10822C0040F042FA02460B461046194613E0414B09
:10823C00D3E900231046194640F024FC03461846A7
:10824C0040F098FC3B4BD3E9002340F02DFA02465A
:10825C000B46104619464FF00002434B40F028FAEB
:10826C0002460B461046194640F00CFC034601939F
:10827C00039B00933B4642463C4930463DF01DFF74
:10828C00314A324BD31ADB081B0443F005060CF0C1
:10829C005BFD8046294BD3E900014FF000024FF003
:1082AC00000340F0D3FB0346002B0CD0234BD3E947
:1082BC0000014FF00002294B40F0ACFB0346002BB1
:1082CC0001D0274F00E0274F1C4BD3E90023104669
:1082DC00194640F0D7FB03460393184BD3E9000132
:1082EC004FF000024FF0000340F094FB0346002BCC
:1082FC003ED0124BD3E90045104BD3E90023104676
:10830C00194640F0BFFB0346184640F033FC0246CA
:10831C000B462046294640F0C7F902460B4610464C
:10832C00194639E00000000080846E41333333334A
:10833C003333E33FA87B00200000F03FB07B0020EC
:10834C00D4380020D63800200CB30600CCB206007E
:10835C00425400207CB8060044B506000000F0BF73
:10836C0060B5060064B506000000594068B506000B
:10837C00AB4BD3E900231046194640F083FB034670
:10838C00184640F0F7FBA64BD3E9002340F08CF9DC
:10839C0002460B46104619464FF00002A14B40F026
:1083AC0087F902460B461046194640F06BFB034614
:1083BC000193039B00933B4642469B4930463DF05C
:1083CC007CFE9A4A9A4BD31ADB081B0443F0050433
:1083DC000CF0BAFC0246974B1B88974920463DF09F
:1083EC0042FE924A924BD31ADB081B0443F005045D
:1083FC000CF0AAFC0246914B1B78914920463DF0AB
:10840C0032FE8A4A8A4BD31ADB081B0443F005045C
:10841C000CF09AFC02468B4B1B688B4920463DF0B6
:10842C0022FE00230B93854B1B78002B00F01E8142
:10843C00844B1B68184622F03DFD0A90834B1B6849
:10844C00002B08D10A9B184641F0A6FF03461A469A
:10845C007E4B1A6016E07D4B1B6840F6BC711846CB
:10846C0026F0E4FE0346002B0CBF01230023DBB2F5
:10847C000993099B002B05D1754A40F20621002077
:10848C0038F0ACFD714B1B68002B0ED1674A684B62
:10849C00D31ADB081B0443F005040CF055FC024610
:1084AC000A9B6C4920463DF0DEFD684B18686A4B10
:1084BC001B781A46694B53F82210694B1B78C3F191
:1084CC00020240F6030322F013FD0B900B9B002BD2
:1084DC0010DA564A564BD31ADB081B0443F005043A
:1084EC000B9818F0A9FA03461A465E4920463DF04F
:1084FC00A9FD0EE1554B1B684FF4FA4240F6A271F0
:10850C00184626F093FE0B90504B1B68102240F639
:10851C00C471184626F08AFE0346002B0CBF0123BB
:10852C000023DBB20893089B002B05D1484A40F28C
:10853C001721002038F052FD444B1B68002240F6F6
:10854C00AA71184626F072FE0346002B0CBF0123BD
:10855C000023DBB20793079B002B05D13C4A4FF459
:10856C000671002038F03AFD384B1B6800224FF49E
:10857C007B61184626F05AFE0346002B0CBF0123E4
:10858C000023DBB20693069B002B05D1304A40F248
:10859C001921002038F022FD2C4B1B68002240F6DC
:1085AC00AC71184626F042FE0346002B0CBF01238B
:1085BC000023DBB20593059B002B05D1244A40F226
:1085CC001A21002038F00AFD204B1B68002240F6CF
:1085DC00AE71184626F02AFE0346002B0CBF012371
:1085EC000023DBB20493049B002B05D1184A40F204
:1085FC001B21002038F0F2FC0B9B002B36DA0B4AC7
:10860C000B4BD31ADB081B0443F005040B9818F032
:10861C0013FA03461A46144920463DF013FD78E040
:10862C00B07B00200000594090B506000CB306004A
:10863C00CCB20600D6380020B4B50600A07B0020D2
:10864C00D8B506003C540020FCB50600D0380020FC
:10865C0058B406001CB60600425400207CB8060034
:10866C00947B00205CB6060080B606002A4B1B8863
:10867C0019462A4801F002FC0C9B002B04D0284917
:10868C0040F232200DF0C4F9264A274BD31ADB08EE
:10869C001B0443F005040CF057FB03461A46234910
:1086AC0020463DF0CFFC1F4A1F4BD31ADB081B049E
:1086BC0043F005040CF048FB0246174B1B881C4981
:1086CC0020463DF0D0FC1B494FF000024FF0000358
:1086DC00C1E900232D20FEF7DBFE01200CF020FC6D
:1086EC00FFF736FB0346002B13D00E4A0E4BD31A62
:1086FC00DB081B0443F005040CF026FB03461A466A
:10870C000D4920463DF09EFC0122012100200AF07B
:10871C008BFE0EB0BDE8F0815C7B00204454002041
:10872C0058B406000CB30600CCB206009CB606008A
:10873C00BCB60600687B0020DCB60600024B1B684A
:10874C00DBB21846704700BF3C54002010B586B011
:10875C0001905E4A03AB07CA83E8070000238DF83B
:10876C000D3006238DF816300E238DF80E301023A5
:10877C008DF80F30019B002B00F09D80019BDB7965
:10878C00FF2B13D0524A534BD31ADB081B0443F074
:10879C0005040CF0D9FA0246019BDB794E492046C0
:1087AC003DF061FC019BDB798DF80C30019B1B6863
:1087BC00FF2B12D0464A474BD31ADB081B0443F05D
:1087CC0005040CF0C1FA0246019B1B684349204684
:1087DC003DF049FC019B1B680493019B5B79FF2BCB
:1087EC0013D03B4A3B4BD31ADB081B0443F0050464
:1087FC000CF0AAFA0246019B5B79394920463DF000
:10880C0032FC019B5B798DF81430019B9B79FF2B1B
:10881C0013D02F4A2F4BD31ADB081B0443F005044B
:10882C000CF092FA0246019B9B792E4920463DF0B2
:10883C001AFC019B9B798DF81530019B1B79FF2B42
:10884C0014D0234A234BD31ADB081B0443F0050432
:10885C000CF07AFA0246019B1B79234920463DF025
:10886C0002FC019B1B799AB2204B1A80019B1B7A4C
:10887C00FF2B18D0164A174BD31ADB081B0443F0F6
:10888C0005040CF061FA0246019B1B79184920463D
:10889C003DF0E9FB019B1B7A002B14BF0123002345
:1088AC00DAB2144B1A70019B5B7AFF2B03D0019B3D
:1088BC005A7A114B1A70054B1C4603AB93E8070010
:1088CC0084E8070000BF06B010BD00BF947B0020F9
:1088DC000CB30600CCB2060004B7060028B706009D
:1088EC0054B706007CB70600A8B706006437002012
:1088FC00D8B70600A07B0020D838002008B5034B61
:10890C0000221A7001F020FB00BF08BD707B002014
:10891C0010B52D20FEF7D0FD0C4B1B78DBB2002BD5
:10892C0003D0FFF7EBFF01F08FFA094A094BD31A7A
:10893C00DB081B0443F005040CF006FA03461A4648
:10894C00054920463DF07EFB00BF10BD707B00202A
:10895C000CB30600CCB2060008B80600014B1B781D
:10896C0018467047907B002082B003468DF8073084
:10897C00034A9DF80730137000BF02B0704700BF68
:10898C00907B0020F0B583B0CDE900015249DDE9C0
:10899C000023C1E90023514B1B68DA171E4617460A
:1089AC004D4BD3E9002302FB07F006FB03F1014416
:1089BC00A6FB02454B191D462046294640F0ECF813
:1089CC00474BD3E900233FF073FE02460B4610469B
:1089DC0019464FF00002434B3FF002FF02460B4694
:1089EC001046194640F074F802460B463E49C1E960
:1089FC0000233D4BD3E900231046194640F0CCF838
:108A0C0004460D46354B1B68184640F0B3F8064635
:108A1C000F46334BD3E900014FF00002334B3FF0CC
:108A2C0047FE02460B46104619464FF000022D4BEE
:108A3C003FF0D6FE02460B46104619464FF0000298
:108A4C002B4B3FF011FD02460B4643EC172BB0EEBF
:108A5C00470AF0EE670A40F001FB53EC102B30464E
:108A6C0039463FF025FE02460B46204629463FF08C
:108A7C00FBFC02460B461046194640F029F802460C
:108A8C000B461C49C1E900231B4A1C4BD31ADB08BB
:108A9C001B0443F00500144BD3E9002313461A467C
:108AAC0017493DF0CFFA144A144BD31ADB081B04B8
:108ABC0043F005000F4BD3E9002313461A46114926
:108ACC003DF0C0FA104B00221A70104B01221A70A4
:108ADC0000BF03B0F0BD00BF683700203C5400203D
:108AEC00A87B002000408F407037002000004940D8
:108AFC000000F03F783700200CB30600CCB2060023
:108B0C0024B8060050B80600A17B0020917B002001
:108B1C002DE9F00F8CB0CDE9040102931346ADF8AA
:108B2C000E30DDE90401474BD3E9002310EB0208BA
:108B3C0041EB0309CDE90489BDF80E305B089BB20B
:108B4C009BB200221C461546DDE90423161943EBA3
:108B5C000507CDE90A673C4BD3E90001DDE90423A5
:108B6C00904271EB030308DB374BD3E90023DDE9BB
:108B7C000A01904271EB030323DA334BD3E9002350
:108B8C00DDE90401904271EB030308DB2F4BD3E9C1
:108B9C000023DDE90A01904271EB030311DB2B4B3F
:108BAC00D3E90023DDE90401904271EB030342DABF
:108BBC00264BD3E90023DDE90A01904271EB030354
:108BCC0039DB214BD3E90001DDE90423824273EB4D
:108BDC00010401DA02460B46CDE908231B4BD3E90D
:108BEC000001DDE90A23904271EB030401DA02462D
:108BFC000B46CDE90623029B1C68DDE90801DDE983
:108C0C000423851A009561EB03030193009B5B0021
:108C1C00E218029B1A60DDE90601DDE90823B0EBDE
:108C2C00020A61EB030B1FFA8AF35B009AB2149BE6
:108C3C001A80012300E0002318460CB0BDE8F00FA9
:108C4C00704700BF887B00207037002078370020E9
:108C5C0030B482B0CDE90001DDE90001154BD3E958
:108C6C000023841841EB0305CDE90045124BD3E9F1
:108C7C000023012A73F1000317DB0F4BD3E9002308
:108C8C00DDE90001904271EB03030EDB0B4B1B780B
:108C9C0083F00103DBB2002B07D0084B01221A70C2
:108CAC00074B00221A70012300E00023184602B083
:108CBC0030BC7047887B002078370020A17B0020D7
:108CCC00917B002000B583B000F0A2FC03468DF828
:108CDC00073001224FF47A71044800F0FFFB9DF835
:108CEC000730184603B05DF804FB00BF90B80600CF
:108CFC0008B5012240F21A61024800F0EFFB00BFF8
:108D0C0008BD00BF78D7002000B587B0039040F2B3
:108D1C00827305932E4A2F4BD31ADB081B0443F0A6
:108D2C0003002D4BD3ED007AF5EEC07AF1EE10FA7C
:108D3C000BD5294BD3ED007ABFEE007AF4EEC77A4F
:108D4C00F1EE10FA01DD254A00E0254A224BD3ED65
:108D5C00007AFDEEE77A17EE901A1F4BD3ED007AEE
:108D6C00F5EEC07AF1EE10FA0CDD1B4B93ED007AA8
:108D7C00194BD3ED007AFDEEE77AF8EEE77A77EE51
:108D8C00677A0BE0144BD3ED007AFDEEE77AB8EE80
:108D9C00E77A114BD3ED007A77EE677A9FED117A73
:108DAC0067EE877AFDEEE77A17EE903A00930B4662
:108DBC000D493DF06CF9039A40F21A610B4800F032
:108DCC008DFB00F0BDFB00BF07B05DF804FB00BFDE
:108DDC000CB30600CCB206008037002094CC060001
:108DEC0098CC06000000C8429CCC060060C006006F
:108DFC0082B00190019B1B68024A136000BF02B055
:108E0C00704700BF8037002082B003468DF80730D2
:108E1C009DF90730002B0CDB9DF8073003F01F0287
:108E2C0005499DF907305B09012000FA02F241F86F
:108E3C00232000BF02B0704700E100E082B003467F
:108E4C008DF807309DF90730002B13DB9DF80730A8
:108E5C0003F01F0209499DF907305B09012000FA54
:108E6C0002F2203341F82320BFF34F8F00BFBFF332
:108E7C006F8F00BF00BF02B0704700BF00E100E081
:108E8C0082B0034600918DF807309DF90730002B16
:108E9C000ADB009BDAB20C499DF907305201D2B2C1
:108EAC000B4483F800230BE0009BDAB207499DF8D2
:108EBC00073003F00F03043B5201D2B20B441A7675
:108ECC0000BF02B0704700BF00E100E000ED00E021
:108EDC0000B583B003460A468DF8073013468DF86B
:108EEC0006309DF80630012B03D99DF80630032B74
:108EFC000BD99DF80630042B03D99DF80630072BAF
:108F0C0003D908496B200CF083FD9DF806209DF9D0
:108F1C00073011461846FFF7B3FF00BF03B05DF8EA
:108F2C0004FB00BFACCC060000B583B003468DF843
:108F3C0007309DF907301846FFF766FF00BF03B0F6
:108F4C005DF804FB00B583B003468DF807309DF93E
:108F5C0007301846FFF772FF00BF03B05DF804FB43
:108F6C0000B583B00190019B1B68184600F075F8A2
:108F7C000346002B04D10B494FF4F6700CF048FD5E
:108F8C00019B1B681F2B02D84FF0A04306E0019BEE
:108F9C001B6803F01F02019B1A60034B184603B0B9
:108FAC005DF804FBDCCC06000003005000B585B076
:108FBC000190084611461A4603468DF803300B46BD
:108FCC008DF8023013468DF8013001AB1846FFF7CF
:108FDC00C7FF03909DF803209DF802305B001A43F5
:108FEC009DF801309B001A439DF818301B0242EA91
:108FFC0003019DF81C301B04019A1943039B02F5D5
:10900C00E07243F8221000BF05B05DF804FB00B518
:10901C0085B00390002301930023009300230122C9
:10902C0001210398FFF7C2FF00BF05B05DF804FBF8
:10903C0000B585B003900B468DF80B309DF80B30C6
:10904C000022019200220092002200210398FFF7D7
:10905C00ADFF00BF05B05DF804FB84B00190019B2F
:10906C005B09029300230393029B002B03D0029B0A
:10907C00012B04D007E04FF0FF33039303E04FF6CE
:10908C00FF73039300BF019B03F01F030193039A2B
:10909C00019B22FA03F303F00103002B14BF0123FD
:1090AC000023DBB2184604B0704782B001900B4627
:1090BC008DF803309DF80330019A134401221A6095
:1090CC0000BF02B0704784B001900B46ADF802307F
:1090DC00BDF80230019A134400221A60BDF8023028
:1090EC00019A13441B680393039B00BF04B07047A1
:1090FC0082B001900B46ADF80230BDF80230019AF7
:10910C0013441B68002B14BF01230023DBB2184649
:10911C0002B0704782B001900091019B009AC3F895
:10912C00042300BF02B0704782B001900091019BF4
:10913C00009AC3F8082300BF02B0704782B00190B8
:10914C00019B0122C3F8002500BF02B0704782B01A
:10915C000190019B0022C3F8002500BF02B07047AC
:10916C0084B00390029101920093039B029AC3F87E
:10917C006425039B019AC3F86825039B009AC3F8E6
:10918C006025039B049AC3F87025039B059AC3F8CA
:10919C006C2500BF04B0704782B0019008461146A0
:1091AC001A4603468DF803300B468DF802301346F1
:1091BC008DF801309DF80330002B21D19DF808303B
:1091CC00012B03D19DF81430012B17D09DF80830DA
:1091DC00022B15D19DF81430002B0FD09DF81430B4
:1091EC00022B0BD09DF81430042B07D09DF81430B3
:1091FC00062B03D09DF81430082B01D100232EE050
:10920C009DF80320019BC3F804259DF80220019BC7
:10921C00C3F824259DF80120019BC3F820259DF857
:10922C000820019BC3F81C259DF80C20019BC3F85A
:10923C0028259DF81420019BC3F81825049B002BAE
:10924C0004D1019B0022C3F8102507E0019B049A6E
:10925C00C3F81425019B0122C3F8102501231846DD
:10926C0002B0704700B585B00390019200930B4695
:10927C00ADF80A30BDF80A20039BC3F850250199BC
:10928C00039800F01CF8019B002B14BF0123002352
:10929C00DBB21A46039BC3F808250099039800F02B
:1092AC0018F8009B002B14BF01230023DBB21A46D5
:1092BC00039BC3F80C2500BF05B05DF804FB82B01E
:1092CC0001900091009A019BC3F8382500BF02B0B1
:1092DC00704782B001900091009A019BC3F8402521
:1092EC0000BF02B07047000000B583B040F21A63B3
:1092FC00ADF80630394BDB881A46384B9B88013B5E
:10930C009A4214D1354B1B8A354AA2FB0312D2095F
:10931C0040F21A6101FB02F29B1AADF80630BDF85F
:10932C000630002B03D140F21A63ADF8063000234F
:10933C00009321E0BDF80630009A9A4214DA274BCC
:10934C001A68264BDB88194640F21A6303FB01F1BD
:10935C00009B0B445B001344B3F900301946214ABF
:10936C00009B42F8231004E01E4A009B002142F8A7
:10937C002310009B01330093009B40F2196293422F
:10938C00D8DD184B002240F21A611748FFF76AFF2C
:10939C00124BDB88002B09D1144B1B68012B05DC0D
:1093AC00124B1B680133114A136005E00B4BDB8831
:1093BC0001339AB2094BDA80084BDA88074B9B8849
:1093CC009A4207D1054BDB680133044AD360034B47
:1093DC000022DA8000BF03B05DF804FBACE3002090
:1093EC007B6DFA14C0E3002000500240843700204B
:1093FC0008B5104B0022DA800E4B0022DA600D4BC0
:10940C0001229A740C48FFF799FE4FF482710A48B6
:10941C00FFF759FE4FF48A710748FFF754FE4FF4DB
:10942C0084710548FFF74FFE20210348FFF772FEB9
:10943C0000BF08BDACE300200050024008B5204B33
:10944C009B7C002B02D01E4B00229A744FF48A7125
:10945C001C48FFF74DFE0346002B2FD04FF48A71AA
:10946C001848FFF730FE164BDA68154B9B689A428A
:10947C0014D104211348FFF718FE134B01221A6074
:10948C00124B01221A6020210E48FFF74DFE0D48A9
:10949C00FFF75DFE0A4B01229A740FE00C4A0D4B4C
:1094AC00D31ADB081B0443F00500054BDA68044BA8
:1094BC009B6809493CF0D7FDFFF716FF00BF08BDBC
:1094CC00ACE3002000500240385002403C500240B7
:1094DC000CB30600CCB206000CCD060000B585B06E
:1094EC0003900B460192ADF80A30134B9B7C83F032
:1094FC000103DBB2002B01D0002319E00E4A039BC1
:10950C0013600D4ABDF80A301382BDF80A30013BD6
:10951C000A4A82FB0312D211DB17D31A9BB2013316
:10952C009AB2054B9A80044A019B9360FFF760FF47
:10953C00184605B05DF804FBACE300207B6DFA1413
:10954C0008B500210248FFF7B0FD00BF08BD00BF01
:10955C000050024000B589B00390039B9B79002B0F
:10956C000AD1039B1B781846FFF751FD039B5B78D0
:10957C001846FFF74CFD0BE0039B1B7800211846A7
:10958C00FFF756FD039B5B7800211846FFF750FD53
:10959C00039B9B78FF2B06D0039B9B780793079824
:1095AC00FFF735FD02E04FF0FF330793039BDB78A9
:1095BC00FF2B06D0039BDB7806930698FFF727FD5D
:1095CC0002E04FF0FF330693039B1B79FF2B07D070
:1095DC00039B1B79059300210598FFF729FD02E0F9
:1095EC004FF0FF330593039B1B781946039B5B7865
:1095FC001A46059B0193069B0093079B0348FFF7B4
:10960C00AFFD00BF09B05DF804FB00BF0050024085
:10961C0070B58AB00D238DF8143020238DF81530D9
:10962C00FF238DF8163011238DF81730FF238DF89A
:10963C00183006238DF8193000238DF81A300023CA
:10964C008DF81B3000238DF81C3001238DF81D3054
:10965C0000238DF81E304FF08053089302238DF8B1
:10966C0024309DF81A409DF81B509DF81C609DF805
:10967C001D309DF81E2008999DF82400039002913E
:10968C000192009333462A4621460F48FFF784FD8A
:10969C00034683F00103DBB2002B01D0002310E062
:1096AC0005AB1846FFF756FF9DF8193019462520D3
:1096BC00FFF70EFC2520FFF737FC044B01229A74B0
:1096CC00012318460AB070BD00500240ACE30020E4
:1096DC0008B5074B01221A60064B01221A60064896
:1096EC00FFF735FD2520FFF72DFC0123184608BD9B
:1096FC00385002403C5002400050024082B00346B9
:10970C008DF807309DF90730002B0CDB9DF80730E6
:10971C0003F01F0205499DF907305B09012000FA8F
:10972C0002F241F8232000BF02B0704700E100E0D4
:10973C0082B003468DF807309DF90730002B13DB00
:10974C009DF8073003F01F0209499DF907305B09AA
:10975C00012000FA02F2203341F82320BFF34F8F8F
:10976C0000BFBFF36F8F00BF00BF02B0704700BFD8
:10977C0000E100E082B0034600918DF807309DF9BE
:10978C000730002B0ADB009BDAB20C499DF907303D
:10979C005201D2B20B4483F800230BE0009BDAB2E7
:1097AC0007499DF8073003F00F03043B5201D2B276
:1097BC000B441A7600BF02B0704700BF00E100E016
:1097CC0000ED00E000B583B003460A468DF8073083
:1097DC0013468DF806309DF80630012B03D99DF801
:1097EC000630032B0BD99DF80630042B03D99DF8BA
:1097FC000630072B03D908496B200CF009F99DF8AA
:10980C0006209DF9073011461846FFF7B3FF00BF3D
:10981C0003B05DF804FB00BF24CD060000B583B097
:10982C0003468DF807309DF907301846FFF766FFA1
:10983C0000BF03B05DF804FB00B583B003468DF8A0
:10984C0007309DF907301846FFF772FF00BF03B0D1
:10985C005DF804FB82B003468DF807309DF80730A5
:10986C0003F1804303F5E83301221A6000BF02B014
:10987C00704782B00346ADF80630BDF8063003F1F0
:10988C00804303F5E8331B68002B14BF012300232E
:10989C00DBB2184602B0704784B00346ADF8063010
:1098AC00BDF8063003F1804303F5E83300221A605B
:1098BC00BDF8063003F1804303F5E8331B680393CE
:1098CC00039B00BF04B0704782B00190034A019B18
:1098DC00C2F8043300BF02B0704700BF00D0014093
:1098EC00024B0122C3F8002500BF704700D0014095
:1098FC00024B0022C3F8002500BF704700D0014086
:10990C0082B003460A468DF8073013468DF80630B0
:10991C009DF8073003F001029DF806305B0003F060
:10992C00020303491343C1F8083500BF02B0704766
:10993C0000D0014082B00190034A019BC2F804356B
:10994C0000BF02B0704700BF00D0014082B0019050
:10995C000091054A019BC2F84035034A009BC2F8AE
:10996C00443500BF02B0704700D00140054B4FF0AA
:10997C000042C3F84025034B4FF00042C3F8442586
:10998C0000BF704700D0014082B003460A468DF8F4
:10999C00073013468DF80630064A9DF80730C2F89A
:1099AC001835044A9DF80630C2F81C3500BF02B0C9
:1099BC00704700BF00D0014082B001900091054A71
:1099CC00019BC2F86035034A009BC2F8643500BFA6
:1099DC0002B0704700D0014000B583B00190019BEC
:1099EC001B68184600F093F80346002B04D10B4972
:1099FC004FF4F6700CF00CF8019B1B681F2B02D86F
:109A0C004FF0A04306E0019B1B6803F01F02019B73
:109A1C001A60034B184603B05DF804FB54CD0600E6
:109A2C000003005000B585B00190084611461A4657
:109A3C0003468DF803300B468DF8023013468DF833
:109A4C00013001AB1846FFF7C7FF03909DF80320C8
:109A5C009DF802305B001A439DF801309B001A43BD
:109A6C009DF818301B0242EA03019DF81C301B04C0
:109A7C00019A1943039B02F5E07243F8221000BFD0
:109A8C0005B05DF804FB00B585B00390002301938D
:109A9C00002300930023012201210398FFF7C2FF4A
:109AAC0000BF05B05DF804FB00B585B003900B4614
:109ABC008DF80B309DF80B300022019200220092A1
:109ACC00002200210398FFF7ADFF00BF05B05DF841
:109ADC0004FB00B585B0019001AB1846FFF77CFF85
:109AEC000390019B012202FA03F31946039800F03C
:109AFC0004F800BF05B05DF804FB82B00190009142
:109B0C00019B009AC3F80C2500BF02B0704784B0CB
:109B1C000190019B5B09029300230393029B002B92
:109B2C0003D0029B012B04D007E04FF0FF330393CB
:109B3C0003E04FF6FF73039300BF019B03F01F0379
:109B4C000193039A019B22FA03F303F00103002B08
:109B5C0014BF01230023DBB2184604B07047000089
:109B6C0000B58FB04FF48070FFF783FE0346002BD7
:109B7C0068D04FF48070FFF78FFE6C4B9B7C8DF898
:109B8C0036306A4B9B7C03F00103002B0CBF012386
:109B9C000023DBB28DF835309DF83530634A9B00DD
:109BAC0013445B68002B04D1604B5B7CDBB2022B53
:109BBC002BD100238DF830305C4B0022DA745B4BD8
:109BCC005B7CDBB2022B05D100230B93574B01229C
:109BDC005A7411E09DF83630544A9B0013445B686C
:109BEC000B939DF83630514A9B00134400225A6067
:109BFC004E4A9DF83530937401238DF828304B4B29
:109C0C001B680AAA1046984713E0484BDB7C002BD4
:109C1C000FD100238DF81C300023089301238DF8FD
:109C2C002430424B0122DA74404B1B6807AA1046C1
:109C3C0098473E4B5B7CDBB2022B5DD13B4B012248
:109C4C005A7459E04FF48270FFF713FE0346002B51
:109C5C0052D04FF48270FFF71FFEFFF749FE334BD3
:109C6C0000225A7400238DF8183000238DF8103020
:109C7C002E4B9B7C2D4A9B0013445B68002B12D00F
:109C8C002A4B9B7C294A9B0013445B680593274B0A
:109C9C009B7C264A9B00134400225A60234B1B6872
:109CAC0004AA10469847214B9B7C03F00103002B20
:109CBC000CBF01230023DBB28DF837309DF8373011
:109CCC001A4A9B0013445B68002B12D09DF8373066
:109CDC00164A9B0013445B6805939DF83730134A72
:109CEC009B00134400225A60104B1B6804AA1046B8
:109CFC0098470E4B00229A740C4B1B7DDBB2002B49
:109D0C000FD001238DF804300023029300238DF82B
:109D1C000C30064B00221A75044B1B6801AA104626
:109D2C00984700BF0FB05DF804FB00BF28FC002073
:109D3C0000B585B001900091019B002B03D14049E7
:109D4C00B6200BF065FE009B002B03D13C49B720DD
:109D5C000BF05EFE3B4B1B7C002B03D008230393C4
:109D6C00039B69E0019B1B7A502B03D8019B5B7A08
:109D7C00502B03D907230393039B5DE0314B002247
:109D8C005A60304B00229A602E4B00229A742D4B55
:109D9C000022DA742B4A009B13602A4B00225A745F
:109DAC00019B5B681846FFF7C5FD019B1A78019B68
:109DBC005B7819461046FFF7A3FD019B1A7A019BAD
:109DCC005B7A19461046FFF7DFFD019B9B7818461E
:109DDC00FFF759FE019B9B781846FFF77AFE019B13
:109DEC00DB7800211846FFF75FFE019B9B781A4633
:109DFC00019BDB7819461046FFF7A8FD4FF48070E5
:109E0C00FFF74AFD4FF48470FFF746FD4FF4827064
:109E1C00FFF742FD0320FFF757FD019B9B7A194684
:109E2C001D20FFF7CFFC1D20FFF7F8FC054B01228E
:109E3C001A7400230393039B184605B05DF804FBCA
:109E4C0088CD060028FC002008B5FFF751FDFFF770
:109E5C008DFD024B00221A7400BF08BD28FC0020A7
:109E6C0008B5054B02221A74FFF73AFD4FF48070C7
:109E7C00FFF712FD00BF08BD28FC002000B585B01F
:109E8C0001900B46ADF802302E4B1B7C002B01D100
:109E9C00082352E02B4B5B7CDBB2032B01D111234B
:109EAC004BE0019B002B03D0BDF90230002B01DAF3
:109EBC00072342E0002303931D20FFF7BDFC214B39
:109ECC009B7C03F00103002B0CBF01230023DBB2AE
:109EDC008DF80B301B4B5B7CDBB2022B02D10023C9
:109EEC008DF80B309DF80B30164A9B0013445B68C1
:109EFC00002B02D0112303931BE09DF80B30114A69
:109F0C009B001344019A5A609DF80B300D4A0433A0
:109F1C005B001344BDF802209A80BDF8023019464C
:109F2C000198FFF749FD074B1B7C022B01D0FFF773
:109F3C0097FF1D20FFF772FC039B184605B05DF8D8
:109F4C0004FB00BF28FC002000B583B01A4B1B7C1F
:109F5C00002B04D1194940F253100BF059FD164B4C
:109F6C005B7CDBB2012B16D0134B5B7CDBB2002B82
:109F7C0004D0114B5B7CDBB2022B08D1FFF7B8FC91
:109F8C000D4B00225A7400230193019B0FE0112307
:109F9C000193019B0BE0084B01221A74064B032220
:109FAC005A740420FFF756FC00230193019B1846BA
:109FBC0003B05DF804FB00BF28FC002088CD060030
:109FCC0000B585B0039002910192039B029A1A602E
:109FDC00039B5B68002B07D14FF4806040F0DCF9E9
:109FEC0003461A46039B5A60039B00221A81039B6B
:109FFC0000225A8103994FF000024FF00003C1E98F
:10A00C000423039B00221A77039B00229A6100BF52
:10A01C0005B05DF804FB000000B58DB00390029113
:10A02C0013468DF80730039B9B6903F00303002B49
:10A03C000CBF01230023DBB20993099B002B04D135
:10A04C00284A1F21002036F0C9FF039B9B699B08FF
:10A05C00ADF82230039B1B68079300230B9300235E
:10A06C000A9336E00A9BDB00079A1344D3E90023DA
:10A07C00CDE904239DF8073083F00103DBB2002BFC
:10A08C0012D00B9B5A1C0B925B00029A1344BDF925
:10A09C0010201A800B9B5A1C0B925B00029A1344E3
:10A0AC00BDF914201A8011E00B9B5A1C0B925B001B
:10A0BC00029A1344BDF912201A800B9B5A1C0B9266
:10A0CC005B00029A1344BDF916201A800A9B0133D7
:10A0DC000A93BDF822300A9A9A42C3DB00BF0DB036
:10A0EC005DF804FBC4CD060000B585B00390029169
:10A0FC0013468DF80730039B5A68039B1B899B0002
:10A10C0013449DF807201A70039B1A89039B596806
:10A11C00039B1B899B000B44013292B25A80039B18
:10A12C001B8901339AB2039B1A81039B1A68039B08
:10A13C009B695B0013449DF807200299184640F078
:10A14C00F7FA039B9B699DF807205208D2B21A4478
:10A15C00039B9A610123184605B05DF804FB30B4EB
:10A16C0082B001900199D1E90401019CA4690025F8
:10A17C0022462B46904271EB030334BF012300238C
:10A18C00DBB2184602B030BC70470000F0B585B0A9
:10A19C000190019B5A68019B5B899B0013441B78BF
:10A1AC008DF80F30019B5A68019B5B899B0013440F
:10A1BC005B881B0A9BB2DAB2214B1A70019B5A685E
:10A1CC00019B5B899B0013445B88DAB21C4B5A7071
:10A1DC001C48019B1968019BD3E9042313465B00BF
:10A1EC000B449DF80F20194640F0A2FA9DF80F3051
:10A1FC009BB202339BB200221946114801F046FF74
:10A20C000346002B18D0019BD3E904239DF80F10B3
:10A21C004908C9B2C9B200200C460546161943EBD1
:10A22C000507019BC3E90467019B5B8901339AB263
:10A23C00019B5A81012300E00023184605B0F0BDB4
:10A24C0040FC002042FC002010B584B0019000239B
:10A25C008DF80F3000BF0198FFF781FF0346002BEC
:10A26C000CD00198FFF792FF0346002B06D09DF807
:10A27C000F305A1C8DF80F20032BECD90198FFF7E7
:10A28C006EFF034683F00103DBB2002B1AD0164A93
:10A29C00164BD31ADB081B0443F005040AF06EFDC1
:10A2AC0002460B461146019BD3E9042313460A468A
:10A2BC000F4920463BF0D7FE242006F0EFFE019B11
:10A2CC0000221A770198FFF74AFF0346002B14BFB0
:10A2DC0001230023DBB283F00103DBB203F00103A3
:10A2EC00DBB2184604B010BD0CB30600CCB20600AD
:10A2FC0000CE060082B00190019B00221A81019BC6
:10A30C0000225A8101994FF000024FF00003C1E97D
:10A31C000423019B00229A6100BF02B07047A8DFA2
:10A32C00704700BF184662DF704700BF184682B006
:10A33C000190019B1B781AB2019B01331B781B0205
:10A34C001BB213431BB29BB2184602B070470000FD
:10A35C0000B58DB0019002AB20220021184640F0D0
:10A36C001DFA41F20353ADF80830019B9B788DF830
:10A37C000A302023ADF80C300123ADF80E309DF8D7
:10A38C0015306FF304138DF815309DF8153043F02C
:10A39C0004038DF815309DF815306FF341038DF8DB
:10A3AC00153001238DF81A3001238DF81B30002352
:10A3BC008DF81430019B988B019B9A6802AB19465F
:10A3CC002CF004F80B900B9B0A930A9B002B04D0E7
:10A3DC00044A26210A9836F001FE002318460DB0D7
:10A3EC005DF804FB24CE060000B58DB0019002ABE5
:10A3FC0020220021184640F0D1F941F20653ADF865
:10A40C000830019B9B788DF80A30F523ADF80C30A1
:10A41C009DF8153043F010038DF815309DF815306C
:10A42C0043F020038DF815309DF8153043F00203EE
:10A43C008DF8153001238DF8193001238DF81B3060
:10A44C0001238DF81430019B988B019B9B6803F1C1
:10A45C00180202AB19462BF0B9FF0B900B9B0A9319
:10A46C000A9B002B04D0054A3F210A9836F0B6FD12
:10A47C00002318460DB05DF804FB00BF24CE060087
:10A48C0000B58DB0019002AB20220021184640F09F
:10A49C0085F941F20453ADF80830019B9B788DF897
:10A4AC000A30F523ADF80C309DF8153043F010034D
:10A4BC008DF815309DF8153043F020038DF81530CC
:10A4CC0001238DF81B3001238DF81430019B988BE0
:10A4DC00019B9B6803F1080202AB19462BF076FF37
:10A4EC000B900B9B0A930A9B002B04D0044A572118
:10A4FC000A9836F073FD002318460DB05DF804FB86
:10A50C0024CE060000B58DB0019002AB20220021B4
:10A51C00184640F043F941F20553ADF80830019B61
:10A52C009B788DF80A30F523ADF80C309DF815307A
:10A53C0043F010038DF815309DF8153043F02003CF
:10A54C008DF815309DF8153043F004038DF8153057
:10A55C0001238DF81B3001238DF81430019B988B4F
:10A56C00019B9B6803F1100202AB19462BF02EFFE6
:10A57C000B900B9B0A930A9B002B04D0044A6E2170
:10A58C000A9836F02BFD002318460DB05DF804FB3D
:10A59C0024CE060010B58AB00190264B02AC0FCB2E
:10A5AC0084E80F00019B4FF6FF721A80019B9A1CE6
:10A5BC0002AB11461846FFF7B6FE0990099B0893AB
:10A5CC00089B002B01D0089B31E0019B9B788DF8F8
:10A5DC001A304FF4A853ADF81830019B03F11C024C
:10A5EC0006AB19460120FFF79AFE0990099B0793C9
:10A5FC00079B002B01D0079B19E020203FF0CCFEDD
:10A60C0003461A46019B9A600198FFF7A1FE019838
:10A61C00FFF7EAFE0198FFF733FF0198FFF772FF8F
:10A62C00019B00225A61019B00229A61002318466B
:10A63C000AB010BD60CE060082B001900091009B64
:10A64C009A88019B1A8000BF02B0704782B00190BB
:10A65C000091019B4FF6FF721A8000BF02B0704749
:10A66C0010B58AB001900091009B06330893089BAB
:10A67C001A88019B9B6808331B889A420AD1914A1D
:10A68C00914BD31ADB081B0443F003038F49184684
:10A69C003BF0CAFC089B1A88019B9B6808339B887B
:10A6AC009A4224D1089B5B89022B20D1854A864B88
:10A6BC00D31ADB081B0443F00304089B0C33184625
:10A6CC00FFF735FE03461A46814920463BF0BAFC9B
:10A6DC00089B0C3318462BF0F1FD0346002B03D0DE
:10A6EC00102006F0DBFC02E0112006F0D7FC089BE2
:10A6FC000C330793089B1A88019B9B681B889A4212
:10A70C0040F0C780079B1B786D2B03D1072006F008
:10A71C00C5FCBEE0079B1B78732B03D1082006F009
:10A72C00BDFCB6E0079B1B78742B03D12A2006F0E6
:10A73C00B5FCAEE0089B1B7B132B03D1022006F06B
:10A74C00ADFCA6E0089B1B7B142B03D1122006F05A
:10A75C00A5FC9EE0079B1B78112B40D1079B013376
:10A76C001B78002B11D1574A574BD31ADB081B040B
:10A77C0043F00303574918463BF056FC0120FEF703
:10A78C0037FB312006F08AFC83E0079B01331B78F2
:10A79C00012B7ED10223099311E04A4A4A4BD31A6A
:10A7AC00DB081B0443F00300099B079A13441B7836
:10A7BC001A4649493BF046FC099B01330993099B16
:10A7CC00052BEADD089B0C3302331B68069306ABA2
:10A7DC001846FEF70DFB322006F060FC59E0079B93
:10A7EC001B78152B03D10F2006F058FC51E0079B6A
:10A7FC001B78122B40D1334A334BD31ADB081B0482
:10A80C0043F00303354918463BF00EFC079B01331C
:10A81C001B781A06079B02331B781B041A44079BF0
:10A82C0003331B781B021344079A04321278134427
:10A83C000393079B05331B788DF81030079B063369
:10A84C001B788DF81130079B07331B788DF812306D
:10A85C00079B08331B788DF81330079B09331B7843
:10A86C008DF81430079B0A331B788DF8153003AB29
:10A87C001846FDF76BFF0CE0124A134BD31ADB089A
:10A88C001B0443F00300079B1B781A4614493BF04A
:10A89C00D9FB089B1A88019B9B689B889A420ED116
:10A8AC00089B5B89022B0AD1064A074BD31ADB089B
:10A8BC001B0443F003030B4918463BF0B5FB00BFE8
:10A8CC000AB010BD0CB30600CCB2060070CE060068
:10A8DC008CCE0600A8CE0600BCCE0600C8CE060064
:10A8EC00D8CE0600F4CE060000B585B001900091DC
:10A8FC00009B0393039B002B1CD0019B002B19D0B6
:10A90C00019B1B88502B10D0502B15DC102B02D028
:10A91C00112B05D010E001990398FFF78DFE0CE088
:10A92C0001990398FFF792FE07E001990398FFF74E
:10A93C0097FE02E000BF00E000BF05B05DF804FB2D
:10A94C00AEDF704700BF1846024B00221A7000BFE2
:10A95C00704700BF30FD002082B001900091009B39
:10A96C001B8840F67722934205D1009B9B88033BC2
:10A97C009AB2019B1A8200BF02B0704710B58CB01E
:10A98C00039002910192ADF80230039B1B8AADF843
:10A99C002A30039B002B01D1012386E0BDF82A301D
:10A9AC00BDF802209A420DD9414A424BD31ADB081A
:10A9BC001B0443F00300039B1B8A1A463E493BF0E1
:10A9CC0041FB03E0BDF80230ADF82A3004AB0022A5
:10A9DC001A605A609A60DA60029B1B88ADF81030DE
:10A9EC009DF83830002B01D0022300E001238DF8B4
:10A9FC0012300DF12A030693019B079300230B934E
:10AA0C00039B1B8804AA11461846FFF799FF0B906D
:10AA1C000B9B132B01D1002347E00B9B002B0DD07C
:10AA2C00234A244BD31ADB081B0443F001030B9A73
:10AA3C00224918463BF006FB002336E0039B9B693A
:10AA4C00BDF82A201A44039B9A61039B5A69039B05
:10AA5C009B699B0A9A4227D0039B9B699A0A039B8A
:10AA6C005A6102238DF82030039B9B690993099B43
:10AA7C00990A134BA3FB01231A0913469B00134499
:10AA8C009B00CA1A002A0FD1094A0A4BD31ADB08B9
:10AA9C001B0443F005040AF057F90246099B9B0A74
:10AAAC00084920463BF0DFFA012318460CB010BDD4
:10AABC000CB30600CCB2060020CF060040CF060037
:10AACC00CDCCCCCC60CF060000B587B005900491FE
:10AADC000392ADF80A30BDF80A3000220092039AB6
:10AAEC0004990598FFF74AFF0346184607B05DF82E
:10AAFC0004FB000000B587B0059004910392ADF8FB
:10AB0C000A300F4B1B78DBB283F00103DBB2002B56
:10AB1C0010D0BDF80A3001220092039A04990598CE
:10AB2C00FFF72CFF0346002B04D0054B01221A70B3
:10AB3C00012300E00023184607B05DF804FB00BFBA
:10AB4C0030FD0020A8DF704700BF184662DF704759
:10AB5C0000BF184600B58DB0019002AB2022002139
:10AB6C0018463FF01BFE41F20343ADF80830019B41
:10AB7C009B788DF80A30F523ADF80C300123ADF835
:10AB8C000E309DF815306FF304138DF815309DF8C9
:10AB9C00153043F004038DF815309DF815306FF324
:10ABAC0041038DF8153001238DF81A3001238DF8EF
:10ABBC001B3000238DF81430019B988B019B9B68F4
:10ABCC0003F1080202AB19462BF000FC0B900B9B17
:10ABDC000A930A9B002B04D0044A27210A9836F0CA
:10ABEC00FDF9002318460DB05DF804FB78CF060084
:10ABFC0000B58DB0019002AB2022002118463FF029
:10AC0C00CDFD41F20443ADF80830019B9B788DF8E3
:10AC1C000A30F523ADF80C309DF8153043F01003D5
:10AC2C008DF815309DF8153043F020038DF8153054
:10AC3C009DF8153043F002038DF8153001238DF883
:10AC4C00193001238DF81B3001238DF81430019B32
:10AC5C00988B019B9A6802AB19462BF0B7FB0B90B3
:10AC6C000B9B0A930A9B002B04D0054A3F210A98A0
:10AC7C0036F0B4F9002318460DB05DF804FB00BFA4
:10AC8C0078CF060010B58AB00190234B02AC0FCBE5
:10AC9C0084E80F00019B4FF6FF721A80019B9A1CEF
:10ACAC0002AB11461846FFF751FF0990099B089318
:10ACBC00089B002B01D0089B2BE0019B9B788DF807
:10ACCC001A304FF4A053ADF81830019B03F11C025D
:10ACDC0006AB19460120FFF735FF0990099B079336
:10ACEC00079B002B01D0079B13E010203FF054FB77
:10ACFC0003461A46019B9A600198FFF72BFF0198B7
:10AD0C00FFF776FF019B00225A61019B00229A619A
:10AD1C00002318460AB010BDB4CF060082B00190D3
:10AD2C000091009B9A88019B1A8000BF02B070476B
:10AD3C0082B001900091019B4FF6FF721A8000BF08
:10AD4C0002B0704700B5A9B001900091009B06338A
:10AD5C002593259B1A88019B9B6808331B889A4274
:10AD6C0040F07E81259B0C332493249B1B78793BEC
:10AD7C000F2B00F2758101A252F823F029B00200CA
:10AD8C006DB002006DB002006DB002006DB002003B
:10AD9C006DB002006DB00200C9AD0200A7AE02009A
:10ADAC00CBAE02000BAE020031B0020065B0020067
:10ADBC0045AF0200B5AF0200BBAF0200249B0133CC
:10ADCC001B788DF87530249B02331B781A06249B54
:10ADDC0003331B781B041A44249B04331B781B027B
:10ADEC001344249A0532127813441C931C9BDA1CCE
:10ADFC009DF87530114618460AF0E6FB30E1249BAD
:10AE0C0001331B788DF88630249B02331B781A068D
:10AE1C00249B03331B781B041A44249B04331B7898
:10AE2C001B021344249A0532127813442093249B5A
:10AE3C0006331B781A06249B07331B781B041A4411
:10AE4C00249B08331B781B021344249A0932127872
:10AE5C0013441F93249B0A331B781A06249B0B3331
:10AE6C001B781B041A44249B0C331B781B021344C1
:10AE7C00249A0D32127813442793279B002B02D16E
:10AE8C004FF0004327931F9BDA1C279B03339DF83D
:10AE9C00860020990AF0FAFBE2E0249B01331B7830
:10AEAC008DF87630249B991C259B5B89DBB2023B89
:10AEBC00DAB29DF87630184605F014FDD0E0249BEC
:10AECC0001331E9302AB2022002118463FF066FC92
:10AEDC000AAB2022002118463FF060FC12AB202266
:10AEEC00002118463FF05AFC1E9B1B6803931E9BC7
:10AEFC005B6804931E9B9B6809931E9BDB68059300
:10AF0C001E9B1B6906931E9B5B690B931E9B9B6987
:10AF1C000C931E9BDB6913931E9B1B6A14931E9B45
:10AF2C0093F824308DF877309DF8773012AA0AA95F
:10AF3C0002A805F073F993E0249B01331B788DF87C
:10AF4C008D30494A494BD31ADB081B0443F00503E7
:10AF5C009DF88D20464918463BF074F8249B02332B
:10AF6C00229300238DF89B3017E09DF89B30DB007B
:10AF7C00229A13441B681A939DF89B30DB00043310
:10AF8C00229A13441B681B931AAB184603F02CFC33
:10AF9C009DF89B3001338DF89B309DF89B209DF8DC
:10AFAC008D309A42E1D35BE005F0F6FD58E0249B2E
:10AFBC0001331B78002B14BF012300238DF88F3035
:10AFCC00249B02331B788DF88E309DF88F30002B2C
:10AFDC0021D09DF98E30002B41D0012008F078F85B
:10AFEC009DF98E30002B08DD9DF88E30184608F048
:10AFFC0099F8962003F0DEF809E0962003F004F9A6
:10B00C009DF88E305B42DBB2184608F08BF80120BD
:10B01C0008F024F823E006F025FD20E02B2006F0B4
:10B02C003DF81DE0104A114BD31ADB081B0443F00A
:10B03C000503104918463AF0F7FF249B01331B789F
:10B04C00002B14BF012300238DF887309DF8873027
:10B05C00184603F017FB03E003F026FB00E000BFEB
:10B06C0000BF29B05DF804FB0CB30600CCB206009F
:10B07C00C4CF0600D4CF060000B585B00190009176
:10B08C00009B0393039B002B1CD0019B002B19D01E
:10B09C00019B1B88502B10D0502B15DC102B02D091
:10B0AC00112B05D010E001990398FFF737FE0CE047
:10B0BC0001990398FFF73CFE07E001990398FFF70D
:10B0CC0041FE02E000BF00E000BF05B05DF804FBEC
:10B0DC0082B003468DF807309DF90730002B0CDB4E
:10B0EC009DF8073003F01F0205499DF907305B09F5
:10B0FC00012000FA02F241F8232000BF02B0704791
:10B10C0000E100E082B003468DF807309DF907306E
:10B11C00002B0DDB9DF8073003F01F0206499DF94B
:10B12C0007305B09012000FA02F2603341F823205A
:10B13C0000BF02B0704700BF00E100E082B00346E0
:10B14C0000918DF807309DF90730002B0ADB009B2E
:10B15C00DAB20C499DF907305201D2B20B4483F894
:10B16C0000230BE0009BDAB207499DF8073003F08F
:10B17C000F03043B5201D2B20B441A7600BF02B04B
:10B18C00704700BF00E100E000ED00E082B0034634
:10B19C008DF807309DF90730002B09DB0B4A9DF920
:10B1AC000730134493F80033DBB25B09DBB20AE0DF
:10B1BC00074A9DF8073003F00F03043B13441B7E32
:10B1CC00DBB25B09DBB2184602B0704700E100E06D
:10B1DC0000ED00E076DF704700BF184677DF704760
:10B1EC0000BF18467ADF704700BF18467CDF7047F7
:10B1FC0000BF18467FDF704700BF18468FDF7047CF
:10B20C0000BF1846B1DF704700BF184645DF7047D6
:10B21C0000BF184682B003468DF807309DF9073001
:10B22C001F2B0CDC9DF907300F4A22FA03F303F0B5
:10B23C000103002B14BF01230023DBB210E09DF9A6
:10B24C0007303F2B0BDC9DF90730203B012202FA23
:10B25C0003F3002B14BF01230023DBB200E0012316
:10B26C00184602B0704700BFFC06FFBD82B00190CB
:10B27C00019B072B07D8EC22019B42FA03F303F046
:10B28C000103002B01D1002300E00123184602B07A
:10B29C007047000000B583B003468DF807309DF968
:10B2AC0007301846FFF7B6FF0346002B02D142F2D7
:10B2BC0001032EE09DF907301846FFF767FF0346A0
:10B2CC001846FFF7D3FF0346002B02D142F20203CC
:10B2DC001FE0124B9B68002B15D09DF907305B09C2
:10B2EC000E4A52F823209DF8073003F01F0301216A
:10B2FC0001FA03F319469DF907305B090A43074924
:10B30C0041F8232004E09DF907301846FFF7E0FED2
:10B31C000023184603B05DF804FB00BF249A0120FB
:10B32C0000B583B003468DF807309DF907301846F9
:10B33C00FFF770FF0346002B06D09DF90730184627
:10B34C00FFF7E0FE002301E042F20103184603B0D0
:10B35C005DF804FB00B583B0034600918DF807300F
:10B36C009DF907301846FFF755FF0346002B02D115
:10B37C0042F201030FE00098FFF778FF0346002B21
:10B38C0002D142F2020306E09DF9073000991846FB
:10B39C00FFF7D4FE0023184603B05DF804FB000051
:10B3AC0082B0ADF804009DF80430013B062B1AD88E
:10B3BC0001A252F823F000BFE1B30200E7B3020090
:10B3CC00E7B30200EDB30200F3B30200F3B30200E3
:10B3DC00E7B30200064B1B6807E0054B5B6804E013
:10B3EC00034B9B6801E0024BDB68184602B07047C8
:10B3FC00A037002000B587B09DF80030012262F321
:10B40C0003038DF800309DF80030012262F307131E
:10B41C008DF800306B46052219491846FFF7E6FEF9
:10B42C000590059B0493049B002B04D0154A9C218A
:10B43C00049835F0D3FD01AB0822002118463FF0EB
:10B44C00ADF90623ADF804300623ADF80630002321
:10B45C00ADF808304823ADF80A3001AB1846FFF7B9
:10B46C00C1FE0590059B0393039B002B04D0054A5A
:10B47C00A621039835F0B2FD00BF07B05DF804FBC0
:10B48C00ECCF0600F4CF060000B585B0019000911A
:10B49C00009B1B8840F67722934204D04DF67A220B
:10B4AC00934214D04CE0009B9B88033B9AB22F4BE9
:10B4BC001A802F4A2F4BD31ADB081B0443F00300CE
:10B4CC00009B9B881A462C493AF0BCFD38E0284A70
:10B4DC00284BD31ADB081B0443F00300009B1B7999
:10B4EC001A4626493AF0AEFD254B1B880DF1090290
:10B4FC00194624482CF0BEFF1D4A1E4BD31ADB08FC
:10B50C001B0443F003039DF809201F4918463AF029
:10B51C0099FD1B4B1B8819461A482CF054FF034607
:10B52C00ADF80A30124A134BD31ADB081B0443F054
:10B53C000303BDF80A20154918463AF083FD00BFF5
:10B54C00002303930AE0124A039B52F8233000991C
:10B55C001846FFF701FA039B01330393039B022B5D
:10B56C00F1DD00BF00BF05B05DF804FBEE0101206A
:10B57C000CB30600CCB2060034D0060068D006002E
:10B58C008837002034FD00208CD00600B0D0060097
:10B59C009037002000B585B019491A482CF0CCFE24
:10B5AC000390039B0293029B002B04D0164ACA21E2
:10B5BC00029835F013FDF52112482CF0E8FE0390AB
:10B5CC00039B0193019B002B04D00F4ACD210198C2
:10B5DC0035F004FDF9224FF6FF710A482CF00AFFF2
:10B5EC000390039B0093009B002B04D0064AD021B0
:10B5FC00009835F0F3FC00BF05B05DF804FB00BF0C
:10B60C0095B4020034FD0020F4CF060000B583B0E1
:10B61C000190044AD521019835F0E0FC00BF03B03D
:10B62C005DF804FBF4CF060000B589B0002302934B
:10B63C00304B029302AB19462F482CF0FFFF0790BA
:10B64C00079B0693069B002B04D02C4AE1210698FD
:10B65C0035F0C4FC01AB00210A461A800A469A70E8
:10B66C009DF80530012262F303038DF805309DF837
:10B67C000530012262F307138DF805309DF8063072
:10B68C00012262F303038DF806309DF80630012287
:10B69C0062F307138DF806301948FFF7F3FA079099
:10B6AC00079B0593059B002B04D0144AEA210598AF
:10B6BC0035F094FC1348FEF76DFF0790079B04933D
:10B6CC00049B002B04D00D4AF021049835F086FC25
:10B6DC000D4801F0A5F80790079B0393039B002BE3
:10B6EC0004D0064AF321039835F078FC00BF09B06A
:10B6FC005DF804FB19B6020048FD0020F4CF0600EB
:10B70C008C010120AC010120CC01012000B583B0DB
:10B71C000190019B1B78002B02D0012B0CD119E05E
:10B72C000E4A0F4BD31ADB081B0443F001030D49DF
:10B73C0018463AF079FC0DE0084A094BD31ADB089D
:10B74C001B0443F00300019B1B781A4606493AF090
:10B75C0079FC00BF00BF03B05DF804FB0CB306001E
:10B76C00CCB20600D0D006000CD1060000B583B0D8
:10B77C000190054A40F20D11019835F02FFC00BFE5
:10B78C0003B05DF804FB00BFF4CF060000B58BB02E
:10B79C0001AB1C22002118463FF000F80023019356
:10B7AC004FF4804302934FF42023039303238DF82B
:10B7BC0010300023ADF8123000238DF814300C4BF0
:10B7CC0006930C4B079301AB18462AF0C1F809906D
:10B7DC00099B0893089B002B05D0074A40F22111C6
:10B7EC00089835F0FBFB00BF0BB05DF804FB00BF05
:10B7FC0019B7020079B70200F4CF060010B584B077
:10B80C0003468DF807309DF80730002B20D0032B12
:10B81C0031D11C4A1C4BD31ADB081B0443F0050422
:10B82C0009F092FA03461A46184920463AF00AFCE7
:10B83C00012007F03DFE0390039B0293029B002B1B
:10B84C001BD0134A4FF49771029835F0C7FB14E0E4
:10B85C000C4A0D4BD31ADB081B0443F0050409F00A
:10B86C0073FA03461A460B4920463AF0EBFB0520C7
:10B87C0005F014FC02E000BF00E000BF00BF04B004
:10B88C0010BD00BF0CB30600CCB206002CD10600D4
:10B89C00F4CF060044D1060030B58FB00190009172
:10B8AC0000230D93019B1B88103B472B00F2358224
:10B8BC0001A252F823F000BF09BA0200E5B9020058
:10B8CC0071BA02005DBB020027BD020027BD020059
:10B8DC0027BD020027BD020027BD020027BD0200C4
:10B8EC0027BD020027BD020027BD020027BD0200B4
:10B8FC0027BD020027BD020027BD0200D3BA0200FB
:10B90C0005BB02007FBC020097BC020027BD0200F1
:10B91C0005BD020027BD020027BD020027BD0200A5
:10B92C0027BD020027BD020027BD020027BD020073
:10B93C0027BD020027BD020027BD020027BD020063
:10B94C0027BD020027BD020027BD020027BD020053
:10B95C0027BD020027BD020027BD020027BD020043
:10B96C0067BC0200DDBB020027BD020027BD020040
:10B97C0027BD020027BD020027BD020027BD020023
:10B98C0027BD020027BD020027BD020027BD020013
:10B99C0027BD020027BD020027BD020027BD020003
:10B9AC0027BD020027BD020027BD020027BD0200F3
:10B9BC0027BD020027BD020043BD020027BD0200C7
:10B9CC009DBB02001DBD020027BD020027BD020069
:10B9DC001BBC020059BC0200B24AB34BD31ADB08A1
:10B9EC001B0443F00303B14918463AF01DFB062033
:10B9FC0005F054FBAE4B00221A70A9E1A94AAA4BE0
:10BA0C00D31ADB081B0443F00303AA4918463AF087
:10BA1C000BFB022007F04CFD0D900D9B0593059B35
:10BA2C00002B05D0A44A4FF4A671059835F0D6FA30
:10BA3C00019B9A88A14B1A80A04B1B881946A048E1
:10BA4C002CF01EFE0D900D9B0493049B002B05D037
:10BA5C00994A40F24F11049835F0C0FA944B0122E8
:10BA6C001A7075E1019B5B89ADF81A30019B1B893B
:10BA7C00ADF818308B4A8C4BD31ADB081B0443F0FF
:10BA8C000300BDF8182013469B001344002B00DA6A
:10BA9C0003339B101946BDF81A2013469B00134420
:10BAAC00002B00DA03339B100A4686493AF0DBFA86
:10BABC00FF238DF80F300DF10F03012219460720DB
:10BACC0000F07AFD44E1804B1B88ADF80C30019BF3
:10BADC009B8803AA11461846FFF790FB0D900D9B0F
:10BAEC000893089B002B00F02881734A4FF4B57122
:10BAFC00089835F073FA20E1019B08330993099BF0
:10BB0C001B78232B00F01B810023ADF80830099B18
:10BB1C005B788DF80830099B9B788DF80930614A69
:10BB2C00614BD31ADB081B0443F00304099B1B78FD
:10BB3C00002B01D1654B00E0654B1D460298FFF7C9
:10BB4C002FFC03462A46634920463AF08CFAFFE064
:10BB5C00544A554BD31ADB081B0443F003035E49CC
:10BB6C0018463AF061FA554B1888002300228521BB
:10BB7C00FFF740FB0D900D9B0793079B002B00F0EC
:10BB8C00E0804D4A4FF4C371079835F027FAD8E09E
:10BB9C00444A454BD31ADB081B0443F003034F49BB
:10BBAC0018463AF041FA454B188800230022002130
:10BBBC00FFF728FB0D900D9B0B930B9B002B00F0BC
:10BBCC00C2803D4A4FF4C6710B9835F007FABAE0C3
:10BBDC00344A354BD31ADB081B0443F003034049AA
:10BBEC0018463AF021FA019B9B8813211846FFF75F
:10BBFC00F1FA0D900D9B0A930A9B002B00F0A58087
:10BC0C002D4A40F293110A9835F0E8F99DE0254A47
:10BC1C00254BD31ADB081B0443F0030331491846A8
:10BC2C003AF002FA019B9B8813211846FFF7D2FACF
:10BC3C000D900D9B0C930C9B002B00F088801E4AE2
:10BC4C004FF4CD710C9835F0C9F980E0264B0122E8
:10BC5C001A70042005F022FA7AE0124A124BD31A19
:10BC6C00DB081B0443F00303204918463AF0DCF9C7
:10BC7C006EE00C4A0C4BD31ADB081B0443F0030395
:10BC8C001B4918463AF0D0F962E0064A064BD31A23
:10BC9C00DB081B0443F00303164918463AF0C4F9B9
:10BCAC0056E000BF0CB30600CCB2060058D106001B
:10BCBC00EC01012068D10600F4CF06008837002083
:10BCCC0048FD002074D10600ECD2060098D1060085
:10BCDC00A4D10600B0D10600D0D10600E8D10600F0
:10BCEC0010D2060028D206008801012040D206009E
:10BCFC0060D2060088D20600174A184BD31ADB080C
:10BD0C001B0443F00303164918463AF08DF91FE063
:10BD1C00FEF71AFE00F088FB1AE00F4A0F4BD31AFD
:10BD2C00DB081B0443F00300019B1B881A460D49DA
:10BD3C003AF088F90CE000BF0AE000BF08E000BF51
:10BD4C0006E000BF04E000BF02E000BF00E000BF5F
:10BD5C0000BF0FB030BD00BF0CB30600CCB2060064
:10BD6C00A8D20600C8D2060000B587B03BF034F963
:10BD7C000590059B0493049B002B05D0164A4FF4A9
:10BD8C00E571049835F02AF90023019301AB1946AB
:10BD9C0001203BF037FA0590059B0393039B002B86
:10BDAC0005D00D4A4FF4E871039835F017F901AB43
:10BDBC0018463BF045FB0590059B0293029B002B1C
:10BDCC0005D0054A4FF4EA71029835F007F900BF27
:10BDDC0007B05DF804FB00BFF4CF060000B5AFB0B0
:10BDEC0001ABAC22002118463EF0D8FC02238DF8A2
:10BDFC00043000238DF8063006238DF8073001231C
:10BE0C00ADF81430124B069301238DF880304FF4AB
:10BE1C009673239344F2506324930E4B2A9301ABF5
:10BE2C0019460D4829F02EFA2D902D9B2C932C9B06
:10BE3C00002B05D0094A40F2ED112C9835F0CEF8C4
:10BE4C000121054829F011FA00BF2FB05DF804FB61
:10BE5C008C37002009B8020054FD0020F4CF0600F6
:10BE6C0082B003468DF8073000BF02B0704700B5B2
:10BE7C0085B001900B468DF8033013468DF80230D7
:10BE8C001520FFF74DFA0390039B002B01D0039B69
:10BE9C001BE001991520FFF75DFA0390039B002B23
:10BEAC0001D0039B11E01520FFF7F4F90390039BDD
:10BEBC00002B01D0039B08E09DF802209DF8033075
:10BECC0011461846FFF7A2F90346184605B05DF86F
:10BEDC0004FB000000B583B00E4B93F854309BB2BA
:10BEEC00082219460120FFF779F90190032109482E
:10BEFC0029F0A4FA0190019B0093009B002B05D024
:10BF0C00054A40F21621009835F068F800BF03B0DE
:10BF1C005DF804FB54FD0020F4CF060070B588B02A
:10BF2C00FFF722FF012201210320FFF7A0FF07905A
:10BF3C00079B0693069B002B05D0474A40F21D2118
:10BF4C00069835F04BF8FFF755FAFFF723FBFFF790
:10BF5C006BFBFFF743FFFFF719FC404B01221A70F4
:10BF6C003F4B00221A70002304930023ADF81430C9
:10BF7C004FF08053D3F8A8301B0ADBB263F03F03B9
:10BF8C00DBB28DF810304FF08053D3F8A830DBB211
:10BF9C008DF811304FF08053D3F8A4301B0EDBB268
:10BFAC008DF812304FF08053D3F8A4301B0CDBB259
:10BFBC008DF813304FF08053D3F8A4301B0ADBB24A
:10BFCC008DF814304FF08053D3F8A430DBB28DF8D9
:10BFDC0015304FF480622349234805F099F84FF44B
:10BFEC0080622249224805F093F84FF4805221498F
:10BFFC00214805F08DF8214A214BD31ADB081B048C
:10C00C0043F0050408F0A0FE03461A461D492046DD
:10C01C003AF018F8194A1A4BD31ADB081B0443F0F0
:10C02C0005009DF810301D469DF811301E469DF8F8
:10C03C0012309DF813209DF814109DF815400394B0
:10C04C0002910192009333462A460F493AF067F861
:10C05C0000BF08B070BD00BFF4CF060088010120FE
:10C06C00EC01012004030120F0020120180701203B
:10C07C00040701202C0B0120180B01200CB3060027
:10C08C00CCB20600F0D2060008D3060000B583B08F
:10C09C0001900B46ADF8023013468DF801309DF837
:10C0AC00013083F00103DBB2002B0BD00D4B9B68EE
:10C0BC0003F10801BDF80230019A0A48FEF704FDAD
:10C0CC0003460AE0074B9B6803F10801BDF80230F8
:10C0DC00019A0448FEF70EFD0346184603B05DF8BE
:10C0EC0004FB00BFAC01012000B583B001900B46EE
:10C0FC00ADF802300C4A0D4BD31ADB081B0443F08D
:10C10C0005030B49184639F08FFF0A4B9B6803F166
:10C11C000801BDF80230019A0648FEF7EBFC034615
:10C12C00184603B05DF804FB0CB30600CCB2060055
:10C13C0028D30600AC01012008B5054805F004F829
:10C14C000346002B14BF01230023DBB2184608BDA5
:10C15C00180B012008B5054804F0F6FF0346002B28
:10C16C0014BF01230023DBB2184608BD04070120CD
:10C17C0008B5054804F0E8FF0346002B14BF012363
:10C18C000023DBB2184608BDF002012000B583B0D5
:10C19C0034E0214B5968204B9B681F4A1268B3FB53
:10C1AC00F2F000FB02F29B1A0B441B780193019BEB
:10C1BC00013B1A4601231949174805F05AF8019B0F
:10C1CC009BB2013B9BB2002219461448FFF75EFF5D
:10C1DC0003461A46124B1A70114B1B78DBB2002B1C
:10C1EC000CD00D4B9A68019B13440B4A1268B3FB9D
:10C1FC00F2F101FB02F29B1A074A9360084B1B7881
:10C20C00DBB2002B04D0FFF797FF0346002BC0D105
:10C21C0000BF03B05DF804FB180B0120F0010120F6
:10C22C008801012000B585B0019000910023039393
:10C23C00009BDBB20333DBB28DF80B300DF10B033B
:10C24C0001221946174804F0A1FF174B1B881B0A43
:10C25C009BB2DBB28DF80B300DF10B0301221946AA
:10C26C00104804F093FF104B1B88DBB28DF80B3099
:10C27C000DF10B03012219460A4804F087FF009BBD
:10C28C001A460199074804F081FF074B1B880133BC
:10C29C009AB2054B1A80FFF779FF00BF05B05DF825
:10C2AC0004FB00BF180B01209C37002010B582B096
:10C2BC0003468DF807309DF80740084804F044FF0A
:10C2CC0003462344DA1C054B1B68013B9A4234BFDE
:10C2DC0001230023DBB2184602B010BD180B01205D
:10C2EC00034B1B8801339AB2014B1A8000BF704775
:10C2FC009C37002008B50E4B1B88002B02D00C4B32
:10C30C0001221A800B4804F0FFFF0B4A0B4BD31A87
:10C31C00DB081B0443F005030949184639F084FE79
:10C32C00084B00221A80084B01221A7000BF08BD6E
:10C33C009C370020180B01200CB30600CCB2060071
:10C34C0048D306002C1B012088010120024B01223E
:10C35C001A7000BF704700BF88010120024B0122F8
:10C36C001A8000BF704700BF9C37002000B583B017
:10C37C000190064B9B680833019A1946034800F05C
:10C38C0011FC00BF03B05DF804FB00BFCC01012021
:10C39C0082B001900091009B5A68019B1A60019B2E
:10C3AC000433009A92681A60019B0833009AD26990
:10C3BC001A60019B0C33009AD2681A60019B1033EF
:10C3CC00009A12691A601423184602B070470000D4
:10C3DC0082B001900B46ADF80230124B1B881B0A41
:10C3EC009BB2DAB2019B1A700E4B1A88019B013377
:10C3FC00D2B21A700B4B1B8801339AB2094B1A80BC
:10C40C00BDF802301B0A9AB2019B0233D2B21A70E9
:10C41C00019B0333BDF80220D2B21A7000BF02B0E8
:10C42C00704700BF2C1B012000B583B01E4804F0E0
:10C43C009FFE034683F00103DBB2002B30D01A4B76
:10C44C005968194B9B68184A1268B3FBF2F000FB51
:10C45C0002F29B1A0B441B788DF807309DF80720CD
:10C46C0001231249104804F004FF114B99689DF800
:10C47C0007309BB20D4A0E48FEF73CFB0346002BDF
:10C48C000ED0094B9A689DF8073013440133064AC5
:10C49C001268B3FBF2F101FB02F29B1A024A9360A1
:10C4AC0000BF03B05DF804FBF0020120301B01203B
:10C4BC008C01012000B583B01E4804F059FE0346E0
:10C4CC0083F00103DBB2002B30D01A4B5968194BA7
:10C4DC009B68184A1268B3FBF2F000FB02F29B1A3D
:10C4EC000B441B788DF807309DF807200123124967
:10C4FC00104804F0BEFE114B99689DF807309BB2B2
:10C50C000D4A0E48FEF7E0FA0346002B0ED0094BFD
:10C51C009A689DF8073013440133064A1268B3FB3E
:10C52C00F2F101FB02F29B1A024A936000BF03B0C6
:10C53C005DF804FB04070120301C01208C01012054
:10C54C0000B583B0034600918DF8073013468DF883
:10C55C000630184804F0F8FD03469DF806201344F5
:10C56C005A1C144B1B68013B9A421ED29DF8063094
:10C57C000133DBB28DF806300DF1060301221946AA
:10C58C000C4804F003FE0DF107030122194609487B
:10C59C0004F0FCFD9DF80630013B1A460099054855
:10C5AC0004F0F4FDFFF786FF00E000BF03B05DF878
:10C5BC0004FB00BF0407012000B585B003460091C1
:10C5CC008DF8073013468DF80630284804F0BCFD72
:10C5DC0003469DF8062013445A1C244B1B68013B50
:10C5EC009A423FD2224B1B78DBB283F00103DBB2C1
:10C5FC00002B0BD01F4A204BD31ADB081B0443F033
:10C60C0005031E49184639F00FFD2CE09DF8063045
:10C61C000133DBB28DF8063000238DF80F300DF1AD
:10C62C000F03184635F02CFA0DF1060301221946BA
:10C63C000E4804F0ABFD0DF10703012219460B481F
:10C64C0004F0A4FD9DF80630013B1A4600990748FA
:10C65C0004F09CFD9DF80F30184635F027FAFFF7D3
:10C66C00E3FE00E000BF05B05DF804FBF002012022
:10C67C00EC0101200CB30600CCB2060064D306001A
:10C68C0000B585B0019001990848FFF781FE14238D
:10C69C008DF80F309DF80F301A4604490120FFF732
:10C6AC008BFF00BF05B05DF804FB00BF301D0120FF
:10C6BC0000B585B0019001990848FFF769FE142375
:10C6CC008DF80F309DF80F301A4604490220FFF701
:10C6DC0073FF00BF05B05DF804FB00BF301E0120E6
:10C6EC00A8DF704700BF1846AEDF704700BF184682
:10C6FC0062DF704700BF184600B58DB0019002ABE9
:10C70C002022002118463EF049F841F20263ADF8B0
:10C71C000830019B9B788DF80A302023ADF80C3043
:10C72C000123ADF80E309DF815306FF304138DF81E
:10C73C0015309DF8153043F004038DF815309DF835
:10C74C0015306FF341038DF8153001238DF81A3035
:10C75C0001238DF81B3000238DF81430019B988B2E
:10C76C00019B9A6802AB194629F030FE0B900B9B8B
:10C77C000A930A9B002B04D0044A23210A9834F014
:10C78C002DFC002318460DB05DF804FBCCD306003D
:10C79C0000B58DB0019002AB2022002118463DF06F
:10C7AC00FDFF41F20363ADF80830019B9B788DF8D7
:10C7BC000A30F523ADF80C309DF8153043F010031A
:10C7CC008DF815309DF8153043F020038DF8153099
:10C7DC009DF8153043F004038DF8153001238DF8C6
:10C7EC001B3001238DF81430019B988B019B9B68A7
:10C7FC0003F1080202AB194629F0E8FD0B900B9BE4
:10C80C000A930A9B002B04D0044A3A210A9834F06C
:10C81C00E5FB002318460DB05DF804FBCCD30600F5
:10C82C0010B58AB001902B4B02AC0FCB84E80F00F3
:10C83C00019B4FF6FF721A80019B9A1C02AB1146AA
:10C84C001846FFF755FF0990099B0893089B002B8E
:10C85C0001D0089B3AE0019B9B788DF81A304FF47D
:10C86C00B053ADF81830019B03F11C0206AB19460E
:10C87C000120FFF735FF0990099B0793079B002BBD
:10C88C0001D0079B22E010203DF086FD03461A469E
:10C89C00019B9A600198FFF72FFF0198FFF778FF33
:10C8AC00019B00225A61019B00229A6104F042FD17
:10C8BC000346094A536005F0CDFC0346064A136053
:10C8CC0006F0B2F80346044AD360002318460AB0B7
:10C8DC0010BD00BF08D40600301F012082B00190AB
:10C8EC000091009B9A88019B1A8000BF02B0704790
:10C8FC0082B001900091019B4FF6FF721A8000BF2D
:10C90C0002B0704700B587B001900091009B0633D0
:10C91C000493049B0C330393049B1A88019B9B6820
:10C92C001B889A4240F00581039B1B78FC2B03D09B
:10C93C00039B1B78FD2B3AD1039B01331B788DF89D
:10C94C000A3000238DF817302CE09DF80A209DF852
:10C95C00173042FA03F303F00103002B1DD0039BA5
:10C96C001B78FC2B12D19DF81730744A52F82330E7
:10C97C0001221A709DF81730704A52F823305B6808
:10C98C00049A528911460398984706E09DF817308F
:10C99C006A4A52F8233000221A709DF8173001337E
:10C9AC008DF817309DF81730072BCED9C1E0039BBB
:10C9BC001B78FE2B0DD1039B01331B781A465F4B62
:10C9CC0053F822305B68049A5289114603989847B1
:10C9DC00AFE0039B1B78FB2B30D100238DF8163076
:10C9EC0027E09DF81630554A52F82330002B1BD007
:10C9FC009DF81630514A52F823309B68002B13D007
:10CA0C004F4A504BD31ADB081B0443F005039DF827
:10CA1C0016204D49184639F015FB9DF81630474A3B
:10CA2C0052F823309B6898479DF8163001338DF8E7
:10CA3C0016309DF81630032BD3D97AE0039B1B7864
:10CA4C00F92B14D1039B01331B78002B14BF01234A
:10CA5C0000238DF80B309DF80B30002B03D02E20CB
:10CA6C0004F01CFB65E02F2004F018FB61E0039B35
:10CA7C001B78FA2B03D1302004F010FB59E0039BF8
:10CA8C001B78F72B0ED106F035FB034683F0010320
:10CA9C00DBB2002B02D0012006F0E0FA012006F0F8
:10CAAC00D1FB46E0039B1B78F82B0AD106F022FB46
:10CABC000346002B01D006F089FB002006F0C2FBD8
:10CACC0037E0039B1B78F62B11D1002006F012FBEC
