:020000022000DC
:1070000000000420757302005D7302005F730200CC
:1070100061730200637302006573020000000000E8
:107020000000000000000000000000006773020084
:1070300069730200000000006B7302006D730200B0
:1070400081DD02005D5D030045EA0200D1240300FA
:107050006F7302006F7302003DE902006F7302005C
:107060006F730200955B03006F7302006F73020081
:107070006F7302006F7302006F7302006F73020080
:107080006F7302008D9B02006F7302006F7302002A
:107090006F730200357F030029020400256403009A
:1070A0006F7302006F7302006F7302006F73020050
:1070B000690B0300614903000000000000000000AC
:1070C0006F7302006F7302006F7302006F73020030
:1070D0006F730200551503006F7302006F73020097
:1070E0006F7302006F7302006F73020000000000F4
:1070F000000000006F730200000000006F730200C8
:10710000000000000000000000000000000000007F
:10711000000000000000000000000000000000006F
:10712000000000000000000000000000000000005F
:10713000000000000000000000000000000000004F
:10714000000000000000000000000000000000003F
:10715000000000000000000000000000000000002F
:10716000000000000000000000000000000000001F
:10717000000000000000000000000000000000000F
:1071800000000000000000000000000000000000FF
:1071900000000000000000000000000000000000EF
:1071A00000000000000000000000000000000000DF
:1071B00000000000000000000000000000000000CF
:1071C00000000000000000000000000000000000BF
:1071D00000000000000000000000000000000000AF
:1071E000000000000000000000000000000000009F
:1071F000000000000000000000000000000000008F
:10720000354936480A1A02D0072291438D4634493F
:1072100034480A1A06D00722914381F309880222D2
:1072200082F3148830483149314A00F044F831483B
:107230003149324A00F03FF831483249324A00F0D1
:107240003AF832483249334A00F035F83248334987
:10725000334A00F030F833483349344A00F02BF811
:1072600033483449344A00F026F83448344900227F
:1072700000F02CF833483449002200F027F8334856
:107280003349091A082902DB002202604160314AB1
:1072900090471F481F49884205D00268043003B454
:1072A000904703BCF7E700208646EC46002000210B
:1072B000294A9047FEE7884207D0521A05D0037842
:1072C00001300B700131013AF9D17047884202D088
:1072D00002700130FAE770470000042000E003204C
:1072E00000000420000004203866040064370020F9
:1072F00090380020D0730200D073020044170400BD
:107300003866040064370020643700202819040020
:107310002819040028190400281904002819040059
:1073200028190400281904002819040038660400EC
:1073300064670400903800209038002090380020C6
:107340008C1D01208C1D01208C1D01208C1D012015
:107350008C3D01209D730200A1310300FEE7FEE792
:10736000FEE7FEE7FEE7FEE7FEE7FEE7FEE7FEE7F5
:1073700000F002B8FFF7FCBF0F484FF00701884349
:1073800085460E4880470E48016841F4700101604F
:10739000BFF34F8FBFF36F8FFFF732BF09480A4922
:1073A0000A4A884207D0521A05D0037801300B7080
:1073B0000131013AF9D1704700000420B9D302002D
:1073C00088ED00E0141904005037002064370020D5
:1073D000FEE7000000B585B00190019B002B0AD0AC
:1073E000074B43F001030393019B9B010293039B13
:1073F0000298984700E000BF05B05DF804FB00BFAD
:107400004019040000B583B00190019B002B0AD005
:107410004FF47A70FFF7DEFF019B013B0193019B64
:10742000002BF5D100E000BF03B05DF804FB08B508
:1074300019F0ACFA00BF08BD00B589B00390029105
:107440000192019B002B33D0002307930323069363
:10745000029A079B1344019A1946002019F046FA34
:107460000590079A059B13440793019A059BD31A2D
:107470000193059B002B13D10F4B1B7883F0010365
:10748000DBB2002B13D10120FFF7BCFF069B013BB1
:107490000693069B002B03D1074B00221A7007E0CE
:1074A000054B01221A70019B002BD1D100E000BFD7
:1074B00000BF09B05DF804FB9038002000B585B02E
:1074C00003900291054B00934023054A02990398CB
:1074D00000F012F800BF05B05DF804FB397402003B
:1074E0009438002082B0019000BF02B0704782B093
:1074F000019000BF02B0704700B5A1B005900491A3
:1075000003920293049805F07DFA039B1593029B66
:1075100016930023179300238DF8603000231993EE
:10752000229B1A9300231F930FA91F9B08220498E4
:1075300005F042FB08231F93119B1293BDF84030C6
:10754000ADF84C30BDF84230ADF84E3000238DF828
:1075500051309DF83C3003F00303DBB2012B26D100
:107560000F9BC3F395231C939DF83C30C3F3C203D8
:10757000DBB28DF85030BDF83C30C3F38313DBB27F
:107580001B931B9B9A0009A91F9B049805F014FBF1
:107590001B9B9B001F9A13441F9312AA09A915ABAA
:1075A000009313461B9A1C9801F03EF82FE09DF8BB
:1075B0003C3003F00303DBB2022B28D1BDF83E3090
:1075C000C3F389139BB21E939DF83C30C3F3C203EF
:1075D000DBB28DF850301E9B082B28BF08231D936B
:1075E00007A91F9B1D9A049805F0E6FA1F9A1D9B98
:1075F00013441F931E9A1D9BD31A1E9315AB12AAF8
:1076000007A81D9901F0B2F81E9B002BE3D1049846
:1076100005F007FA00BF21B05DF804FB00B583B0A8
:107620000190019B1B781A460C4B9B5C002B05D0EC
:10763000019B0433184608F0FDFC0BE0019B1B780E
:107640001A46064B9B5C002B04D1019B0C33184659
:1076500007F06CFE00BF03B05DF804FB2C40002077
:1076600000B587B00390029113468DF807300023D0
:107670000593039B1B781A46114B9B5C002B09D08A
:10768000039B04339DF807200299184608F034FD47
:1076900005900FE0039B1B781A46094B9B5C002B5F
:1076A00008D1039B0C339DF807200299184607F078
:1076B000B5FE0590059B184607B05DF804FB00BFBA
:1076C0002C40002082B001900091034B01221A70DF
:1076D00000BF02B0704700BF1439002030B58DB034
:1076E00003468DF807301A4B02AC1D460FCD0FC470
:1076F00095E80F0084E80F00062302934FF0FF3354
:1077000003934FF0FF3304934FF0FF3305934FF093
:10771000EB7308939DF80730002B01D00D4A00E071
:10772000002202AB19460C4806F038F90B900B9B6F
:107730000A930A9B002B04D0084A43210A9801F0BF
:107740008DF8074A9DF80730137000BF0DB030BDAB
:10775000AC190400C5760200643700204819040003
:107760001539002000B583B001238DF807309DF84E
:1077700007301846FFF7B2FF00BF03B05DF804FB07
:1077800000B589B0039002910192019B8DF81F30E2
:10779000124B00221A709DF81F301A4602991048A9
:1077A000FFF75EFF0690069B0593059B002B04D018
:1077B0000C4A5321059801F051F800BF0A4B1B7881
:1077C000002B07D0054B1B78DBB283F00103DBB243
:1077D000002BF3D100BF09B05DF804FB1439002081
:1077E00064370020481904001539002000B585B021
:1077F00003900291054B00934023054A0299039898
:10780000FFF77AFE00BF05B05DF804FB8177020048
:10781000D438002082B0019000BF02B07047000051
:1078200000B583B001900548FFF7F8FE0020FFF790
:1078300055FF00BF03B05DF804FB00BF64370020B4
:1078400082B00190019BDB6801225A7100BF02B037
:107850007047000000B583B04FF0FF330193FFF78E
:10786000E6FD0421114800F0FBFD0190019B002B77
:1078700003DA0F4941200BF0F1F90C48FFF7E0FF64
:10788000FFF770FF04210B4800F0EAFD0190019B17
:10789000002B03DA064948200BF0E0F90548FFF712
:1078A000CFFF00BF03B05DF804FB00BFF418040075
:1078B000FC1904000419040000B583B00190009184
:1078C000019B1B681B6800990198984700BF03B093
:1078D0005DF804FB00B583B00190019B1B685B68F9
:1078E0000198984700BF03B05DF804FB00B583B072
:1078F0000190019B1B689B680198984700BF03B0EB
:107900005DF804FB82B001900B468DF80330019BBB
:10791000DB689DF803201A7100BF02B0704782B087
:107920000190019BDB681B79184602B0704782B05A
:107930000190019BDB6801225A7100BF02B07047C1
:1079400082B00190019BDB685B79184602B07047FA
:1079500000B585B0019000910C4B00221A700C48C4
:1079600004F0B4FF0390039B002B01D0039B08E0BD
:10797000084805F0DFF9084A084BD31ADB080293E0
:107980000023184605B05DF804FB00BF803A0020D4
:10799000D4170400641A0400F4180400FC1704004F
:1079A000024A034BD31ADB0818467047F418040048
:1079B000FC17040000B587B001900B468DF803302A
:1079C0009DF80330002B1FD0FFF7EAFF049000233F
:1079D000059313E0059B9B000E4A13440393039BFE
:1079E0001B881A46019B1B689A4204D1019B059A89
:1079F0001A60002309E0059B01330593059A049B57
:107A00009A42E7D3052300E00023184607B05DF84B
:107A100004FB00BF6437002000B585B001900B4621
:107A20008DF803309DF8032001AB11461846FFF78F
:107A3000C1FF0346002B07D1019BDB00054A13441D
:107A40000393039B1B6800E00023184605B05DF814
:107A500004FB00BFFC17040084B001900B468DF8B6
:107A60000330019BDB00174A134402939DF8033057
:107A7000013B032B1CD801A252F823F08D7A02009F
:107A8000957A02009D7A0200A77A020002238DF8FF
:107A90000F3011E004238DF80F300DE0029B1B79AD
:107AA0008DF80F3008E0029B5B798DF80F3003E012
:107AB00000238DF80F3000BF9DF80F30184604B03A
:107AC000704700BFFC17040084B0019000910023B0
:107AD0008DF80F30019B1B7803F00403DBB2002B01
:107AE00024D0019B1B78C3F30103DBB2012B02D02E
:107AF000022B0CD017E0009B1B68019A1288C2F37E
:107B00008312D2B213449A1C009B1A600BE0009BB4
:107B10001B68019A5288C2F3891292B213449A1CCC
:107B2000009B1A6000BF01238DF80F309DF80F30C5
:107B3000184604B07047000000B58BB00023ADF8C4
:107B400026303E4803F021FE3D4803F01EFE3D4B2B
:107B50009B6804933C4B1B680693049A069B134056
:107B600002339B00374A13440433089304AB19468D
:107B70000898FFF7A9FF0346002B09D0049A069B3B
:107B8000134002339B002F4A134404330893EDE75C
:107B900000BF0023079311E0049B5A1C0492069A2D
:107BA0001340079A920001A90A44264902339B0018
:107BB0000B445B681360079B01330793079B012B02
:107BC000EAD99DF80430C3F30103DBB2012B10D0D6
:107BD000022B1CD1BDF80A30ADF82630BDF80630B6
:107BE000C3F389139BB203339A08049B1344049391
:107BF00013E0BDF80A30ADF82630BDF80430C3F309
:107C00008313DBB21A46049B1344049305E00F4927
:107C10004FF4C2700BF022F800BF094803F0C1FD19
:107C20000590059B002B02D0049B064A9360BDF88B
:107C3000263018460BB05DF804FB00BF983E0020CC
:107C4000943E0020803A002088370020741A0400F7
:107C500000B585B00021074803F0CCFC0390039BDE
:107C60000293029B83F310030193019B184605B016
:107C70005DF804FB9C3E002000B589B003900291A2
:107C800001920093039B1B0C0793FFF7E1FF069003
:107C9000FFF786FE0246079B934204D3214940F238
:107CA000A9100AF0DBFF069B1904009B5A1C0A9BD3
:107CB0001340079A0A431C4902339B000B445A6045
:107CC000009A0A9B134002339B00174A1344043363
:107CD0000593039B03F00703D9B2059A137861F368
:107CE000C5031370019B03F00F03D9B2059A1388E3
:107CF00061F389131380029BC3F31501059A13687E
:107D000061F39F231360059A1378012161F3010346
:107D10001370059A13786FF38203137000BF09B0D4
:107D20005DF804FB741A0400803A002000BF70471D
:107D300000B58DB00390029113468DF80730039B78
:107D400002330A9301238DF8273000238DF81B306E
:107D50000DF11B03184601F0EDFA404B5A68029BE7
:107D60001A603F4B1A683D4B99683C4B5B68CB1AD5
:107D7000134401330B9314E001213A4803F0C9FC8A
:107D8000FFF7DAFE07900799364803F0C2FC344B40
:107D90001A68324B9968314B5B68CB1A1344013334
:107DA0000B930A9A0B9B9A42E6D89DF82730002B3A
:107DB00048D0002305939DF80730002B17D09DF87D
:107DC0001430012262F301038DF814309DF8143051
:107DD00043F004038DF81430039B03F00F03DAB271
:107DE000BDF8143062F38913ADF8143016E09DF835
:107DF0001430022262F301038DF814309DF8143020
:107E000043F004038DF81430039BC3F309039AB2C3
:107E1000BDF8163062F38F13ADF816300F4B5A6869
:107E20000F4B1B68134002339B000C4A134404336E
:107E30000893059A089B1A60084B5A680A9B1344DA
:107E4000064A53609DF81B30184601F089FA9DF8E8
:107E5000273018460DB05DF804FB00BF803A0020C3
:107E6000883700209C3E002000B58BB0059004911F
:107E700003920293204B1B68079306AB012219461D
:107E80000298FFF755FF0346002B24D0069B0233D0
:107E900009930023089311E0089B9B00039A1A445E
:107EA000099B591C099107990B4012681349023329
:107EB0009B000B445A60089B01330893089A029B6D
:107EC0009A42E9D3069A079B00931346029A0499B3
:107ED0000598FFF7D1FE094B1B78002B05D000BF9A
:107EE00000F0B4F80346002BFAD1FFF71FFF00BFE4
:107EF0000BB05DF804FB00BF88370020803A0020FB
:107F000000B583B0019000910023002200990198F0
:107F1000FFF7AAFF00BF03B05DF804FB00B587B010
:107F2000039002910192019B059305AA01230299F6
:107F30000398FFF799FF00BF07B05DF804FB00B599
:107F400087B00390029101920093019B0493009BE0
:107F5000059304AA022302990398FFF785FF00BF47
:107F600007B05DF804FB00B589B00390029101925F
:107F70000093019B0593009B06930A9B079305AA18
:107F8000032302990398FFF76FFF00BF09B05DF864
:107F900004FB00B589B00390029101920093019B0C
:107FA0000493009B05930A9B06930B9B079304AADB
:107FB000042302990398FFF757FF00BF09B05DF84B
:107FC00004FB00B58BB00390029101920093019BDA
:107FD0000593009B06930C9B07930D9B08930E9BA8
:107FE000099305AA052302990398FFF73DFF00BFF7
:107FF0000BB05DF804FB00B58BB0039002910192C9
:108000000093019B0493009B05930C9B06930D9B8F
:1080100007930E9B08930F9B099304AA06230299CA
:108020000398FFF721FF00BF0BB05DF804FB0000D1
:10803000054B9A68044B5B689A420CBF01230023EE
:10804000DBB21846704700BF803A002000B599B0F7
:10805000FFF7EEFF0346002B01D00023C0E19B4B4E
:108060000022C3F81824BFF34F8F00BF974B9B68C3
:108070000493974B1B681093049A109B1340023390
:108080009B00924A13440433119300231793002357
:10809000169300230F9304AB19461198FFF714FDB4
:1080A0000346002B19D0894BD3F81834002B14D178
:1080B000864B5A68049B9A4205D8844B5B68834A76
:1080C000936000238CE1049A109B134002339B00C1
:1080D0007E4A134404331193DDE70023159311E026
:1080E000049B5A1C0492109A1340159A920001A9FD
:1080F0000A44764902339B000B445B681360159B6E
:1081000001331593159B012BEAD99DF8043003F038
:108110000303DBB2022B40F09C80BDF80630C3F3B2
:1081200089139BB20D93BDF80630C3F389139BB23C
:10813000502B28BF50239BB20C930C9BC3F3090315
:108140009AB2BDF8063062F38F13ADF806300C9B7F
:1081500008330B939DF80430C3F3C203DBB20F93D3
:108160000B995C4804F0BDFB1790179B002B00F0A7
:10817000D380179804F046FC01A9169B0822179893
:1081800004F0FCFC169B08331693049BDA43109B07
:10819000134001339B000A930C9A0A9B9A4242D9DE
:1081A0000A9B002B08D0049A109B134002339B00BB
:1081B000464A1344043300E0474B08930A9B002BC4
:1081C00002D00A9BDBB201E00C9BDBB28DF81F30C2
:1081D0000A9B002B01D0404B00E0002306930A9B32
:1081E000002B06D00C9BDAB20A9BDBB2D31ADBB2AF
:1081F00000E000238DF817309DF81F20169B08998A
:10820000179804F0BBFC9DF81F30169A1344169380
:10821000069B002B16D09DF81720169B06991798E1
:1082200004F0ACFC0EE0049A109B134002339B0058
:10823000264A134404330993169B0C9A09991798FC
:1082400004F09CFC0D9B03339A08049B1344049395
:1082500062E09DF8043003F00303DBB2012B5BD135
:10826000BDF80430C3F38313DBB2062B28BF06230B
:10827000DAB2BDF8043062F38913ADF80430BDF80A
:108280000430C3F38313DBB202330E939DF8043042
:10829000C3F3C203DBB20F930E9B9B0019460D483C
:1082A00004F01FFB1790179B002B35D0179804F094
:1082B000A9FB01A9169B0822179804F05FFC169BE6
:1082C00008331693002315931DE000BF803A002069
:1082D00088370020D41704008C3A0020049B5A1CD5
:1082E0000492109A134002339B003F4A1344191D15
:1082F000169B0422179804F041FC169B0433169336
:10830000159B01331593BDF80430C3F38313DBB21F
:108310001A46159B9342E1D3179B002B40D0324B5A
:10832000D3F810341493304BD3F81834002B1BD0EF
:10833000179804F076FB4DE000238DF84F30149829
:10834000FFF7FEFA0346002B02D001238DF84F30D1
:108350009DF84F30002B03D017991498FFF7ACFA13
:10836000149BDB681B681493149B002BE4D11798B3
:1083700004F057FB00238DF803300DF1030318467A
:1083800000F0D8FF184BD3F81834002B02D1049B0F
:10839000154A93609DF80330184600F0E1FF19E09C
:1083A000114BD3F81034129306E01298FFF79EFA9F
:1083B000129BDB681B681293129B002BF5D10B4AB2
:1083C0000B4BD31ADB081B0443F002030949184680
:1083D000FFF796FDFFF72CFE034683F00103DBB2A7
:1083E000184619B05DF804FB803A002044180400D8
:1083F000FC170400D41A040000B585B000230393D1
:1084000023E0164BD3F81034029301238DF8073084
:108410000FE00298FFF783FA03461A46039B934244
:1084200003D100238DF8073006E0029BDB681B6850
:108430000293029B002BECD19DF80730002B01D05A
:10844000039B07E0039B01330393039B092BD8DDB8
:108450004FF0FF33184605B05DF804FB803A00206A
:1084600000B585B001900B468DF80330FFF7C4FFCF
:108470000390039BB3F1FF3F01D1039B22E0039BD9
:10848000DBB219460198FFF73DFA104BD3F81034D0
:10849000002B08D10D4A019BC2F81034019BDB6808
:1084A00000221A600DE0094BD3F81034DA68019B02
:1084B000DB6812681A60054BD3F81034DB68019A48
:1084C0001A60039B184605B05DF804FB803A002053
:1084D00000B583B00C4BD3F8103401930A4B012242
:1084E0001A7009E00198FFF722FA0198FFF7F2F9F4
:1084F000019BDB681B680193019B002BF2D100BF3D
:1085000000BF03B05DF804FB803A002082B0019008
:10851000009100BF02B0704710B584B00390029183
:10852000039BDB88002B0AD0039BDB881A461F4B7A
:10853000009313461E4A1F49029803F07BFA039BDF
:108540001B7A052B2ED0039B5B7A002B12D0039B4A
:108550009B881A46039B1B7A19461046FFF77CFA44
:1085600003461A46144B53F822301A461349029810
:1085700003F060FA039B1B6819460298FFF7C6FFD9
:10858000039B1B7A1A460E4B53F82240039B9B8891
:1085900000211846FFF740FA03462246094902988F
:1085A00003F048FA00BF04B010BD00BF081B040070
:1085B000181B0400501B0400A0370020681B040097
:1085C0008C3700206C1B040000B585B0039002912D
:1085D00013468DF80730039B1B7A052B0FD0039BA6
:1085E0005B7A002B06D00D4B1B681A460C4902988B
:1085F00003F020FA0B49029803F01CFA07E09DF8FB
:108600000730002B03D00749029803F013FA0298B1
:1086100003F0EEF900BF05B05DF804FBA0370020C1
:10862000681B0400781B040030B58BB007900691DE
:10863000059204930E9B1B7B8DF827300E9B002226
:108640001A730E990498FFF767FF059B062B7FD8D6
:1086500001A252F823F000BF758602007F86020057
:108660008F860200A3860200C1860200E98602000E
:108670001987020007990E9803F0DCF969E0069B60
:108680001B681A4607990E9803F0D4F961E0069B1F
:108690001A68069B04331B6807990E9803F0CAF901
:1086A00057E0069B1A68069B04331968069B08333B
:1086B0001B6800930B4607990E9803F0BBF948E03E
:1086C000069B1968069B04331868069B08331B68D1
:1086D000069A0C3212680192009303460A460799E3
:1086E0000E9803F0A7F934E0069B1868069B043344
:1086F0001C68069B08331B68069A0C3212680699A0
:1087000010310968029101920093234602460799AD
:108710000E9803F08FF91CE0069B1C68069B04333F
:108720001D68069B08331B68069A0C32126806996E
:108730001031096806981430006803900291019284
:1087400000932B46224607990E9803F073F900E038
:1087500000BF00220E990498FFF736FF0E9B9DF88C
:1087600027201A7300BF0BB030BD00BF00B587B023
:108770000390029101920093029B082B60D8009B0A
:108780001B7B8DF81330009B00221A73009901980F
:10879000FFF7C2FE0023059314E0059A029B9A425C
:1087A00009D2039A059B13441B781A462649009860
:1087B00003F040F903E02549009803F03BF9059BDD
:1087C00001330593059B072BE7D92149009803F056
:1087D00031F90023059326E0059A029B9A421BD2A9
:1087E000039A059B13441B788DF812309DF81230C4
:1087F0007E2B0AD89DF81230184618F08BFE0346DF
:10880000002B02D09DF8123000E02E231A461149A9
:10881000009803F00FF903E00F49009803F00AF9FC
:10882000059B01330593059B072BD5D901220099A0
:108830000198FFF7C9FE009B9DF813201A7300E012
:1088400000BF07B05DF804FB7C1B0400841B040020
:10885000881B04008C1B0400901B040000B583B02F
:1088600002900091019244F2010071466A4600F0C4
:1088700017F803B000BD00BFBFF34F8F00BF064B1A
:10888000DB6803F4E0620449044B1343CB60BFF39D
:108890004F8F00BF00BFFDE700ED00E00400FA05C8
:1088A00030B58BB007900691059272B600BFFFF706
:1088B0000FFE00BFFFF7CAFB0346002BFAD1079B50
:1088C00044F2020293422FD0079B44F202029342E9
:1088D00069D8079B44F20102934237D0079B44F2C8
:1088E000010293425FD8079B012B05D0079B41F201
:1088F000010293420CD056E03B4A3C4BD31ADB08B2
:108900001B0443F001033A491846FFF7F9FA57E010
:10891000354A364BD31ADB081B0443F001033549B3
:108920001846FFF7EDFA4BE0059B09932E4A2F4BB3
:10893000D31ADB081B0443F00100099B5B681A464D
:10894000099B1B682C49FFF7FAFA39E0059B08934D
:10895000254A264BD31ADB081B0443F00104089B6D
:108960009D68089B9B68184604F004FB0346184664
:10897000089B5B681946089B1B68069A0292019344
:10898000009103462A461D492046FFF71AFB164A66
:10899000164BD31ADB081B0443F001031849184691
:1089A000FFF7AEFA0CE0104A104BD31ADB081B0499
:1089B00043F00103069A13491846FFF7AFFA00BFC8
:1089C000114B1B6803F00103002B00D000BE064AC8
:1089D000064BD31ADB081B0443F002030B4918466D
:1089E000FFF78EFAFFF748FF44180400FC17040055
:1089F000FC1B04001C1C0400401C04005C1C040044
:108A0000841C0400981C0400F0ED00E0B01C04007D
:108A10002DE9F04383B0144801F09DF8034600228D
:108A20001C461546114BD3E9002314EB020845EB15
:108A30000309CDE900890E4BD3E90023DDE90001EC
:108A4000904271EB030307D2DDE9002312F1807637
:108A500043F10007CDE90067DDE900231046194620
:108A600003B0BDE8F08300BFC4370020A83E00205B
:108A7000B03E002088B001900091019B0793009BBD
:108A80000693079BD3E90223CDE90423069BD3E990
:108A90000223CDE90223DDE90423DDE9020190424E
:108AA00071EB03032CBF01230023DBB2184608B08F
:108AB00070470000F0B585B00190019B5B69002B09
:108AC00003D14349A5200AF0C9F800238DF80F30DF
:108AD000404B1B78002B75D0019B002B72D0FFF709
:108AE00097FF019BD3E90223904271EB030358D314
:108AF00000238DF80D300DF10D03184600F01AFC1F
:108B0000019B1B69002B06D101994FF0FF324FF0FA
:108B1000FF33C1E902239DF80D30184600F020FC18
:108B2000019B5B69019A92691046984700238DF872
:108B30000C3003AB184600F0FDFB019B1B69002BBA
:108B40001AD0019BD3E90223B3F1FF3F08BFB2F172
:108B5000FF3F11D0019BD3E902230199096900204D
:108B60000C460546161943EB0507019BC3E902674E
:108B700001238DF80E3002E000238DF80E309DF8B1
:108B80000C30184600F0ECFB9DF80E30002B19D08D
:108B9000019B1946104804F047F901238DF80F3066
:108BA00010E0019BD3E90223B3F1FF3F08BFB2F10C
:108BB000FF3F07D0019B1946074804F035F9012310
:108BC0008DF80F309DF80F30184605B0F0BD00BF8E
:108BD000CC1C0400A43E0020281D040030B58BB03E
:108BE000019000910D230993009B00221A70019BB4
:108BF000D3E90223CDE90623FFF70AFFDDE90623C7
:108C0000141A63EB0105CDE90445DDE90423012ACB
:108C100073F1000318DB049BB3F5350F05D300F0A7
:108C20000BFB0246144B134400E0069B03934FF4E6
:108C30009603039A0021114800F080FE0990099BD9
:108C4000002B05D1012314E000210C4800F04EFF59
:108C5000099B0D2B07D10198FFF72CFF03461A46FD
:108C6000009B1A7004E006494FF4867009F0F6FF85
:108C7000002318460BB030BDFFFFB400C4370020FE
:108C8000CC1C040000B583B0044804F007F901903F
:108C9000019B184603B05DF804FB00BF281D0400CB
:108CA00000B583B0044804F01BF90190019B1846FD
:108CB00003B05DF804FB00BF281D040000B583B0BD
:108CC000FFF7E0FF0190019B002B06D001994FF0C8
:108CD000FF324FF0FF33C1E90223019B002BEFD19C
:108CE00000BF00BF03B05DF804FB0000054BD3E9F3
:108CF000002312F1807043F10001024BC3E900012F
:108D000000BF7047A83E002010B582B00190124B02
:108D10001B68002B1DD0019800F01DFF04460021A8
:108D2000019800F009FF03461946204600F078FA42
:108D30000346B3F5960F04D3084940F2411009F0F9
:108D40008DFF054B1B681846FFF7B4FE024B00224F
:108D50001A6000BF02B010BDA03E0020CC1C040071
:108D600000B583B00190FFF753FE02460B4603495E
:108D7000C1E9002300BF03B05DF804FBB03E002052
:108D800000B587B00190FFF78BFF049000238DF8AA
:108D90001730049B002B58D0049BD3E90223B3F176
:108DA000FF3F08BFB2F1FF3F02D1FFF76BFF54E076
:108DB0002E4B1B68002B03D101238DF817301DE0CB
:108DC000049BD3E90201294B1B68D3E9022390429B
:108DD00071EB030312D201238DF81730234B1B686C
:108DE000D3E90223B3F1FF3F08BFB2F1FF3F05D043
:108DF0001E4B1B6819461E4804F016F89DF81730E4
:108E0000002B2BD0FFF73EFF04900DF10F03194606
:108E10000498FFF7E3FE0346002B12D0134B1B68A8
:108E2000002B02D1019800F095FC104A049B1360BE
:108E30009DF80F3083F00103DBB2002BA3D000BFFD
:108E40000FE00A4B00221A609DE7084B1B68002BBD
:108E500006D1019800F094FC02E094E700BF00E026
:108E600000BF00BF07B05DF804FB00BFA03E0020BC
:108E7000281D040000B587B001902B4A03AB1946AA
:108E8000104602F0BEFA049045E0049B1B78022BCA
:108E90002BD0022B2FDC002B02D0012B11D02AE08B
:108EA000049B5B68D3E90223B3F1FF3F08BFB2F133
:108EB000FF3F22D0049B5B6819461C4803F0B4FFB7
:108EC0001BE0049B5A681A4B1B689A4203D1184B4B
:108ED00000221A6012E0049B5B681946134804F0F4
:108EE00013F803468DF8173008E0FFF7E7FE114B43
:108EF00001221A7002E000BF00E000BF0A4A03AB83
:108F00001946104602F096FA074A03AB1946104676
:108F100002F077FA0490049B002BB6D100BF00BF8B
:108F200007B05DF804FB00BF103F0020281D0400BF
:108F3000A03E0020A43E002000B583B0019001981F
:108F400000F0C7FD0346002B01D0FFF7CFFE002144
:108F5000019800F0DCFD0346002B02D00198FFF7DA
:108F6000D3FE0121019800F0D2FD0346002B02D070
:108F70000198FFF7F5FE0198FFF77CFF0198FFF7D6
:108F8000FFFE00BF03B05DF804FB000008B5024817
:108F900000F0EEFD00BF08BDC437002000B585B06D
:108FA000034600918DF80730114A02AB194610466E
:108FB00002F0FAF90390039B002B13D0039B9DF85A
:108FC00007201A70039B009A5A60094A02AB19469F
:108FD000104602F002FA0346002B01D0FFF7D6FF3D
:108FE000002300E00423184605B05DF804FB00BF31
:108FF000103F002000B583B0164B1B680093164845
:1090000008235822154902F09CF90190019B002B7E
:1090100001D0019B19E06B46114A1946114800F036
:109020001BFB0190019B002B01D0019B0DE0012156
:109030000C4800F03DFD01230B4A0121094800F0D6
:10904000B5FB0A4B01221A70019B184603B05DF86C
:1090500004FB00BF241D0400103F0020B83E002088
:10906000398F0200C4370020FFFF7F00A43E00209C
:1090700000B587B003900B4601928DF80B30039B2F
:10908000002B04D1164940F25A2009F0E7FD019B5C
:10909000002B04D1124940F25B2009F0DFFD019B57
:1090A000002B01D1072317E0039B1B68059305994B
:1090B0004FF0FF324FF0FF33C1E90223059B019AC5
:1090C0005A619DF80B30012B0CBF01230023DBB24A
:1090D0001A46059B1A610023184607B05DF804FB89
:1090E000CC1C0400F0B589B0039002910192039B5F
:1090F000002B04D1264940F26B2009F0AFFD039B01
:10910000069300238DF817300DF11703184600F071
:1091100011F9069BD3E90223B3F1FF3F08BFB2F177
:10912000FF3F11D1FFF774FC02460B460299002065
:109130000C460546161943EB0507069BC3E9026773
:1091400001238DF81F3002E000238DF81F309DF8B9
:109150001730184600F004F99DF81F3083F0010322
:10916000DBB2002B01D000230EE0069B019A9A612E
:10917000069B1B69002B02D0069B029A1A61069976
:109180000020FFF70BFF0346184609B0F0BD00BFF3
:10919000CC1C040000B587B00190019B002B04D1CA
:1091A0001E4940F2932009F059FD019B04930023CE
:1091B0008DF80F300DF10F03184600F0BBF8049B3B
:1091C000D3E90223B3F1FF3F08BFB2F1FF3F03D160
:1091D00000238DF8173009E004994FF0FF324FF06B
:1091E000FF33C1E9022301238DF817309DF80F30BA
:1091F000184600F0B5F89DF8173083F00103DBB294
:10920000002B01D0002304E004990120FFF7C6FEE3
:109210000346184607B05DF804FB00BFCC1C0400F1
:1092200082B001900091019A009BD31A23F07F43F2
:10923000184602B07047000008B5034800F08BFCE8
:109240000346184608BD00BFC437002082B0EFF3C4
:1092500010830093009B019372B600BF019B1846D8
:1092600002B0704762B600BF00BF704700B585B05E
:109270000190FFF7EBFF0390164B9B68002B1BD16F
:10928000144B01229A60144BD3F88020134B1340E7
:10929000104A1360104B114AC3F880200E4BD3F8CC
:1092A00084300C4A53600C4B4FF0FF32C3F88420DB
:1092B000019B00221A7002E0019B01221A70039B9D
:1092C000002B01D1FFF7CEFF0023184605B05DF853
:1092D00004FB00BF243F002000E100E0FC06FFBDCE
:1092E00000B585B003468DF80730104B9B68002B06
:1092F00016D09DF80730002B12D1FFF7A7FF03907F
:109300000B4A0A4B1B681360094A084B5B685360A1
:10931000064B00229A60039B002B01D1FFF7A2FFAE
:109320000023184605B05DF804FB00BF243F002071
:1093300000E100E000B583B0019000F02BF8034697
:10934000012B03D00549432009F088FC0198FFF761
:109350008DFF00BF03B05DF804FB00BF341D0400A7
:1093600000B583B003468DF8073000F013F80346CC
:10937000012B03D00649512009F070FC9DF80730FD
:109380001846FFF7ADFF00BF03B05DF804FB00BF58
:10939000341D040084B0EFF305830193019BC3F3F4
:1093A00008030393039B002B0DD1EFF31483009369
:1093B000009B0293029B03F00103002B0CBF0123CF
:1093C0000023DBB200E00123184604B07047000020
:1093D00082B003468DF807309DF90730002B0CDB77
:1093E0009DF8073003F01F0205499DF907305B091E
:1093F000012000FA02F241F8232000BF02B07047BA
:1094000000E100E082B003468DF807309DF9073097
:10941000002B0DDB9DF8073003F01F0206499DF974
:1094200007305B09012000FA02F2403341F82320A3
:1094300000BF02B0704700BF00E100E082B0034609
:1094400000918DF807309DF90730002B0ADB009B57
:10945000DAB20C499DF907305201D2B20B4483F8BD
:1094600000230BE0009BDAB207499DF8073003F0B8
:109470000F03043B5201D2B20B441A7600BF02B074
:10948000704700BF00E100E000ED00E000B583B0F0
:1094900003460A468DF8073013468DF806309DF8CE
:1094A0000630012B03D99DF80630032B0BD99DF80C
:1094B0000630042B03D99DF80630072B03D9084941
:1094C0006B2009F0CBFB9DF806209DF90730114673
:1094D0001846FFF7B3FF00BF03B05DF804FB00BF01
:1094E000941D040000B583B003468DF807309DF944
:1094F00007301846FFF76CFF00BF03B05DF804FBB0
:1095000000B585B00190019B002B0AD0074B43F0BA
:1095100001030393019B9B010293039B02989847CD
:1095200000E000BF05B05DF804FB00BFA01E040012
:1095300084B0039002910192039B029A02F5A872F3
:10954000019943F8221000BF04B0704782B0019027
:109550000091019B009A02F5A87253F82230184638
:1095600002B0704782B001900091019B009AC3F84D
:10957000042300BF02B0704782B001900091019BAC
:10958000009AC3F8082300BF02B0704782B0019070
:109590000B46ADF80230BDF80230019A13441B6847
:1095A000184602B0704784B001900B46ADF8023007
:1095B000BDF80230019A134400221A60BDF802304F
:1095C000019A13441B680393039B00BF04B07047C8
:1095D00082B00190019BD3F80435184602B0704761
:1095E00000B583B001900091009BB3F5805F04D378
:1095F00006494FF4BE7009F031FB019B009AC3F895
:10960000082500BF03B05DF804FB00BFC41D0400C3
:1096100082B001900B468DF803309DF80320019B2A
:1096200013441A460123136000BF02B0704782B092
:1096300001900091019B009AC3F8442300BF02B03F
:10964000704782B001900091019B009AC3F84823B3
:1096500000BF02B07047000000B587B003900291D0
:109660000192039B002B03D13349552009F0F6FAF0
:10967000029B002B03D13049562009F0EFFA019BE1
:10968000002B03D12C49572009F0E8FA039B5B79A2
:1096900019462A4A019B42F82130039B5B79284AEC
:1096A000DB0013441B79002B0ED008230593254AB9
:1096B000254BD31ADB081B0443F002032349184649
:1096C000FEF71EFC059B32E0039B1A68029B1B8879
:1096D00019461046FFF784FF039B93F90420029B71
:1096E0009B7819461046FFF7D1FE039B93F904308F
:1096F0001846FFF7F7FE039B5B79114ADB00134422
:1097000001221A71039B5B7919460D4A039B42F8AB
:109710003130002305930B4A0B4BD31ADB081B0493
:1097200043F003030A491846FEF7EAFB059B184677
:1097300007B05DF804FB00BFF41D0400303F0020BB
:10974000343F002054180400FC1704004C1E040091
:10975000701E040000B583B00190019B002B03D163
:109760000649872009F07AFA019B1B6800211846F8
:10977000FFF74EFF00BF03B05DF804FBF41D0400CB
:1097800000B583B00190019B002B03D106498D20C9
:1097900009F064FA019B1B6804211846FFF738FFA3
:1097A00000BF03B05DF804FBF41D040000B587B0F2
:1097B0000390029101928DF80330039B002B03D19B
:1097C0002149962009F04AFA4FF48032029B02FAAE
:1097D00003F30593029B50339BB29B00ADF812300C
:1097E000019B23F07F430193039B1B680599184657
:1097F000FFF7C2FE039B1B6805991846FFF721FF80
:10980000039B1B68BDF8122011461846FFF7CBFEDC
:10981000039B1B68019A02991846FFF789FE039B78
:109820001B6805991846FFF702FF9DF80330002BCF
:1098300005D0039B1B6805991846FFF793FE00BFF0
:1098400007B05DF804FB00BFF41D040000B585B04F
:109850000390029113468DF80730039B002B03D130
:109860000B49A92009F0FAF9039B1B6802991846D5
:10987000FFF7DDFE9DF80730002B05D0039B1B682A
:1098800002991846FFF76EFE00BF05B05DF804FBB5
:10989000F41D040000B583B001900091019B002BE2
:1098A00003D10A49B32009F0D9F9019B1B6800993B
:1098B0001846FFF7C6FE019B1B6800991846FFF784
:1098C0005BFE00BF03B05DF804FB00BFF41D0400A5
:1098D00000B583B001900B46ADF80230019B002B20
:1098E00003D10F49BA2009F0B9F9019B1B68BDF8F3
:1098F000022011461846FFF749FE0346002B09D007
:10990000019B1B68BDF8022011461846FFF74BFE6D
:10991000012300E00023184603B05DF804FB00BFFC
:10992000F41D040082B001900091019A009BD31AAB
:1099300023F07F43184602B07047000000B58BB09B
:109940000390029101920093039B002B03D157498E
:10995000CD2009F083F94FF48032029B02FA03F321
:109960000993029B50339BB29B00ADF82230019BC0
:1099700023F07F43019309990398FFF78BFF039B23
:109980001B681846FFF724FE0790039B1B6802998B
:109990001846FFF7DBFD0690039B1B68079A0299A8
:1099A0001846FFF7C5FD039B1B68BDF82220114632
:1099B0001846FFF7F8FD07990698FFF7B3FF03462F
:1099C000012B0AD11020FFF79BFD039B1B68BDF8FC
:1099D000222011461846FFF7E6FD039B1B68184638
:1099E000FFF7F6FD079007990198FFF79BFF059099
:1099F000039B1B6809991846FFF719FE059B012B6D
:109A000015D1039B1868019B01331A460299FFF791
:109A10008FFD1020FFF774FD039B1B681846FFF7AE
:109A2000D7FD0246079B934235D00D2339E0039BB7
:109A30001B68019A02991846FFF77AFD039B1B6881
:109A40001846FFF7C5FD0790019B013B0799184693
:109A5000FFF768FF0590009BC3F1FF1303F57F43F9
:109A6000059A9A4201D90D231BE0059B002B12D1C8
:109A7000039B1868019B01331A460299FFF758FDB2
:109A8000039B1B681846FFF7A3FD0246079B934202
:109A900001D00D2305E0012209990398FFF7D6FEB6
:109AA000002318460BB05DF804FB00BFF41D040052
:109AB00000B583B001900B468DF803309DF803305C
:109AC0001A4602210198FFF7C1FE00BF03B05DF8FE
:109AD00004FB00B583B001904FF482710198FFF749
:109AE000F7FE0346184603B05DF804FB00B583B0EB
:109AF000019000914FF48032009B02FA03F3194663
:109B00000198FFF7C7FE00BF03B05DF804FB00B586
:109B100085B001900091009B50339BB29B00ADF843
:109B20000E30BDF80E3019460198FFF7D1FE0346FE
:109B3000184605B05DF804FB00B583B001900091B4
:109B4000019B1B6800991846FFF700FD0346184665
:109B500003B05DF804FB00B583B00190019B1B6866
:109B60001846FFF735FD0346184603B05DF804FBC1
:109B700000B583B00190019B93F904301846FFF7BC
:109B800041FC00BF03B05DF804FB000008B5044BC6
:109B90001B68044A12681046984700BF08BD00BF02
:109BA000303F0020343F002082B00190019B03F041
:109BB0000303002B0CBF01230023DBB2184602B0C5
:109BC0007047000000B585B00190002303930EE0BC
:109BD0000B4A039B52F82330002B05D0084A039B05
:109BE00052F8233001989847039B01330393039B5A
:109BF000032BEDD900BF00BF05B05DF804FB00BF2B
:109C0000483F002082B001900091019B1B78013BEE
:109C1000052B61D801A252F823F000BF359C020049
:109C20003D9C0200639C0200959C0200B59C0200D2
:109C3000D19C0200009B00221A704EE0009B012282
:109C40001A70019B1A89009B9A81019B9A88009B3C
:109C5000DA81019BDA68009B9A60009B00221A74EB
:109C60003BE0009B02221A70019B1A89009B9A819B
:109C7000019B9A88009BDA81019BDA68009B9A60BD
:109C8000019B9B7D062B0CBF01230023DAB2009BB6
:109C90001A7422E0009B03221A70019BDA88009B51
:109CA0009A81019B1A89009BDA81019BDA68009BEB
:109CB0009A6012E0009B04221A70019BDA88009BD4
:109CC0009A81009B0022DA81009B00229A6004E0C6
:109CD000009B05221A7000E000BF00BF02B0704771
:109CE00084B001900091019B0393039A009B9A42D8
:109CF00006D2039B1B68B3F1FF3F01D0012300E0B4
:109D0000002303F00103DBB2184604B0704782B0B1
:109D10000190019B5B8803339B00019A1344184612
:109D200002B0704700B583B0019000910198FFF731
:109D3000EEFF0246009B934201D2022311E0019BF9
:109D40009B884FF6FF72934208D0019B1B88002B23
:109D500004D0019B9B68B3F1FF3F01D1012300E0D8
:109D60000023184603B05DF804FB000000B583B083
:109D70000190019B002B13D00D4BDB681A46019B11
:109D800093420DD30A4B1B691A46019B934207D895
:109D90000198FFF709FF0346002B01D0012300E0E3
:109DA000002303F00103DBB2184603B05DF804FBA7
:109DB0005037002082B003460A46ADF806301346FD
:109DC000ADF80430BDF80620134913469B00134438
:109DD0009B000B4408331A88BDF804301344ADF8D7
:109DE0000430BDF806200C4913469B0013449B0029
:109DF0000B440A331A88BDF804301344ADF804301C
:109E0000BDF80430B3F5806F94BF01230023DBB2AB
:109E1000184602B0704700BF6C3F002084B001902C
:109E2000009148F2096303930023ADF80A3027E05C
:109E3000BDF80A20164913469B0013449B000B44AF
:109E400004331B68009A9A4215D9BDF80A201049BC
:109E500013469B0013449B000B4404331B6803F51B
:109E60008053009A9A4206D200230393019BBDF8C7
:109E70000A201A8008E0BDF80A300133ADF80A3034
:109E8000BDF80A30012BD3D9039B184604B07047A4
:109E90006C3F002082B001900091009B9B7D022BC3
:109EA00009D9019B1A89009BDB8813449BB20333B9
:109EB0009AB2019B1A81019B5A89009BDB88D31AB5
:109EC0009BB2033B9AB2019B5A8100BF02B070471C
:109ED00000B583B0074B1B68194600230093082385
:109EE000054A064802F052F90346184603B05DF8E9
:109EF00004FB00BF943F0020F81E040050370020F0
:109F000000B585B003900399002300930823044A09
:109F1000044802F03BF90346184605B05DF804FB1F
:109F2000001F04005037002000B585B003460091A3
:109F3000ADF8063000238DF80F30BDF8063003333E
:109F4000ADF80A30BDF80A3040F2FE32934202D931
:109F500048F208634BE00023ADF80C303BE0BDF85D
:109F60000C20254913469B0013449B000B441B788F
:109F7000002B2BD1BDF80A20BDF80C301146184635
:109F8000FFF718FF0346002B20D001238DF80F3078
:109F9000009BBDF80C201A80BDF80C201649134612
:109FA0009B0013449B000B440A331988BDF80C2016
:109FB000BDF80A300B4498B20F4913469B00134476
:109FC0009B000B440A3302461A8008E0BDF80C30AF
:109FD0000133ADF80C30BDF80C30012BBFD99DF822
:109FE0000F30002B01D0002301E048F20663184631
:109FF00005B05DF804FB00BF6C3F002082B0034653
:10A000000A46ADF806301346ADF80430BDF804201A
:10A010000D4913469B0013449B000B440A331A88D6
:10A02000BDF80630D31A9BB2BDF80420033B98B2AA
:10A03000054913469B0013449B000B440A33024618
:10A040001A8000BF02B070476C3F002008B50121A4
:10A05000024801F05EFB0346184608BD583F002049
:10A0600000B585B003460091ADF80630BDF8062076
:10A07000244913469B0013449B000B4404331B6884
:10A0800003F580530293009B1B680393039B002BF3
:10A0900004D00398FFF73BFE039026E0BDF80620AE
:10A0A000184913469B0013449B000B4404331B6860
:10A0B0000833039319E002990398FFF733FE034630
:10A0C000022B10D0022B10DC002B02D0012B05D06C
:10A0D0000BE0009B039A1A6001230EE00398FFF740
:10A0E00016FE039001E0002307E002990398FFF7B2
:10A0F000F7FD0346002BDED10023184605B05DF8BE
:10A1000004FB00BF6C3F002000B585B001900091BA
:10A11000019B5B681846FFF729FE0346002B19D008
:10A12000019B1A89244B1B899A4213D1019B1A68FF
:10A13000019B5B689B689A420CD1019B5B68194646
:10A140000098FFF76BFE0346002B0CBF0123002392
:10A15000DBB22CE0009B00221A8023E00023029354
:10A1600010E0029B0393039B9A68019B1B689A4231
:10A1700008D1029A019B5A600F4B1A89019B1A81E0
:10A18000012314E0009B1B8802AA11461846FFF722
:10A1900067FF0346002BE4D1009B1B8801339AB272
:10A1A000009B1A80009B1B88012BD7D900231846DF
:10A1B00005B05DF804FB00BF9C3F002000B587B0F0
:10A1C0000390029101920093324B1B78DBB283F033
:10A1D0000103DBB2002B02D048F2016355E0019B82
:10A1E000002B02D0009B002B49D148F204634CE0C5
:10A1F000009B9B881946284A0B469B000B449B00FA
:10A2000013441B78002B33D124E0009B1B6805937B
:10A21000039B002B06D0059B9A88039B1B889A42C0
:10A2200000D017E0029B002B06D0059B1A88029BEA
:10A230001B889A4200D00DE0059B9A68019B1A602A
:10A24000009B1A68019B5A60144B1A89019B1A8162
:10A2500000231AE0009B9B88009A11461846FFF7DE
:10A26000FFFE0346002BD0D1009B00221A6000E0C5
:10A2700000BF009B9B8801339AB2009B9A80009B91
:10A280009B88012BB4D948F20963184607B05DF8E2
:10A2900004FB00BF3C3F00206C3F00209C3F00209F
:10A2A00000B585B00190084B0199184601F07CF883
:10A2B00003901C220021039817F0DDF9039B184638
:10A2C00005B05DF804FB00BF5C3F002000B583B023
:10A2D0000190044B0199184601F07FF800BF03B0CC
:10A2E0005DF804FB5C3F002000B583B00190054B96
:10A2F0000199184601F085F80346184603B05DF849
:10A3000004FB00BF5C3F002000B583B00190044B0C
:10A310000199184601F08EF800BF03B05DF804FB08
:10A320005C3F002008B50A4B1B68002B04D109498B
:10A330004FF4247008F092FC0121054801F001FA65
:10A340000346002B14BF01230023DBB2184608BDCF
:10A35000443F0020A81E040000B587B0039002917E
:10A36000039B02229A750299039B1A1D00230093F6
:10A370000423074801F00AFF0590059B002B01D13B
:10A38000002301E048F20D63184607B05DF804FBB6
:10A390005037002000B587B003900291039B1B69E2
:10A3A000002B01D0032200E00122039B9A75029B3F
:10A3B00008331946039B03F10C0200230093042386
:10A3C000074801F0E3FE0590059B002B01D1002317
:10A3D00001E048F20D63184607B05DF804FB00BFCA
:10A3E0005037002000B587B003900291039B1B7883
:10A3F000032B01D1052200E00622039B9A75029BE4
:10A4000004331946039B03F108020023009304233D
:10A41000074801F0BBFE0590059B002B01D10023EE
:10A4200001E048F20D63184607B05DF804FB00BF79
:10A430005037002000B587B003900B46ADF80A30C6
:10A4400003990023009304230D4A0E4801F09EFE59
:10A450000590059B002B02D048F20D630BE0BDF880
:10A460000A20094913469B0013449B000B441033F8
:10A4700001221A700023184607B05DF804FB00BFE4
:10A48000081F0400503700206C3F002000B589B041
:10A49000019002AB00221A605A609A60019BDB684F
:10A4A00002930DF1160202AB11461846FFF72CFE7F
:10A4B0000346002B12D0039B0693069B9A88019BB0
:10A4C000DA80069B1A88019B1A81039BBDF816202F
:10A4D00011461846FFF7AEFF079002E048F2096305
:10A4E0000793079B184609B05DF804FB00B587B0D9
:10A4F0000190019B981D02AA0D4B0021FFF75EFE03
:10A500000590059B002B08D1039B094A92881146B0
:10A510001846FFF78FFF059004E008220021044849
:10A5200017F0A9F8059B184607B05DF804FB00BFBB
:10A53000AC3F002000B587B003900291039B01223D
:10A540009A75029B0C331846039B1A69039BDB88A0
:10A550009B00002100910146074801F017FE05907D
:10A56000059B002B01D1002301E048F20D63184642
:10A5700007B05DF804FB00BF5037002082B0184BD5
:10A580001B8901339AB2164B1A81154B00225A804F
:10A59000134B00221A730023ADF8063018E0BDF803
:10A5A0000620104913469B0013449B000B441A7865
:10A5B000BDF80630002A0CBF01220022D1B2084AA1
:10A5C00013440A469A72BDF806300133ADF80630DE
:10A5D000BDF80630012BE2D900BF00BF02B07047C2
:10A5E0009C3F00206C3F002084B0019000238DF838
:10A5F0000F300023ADF80C3031E0BDF80C301C4AB0
:10A6000013449B7A002B25D0BDF80C30184A134414
:10A6100000229A72BDF80C20164913469B00134481
:10A620009B000B440C331B68002B13D1BDF80C208E
:10A63000104913469B0013449B000B4410331B78B6
:10A64000002B07D0019BBDF80C201A8001238DF848
:10A650000F3008E0BDF80C300133ADF80C30BDF818
:10A660000C30012BC9D99DF80F30184604B0704743
:10A670009C3F00206C3F002008B5084B05221A7053
:10A68000074B02229A80064B1B68194600230122C1
:10A69000044801F05DFE0346184608BD9C3F0020BB
:10A6A000943F00205037002000B583B0164B5B88E4
:10A6B000ADF80230BDF80220144913469B00134444
:10A6C0009B000B440C331B68002B14D10E4B04224F
:10A6D0001A70BDF802200D4913469B0013449B00DD
:10A6E0000B4404331B68194600230122084801F07B
:10A6F0002FFE019002E0FFF7BFFF0190019B18467B
:10A7000003B05DF804FB00BF9C3F00206C3F0020BD
:10A710005037002000B587B0104B5B680593104B95
:10A720001A680F4B9B889B0013440493059B5B881E
:10A730000333ADF80E30094B03221A700499074B0E
:10A740005A68BDF80E309B0000200090054801F0CB
:10A750001DFD0346184607B05DF804FB9C3F002032
:10A76000943F00205037002000B583B00A4B5B882F
:10A770000A491846FFF774FC0346002B03D0FFF785
:10A78000C9FF019002E0FFF78FFF0190019B18467F
:10A7900003B05DF804FB00BF9C3F0020A03F0020F9
:10A7A00008B50A4B06221A70084B5B881946084AFE
:10A7B0000B469B000B449B00134404331B68184654
:10A7C000FFF79EFB0346184608BD00BF9C3F0020D4
:10A7D0006C3F002008B5054B07221A70034B00227E
:10A7E0005A60FFF775FB0346184608BD9C3F0020E2
:10A7F00008B50D48FFF7F8FE034683F00103DBB20E
:10A80000002B0BD0094B00221A70084B00225A80F3
:10A81000064B00225A6041F61D5302E0FFF7A4FFE9
:10A820000346184608BD00BF9E3F00209C3F002005
:10A8300082B0094B5B680193019B5B880333ADF8E1
:10A840000230064B9A88BDF8023013449AB2034B8B
:10A850009A8000BF02B070479C3F0020943F0020C8
:10A8600082B01E4B1B6801931D4B5B8819461D4A25
:10A870000B469B000B449B00134404331B68174A90
:10A880001360174B5B881946164A0B469B000B4416
:10A890009B0013440433019A1A60114B5B881946DC
:10A8A0000E4B98880F4A0B469B000B449B001344A9
:10A8B000083302461A80094B02229A80084B5B88B3
:10A8C0001946084A0B469B000B449B001344103367
:10A8D00000221A7000BF02B0704700BF943F0020F2
:10A8E0009C3F00206C3F002008B51A4B1B78072BBB
:10A8F0002CD801A252F823F019A902004DA9020098
:10A900004DA9020025A9020031A902003DA90200BB
:10A910003DA9020045A90200FFF730FE0D4B0122C0
:10A920001A7014E0FFF784FF0A4B02221A700EE03F
:10A93000FFF796FF074B06221A7008E0054B072227
:10A940001A7004E0034B01221A7000E000BF00BF40
:10A9500008BD00BF9C3F002000B587B0019000916A
:10A9600048F20E630593019B002B05D0624B002239
:10A970005A604FF40643BAE0009B1B79032B00F2A8
:10A98000A98001A252F823F099A90200A7A9020008
:10A9900035AA020055AA0200009B01221A71FFF796
:10A9A00097FA059099E000238DF813300023ADF855
:10A9B00010302BE0BDF81020504913469B00134483
:10A9C0009B000B441B78022B1BD1BDF810204B4978
:10A9D00013469B0013449B000B4400221A70012372
:10A9E0008DF81330BDF81020444913469B001344E2
:10A9F0009B000B4404331B681846FFF781FA05904F
:10AA000008E0BDF810300133ADF81030BDF810305B
:10AA1000012BCFD99DF8133083F00103DBB2002B5B
:10AA20005AD0354B01221A70334B00225A6041F63E
:10AA30001D535CE0009B00221A71314B02229A8068
:10AA40002F4B1B681946002301222E4801F080FC81
:10AA5000059042E0009B00221A712B4B5B88ADF8F9
:10AA60000E30274B1B680293BDF80E202349134676
:10AA70009B0013449B000B4404331B68204A136063
:10AA8000BDF80E201D4913469B0013449B000B4448
:10AA90000433029A1A60BDF80E20194B98881749A2
:10AAA00013469B0013449B000B44083302461A8054
:10AAB000134B02229A80BDF80E20104913469B00CA
:10AAC00013449B000B4400221A700298FFF718FAF7
:10AAD000059002E000BF00E000BF059B002B05D001
:10AAE000054B00225A6048F20D6300E0002318462F
:10AAF00007B05DF804FB00BF3C3F00206C3F002026
:10AB0000943F0020503700209C3F002000B587B0C4
:10AB100001900091009B9B8A1A4613469B001344A8
:10AB20009B003B4A13440493019B002B06D00099E1
:10AB30000498FFF7AFF94FF4064364E0049B5A68AA
:10AB4000049B1B899B0013440393009B9B7D062B56
:10AB50004DD801A252F823F09DAB0200C1AB020018
:10AB6000A9AB0200B5AB020075AB0200CDAB020091
:10AB7000E7AB0200274B00225A60009B9B69254AE5
:10AB8000136025492348FFF7BFFA034683F001030A
:10AB9000DBB2002B02D048F2096334E0039900983D
:10ABA000FFF7DAFB059026E003990098FFF7F2FB28
:10ABB000059020E003990098FFF7BCFC05901AE08F
:10ABC00003990098FFF70EFC059014E0009B062205
:10ABD0009A75104B5B68104A128811461846FFF7A9
:10ABE00029FC059007E041F61D53059303E048F268
:10ABF0000E63059300BF059B002B03D000990498BA
:10AC0000FFF748F9059B184607B05DF804FB00BF45
:10AC10006C3F0020B43F0020C03F002000B585B04D
:10AC200001900091019B002B02D04FF4064329E0D4
:10AC3000009B1B79022B1BD0022B1DDC002B02D0AA
:10AC4000012B08D018E0009B02221A710098FFF730
:10AC50001DFC039015E00098FFF748FC0390039B50
:10AC600048F2096293420BD141F61D53039307E06A
:10AC700041F61D53039304E048F20E63039300E092
:10AC800000BF039B184605B05DF804FB00B585B016
:10AC90000190019B002B02D04FF406433DE0214B75
:10ACA0001B7B002B03D01F4B00221A7301E0FFF720
:10ACB0001BFE1C4B1B78013B062B29D801A252F826
:10ACC00023F000BFE1AC0200E9AC0200F1AC0200ED
:10ACD000F9AC020011AD020001AD020009AD0200A5
:10ACE000FFF786FD039017E0FFF73EFD039013E0AA
:10ACF000FFF710FD03900FE0FFF7D6FC03900BE089
:10AD0000FFF74EFD039007E0FFF764FD039003E0BB
:10AD100048F20E63039300BF039B184605B05DF82D
:10AD200004FB00BF9C3F002000B589B00190404B60
:10AD30001B68002B05D13F48FFF7D6FA03463C4A73
:10AD400013603B4B1B68002B04D13B494FF4B460AC
:10AD500007F084FF364B1B681B78013B052B2CD872
:10AD600001A252F823F000BF81AD020091AD0200B4
:10AD700091AD0200A1AD0200A1AD0200B1AD020093
:10AD80002B4B1B6819460198FFF7E6FD019018E070
:10AD9000274B1B6819460198FFF7B8FE019010E099
:10ADA000234B1B6819460198FFF738FF019008E014
:10ADB0000198FFF76BFF019003E048F20E630193E7
:10ADC00000BF019B002B2BD003AB00221A605A60FE
:10ADD0009A60DA601A61019B41F61D52934201D0DC
:10ADE000019B00E000230493114B1B6803AA11464A
:10ADF0001846FEF707FF03AB1846FEF7E3FE0C4BC1
:10AE000000221A60002301930A48FFF77DFAFFF73A
:10AE100089FA034683F00103DBB2002B02D186E7F7
:10AE200000BF00E000BF00BF09B05DF804FB00BF39
:10AE3000C43F0020C83F0020A81E040008B501211F
:10AE4000054800F04EFC0346002B02D10020FFF71E
:10AE50006BFF00BF08BD00BF443F002000B583B0BA
:10AE60000190019B5B681846FFF75EFF00BF03B0CF
:10AE70005DF804FB00B58BB00390029101928DF850
:10AE800003300023ADF824300023ADF82630534BB7
:10AE90001B78DBB283F00103DBB2002B02D048F257
:10AEA000016397E0029B002B02D148F2046391E01A
:10AEB000029B1B884FF6FF72934203D0029B5B8874
:10AEC000002B02D148F2036384E0029B5B681846C2
:10AED000FEF76AFE034683F00103DBB2002B02D0CB
:10AEE00048F2026376E0019B002B11D1029B9B6824
:10AEF000ADF826300DF11A02BDF82630114618467D
:10AF0000FFF712F80890089B002B09D0089B61E01E
:10AF1000019B1B88ADF81A30019B5B88ADF8263089
:10AF200005AB1846FFF7BCF90790079B002B0AD129
:10AF3000BDF81A20BDF8263011461846FFF75EF816
:10AF400048F2076346E0079B9DF803201A70079BB1
:10AF500000229A75BDF81A20079B9A82029B5A68B4
:10AF6000079B1A61FFF772F80246079BDA60029BA3
:10AF70001A88079B1A81029B5A88079B9A80079B15
:10AF8000BDF82620DA809DF80330032B06D1079BFD
:10AF900004229A75039B1A68079B9A61079BBDF868
:10AFA00024205A8105AB1846FFF790F9039B002B2C
:10AFB0000DD0039B00225A60079BDA68039B1A603E
:10AFC000039B00229A72064B1A89039B1A81FFF792
:10AFD00035FF002318460BB05DF804FB3C3F002012
:10AFE0009C3F002000B585B001900091019B002B93
:10AFF00002D0009B002B02D148F204632AE00DF13D
:10B000000A0319460198FFF77FF80346002B1FD06B
:10B01000019B5B680393BDF80A301A4613469B00F8
:10B0200013449B0008330D4A13440433012118468E
:10B0300000F06FFB009B039A1A60019B5B6803F1B1
:10B040000C02009B5A60019B01229A72002301E0CE
:10B0500048F20963184605B05DF804FB6C3F002018
:10B0600000B585B00190019B002B02D148F204632A
:10B070003BE00DF10A0319460198FFF745F8034636
:10B08000002B2ED0BDF80A3019461A4A0B469B00F9
:10B090000B449B0013440C331B68002B1DD0019BF9
:10B0A0009B7A002B19D0BDF80A301A461149134675
:10B0B0009B0013449B000B440C331B68591E0D4826
:10B0C00013469B0013449B0003440C331960019BFF
:10B0D00000229A720023039306E048F2056303936B
:10B0E00002E048F209630393039B184605B05DF83C
:10B0F00004FB00BF6C3F002000B583B001900091BD
:10B100000223002200990198FFF7B4FE0346184677
:10B1100003B05DF804FB00B583B001900091019B82
:10B12000002B02D148F2046306E0032300220099B9
:10B130000198FFF79FFE0346184603B05DF804FB35
:10B1400000B585B00346ADF806301A4B1B78DBB26C
:10B1500083F00103DBB2002B02D048F2016324E04C
:10B16000BDF806304FF6FF72934202D148F20363F6
:10B170001BE002AB1846FFF793F80390039B002BEC
:10B1800002D148F2076310E0039B05221A70039B6B
:10B1900001221A71039BBDF80620DA8002AB184623
:10B1A000FFF794F8FFF74AFE0023184605B05DF854
:10B1B00004FB00BF3C3F002000B585B00292019324
:10B1C0000346ADF80E300B46ADF80C3003A90DF177
:10B1D0000E00019B029AFEF7F1FF0346184605B0E8
:10B1E0005DF804FB00B585B0034602910192ADF80D
:10B1F0000E300DF10E01019B029A0020FEF7DEFFDA
:10B200000346184605B05DF804FB00B585B003465B
:10B2100002910192ADF80E300DF10E00019B029AE1
:10B220000021FEF7CBFF0346184605B05DF804FB8E
:10B2300082B001900091019B002B02D0009B002B5B
:10B2400002D148F2046304E0019B1A68009B1A6073
:10B250000023184602B0704786B001900091019B10
:10B2600053E8011F8AB2D88902449889824228BFD4
:10B27000121A1889824202BFBFF32F8F002307E002
:10B28000C2EA010243E801200028E9D14FF001039E
:10B290008DF80F30059002910492029A009B1A607B
:10B2A0009DF80F30DBB2184606B0704784B00190AD
:10B2B000019951E8013FC3EA034341E80132002A02
:10B2C000F7D10392029300BF04B0704786B001909B
:10B2D0000091019B53E8021F1FFAA1F2D888824215
:10B2E00002BFBFF32F8F00230DE0D8890244988955
:10B2F000824228BF121AC1EA024243E80220002813
:10B30000E8D14FF001038DF80F30059002910492BF
:10B31000029A009B1A609DF80F30DBB2184606B007
:10B32000704784B00190019951E8023FC3EA23437A
:10B3300041E80232002AF7D10392029300BF04B021
:10B34000704784B00390029111461A460B46ADF83F
:10B3500006301346ADF80430029B002B01D10E23BA
:10B360001FE0BDF80630BDF80420B3FBF2F101FB8D
:10B3700002F29B1A9BB2002B01D0092311E0039B20
:10B38000029A1A60039B00225A60039B00229A6073
:10B39000039BBDF806209A81039BBDF80420DA8147
:10B3A0000023184604B0704700B585B001900091A5
:10B3B000009B19460198FFF74FFF0346002B07D06B
:10B3C000019B1B68009A128813440393039B00E0BF
:10B3D0000023184605B05DF804FB00B583B001906A
:10B3E0000091009B1A88009B5B889A4204D10198C7
:10B3F000FFF75CFF012300E00023184603B05DF86F
:10B4000004FB00B585B001900091009B194601989E
:10B41000FFF75CFF0346002B07D0019B1B68009AD7
:10B42000528813440393039B00E00023184605B0A1
:10B430005DF804FB00B583B001900091009B1A8871
:10B44000009B5B889A4204D10198FFF76AFF0123B1
:10B4500000E00023184603B05DF804FB00B585B09A
:10B4600001900091009B5B099B00019A1A44009B8C
:10B4700003F01F03012101FA03F31946104600F0FF
:10B48000E8F8039000BF05B05DF804FB00B583B099
:10B4900001900091009B5B099B00019A1A44009B5C
:10B4A00003F01F03012101FA03F31946104600F0CF
:10B4B000B8F80246009B03F01F0322FA03F303F0DF
:10B4C0000103002B14BF01230023DBB2184603B095
:10B4D0005DF804FB00B585B001900091009B5B090D
:10B4E0009B00019A1A44009B03F01F03012101FAFB
:10B4F00003F3DB431946104600F0DBF8039000BF6E
:10B5000005B05DF804FB82B001900091009B5B09DF
:10B510009B00019A13441A68009B03F01F0322FA50
:10B5200003F303F00103002B14BF01230023DBB25C
:10B53000184602B0704700B58DB00190009100230D
:10B540000B934BE00B9B9B00019A13441B68DB435E
:10B550000793079B93FAA3F30693069B0893089B14
:10B56000002B01D1202303E0089BB3FA83F3DBB265
:10B570000A932BE00B9B5B010A9A13440993099AE7
:10B58000009B9A4226D209990198FFF77FFF034654
:10B5900083F00103DBB2002B01D0099B26E00B9B5B
:10B5A0009B00019A13441B68DB430493049B93FAAA
:10B5B000A3F30393039B0593059B002B01D1202349
:10B5C00003E0059BB3FA83F3DBB20A930A9B1F2BBC
:10B5D000D0D900E000BF0B9B01330B93009B013BD4
:10B5E0005B0901330B9A9A42ACD3009B18460DB00D
:10B5F0005DF804FB10B487B001900091019B009AA4
:10B6000053E8004F104643E8000191F0000FF7D1D6
:10B61000059404900391059B184607B05DF8044B10
:10B62000704710B487B001900091019B009A53E8D5
:10B63000004F44EA020043E8000191F0000FF6D108
:10B64000059404900391059B184607B05DF8044BE0
:10B65000704710B487B001900091019B009A53E8A5
:10B66000004F44EA020043E8000191F0000FF6D1D8
:10B67000059404900391049B184607B05DF8044BB1
:10B68000704710B487B001900091019B009A53E875
:10B69000004F04EA020043E8000191F0000FF6D1E8
:10B6A000059404900391059B184607B05DF8044B80
:10B6B000704710B487B001900091019B009A53E845
:10B6C000004F04EA020043E8000191F0000FF6D1B8
:10B6D000059404900391049B184607B05DF8044B51
:10B6E000704710B487B001900091019B009A53E815
:10B6F000004F04EB020043E8000191F0000FF6D187
:10B70000059404900391059B184607B05DF8044B1F
:10B71000704710B487B001900091019B009A53E8E4
:10B72000004F04EB020043E8000191F0000FF6D156
:10B73000059404900391049B184607B05DF8044BF0
:10B74000704710B487B001900091019B009A53E8B4
:10B75000004FA4EB020043E8000191F0000FF6D186
:10B76000059404900391049B184607B05DF8044BC0
:10B77000704700B583B0019001210198FFF751FF98
:10B780000346184603B05DF804FB00B583B0019092
:10B7900001210198FFF75DFF0346184603B05DF8ED
:10B7A00004FB00B583B0019000210198FFF769FF09
:10B7B0000346184603B05DF804FB00B583B0019062
:10B7C00000210198FFF775FF0346184603B05DF8A6
:10B7D00004FB000000B583B001900B468DF80330E8
:10B7E000019B002B03D10849E82007F037FA019BA1
:10B7F000DA689DF803300199098A01FB03F31344C9
:10B80000184603B05DF804FB0C1F040000B583B0BC
:10B8100001900091019B002B03D10849F52007F00E
:10B820001DFA009B019AD2689B1A019A128AB3FBF7
:10B83000F2F3DBB2184603B05DF804FB0C1F040002
:10B8400000B585B00190019B002B01D10E234CE087
:10B85000019B1B68002B03D12649FF2007F0FEF94E
:10B86000019B5B68002B04D122494FF4807007F0E4
:10B87000F5F9019B9B68002B04D11E4940F2011091
:10B8800007F0ECF9019BDB68002B04D119494FF458
:10B89000817007F0E3F9019B1B8A002B04D1154945
:10B8A00040F2031007F0DAF9019B9A68019B5B688C
:10B8B000D31A8DF80F30019B1B68019A52681A60E9
:10B8C00007E0019B1A681368591C11609DF80F204E
:10B8D0001A709DF80F305A1E8DF80F20002BF0D1F2
:10B8E000019B1B6800221A710023184605B05DF801
:10B8F00004FB00BF0C1F040000B585B00190019B44
:10B90000002B04D11F494FF4927007F0A7F90023D0
:10B91000039300238DF80A300DF10A031846FDF752
:10B9200009FD019B1B681A68019B5B689A421FD93D
:10B93000019B1B681A68013A1A601B681B7819463C
:10B940000198FFF747FF0390019B9A68019B1B68D2
:10B950001B68D31A8DF80B30019B1B681B799DF86F
:10B960000B209A4204D9019B1B689DF80B201A7189
:10B970009DF80A301846FDF7F3FC039B184605B006
:10B980005DF804FB0C1F040010B584B00190009119
:10B99000019B002B04D1154940F2471007F05EF9D6
:10B9A000009B002B04D111494FF4A47007F056F905
:10B9B000009B039300238DF80B300DF10B03184609
:10B9C000FDF7B8FC019B1B681C68621C1A60039998
:10B9D0000198FFF71BFF034623709DF80B301846B4
:10B9E000FDF7BEFC00BF04B010BD00BF0C1F04007B
:10B9F00000B583B00190019B002B03D10C4931208D
:10BA000007F02CF9019B9B68002B0CD0019B5B6914
:10BA1000019A1069019A1168019A92689847019BEE
:10BA200000229A6000E000BF03B05DF804FB00BF95
:10BA3000681F04000EB400B584B00190019B002B78
:10BA400003D11849422007F009F9019B5B69002BDB
:10BA500003D11449432007F001F9019B1B68002B17
:10BA600003D11049442007F0F9F8019B5B68002BD3
:10BA700003D10C49452007F0F1F8059B002B0AD0B3
:10BA80000023039306AB039303AB1A460599019871
:10BA900000F0B8F900E000BF04B05DF804EB03B0BB
:10BAA000704700BF681F040000B583B001900B46CB
:10BAB0008DF803309DF803300A2B03D10D21019836
:10BAC000FFF7F2FF019B1A68019B9B68581C0199C4
:10BAD000886013449DF803201A70019B9A68019BAB
:10BAE0005B689A4202D30198FFF782FF00BF03B060
:10BAF0005DF804FB00B587B00390029101920093BA
:10BB000000230593009B03F00103002B24D00BE0DE
:10BB1000029B01330293059B013305939DF813307B
:10BB200019460398FFF7C0FF029B1B788DF813306E
:10BB30009DF81330002BEBD106E0019B013B0193F4
:10BB400020210398FFF7B0FF019A059B9A422ED956
:10BB5000019B002BF1D12AE0029B002B0BD0029815
:10BB600015F0BCFD059006E0019B013B01932021EF
:10BB70000398FFF799FF019A059B9A420FD9019B01
:10BB8000002BF1D10BE0029B01330293059B0133A3
:10BB900005939DF8133019460398FFF785FF029B24
:10BBA0001B788DF813309DF81330002BEBD100BFBC
:10BBB00007B05DF804FB000000B589B00390029166
:10BBC00001920093029B07930123069307E0079AD3
:10BBD000019BB2FBF3F30793069B01330693079A8D
:10BBE000019B9A42F3D2009A069B9A4201D9009B8C
:10BBF00006930B9B03F00103002B22D10A9B002B21
:10BC00001FD00B9B03F00203002B06D0009B002BE0
:10BC100003D130238DF8173002E020238DF8173040
:10BC200008E00A9B013B0A939DF8173019460398D8
:10BC3000FFF73AFF0A9B002B03D0069A0A9B9A4211
:10BC4000EFD301230793009B012B03D9009B013BFA
:10BC5000009309E0029A079BB2FBF3F30493049A62
:10BC6000019B9A4200D205E0079B019A02FB03F375
:10BC70000793E8E7029A079BB2FBF3F30493049B54
:10BC8000079A02FB03F3029AD31A0293154A049B04
:10BC900013441B7819460398FFF706FF079A019B88
:10BCA000B2FBF3F30793079B002BE3D10B9B03F04D
:10BCB0000103002B11D00A9B002B0ED006E00A9B3B
:10BCC000013B0A9320210398FFF7EEFE0A9B002B0D
:10BCD00003D0069A0A9B9A42F1D300BF09B05DF8DF
:10BCE00004FB00BF1020040000B589B0059004914A
:10BCF00003920293049B002BB8BF5B42069301237F
:10BD0000079307E0039B069A92FBF3F30693079BC6
:10BD100001330793039B069A9A42F3DA029A079B30
:10BD20009A4201D9029B07930A9B002B0AD0049BDD
:10BD3000002B04DB0B9B03F00403002B02D00A9BB7
:10BD4000013B0A930B9B03F00203002B02D0029BE2
:10BD5000002B16D00B9B03F00103002B11D10A9B83
:10BD6000002B0ED006E00A9B013B0A932021059888
:10BD7000FFF79AFE0A9B002B03D0079A0A9B9A4270
:10BD8000F1D3049B002B07DA049B5B4204932D2123
:10BD90000598FFF789FE08E00B9B03F00403002BD6
:10BDA00003D02B210598FFF77FFE0B9B03F00203C6
:10BDB000002B19D00B9B03F00103002B14D1029B25
:10BDC000002B11D10A9B002B0ED006E00A9B013BF1
:10BDD0000A9330210598FFF767FE0A9B002B03D0DA
:10BDE000079A0A9B9A42F1D304990B9B01930A9BF1
:10BDF0000093029B039A0598FFF7DEFE00BF09B08F
:10BE00005DF804FB00B58FB0059004910392059B8B
:10BE1000002B04D1AD4940F2522006F01FFF059BD4
:10BE20005B69002B04D1A9494FF4157006F016FF89
:10BE3000059B1B68002B04D1A44940F2552006F055
:10BE40000DFF059B5B68002B04D1A04940F25620F2
:10BE500006F004FF049B002B00F09381049B1B78E9
:10BE60008DF83730049B013304939DF83730002B55
:10BE700000F07E819DF83730252B40F06D81002346
:10BE80000A9301230C93049B1B788DF837309DF89F
:10BE90003730302B0DD0302B1BDC2B2B11D02D2B22
:10BEA00017D10A9B43F001030A93049B01330493C7
:10BEB00012E00A9B43F002030A93049B01330493AC
:10BEC0000AE00A9B43F004030A93049B01330493A2
:10BED00002E000230C9300BF0C9B002BD3D1002366
:10BEE00009939DF837302A2B0CD1039B1B68191D31
:10BEF000039A11601B68099A13440993049B013348
:10BF000004931AE0049B1B788DF837309DF8373086
:10BF10002F2B12D99DF83730392B0ED8049B0133C3
:10BF20000493099A13469B0013445B001A469DF83C
:10BF300037301344303B0993D3E700230B93049B22
:10BF40001B788DF837309DF837302E2B1DD1049B90
:10BF500001330493049B1B788DF837309DF83730FC
:10BF60002F2B12D99DF83730392B0ED8049B013373
:10BF700004930B9A13469B0013445B001A469DF8EA
:10BF800037301344303B0B93E4E7049B1B788DF868
:10BF900037309DF837306C2B03D09DF83730682B45
:10BFA00007D1049B01330493049B1B788DF8373031
:10BFB000EFE79DF83730252B00F0C480252BC0F229
:10BFC000C680782B00F3C380582BC0F2C080583B4A
:10BFD000202B00F2BC8001A252F823F0D1C0020055
:10BFE0004FC102004FC102004FC102004FC1020009
:10BFF0004FC102004FC102004FC102004FC10200F9
:10C000004FC102004FC1020061C0020083C00200A4
:10C010004FC102004FC102004FC102004FC10200D8
:10C0200083C002004FC102004FC102004FC1020095
:10C030004FC102004FC102004FC1020011C10200F6
:10C040004FC102004FC10200F5C002004FC1020003
:10C05000A7C002004FC102004FC10200D1C00200C0
:10C06000039B1B68191D039A11601B680C930C9BA2
:10C070008DF81F309DF81F3019460598FFF714FD05
:10C0800066E0039B1B68191D039A11601B680C93E3
:10C090000A9B0193099B00930B9B0A220C9905981C
:10C0A000FFF722FE54E0039B1B68191D039A1160E1
:10C0B0001B680C930C990A9B0193099B00930B9BA3
:10C0C0000A220598FFF778FD42E000BFB81F040080
:10C0D000039B1B68191D039A11601B680C930C9934
:10C0E0000A9B0193099B00930B9B10220598FFF775
:10C0F00063FD2DE0039B1B68191D039A11601B68EB
:10C1000008930A9B099A08990598FFF7F3FC1FE02A
:10C11000039B1B68191D039A11601B680C93302147
:10C120000598FFF7C1FC78210598FFF7BDFC0C9935
:10C130000023019308230093082310220598FFF79A
:10C140003BFD05E025210598FFF7AEFC00E000BFB0
:10C15000049B0133049305E09DF837301946059898
:10C16000FFF7A2FC049B1B78002B7FF477AE00E066
:10C1700000BF059B1B7B002B04D00598FFF738FC04
:10C1800000E000BF0FB05DF804FB00BF10B586B043
:10C190000590049103920293059B002B10D1604AF5
:10C1A000604BD31ADB081B0443F001005E4A5F4971
:10C1B0000E2300930B465E49FBF7D5FE0E23ABE042
:10C1C000039B002B10D1564A564BD31ADB081B0495
:10C1D00043F00100574A55490E2300930B4654493A
:10C1E000FBF7C1FE0E2397E0059B1B68002B10D1C7
:10C1F0004B4A4C4BD31ADB081B0443F001004E4A58
:10C200004A49082300930B464949FBF7ACFE082333
:10C2100082E0029B002B10D1414A424BD31ADB082B
:10C220001B0443F00100454A4049092300930B4693
:10C230003F49FBF798FE09236EE0059B5B685A684F
:10C24000029BB3FBF2F101FB02F29B1A002B10D010
:10C25000334A344BD31ADB081B0443F00100384A3D
:10C260003249092300930B463149FBF77CFE092331
:10C2700052E0049800F01EF90346002B10D1284A22
:10C28000284BD31ADB081B0443F001002D4A274931
:10C29000102300930B462649FBF765FE10233BE075
:10C2A000039B184600F006F90346002B10D11C4AE8
:10C2B0001C4BD31ADB081B0443F00100224A1B4924
:10C2C000102300930B461A49FBF74DFE102323E081
:10C2D000029A0499059800F0D3F80346002B10D178
:10C2E0000F4A104BD31ADB081B0443F00100174A16
:10C2F0000E49102300930B460D49FBF734FE102323
:10C300000AE0059B1B68DC68089B0093029B039A6C
:10C3100004990598A0470346184606B010BD00BF13
:10C3200074180400FC17040030200400D421040019
:10C3300038200400C42004006C2004008020040085
:10C34000CC200400F8200400102104003421040053
:10C3500010B586B00590049103920293059B002BC3
:10C3600010D13E4A3E4BD31ADB081B0443F00100B8
:10C370003C4A3D490E2300930B463C49FBF7F3FD35
:10C380000E2368E0059B1B68002B10D1334A344B09
:10C39000D31ADB081B0443F00100354A3249082355
:10C3A00000930B463149FBF7DEFD082353E0039B66
:10C3B000002B10D1294A2A4BD31ADB081B0443F067
:10C3C00001002C4A2849092300930B462749FBF713
:10C3D000CAFD09233FE00499059800F078F8034668
:10C3E000002B10D11D4A1E4BD31ADB081B0443F04F
:10C3F0000100214A1C49102300930B461B49FBF7FF
:10C40000B2FD102327E0059B5B681B68039A02FBC3
:10C4100003F31A460499059800F032F80346002BFE
:10C4200010D10E4A0E4BD31ADB081B0443F0010057
:10C43000124A0D49102300930B460C49FBF793FD5C
:10C44000102308E0059B1B681C69029B039A049952
:10C450000598A0470346184606B010BD741804009E
:10C46000FC17040030200400E821040038200400F8
:10C470006C200400802004005C210400842104005E
:10C4800084B0039002910192039BDB68029A9A4266
:10C4900009D3029A019B13445A1E039B1B699A42BB
:10C4A00001D8012300E0002303F00103DBB21846AA
:10C4B00004B0704782B00190019B03F00303002B8E
:10C4C0000CBF01230023DBB2184602B0704782B0D4
:10C4D00001900091019B5B681B685A1E009B1340F2
:10C4E000002B0CBF01230023DBB2184602B07047BB
:10C4F00029DF704700BF184628DF704700BF184685
:10C5000000B589B001900091019B1B689B68002BCE
:10C5100035D002AB00221A605A609A60DA601A6164
:10C520005A61009B0393019B9B680793019B1B79B6
:10C53000002B02D0012B0DD01AE001238DF808301A
:10C54000019B1B690493019BDB680593019B5B695D
:10C5500006930DE002238DF80830019BDB684FF451
:10C56000805202FB03F30493019B5B69069300BFB7
:10C57000019B1B689B6802AA1046984700E000BF19
:10C5800009B05DF804FB00B587B00190019B5A69C2
:10C59000019B9B69D31AB3F5805F28BF4FF480538A
:10C5A00005930422059BB3FBF2F3012B38BF012353
:10C5B0000593019B1A69019B9B6913440493019B9A
:10C5C000DB681A46019B9B6913440393059A039900
:10C5D0000498FFF78DFF0346184607B05DF804FB8B
:10C5E00000B583B00190019BDA68019B1B6913447D
:10C5F0001846FFF781FF0346184603B05DF804FBB9
:10C6000008B5034B03491846FEF714FF00BF08BDE9
:10C61000CC3F0020F43F002008B5084B08491846DD
:10C62000FEF7EFFE0346074A1360064B1B68002B1C
:10C6300014BF01230023DBB2184608BDCC3F002005
:10C64000F43F0020F03F002000B583B02A4B1B7A56
:10C65000002B0BD1FFF7E0FF034683F00103DBB2B1
:10C66000002B03D0244B00225A6042E0224B0222CE
:10C670001A72224B1B681B79002B02D0012B07D0AA
:10C680000DE01E4B1B681846FFF77DFF019009E087
:10C690001A4B1B681846FFF7A3FF019002E0032323
:10C6A000019300BF019B002B03D0019B112B0CD0E9
:10C6B0000FE0114B1B7C83F00103DBB2002B17D082
:10C6C0000021022000F06EF812E00B4B01221A72DA
:10C6D0000FE00A4B1B6803211846FFF711FF064BBA
:10C6E00000221A72044B00225A60FFF789FF00E013
:10C6F00000BF03B05DF804FBDC3F0020F03F0020EA
:10C7000084B001901B4B0022DA60019B1B79002B47
:10C7100002D0012B19D028E0019B5A69019B9B692B
:10C72000D31AB3F5805F28BF4FF480530393019B66
:10C730009A69039B1A44019B9A61019B9A69019B28
:10C740005B699A420ED1012310E0019B1B695A1CC0
:10C75000019B1A61019B1A69019B5B699A4203D193
:10C76000012303E000BF00E000BF0023184604B02F
:10C77000704700BFDC3F002082B00190084BDB68AF
:10C780000133074AD360064BDB68082B04D9044BFE
:10C790000022DA60012300E00023184602B070474F
:10C7A000DC3F002000B585B001900091019B022B79
:10C7B00002D0019B032B48D1274B1B7A022B05D0BB
:10C7C000022B35DC002B42D0012B31E000238DF809
:10C7D0000F30019B022B03D0019B032B09D011E0EA
:10C7E0001E4B1B681846FFF78BFF03468DF80F3072
:10C7F00008E01A4B1B681846FFF7BEFF03468DF88A
:10C800000F3000BF9DF80F30002B10D0124B0022CC
:10C810001A72124B1A68019B022B01D1002300E00F
:10C820000D2319461046FFF76BFEFFF7E9FE00BF28
:10C83000094B5B7C83F00103DBB2002B02D0FFF7D6
:10C8400003FF05E013F0A6FC02E000BF00E000BF1C
:10C8500005B05DF804FB00BFDC3F0020F03F002086
:10C8600082B0034600918DF80730064B01225A74BE
:10C87000044B1B7A002B0CBF01230023DBB21846AC
:10C8800002B07047DC3F002000B583B00346009142
:10C890008DF807309DF80730012B03D09DF8073045
:10C8A000032B0DD1084B00225A749DF80730012B41
:10C8B0000CBF01230023DAB2034B1A74FFF7C4FE46
:10C8C00000BF03B05DF804FBDC3F002000B583B07F
:10C8D00001900198FEF7B4FF0346184603B05DF8D7
:10C8E00004FB00B58BB001900091019B1B8A043BB7
:10C8F0000793009A079B1344DA1C079BB2FBF3F3E0
:10C900008DF81B300198FEF7F7FF0590059B002B73
:10C9100001D1002338E0059B00221A71059B0122FA
:10C920005A71079B9AB2059BDA80059B09939DF883
:10C930001B30013B0493099B019A1A600023089362
:10C940001DE00198FEF7D8FF0390039B002B0ED04B
:10C95000059B5B790133DAB2059B5A71099B039AF7
:10C960001A60039B019A1A60039B099304E00598DF
:10C9700000F00EF8002307E0089B01330893089AA3
:10C98000049B9A42DDD3059B18460BB05DF804FB6F
:10C9900000B58BB00190019B0793079B5B798DF8E5
:10C9A0001B30019B08939DF81B30013B059300232E
:10C9B000099305E0089B1B680893099B01330993C1
:10C9C000099A059B9A42F5D3089B1B680493019B27
:10C9D0000893002309930BE0089B1B6803930899B5
:10C9E0000498FEF7D1FF039B0893099B0133099339
:10C9F0009DF81B30099A9A42EED300BF00BF0BB0DE
:10CA00005DF804FB00B585B00190019B0393039B87
:10CA1000043301211846FEF77CFE00BF05B05DF827
:10CA200004FB00B587B00190019B0593059B04337F
:10CA300001211846FEF785FE0346039303AB0493DA
:10CA4000049B1B78002B02D10198FFF7A1FF00BFC8
:10CA500007B05DF804FB000000B591B003900291AF
:10CA600001920093039B002B03D14349B62006F0AB
:10CA7000F5F8039B0993039B0F93099BDB881A46E8
:10CA8000099B5B7902FB03F3043B0893009A089B24
:10CA90009A4203D33849C42006F0E0F8099BDB88AA
:10CAA0000793009B1A1D079BB2FBF3F30E93009BA9
:10CAB0000433079AB3FBF2F2079901FB02F29B1AC7
:10CAC0000D93019B1A68009B1344089A9A4203D263
:10CAD000089A009BD31A01E0019B1B680C93019BF1
